{
  "_format": "hh-sol-artifact-1",
  "contractName": "VRFCoordinatorV2Mock",
  "sourceName": "contracts/mocks/VRFCoordinatorV2Mock.sol",
  "abi": [
    {
      "anonymous": false,
      "inputs": [
        {
          "indexed": true,
          "internalType": "uint64",
          "name": "subId",
          "type": "uint64"
        },
        {
          "indexed": false,
          "internalType": "address",
          "name": "consumer",
          "type": "address"
        }
      ],
      "name": "ConsumerAdded",
      "type": "event"
    },
    {
      "anonymous": false,
      "inputs": [
        {
          "indexed": true,
          "internalType": "uint256",
          "name": "requestId",
          "type": "uint256"
        },
        {
          "indexed": false,
          "internalType": "uint256[]",
          "name": "randomWords",
          "type": "uint256[]"
        }
      ],
      "name": "RandomWordsFulfilled",
      "type": "event"
    },
    {
      "anonymous": false,
      "inputs": [
        {
          "indexed": true,
          "internalType": "bytes32",
          "name": "keyHash",
          "type": "bytes32"
        },
        {
          "indexed": false,
          "internalType": "uint256",
          "name": "requestId",
          "type": "uint256"
        },
        {
          "indexed": false,
          "internalType": "uint256",
          "name": "preSeed",
          "type": "uint256"
        },
        {
          "indexed": true,
          "internalType": "uint64",
          "name": "subId",
          "type": "uint64"
        },
        {
          "indexed": false,
          "internalType": "uint16",
          "name": "minimumRequestConfirmations",
          "type": "uint16"
        },
        {
          "indexed": false,
          "internalType": "uint32",
          "name": "callbackGasLimit",
          "type": "uint32"
        },
        {
          "indexed": false,
          "internalType": "uint32",
          "name": "numWords",
          "type": "uint32"
        },
        {
          "indexed": true,
          "internalType": "address",
          "name": "sender",
          "type": "address"
        }
      ],
      "name": "RandomWordsRequested",
      "type": "event"
    },
    {
      "anonymous": false,
      "inputs": [
        {
          "indexed": true,
          "internalType": "uint64",
          "name": "subId",
          "type": "uint64"
        },
        {
          "indexed": false,
          "internalType": "address",
          "name": "owner",
          "type": "address"
        }
      ],
      "name": "SubscriptionCreated",
      "type": "event"
    },
    {
      "anonymous": false,
      "inputs": [
        {
          "indexed": true,
          "internalType": "uint64",
          "name": "subId",
          "type": "uint64"
        },
        {
          "indexed": false,
          "internalType": "uint256",
          "name": "amount",
          "type": "uint256"
        }
      ],
      "name": "SubscriptionFunded",
      "type": "event"
    },
    {
      "inputs": [],
      "name": "BASE_FEE",
      "outputs": [
        {
          "internalType": "uint96",
          "name": "",
          "type": "uint96"
        }
      ],
      "stateMutability": "view",
      "type": "function"
    },
    {
      "inputs": [],
      "name": "GAS_PRICE_LINK",
      "outputs": [
        {
          "internalType": "uint96",
          "name": "",
          "type": "uint96"
        }
      ],
      "stateMutability": "view",
      "type": "function"
    },
    {
      "inputs": [
        {
          "internalType": "uint64",
          "name": "subId",
          "type": "uint64"
        },
        {
          "internalType": "address",
          "name": "consumer",
          "type": "address"
        }
      ],
      "name": "addConsumer",
      "outputs": [],
      "stateMutability": "nonpayable",
      "type": "function"
    },
    {
      "inputs": [
        {
          "internalType": "uint64",
          "name": "subId",
          "type": "uint64"
        },
        {
          "internalType": "address",
          "name": "consumer",
          "type": "address"
        }
      ],
      "name": "consumerIsAdded",
      "outputs": [
        {
          "internalType": "bool",
          "name": "",
          "type": "bool"
        }
      ],
      "stateMutability": "view",
      "type": "function"
    },
    {
      "inputs": [],
      "name": "createSubscription",
      "outputs": [
        {
          "internalType": "uint64",
          "name": "subId",
          "type": "uint64"
        }
      ],
      "stateMutability": "nonpayable",
      "type": "function"
    },
    {
      "inputs": [],
      "name": "currentSubscriptionId",
      "outputs": [
        {
          "internalType": "uint64",
          "name": "",
          "type": "uint64"
        }
      ],
      "stateMutability": "view",
      "type": "function"
    },
    {
      "inputs": [
        {
          "internalType": "uint256",
          "name": "requestId",
          "type": "uint256"
        },
        {
          "internalType": "address",
          "name": "consumer",
          "type": "address"
        }
      ],
      "name": "fulfillRandomWords",
      "outputs": [],
      "stateMutability": "nonpayable",
      "type": "function"
    },
    {
      "inputs": [
        {
          "internalType": "uint256",
          "name": "requestId",
          "type": "uint256"
        },
        {
          "internalType": "address",
          "name": "consumer",
          "type": "address"
        },
        {
          "internalType": "uint256[]",
          "name": "words",
          "type": "uint256[]"
        }
      ],
      "name": "fulfillRandomWordsWithOverride",
      "outputs": [],
      "stateMutability": "nonpayable",
      "type": "function"
    },
    {
      "inputs": [
        {
          "internalType": "uint64",
          "name": "subId",
          "type": "uint64"
        },
        {
          "internalType": "uint96",
          "name": "amount",
          "type": "uint96"
        }
      ],
      "name": "fundSubscription",
      "outputs": [],
      "stateMutability": "nonpayable",
      "type": "function"
    },
    {
      "inputs": [
        {
          "internalType": "uint64",
          "name": "subId",
          "type": "uint64"
        }
      ],
      "name": "getSubscription",
      "outputs": [
        {
          "internalType": "uint96",
          "name": "balance",
          "type": "uint96"
        },
        {
          "internalType": "uint64",
          "name": "reqCount",
          "type": "uint64"
        },
        {
          "internalType": "address",
          "name": "owner",
          "type": "address"
        },
        {
          "internalType": "address[]",
          "name": "consumers",
          "type": "address[]"
        }
      ],
      "stateMutability": "view",
      "type": "function"
    },
    {
      "inputs": [],
      "name": "requestCounter",
      "outputs": [
        {
          "internalType": "uint256",
          "name": "",
          "type": "uint256"
        }
      ],
      "stateMutability": "view",
      "type": "function"
    },
    {
      "inputs": [
        {
          "internalType": "uint256",
          "name": "",
          "type": "uint256"
        }
      ],
      "name": "requestIdToConsumer",
      "outputs": [
        {
          "internalType": "address",
          "name": "",
          "type": "address"
        }
      ],
      "stateMutability": "view",
      "type": "function"
    },
    {
      "inputs": [
        {
          "internalType": "uint256",
          "name": "",
          "type": "uint256"
        }
      ],
      "name": "requestIdToSubId",
      "outputs": [
        {
          "internalType": "uint64",
          "name": "",
          "type": "uint64"
        }
      ],
      "stateMutability": "view",
      "type": "function"
    },
    {
      "inputs": [
        {
          "internalType": "bytes32",
          "name": "keyHash",
          "type": "bytes32"
        },
        {
          "internalType": "uint64",
          "name": "subId",
          "type": "uint64"
        },
        {
          "internalType": "uint16",
          "name": "minimumRequestConfirmations",
          "type": "uint16"
        },
        {
          "internalType": "uint32",
          "name": "callbackGasLimit",
          "type": "uint32"
        },
        {
          "internalType": "uint32",
          "name": "numWords",
          "type": "uint32"
        }
      ],
      "name": "requestRandomWords",
      "outputs": [
        {
          "internalType": "uint256",
          "name": "",
          "type": "uint256"
        }
      ],
      "stateMutability": "nonpayable",
      "type": "function"
    },
    {
      "inputs": [
        {
          "internalType": "uint64",
          "name": "",
          "type": "uint64"
        }
      ],
      "name": "subscriptions",
      "outputs": [
        {
          "internalType": "uint96",
          "name": "balance",
          "type": "uint96"
        },
        {
          "internalType": "address",
          "name": "owner",
          "type": "address"
        }
      ],
      "stateMutability": "view",
      "type": "function"
    }
  ],
  "bytecode": "0x6080806040523461001657610b61908161001c8239f35b600080fdfe608060408181526004918236101561001657600080fd5b600092833560e01c91826308e3898e146107ae5750816323259a971461077e5781633d18651e1461075b5781635aa01f58146107355781635d3b1d30146105ab5781637341c10c146104a1578163808974ff1461044657816397359b32146103ff578163973a814e146103e0578163a21a23e414610339578163a410347f1461031a578163a47c76961461023d578163afc69b531461013a578163b12beeb514610103575063ed5eb06d146100ca57600080fd5b346100ff57806003193601126100ff576020906100f66100e86108ad565b6100f061085b565b90610abc565b90519015158152f35b5080fd5b9050346101365760203660031901126101365735825260036020908152918190205490516001600160a01b039091168152f35b8280fd5b919050346101365780600319360112610136576101556108ad565b6001600160601b03602435818116939290849003610239576001600160401b03169384865260026020528286205460601c156101f9578486526002602052828620918254918582841601908282116101e657506001600160601b03199092169116179055519081527fec9fc337416200b4fe605d1610ff1da46669abf941eefa67f2a0e70af1c531ac90602090a280f35b634e487b7160e01b895260119052602488fd5b606490602084519162461bcd60e51b8352820152601a60248201527914dd589cd8dc9a5c1d1a5bdb88191bd95cdb89dd08195e1a5cdd60321b6044820152fd5b8580fd5b5050346100ff5760209182600319360112610317576001600160401b036102626108ad565b168152600283528181209081546001809301948451808288549182815201908198865283862090865b8181106102fb57505050816102a1910382610876565b855195608087019360018060601b0381168852858489015260601c90870152608060608701525180925260a0850195925b8281106102df5785870386f35b83516001600160a01b03168752958101959281019284016102d2565b82546001600160a01b031684529285019291880191880161028b565b80fd5b5050346100ff57816003193601126100ff5760209051633b9aca008152f35b8383346100ff57816003193601126100ff578154916001600160401b038084168181146103cd5760209550906001849392011680946001600160401b0319161781558381526002855220805460018060601b03193360601b169060018060601b0316179055817f464722b4166576d3dcbba877b999bc35cf911f4eaf434b7eba68fa113951d0bf848351338152a251908152f35b634e487b7160e01b835260118652602483fd5b5050346100ff57816003193601126100ff576020906001549051908152f35b5050346100ff5760203660031901126100ff5780916001600160401b036104246108ad565b1681526002602052205481519060018060601b038116825260601c6020820152f35b8383346100ff57806003193601126100ff5761046061085b565b81519160208301908382106001600160401b0383111761048e579061048b949591528483523561094a565b80f35b634e487b7160e01b855260418652602485fd5b919050346101365780600319360112610136576104bc6108ad565b906001600160401b036104cd61085b565b92169283855260026020528185205460601c3303610570578385526002602052818520600101805491600160401b83101561055d5750916105388260209460017f752ead9f4536ec1319ee3a5a604e1d65eded22e0924251552ba14ae4faa1bbc397950181556108c3565b9260018060a01b038091169382549060031b9185831b921b191617905551908152a280f35b634e487b7160e01b875260419052602486fd5b6020606492519162461bcd60e51b835282015260166024820152752737ba1039bab139b1b934b83a34b7b71037bbb732b960511b6044820152fd5b8383346100ff5760a03660031901126100ff57602435926001600160401b038416809403610136576044359361ffff8516809503610731576064359463ffffffff80871680970361023957608435908116809103610239578286526020966002885260018060601b0367016345785d8a000081888a205416106106f9576106336001546108f1565b600181905580895260038a5287892080546001600160a01b03191633179055868a52878920805467ffffffffffffffff19168717905585895260028a528789208054919990929082821667016345785d89ffff1901908282116106e65750169060018060601b031916179055855192878452878985015286840152606083015260808201527f63373d1c4696214b898952999c9aaec57dac1ee2723cec59bea6888f489a977260a033943592a451908152f35b634e487b7160e01b815260118a52602490fd5b865162461bcd60e51b81528087018a90526012602482015271496e73756666696369656e742066756e647360701b6044820152606490fd5b8380fd5b5050346100ff57816003193601126100ff576001600160401b0360209254169051908152f35b5050346100ff57816003193601126100ff576020905167016345785d8a00008152f35b9050346101365760203660031901126101365781602093826001600160401b039335825285522054169051908152f35b8490346100ff5760603660031901126100ff576107c961085b565b6001600160401b039360443585811161085757366023820112156108575780820135958611610844578560051b60209661080588830187610876565b85526024878601918301019136831161084057602401905b828210610831578661048b8787873561094a565b8135815290870190870161081d565b8680fd5b634e487b7160e01b855260418252602485fd5b8480fd5b602435906001600160a01b038216820361087157565b600080fd5b90601f801991011681019081106001600160401b0382111761089757604052565b634e487b7160e01b600052604160045260246000fd5b600435906001600160401b038216820361087157565b80548210156108db5760005260206000200190600090565b634e487b7160e01b600052603260045260246000fd5b60001981146109005760010190565b634e487b7160e01b600052601160045260246000fd5b90815180825260208080930193019160005b828110610936575050505090565b835185529381019392810192600101610928565b91805115600014610ab65750604080516001600160401b0392918181018481118382101761089757815260018252602082019060203683378294815190602082019288845242818401524460608401526060835260808301918383109083111761089757525190209151156108db57525b604051600080602093848401631fe543e360e01b81528760248601526040604486015282856109ed606482018a610916565b0395610a01601f1997888101835282610876565b51925af1903d15610ab0573d6001600160401b03811161089757610a2f8460405193601f8401160183610876565b81526000833d92013e5b15610a7a57907ff45ee76115b0ed5f4ebe293254449fbe612bad36a53d52b87b6a40687adc48de91610a75604051928284938452830190610916565b0390a2565b6064906040519062461bcd60e51b82526004820152600f60248201526e10d85b1b189858dac819985a5b1959608a1b6044820152fd5b50610a39565b906109bb565b6001600160401b03166000526002602052600180604060002001916000928054935b848110610aef575050505050600090565b610af981836108c3565b905460039190911b1c6001600160a01b0390811690841614610b2357610b1e906108f1565b610ade565b50505090509056fea2646970667358221220c6c7c22e8c0af62ea26271bc78e0cdf959b1f7e53f86b3ca5c214a68b142265264736f6c63430008140033",
  "linkReferences": {},
  "deployedLinkReferences": {}
}