{"contracts/JackpotManager.sol":{"JackpotManager":{"abi":[{"inputs":[{"internalType":"address","name":"_paymentToken","type":"address"},{"internalType":"address","name":"_treasury","type":"address"}],"stateMutability":"nonpayable","type":"constructor"},{"inputs":[],"name":"EnforcedPause","type":"error"},{"inputs":[],"name":"ExpectedPause","type":"error"},{"inputs":[{"internalType":"address","name":"owner","type":"address"}],"name":"OwnableInvalidOwner","type":"error"},{"inputs":[{"internalType":"address","name":"account","type":"address"}],"name":"OwnableUnauthorizedAccount","type":"error"},{"inputs":[],"name":"ReentrancyGuardReentrantCall","type":"error"},{"inputs":[{"internalType":"address","name":"token","type":"address"}],"name":"SafeERC20FailedOperation","type":"error"},{"anonymous":false,"inputs":[{"indexed":true,"internalType":"uint256","name":"roundId","type":"uint256"},{"indexed":true,"internalType":"address","name":"user","type":"address"},{"indexed":false,"internalType":"uint256","name":"amount","type":"uint256"}],"name":"ClaimProcessed","type":"event"},{"anonymous":false,"inputs":[{"indexed":false,"internalType":"address","name":"newLaBolitaVRF","type":"address"}],"name":"LaBolitaVRFUpdated","type":"event"},{"anonymous":false,"inputs":[{"indexed":true,"internalType":"address","name":"previousOwner","type":"address"},{"indexed":true,"internalType":"address","name":"newOwner","type":"address"}],"name":"OwnershipTransferred","type":"event"},{"anonymous":false,"inputs":[{"indexed":false,"internalType":"uint256","name":"amount","type":"uint256"},{"indexed":false,"internalType":"address","name":"treasury","type":"address"}],"name":"PassFeeCollected","type":"event"},{"anonymous":false,"inputs":[{"indexed":true,"internalType":"uint256","name":"ticketId","type":"uint256"},{"indexed":true,"internalType":"address","name":"owner","type":"address"},{"indexed":false,"internalType":"uint256","name":"roundId","type":"uint256"},{"indexed":false,"internalType":"uint256","name":"amount","type":"uint256"}],"name":"PassRegistered","type":"event"},{"anonymous":false,"inputs":[{"indexed":false,"internalType":"address","name":"account","type":"address"}],"name":"Paused","type":"event"},{"anonymous":false,"inputs":[{"indexed":false,"internalType":"uint256","name":"amount","type":"uint256"},{"indexed":false,"internalType":"uint256","name":"newTotal","type":"uint256"}],"name":"PoolFunded","type":"event"},{"anonymous":false,"inputs":[{"indexed":true,"internalType":"uint256","name":"roundId","type":"uint256"},{"indexed":false,"internalType":"uint256","name":"startTime","type":"uint256"}],"name":"RoundCreated","type":"event"},{"anonymous":false,"inputs":[{"indexed":true,"internalType":"uint256","name":"roundId","type":"uint256"},{"indexed":false,"internalType":"bytes32","name":"merkleRoot","type":"bytes32"},{"indexed":false,"internalType":"uint256","name":"dailyPayout","type":"uint256"}],"name":"RoundSettled","type":"event"},{"anonymous":false,"inputs":[{"indexed":false,"internalType":"uint256","name":"roundId","type":"uint256"},{"indexed":false,"internalType":"uint256","name":"amount","type":"uint256"},{"indexed":false,"internalType":"string","name":"ruleType","type":"string"}],"name":"SurplusContributed","type":"event"},{"anonymous":false,"inputs":[{"indexed":false,"internalType":"address","name":"newTreasury","type":"address"}],"name":"TreasuryUpdated","type":"event"},{"anonymous":false,"inputs":[{"indexed":false,"internalType":"address","name":"account","type":"address"}],"name":"Unpaused","type":"event"},{"inputs":[{"internalType":"uint256","name":"_roundId","type":"uint256"},{"internalType":"uint256","name":"_amount","type":"uint256"},{"internalType":"bytes32[]","name":"_merkleProof","type":"bytes32[]"}],"name":"claimJackpot","outputs":[],"stateMutability":"nonpayable","type":"function"},{"inputs":[{"internalType":"uint256","name":"_roundId","type":"uint256"},{"internalType":"uint256","name":"_surplusAmount","type":"uint256"}],"name":"contributeSurplusRuleA","outputs":[],"stateMutability":"nonpayable","type":"function"},{"inputs":[{"internalType":"uint256","name":"_roundId","type":"uint256"},{"internalType":"uint256","name":"_surplusAmount","type":"uint256"}],"name":"contributeSurplusRuleB","outputs":[],"stateMutability":"nonpayable","type":"function"},{"inputs":[],"name":"currentRoundId","outputs":[{"internalType":"uint256","name":"","type":"uint256"}],"stateMutability":"view","type":"function"},{"inputs":[],"name":"dailyPayoutPercent","outputs":[{"internalType":"uint256","name":"","type":"uint256"}],"stateMutability":"view","type":"function"},{"inputs":[{"internalType":"address","name":"_token","type":"address"}],"name":"emergencyWithdraw","outputs":[],"stateMutability":"nonpayable","type":"function"},{"inputs":[],"name":"getCurrentRound","outputs":[{"components":[{"internalType":"uint256","name":"id","type":"uint256"},{"internalType":"uint256","name":"startTime","type":"uint256"},{"internalType":"uint256","name":"endTime","type":"uint256"},{"internalType":"uint256","name":"totalPasses","type":"uint256"},{"internalType":"uint256","name":"totalPassFunds","type":"uint256"},{"internalType":"uint256","name":"surplusContributed","type":"uint256"},{"internalType":"uint256","name":"dailyPayout","type":"uint256"},{"internalType":"bytes32","name":"merkleRoot","type":"bytes32"},{"internalType":"bool","name":"settled","type":"bool"},{"internalType":"bool","name":"claimsOpen","type":"bool"}],"internalType":"struct JackpotManager.Round","name":"","type":"tuple"}],"stateMutability":"view","type":"function"},{"inputs":[{"internalType":"uint256","name":"_ticketId","type":"uint256"}],"name":"getPassInfo","outputs":[{"components":[{"internalType":"address","name":"owner","type":"address"},{"internalType":"uint256","name":"roundId","type":"uint256"},{"internalType":"uint256","name":"purchaseTime","type":"uint256"},{"internalType":"bool","name":"hasClaimed","type":"bool"}],"internalType":"struct JackpotManager.PassInfo","name":"","type":"tuple"}],"stateMutability":"view","type":"function"},{"inputs":[],"name":"getPoolBalance","outputs":[{"internalType":"uint256","name":"","type":"uint256"}],"stateMutability":"view","type":"function"},{"inputs":[{"internalType":"uint256","name":"_roundId","type":"uint256"}],"name":"getRound","outputs":[{"components":[{"internalType":"uint256","name":"id","type":"uint256"},{"internalType":"uint256","name":"startTime","type":"uint256"},{"internalType":"uint256","name":"endTime","type":"uint256"},{"internalType":"uint256","name":"totalPasses","type":"uint256"},{"internalType":"uint256","name":"totalPassFunds","type":"uint256"},{"internalType":"uint256","name":"surplusContributed","type":"uint256"},{"internalType":"uint256","name":"dailyPayout","type":"uint256"},{"internalType":"bytes32","name":"merkleRoot","type":"bytes32"},{"internalType":"bool","name":"settled","type":"bool"},{"internalType":"bool","name":"claimsOpen","type":"bool"}],"internalType":"struct JackpotManager.Round","name":"","type":"tuple"}],"stateMutability":"view","type":"function"},{"inputs":[],"name":"getStats","outputs":[{"internalType":"uint256","name":"poolBalance","type":"uint256"},{"internalType":"uint256","name":"totalPasses","type":"uint256"},{"internalType":"uint256","name":"totalClaims","type":"uint256"},{"internalType":"uint256","name":"currentRound","type":"uint256"}],"stateMutability":"view","type":"function"},{"inputs":[{"internalType":"uint256","name":"_roundId","type":"uint256"},{"internalType":"address","name":"_user","type":"address"}],"name":"hasClaimedRound","outputs":[{"internalType":"bool","name":"","type":"bool"}],"stateMutability":"view","type":"function"},{"inputs":[],"name":"laBolitaVRF","outputs":[{"internalType":"address","name":"","type":"address"}],"stateMutability":"view","type":"function"},{"inputs":[],"name":"owner","outputs":[{"internalType":"address","name":"","type":"address"}],"stateMutability":"view","type":"function"},{"inputs":[],"name":"passFeePercent","outputs":[{"internalType":"uint256","name":"","type":"uint256"}],"stateMutability":"view","type":"function"},{"inputs":[],"name":"pause","outputs":[],"stateMutability":"nonpayable","type":"function"},{"inputs":[],"name":"paused","outputs":[{"internalType":"bool","name":"","type":"bool"}],"stateMutability":"view","type":"function"},{"inputs":[],"name":"paymentToken","outputs":[{"internalType":"contract IERC20","name":"","type":"address"}],"stateMutability":"view","type":"function"},{"inputs":[],"name":"pendingPassFunds","outputs":[{"internalType":"uint256","name":"","type":"uint256"}],"stateMutability":"view","type":"function"},{"inputs":[{"internalType":"uint256[]","name":"_ticketIds","type":"uint256[]"},{"internalType":"uint256","name":"_totalPassAmount","type":"uint256"}],"name":"registerPassTickets","outputs":[],"stateMutability":"nonpayable","type":"function"},{"inputs":[],"name":"renounceOwnership","outputs":[],"stateMutability":"nonpayable","type":"function"},{"inputs":[{"internalType":"uint256","name":"","type":"uint256"},{"internalType":"address","name":"","type":"address"}],"name":"roundClaimed","outputs":[{"internalType":"bool","name":"","type":"bool"}],"stateMutability":"view","type":"function"},{"inputs":[{"internalType":"uint256","name":"","type":"uint256"}],"name":"rounds","outputs":[{"internalType":"uint256","name":"id","type":"uint256"},{"internalType":"uint256","name":"startTime","type":"uint256"},{"internalType":"uint256","name":"endTime","type":"uint256"},{"internalType":"uint256","name":"totalPasses","type":"uint256"},{"internalType":"uint256","name":"totalPassFunds","type":"uint256"},{"internalType":"uint256","name":"surplusContributed","type":"uint256"},{"internalType":"uint256","name":"dailyPayout","type":"uint256"},{"internalType":"bytes32","name":"merkleRoot","type":"bytes32"},{"internalType":"bool","name":"settled","type":"bool"},{"internalType":"bool","name":"claimsOpen","type":"bool"}],"stateMutability":"view","type":"function"},{"inputs":[{"internalType":"uint256","name":"_percent","type":"uint256"}],"name":"setDailyPayoutPercent","outputs":[],"stateMutability":"nonpayable","type":"function"},{"inputs":[{"internalType":"address","name":"_laBolitaVRF","type":"address"}],"name":"setLaBolitaVRF","outputs":[],"stateMutability":"nonpayable","type":"function"},{"inputs":[{"internalType":"uint256","name":"_percent","type":"uint256"}],"name":"setPassFeePercent","outputs":[],"stateMutability":"nonpayable","type":"function"},{"inputs":[{"internalType":"uint256","name":"_percent","type":"uint256"}],"name":"setSurplusFeePercent","outputs":[],"stateMutability":"nonpayable","type":"function"},{"inputs":[{"internalType":"address","name":"_treasury","type":"address"}],"name":"setTreasury","outputs":[],"stateMutability":"nonpayable","type":"function"},{"inputs":[{"internalType":"uint256","name":"_roundId","type":"uint256"},{"internalType":"bytes32","name":"_merkleRoot","type":"bytes32"},{"internalType":"bool","name":"_hasPassWinners","type":"bool"}],"name":"settleRound","outputs":[],"stateMutability":"nonpayable","type":"function"},{"inputs":[],"name":"superJackpotPool","outputs":[{"internalType":"uint256","name":"","type":"uint256"}],"stateMutability":"view","type":"function"},{"inputs":[],"name":"surplusFeePercent","outputs":[{"internalType":"uint256","name":"","type":"uint256"}],"stateMutability":"view","type":"function"},{"inputs":[{"internalType":"uint256","name":"","type":"uint256"}],"name":"ticketPasses","outputs":[{"internalType":"address","name":"owner","type":"address"},{"internalType":"uint256","name":"roundId","type":"uint256"},{"internalType":"uint256","name":"purchaseTime","type":"uint256"},{"internalType":"bool","name":"hasClaimed","type":"bool"}],"stateMutability":"view","type":"function"},{"inputs":[],"name":"totalClaimsPaid","outputs":[{"internalType":"uint256","name":"","type":"uint256"}],"stateMutability":"view","type":"function"},{"inputs":[],"name":"totalPassesRegistered","outputs":[{"internalType":"uint256","name":"","type":"uint256"}],"stateMutability":"view","type":"function"},{"inputs":[{"internalType":"address","name":"newOwner","type":"address"}],"name":"transferOwnership","outputs":[],"stateMutability":"nonpayable","type":"function"},{"inputs":[],"name":"treasury","outputs":[{"internalType":"address","name":"","type":"address"}],"stateMutability":"view","type":"function"},{"inputs":[],"name":"unpause","outputs":[],"stateMutability":"nonpayable","type":"function"}],"evm":{"bytecode":{"linkReferences":{},"object":"608034620002155762001b86906001600160401b03601f38849003908101601f1916830190828211848310176200021a578084916040968794855283398101031262000215576200005e6020620000568462000230565b930162000230565b903315620001fd57600080546001600160a01b0319808216339081178455929490926001600160a01b039283167f8be0079c531659141344cd1fd0a4f28419497f9722a3daafe3b4186f6b6457e08780a36001958680556101f48060095580600a55600b5560025490610100600160a81b039060081b1690610100600160a81b031916176002551690600454161760045582600c5583519061014082019082821090821117620001e9579060089185528381526020810193428552858201848152606083018581526080840186815260a085019187835260c086019388855260e087019589875261010088019a8a8c528c6101208a019b808d52838152600d6020522098518955519088015551600287015551600386015551600485015551600584015551600683015551600782015501915115159060ff61ff0084549251151560081b1692169061ffff191617179055600c547fe934619c48e1b0b21b662adf6b7c08ad37e6f0d120f40a505503b4fd3bcfec5860208351428152a2516119409081620002468239f35b634e487b7160e01b83526041600452602483fd5b8351631e4fbdf760e01b815260006004820152602490fd5b600080fd5b634e487b7160e01b600052604160045260246000fd5b51906001600160a01b0382168203620002155756fe6080604081815260048036101561001557600080fd5b600092833560e01c9081631b07d267146114ee575080632c3dfbe6146113ac5780632cec1700146111745780632eecd690146111555780633013ce29146111285780633f4ba83a146110bf578063420fe072146110a0578063531f2f5914610daa5780635c975abb14610d8657806361d027b314610d5f5780636532ccf514610d40578063694cf4fc14610bd05780636f5a757d14610d215780636ff1c9bc14610c73578063715018a614610c16578063776aa52714610bd05780637e396db51461088a5780637fb08ed814610ba05780638456cb5914610b455780638944a3b914610aef5780638c65c81f14610a5c5780638da5cb5b14610a345780638f1327c0146109f957806390522323146109da5780639cbe5efd146109bb578063a32bf597146108a9578063abd70aa21461088a578063ad0507c4146105d6578063b440d8831461053b578063c59d484714610502578063c904d3691461048c578063d0ac541714610463578063d8a6a1b71461031c578063db88caa3146102ec578063e4d8b7d0146102b8578063f0f44260146102435763f2fde38b146101ba57600080fd5b3461023f57602036600319011261023f576101d361156b565b906101dc611581565b6001600160a01b0391821692831561022957505082546001600160a01b0319811683178455167f8be0079c531659141344cd1fd0a4f28419497f9722a3daafe3b4186f6b6457e08380a380f35b51631e4fbdf760e01b8152908101849052602490fd5b8280fd5b50903461023f57602036600319011261023f577f7dae230f18360d76a040c81f050aa14eb9d6dc7901b20fc5d855e2a20fe814d19160209161028361156b565b61028b611581565b6001600160a01b0316916102a083151561182a565b80546001600160a01b0319168317905551908152a180f35b8382346102e85760203660031901126102e857356102d4611581565b6102e26107d0821115611868565b600b5580f35b5080fd5b8382346102e85760203660031901126102e85735610308611581565b6103166107d0821115611868565b600a5580f35b50903461023f576000805160206118eb833981519152917fcfda897193ffdb0207c6f9900da6832ccb396aef4ba8932fc8bba097cf0c8aae60a061035f3661150a565b610367611581565b81151580610457575b61037990611756565b610381611733565b61038c811515611799565b600254906103a981600180871b0393309085339160081c166117d2565b6103c36127106103bb600a54846115ad565b0480926115d6565b958161043a575b5050506103d9846005546115e3565b600555808752600d6020526005858820016103f58582546115e3565b90558451908152836020820152606085820152600c60608201526b415f4e4f5f57494e4e45525360a01b6080820152a160055482519182526020820152a16001805580f35b8261044f9360025460081c169154169061166d565b3880806103ca565b50600c54821115610370565b5050346102e857816003193601126102e85760035490516001600160a01b039091168152602090f35b5050346102e85760203660031901126102e85760207f3847ce4af77ba2acb072656df2710b411cfe562c30eda8889aa922f6ed802540916104cb61156b565b6104d3611581565b6001600160a01b0316906104e882151561182a565b600380546001600160a01b0319168317905551908152a180f35b5050346102e857816003193601126102e857608090600554906007549060085490600c5492815194855260208501528301526060820152f35b503461023f57602036600319011261023f578282916080946060845161056081611631565b82815282602082015282868201520152358152600e602052209080519061058682611631565b60018060a01b0383541692838352600181015460208401908152606060ff600360028501549486880195865201541694019315158452825194855251602085015251908301525115156060820152f35b509190346102e85760603660031901126102e8578235916024803594604435916001600160401b0392838111610886576106139036908401611525565b97909661061e611733565b8015158061087a575b61063090611756565b808652602093600d85528787209360ff600886015460081c161561084657828852600f8652888820338952865260ff8989205416610812578851948686019a3360601b8c5285603488015260348752606087019b8c8a898210911117610800576007908d8d5288519020920154988d116107ee5760059c808e1b97969594939291906106be8a8a018f61164c565b8d52608097888801908201913683116107ea578a90915b8383106107da57505050509789985b8c518a101561072557898e1b87018801519081811015610715578b52885261070f8b8b205b996115f0565b986106e4565b908b52885261070f8b8b20610709565b8a989597508b949650036107aa575050907f786e090d783caced3baddcb29bd555ffb93faf484529ab87feab4ec4c48a81e191838652600f82528086203387528252808620600160ff19825416179055610781856008546115e3565b60085561079c853360018060a01b0360025460081c1661166d565b519384523393a36001805580f35b606493600d9293519362461bcd60e51b85528401528201526c24b73b30b634b210383937b7b360991b6044820152fd5b82358152918101918b91016106d5565b8c80fd5b634e487b7160e01b8a5260418452828afd5b634e487b7160e01b8b5260418552838bfd5b885162461bcd60e51b8152918201869052600f908201526e105b1c9958591e4818db185a5b5959608a1b6044820152606490fd5b885162461bcd60e51b8152918201869052600f908201526e21b630b4b6b9903737ba1037b832b760891b6044820152606490fd5b50600c54811115610627565b8480fd5b5050346102e857816003193601126102e8576020906005549051908152f35b50903461023f578260031936011261023f5760ff6008826109b7956108cc61189e565b50600c548152600d602052208351946108e4866115ff565b8154865260018201546020870152600282015485870152600382015460608701528101546080860152600581015460a0860152600681015460c0860152600781015460e08601520154818116151561010085015260081c1615156101208301525191829182919091610140810192805182526020810151602083015260408101516040830152606081015160608301526080810151608083015260a081015160a083015260c081015160c083015260e081015160e083015261010080820151151590830152610120809101511515910152565b0390f35b5050346102e857816003193601126102e857602090600c549051908152f35b5050346102e857816003193601126102e8576020906007549051908152f35b50903461023f57602036600319011261023f5760ff6008826109b795610a1d61189e565b5085358152600d602052208351946108e4866115ff565b5050346102e857816003193601126102e857905490516001600160a01b039091168152602090f35b503461023f57602036600319011261023f5780826101409460ff93358152600d6020522080549360018201549260028301549060038401549084015490600585015492600686015494600860078801549701549781519a8b5260208b01528901526060880152608087015260a086015260c085015260e0840152818116151561010084015260081c161515610120820152f35b503461023f57602036600319011261023f576080928291358152600e602052209060018060a01b038254169160018101549160ff6003600284015493015416928151948552602085015283015215156060820152f35b5050346102e857816003193601126102e85760207f62e78cea01bee320cd4e420270b5ea74000d11b0c9f74754ebdbfc544b05a25891610b83611581565b610b8b611715565b600160ff19600254161760025551338152a180f35b8382346102e85760203660031901126102e85735610bbc611581565b610bca6107d0821115611868565b60095580f35b503461023f578160031936011261023f578160209360ff92610bf0611555565b90358252600f86528282206001600160a01b039091168252855220549151911615158152f35b8334610c705780600319360112610c7057610c2f611581565b80546001600160a01b03198116825581906001600160a01b03167f8be0079c531659141344cd1fd0a4f28419497f9722a3daafe3b4186f6b6457e08280a380f35b80fd5b50903461023f57602036600319011261023f57610c8e61156b565b610c96611581565b81516370a0823160e01b815230938101939093526001600160a01b0390811690602084602481855afa928315610d1857508492610cdf575b610cdc93508454169061166d565b80f35b91506020833d8211610d10575b81610cf96020938361164c565b81010312610d0c57610cdc925191610cce565b8380fd5b3d9150610cec565b513d86823e3d90fd5b5050346102e857816003193601126102e857602090600b549051908152f35b5050346102e857816003193601126102e8576020906008549051908152f35b503461023f578260031936011261023f575490516001600160a01b03909116815260209150f35b5050346102e857816003193601126102e85760209060ff6002541690519015158152f35b509190346102e857806003193601126102e85782356001600160401b03811161023f57610dda9036908501611525565b60038054909591936024938435926001600160a01b03908116330361106b57610e01611733565b610e09611715565b861561103c57831561100957612710610e24600954866115ad565b0495610e3087866115d6565b968481610fbb575b5050600592610e488885546115e3565b928385556000805160206118eb8339815191528680518b815260209687820152a1600c9081548c52600d85528a878d209804928c5b8c8110610ebd578d8f8e8e610ea98f8f610eb3958101610e9e8682546115e3565b9055019182546115e3565b90556007546115e3565b6007556001805580f35b80881b820135808f52600e8852898f20548416610f7f57908f918f8b610f7a948b610f43938a548a855195610ef187611631565b32875284870192835280870193428552600e60608901968288528b8352522095511660018060a01b031986541617855551600185015551600284015551151591019060ff801983541691151516179055565b8554908b51918252878a8301527f5bcb732963ca51738114fd63f252e815f9697304ed10901c5d6cda7c22b4e61c8c3293a36115f0565b610e7d565b895162461bcd60e51b8152808d018990526017818901527614185cdcc8185b1c9958591e481c9959da5cdd195c9959604a1b6044820152606490fd5b81610ff37fcbb219bd30d35f6f5b0533152ed88f4b4d72de3a218b06f19d7e88411f63c8f3938660025460081c16878c54169061166d565b8489541682519182526020820152a13884610e38565b825162461bcd60e51b8152602081870152600e818801526d139bc81c185cdcc8185b5bdd5b9d60921b6044820152606490fd5b825162461bcd60e51b8152602081870152600a81880152694e6f207469636b65747360b01b6044820152606490fd5b825162461bcd60e51b81526020818701526010818801526f27b7363c902630a137b634ba30ab292360811b6044820152606490fd5b5050346102e857816003193601126102e857602090600a549051908152f35b503461023f578260031936011261023f576110d8611581565b6002549060ff82161561111a575060ff1916600255513381527f5db9ee0a495bf2e6ff9c91a7834c1ba4fdd244a5e8aa4e537bd38aeae4b073aa90602090a180f35b8251638dfc202b60e01b8152fd5b5050346102e857816003193601126102e857600254905160089190911c6001600160a01b03168152602090f35b5050346102e857816003193601126102e8576020906006549051908152f35b509190346102e85760603660031901126102e857823560243590604435948515158603610886576111a3611581565b811515806113a0575b6111b590611756565b818552600d60205283852091600883019384549760ff891661136b576001889998979842600288015583600788015560ff191617865580611360575b611334575b866101009461ff001996868882541617905560060154815192835260208301527fb382055365aa71a67cc934673adfab8576a3ca149813376cfaced4963a1608ab91a2600c54611245906115f0565b9182600c55855191611256836115ff565b83835260208301904282528784019087825260608501888152608086019089825260a08701938a855260c08801958b87528c8c60e08b0199818b528b019d8e526101208b019b818d528152600d60205220985189555160018901555160028801555160038701555190850155516005840155516006830155516007820155600801925115156112f190849060ff801983541691151516179055565b5115159082549160081b61ff00169116179055600c54905142815260207fe934619c48e1b0b21b662adf6b7c08ad37e6f0d120f40a505503b4fd3bcfec5891a280f35b611358612710611349600554600b54906115ad565b048060068701556005546115d6565b6005556111f6565b5060055415156111f1565b865162461bcd60e51b8152602081860152600f60248201526e105b1c9958591e481cd95d1d1b1959608a1b6044820152606490fd5b50600c548211156111ac565b50903461023f576000805160206118eb833981519152917fcfda897193ffdb0207c6f9900da6832ccb396aef4ba8932fc8bba097cf0c8aae60a06113ef3661150a565b6113f7611581565b811515806114e2575b61140990611756565b611411611733565b61141c811515611799565b6002549061143981600180871b0393309085339160081c166117d2565b61144b6127106103bb600a54846115ad565b95816114c5575b505050611461846005546115e3565b600555808752600d60205260058588200161147d8582546115e3565b90558451908152836020820152606085820152600f60608201526e425f4e4f5f34445f57494e4e45525360881b6080820152a160055482519182526020820152a16001805580f35b826114da9360025460081c169154169061166d565b388080611452565b50600c54821115611400565b8490346102e857816003193601126102e8576020906009548152f35b6040906003190112611520576004359060243590565b600080fd5b9181601f84011215611520578235916001600160401b038311611520576020808501948460051b01011161152057565b602435906001600160a01b038216820361152057565b600435906001600160a01b038216820361152057565b6000546001600160a01b0316330361159557565b60405163118cdaa760e01b8152336004820152602490fd5b818102929181159184041417156115c057565b634e487b7160e01b600052601160045260246000fd5b919082039182116115c057565b919082018092116115c057565b60001981146115c05760010190565b61014081019081106001600160401b0382111761161b57604052565b634e487b7160e01b600052604160045260246000fd5b608081019081106001600160401b0382111761161b57604052565b90601f801991011681019081106001600160401b0382111761161b57604052565b60405163a9059cbb60e01b60208201526001600160a01b0390921660248301526044808301939093529181526116ab916116a682611631565b6116ad565b565b906000602091828151910182855af115611709576000513d61170057506001600160a01b0381163b155b6116de5750565b604051635274afe760e01b81526001600160a01b039091166004820152602490fd5b600114156116d7565b6040513d6000823e3d90fd5b60ff6002541661172157565b60405163d93c066560e01b8152600490fd5b600260015414611744576002600155565b604051633ee5aeb560e01b8152600490fd5b1561175d57565b60405162461bcd60e51b8152602060048201526014602482015273149bdd5b9908191bd95cc81b9bdd08195e1a5cdd60621b6044820152606490fd5b156117a057565b60405162461bcd60e51b815260206004820152600a6024820152694e6f20737572706c757360b01b6044820152606490fd5b6040516323b872dd60e01b60208201526001600160a01b03928316602482015292909116604483015260648083019390935291815260a08101918183106001600160401b0384111761161b576116ab926040526116ad565b1561183157565b60405162461bcd60e51b815260206004820152600f60248201526e496e76616c6964206164647265737360881b6044820152606490fd5b1561186f57565b60405162461bcd60e51b81526020600482015260076024820152664d61782032302560c81b6044820152606490fd5b604051906118ab826115ff565b816101206000918281528260208201528260408201528260608201528260808201528260a08201528260c08201528260e082015282610100820152015256fe2bd52f9253398b8aef7698b9fe3bb703e471a3440c149637f7ccd8e962b4569ca2646970667358221220d548a03cdb977db94e67843637606e13b783cceab69743fd8f3231fcb7d1e5eb64736f6c63430008140033","opcodes":"PUSH1 0x80 CALLVALUE PUSH3 0x215 JUMPI PUSH3 0x1B86 SWAP1 PUSH1 0x1 PUSH1 0x1 PUSH1 0x40 SHL SUB PUSH1 0x1F CODESIZE DUP5 SWAP1 SUB SWAP1 DUP2 ADD PUSH1 0x1F NOT AND DUP4 ADD SWAP1 DUP3 DUP3 GT DUP5 DUP4 LT OR PUSH3 0x21A JUMPI DUP1 DUP5 SWAP2 PUSH1 0x40 SWAP7 DUP8 SWAP5 DUP6 MSTORE DUP4 CODECOPY DUP2 ADD SUB SLT PUSH3 0x215 JUMPI PUSH3 0x5E PUSH1 0x20 PUSH3 0x56 DUP5 PUSH3 0x230 JUMP JUMPDEST SWAP4 ADD PUSH3 0x230 JUMP JUMPDEST SWAP1 CALLER ISZERO PUSH3 0x1FD JUMPI PUSH1 0x0 DUP1 SLOAD PUSH1 0x1 PUSH1 0x1 PUSH1 0xA0 SHL SUB NOT DUP1 DUP3 AND CALLER SWAP1 DUP2 OR DUP5 SSTORE SWAP3 SWAP5 SWAP1 SWAP3 PUSH1 0x1 PUSH1 0x1 PUSH1 0xA0 SHL SUB SWAP3 DUP4 AND PUSH32 0x8BE0079C531659141344CD1FD0A4F28419497F9722A3DAAFE3B4186F6B6457E0 DUP8 DUP1 LOG3 PUSH1 0x1 SWAP6 DUP7 DUP1 SSTORE PUSH2 0x1F4 DUP1 PUSH1 0x9 SSTORE DUP1 PUSH1 0xA SSTORE PUSH1 0xB SSTORE PUSH1 0x2 SLOAD SWAP1 PUSH2 0x100 PUSH1 0x1 PUSH1 0xA8 SHL SUB SWAP1 PUSH1 0x8 SHL AND SWAP1 PUSH2 0x100 PUSH1 0x1 PUSH1 0xA8 SHL SUB NOT AND OR PUSH1 0x2 SSTORE AND SWAP1 PUSH1 0x4 SLOAD AND OR PUSH1 0x4 SSTORE DUP3 PUSH1 0xC SSTORE DUP4 MLOAD SWAP1 PUSH2 0x140 DUP3 ADD SWAP1 DUP3 DUP3 LT SWAP1 DUP3 GT OR PUSH3 0x1E9 JUMPI SWAP1 PUSH1 0x8 SWAP2 DUP6 MSTORE DUP4 DUP2 MSTORE PUSH1 0x20 DUP2 ADD SWAP4 TIMESTAMP DUP6 MSTORE DUP6 DUP3 ADD DUP5 DUP2 MSTORE PUSH1 0x60 DUP4 ADD DUP6 DUP2 MSTORE PUSH1 0x80 DUP5 ADD DUP7 DUP2 MSTORE PUSH1 0xA0 DUP6 ADD SWAP2 DUP8 DUP4 MSTORE PUSH1 0xC0 DUP7 ADD SWAP4 DUP9 DUP6 MSTORE PUSH1 0xE0 DUP8 ADD SWAP6 DUP10 DUP8 MSTORE PUSH2 0x100 DUP9 ADD SWAP11 DUP11 DUP13 MSTORE DUP13 PUSH2 0x120 DUP11 ADD SWAP12 DUP1 DUP14 MSTORE DUP4 DUP2 MSTORE PUSH1 0xD PUSH1 0x20 MSTORE KECCAK256 SWAP9 MLOAD DUP10 SSTORE MLOAD SWAP1 DUP9 ADD SSTORE MLOAD PUSH1 0x2 DUP8 ADD SSTORE MLOAD PUSH1 0x3 DUP7 ADD SSTORE MLOAD PUSH1 0x4 DUP6 ADD SSTORE MLOAD PUSH1 0x5 DUP5 ADD SSTORE MLOAD PUSH1 0x6 DUP4 ADD SSTORE MLOAD PUSH1 0x7 DUP3 ADD SSTORE ADD SWAP2 MLOAD ISZERO ISZERO SWAP1 PUSH1 0xFF PUSH2 0xFF00 DUP5 SLOAD SWAP3 MLOAD ISZERO ISZERO PUSH1 0x8 SHL AND SWAP3 AND SWAP1 PUSH2 0xFFFF NOT AND OR OR SWAP1 SSTORE PUSH1 0xC SLOAD PUSH32 0xE934619C48E1B0B21B662ADF6B7C08AD37E6F0D120F40A505503B4FD3BCFEC58 PUSH1 0x20 DUP4 MLOAD TIMESTAMP DUP2 MSTORE LOG2 MLOAD PUSH2 0x1940 SWAP1 DUP2 PUSH3 0x246 DUP3 CODECOPY RETURN JUMPDEST PUSH4 0x4E487B71 PUSH1 0xE0 SHL DUP4 MSTORE PUSH1 0x41 PUSH1 0x4 MSTORE PUSH1 0x24 DUP4 REVERT JUMPDEST DUP4 MLOAD PUSH4 0x1E4FBDF7 PUSH1 0xE0 SHL DUP2 MSTORE PUSH1 0x0 PUSH1 0x4 DUP3 ADD MSTORE PUSH1 0x24 SWAP1 REVERT JUMPDEST PUSH1 0x0 DUP1 REVERT JUMPDEST PUSH4 0x4E487B71 PUSH1 0xE0 SHL PUSH1 0x0 MSTORE PUSH1 0x41 PUSH1 0x4 MSTORE PUSH1 0x24 PUSH1 0x0 REVERT JUMPDEST MLOAD SWAP1 PUSH1 0x1 PUSH1 0x1 PUSH1 0xA0 SHL SUB DUP3 AND DUP3 SUB PUSH3 0x215 JUMPI JUMP INVALID PUSH1 0x80 PUSH1 0x40 DUP2 DUP2 MSTORE PUSH1 0x4 DUP1 CALLDATASIZE LT ISZERO PUSH2 0x15 JUMPI PUSH1 0x0 DUP1 REVERT JUMPDEST PUSH1 0x0 SWAP3 DUP4 CALLDATALOAD PUSH1 0xE0 SHR SWAP1 DUP2 PUSH4 0x1B07D267 EQ PUSH2 0x14EE JUMPI POP DUP1 PUSH4 0x2C3DFBE6 EQ PUSH2 0x13AC JUMPI DUP1 PUSH4 0x2CEC1700 EQ PUSH2 0x1174 JUMPI DUP1 PUSH4 0x2EECD690 EQ PUSH2 0x1155 JUMPI DUP1 PUSH4 0x3013CE29 EQ PUSH2 0x1128 JUMPI DUP1 PUSH4 0x3F4BA83A EQ PUSH2 0x10BF JUMPI DUP1 PUSH4 0x420FE072 EQ PUSH2 0x10A0 JUMPI DUP1 PUSH4 0x531F2F59 EQ PUSH2 0xDAA JUMPI DUP1 PUSH4 0x5C975ABB EQ PUSH2 0xD86 JUMPI DUP1 PUSH4 0x61D027B3 EQ PUSH2 0xD5F JUMPI DUP1 PUSH4 0x6532CCF5 EQ PUSH2 0xD40 JUMPI DUP1 PUSH4 0x694CF4FC EQ PUSH2 0xBD0 JUMPI DUP1 PUSH4 0x6F5A757D EQ PUSH2 0xD21 JUMPI DUP1 PUSH4 0x6FF1C9BC EQ PUSH2 0xC73 JUMPI DUP1 PUSH4 0x715018A6 EQ PUSH2 0xC16 JUMPI DUP1 PUSH4 0x776AA527 EQ PUSH2 0xBD0 JUMPI DUP1 PUSH4 0x7E396DB5 EQ PUSH2 0x88A JUMPI DUP1 PUSH4 0x7FB08ED8 EQ PUSH2 0xBA0 JUMPI DUP1 PUSH4 0x8456CB59 EQ PUSH2 0xB45 JUMPI DUP1 PUSH4 0x8944A3B9 EQ PUSH2 0xAEF JUMPI DUP1 PUSH4 0x8C65C81F EQ PUSH2 0xA5C JUMPI DUP1 PUSH4 0x8DA5CB5B EQ PUSH2 0xA34 JUMPI DUP1 PUSH4 0x8F1327C0 EQ PUSH2 0x9F9 JUMPI DUP1 PUSH4 0x90522323 EQ PUSH2 0x9DA JUMPI DUP1 PUSH4 0x9CBE5EFD EQ PUSH2 0x9BB JUMPI DUP1 PUSH4 0xA32BF597 EQ PUSH2 0x8A9 JUMPI DUP1 PUSH4 0xABD70AA2 EQ PUSH2 0x88A JUMPI DUP1 PUSH4 0xAD0507C4 EQ PUSH2 0x5D6 JUMPI DUP1 PUSH4 0xB440D883 EQ PUSH2 0x53B JUMPI DUP1 PUSH4 0xC59D4847 EQ PUSH2 0x502 JUMPI DUP1 PUSH4 0xC904D369 EQ PUSH2 0x48C JUMPI DUP1 PUSH4 0xD0AC5417 EQ PUSH2 0x463 JUMPI DUP1 PUSH4 0xD8A6A1B7 EQ PUSH2 0x31C JUMPI DUP1 PUSH4 0xDB88CAA3 EQ PUSH2 0x2EC JUMPI DUP1 PUSH4 0xE4D8B7D0 EQ PUSH2 0x2B8 JUMPI DUP1 PUSH4 0xF0F44260 EQ PUSH2 0x243 JUMPI PUSH4 0xF2FDE38B EQ PUSH2 0x1BA JUMPI PUSH1 0x0 DUP1 REVERT JUMPDEST CALLVALUE PUSH2 0x23F JUMPI PUSH1 0x20 CALLDATASIZE PUSH1 0x3 NOT ADD SLT PUSH2 0x23F JUMPI PUSH2 0x1D3 PUSH2 0x156B JUMP JUMPDEST SWAP1 PUSH2 0x1DC PUSH2 0x1581 JUMP JUMPDEST PUSH1 0x1 PUSH1 0x1 PUSH1 0xA0 SHL SUB SWAP2 DUP3 AND SWAP3 DUP4 ISZERO PUSH2 0x229 JUMPI POP POP DUP3 SLOAD PUSH1 0x1 PUSH1 0x1 PUSH1 0xA0 SHL SUB NOT DUP2 AND DUP4 OR DUP5 SSTORE AND PUSH32 0x8BE0079C531659141344CD1FD0A4F28419497F9722A3DAAFE3B4186F6B6457E0 DUP4 DUP1 LOG3 DUP1 RETURN JUMPDEST MLOAD PUSH4 0x1E4FBDF7 PUSH1 0xE0 SHL DUP2 MSTORE SWAP1 DUP2 ADD DUP5 SWAP1 MSTORE PUSH1 0x24 SWAP1 REVERT JUMPDEST DUP3 DUP1 REVERT JUMPDEST POP SWAP1 CALLVALUE PUSH2 0x23F JUMPI PUSH1 0x20 CALLDATASIZE PUSH1 0x3 NOT ADD SLT PUSH2 0x23F JUMPI PUSH32 0x7DAE230F18360D76A040C81F050AA14EB9D6DC7901B20FC5D855E2A20FE814D1 SWAP2 PUSH1 0x20 SWAP2 PUSH2 0x283 PUSH2 0x156B JUMP JUMPDEST PUSH2 0x28B PUSH2 0x1581 JUMP JUMPDEST PUSH1 0x1 PUSH1 0x1 PUSH1 0xA0 SHL SUB AND SWAP2 PUSH2 0x2A0 DUP4 ISZERO ISZERO PUSH2 0x182A JUMP JUMPDEST DUP1 SLOAD PUSH1 0x1 PUSH1 0x1 PUSH1 0xA0 SHL SUB NOT AND DUP4 OR SWAP1 SSTORE MLOAD SWAP1 DUP2 MSTORE LOG1 DUP1 RETURN JUMPDEST DUP4 DUP3 CALLVALUE PUSH2 0x2E8 JUMPI PUSH1 0x20 CALLDATASIZE PUSH1 0x3 NOT ADD SLT PUSH2 0x2E8 JUMPI CALLDATALOAD PUSH2 0x2D4 PUSH2 0x1581 JUMP JUMPDEST PUSH2 0x2E2 PUSH2 0x7D0 DUP3 GT ISZERO PUSH2 0x1868 JUMP JUMPDEST PUSH1 0xB SSTORE DUP1 RETURN JUMPDEST POP DUP1 REVERT JUMPDEST DUP4 DUP3 CALLVALUE PUSH2 0x2E8 JUMPI PUSH1 0x20 CALLDATASIZE PUSH1 0x3 NOT ADD SLT PUSH2 0x2E8 JUMPI CALLDATALOAD PUSH2 0x308 PUSH2 0x1581 JUMP JUMPDEST PUSH2 0x316 PUSH2 0x7D0 DUP3 GT ISZERO PUSH2 0x1868 JUMP JUMPDEST PUSH1 0xA SSTORE DUP1 RETURN JUMPDEST POP SWAP1 CALLVALUE PUSH2 0x23F JUMPI PUSH1 0x0 DUP1 MLOAD PUSH1 0x20 PUSH2 0x18EB DUP4 CODECOPY DUP2 MLOAD SWAP2 MSTORE SWAP2 PUSH32 0xCFDA897193FFDB0207C6F9900DA6832CCB396AEF4BA8932FC8BBA097CF0C8AAE PUSH1 0xA0 PUSH2 0x35F CALLDATASIZE PUSH2 0x150A JUMP JUMPDEST PUSH2 0x367 PUSH2 0x1581 JUMP JUMPDEST DUP2 ISZERO ISZERO DUP1 PUSH2 0x457 JUMPI JUMPDEST PUSH2 0x379 SWAP1 PUSH2 0x1756 JUMP JUMPDEST PUSH2 0x381 PUSH2 0x1733 JUMP JUMPDEST PUSH2 0x38C DUP2 ISZERO ISZERO PUSH2 0x1799 JUMP JUMPDEST PUSH1 0x2 SLOAD SWAP1 PUSH2 0x3A9 DUP2 PUSH1 0x1 DUP1 DUP8 SHL SUB SWAP4 ADDRESS SWAP1 DUP6 CALLER SWAP2 PUSH1 0x8 SHR AND PUSH2 0x17D2 JUMP JUMPDEST PUSH2 0x3C3 PUSH2 0x2710 PUSH2 0x3BB PUSH1 0xA SLOAD DUP5 PUSH2 0x15AD JUMP JUMPDEST DIV DUP1 SWAP3 PUSH2 0x15D6 JUMP JUMPDEST SWAP6 DUP2 PUSH2 0x43A JUMPI JUMPDEST POP POP POP PUSH2 0x3D9 DUP5 PUSH1 0x5 SLOAD PUSH2 0x15E3 JUMP JUMPDEST PUSH1 0x5 SSTORE DUP1 DUP8 MSTORE PUSH1 0xD PUSH1 0x20 MSTORE PUSH1 0x5 DUP6 DUP9 KECCAK256 ADD PUSH2 0x3F5 DUP6 DUP3 SLOAD PUSH2 0x15E3 JUMP JUMPDEST SWAP1 SSTORE DUP5 MLOAD SWAP1 DUP2 MSTORE DUP4 PUSH1 0x20 DUP3 ADD MSTORE PUSH1 0x60 DUP6 DUP3 ADD MSTORE PUSH1 0xC PUSH1 0x60 DUP3 ADD MSTORE PUSH12 0x415F4E4F5F57494E4E455253 PUSH1 0xA0 SHL PUSH1 0x80 DUP3 ADD MSTORE LOG1 PUSH1 0x5 SLOAD DUP3 MLOAD SWAP2 DUP3 MSTORE PUSH1 0x20 DUP3 ADD MSTORE LOG1 PUSH1 0x1 DUP1 SSTORE DUP1 RETURN JUMPDEST DUP3 PUSH2 0x44F SWAP4 PUSH1 0x2 SLOAD PUSH1 0x8 SHR AND SWAP2 SLOAD AND SWAP1 PUSH2 0x166D JUMP JUMPDEST CODESIZE DUP1 DUP1 PUSH2 0x3CA JUMP JUMPDEST POP PUSH1 0xC SLOAD DUP3 GT ISZERO PUSH2 0x370 JUMP JUMPDEST POP POP CALLVALUE PUSH2 0x2E8 JUMPI DUP2 PUSH1 0x3 NOT CALLDATASIZE ADD SLT PUSH2 0x2E8 JUMPI PUSH1 0x3 SLOAD SWAP1 MLOAD PUSH1 0x1 PUSH1 0x1 PUSH1 0xA0 SHL SUB SWAP1 SWAP2 AND DUP2 MSTORE PUSH1 0x20 SWAP1 RETURN JUMPDEST POP POP CALLVALUE PUSH2 0x2E8 JUMPI PUSH1 0x20 CALLDATASIZE PUSH1 0x3 NOT ADD SLT PUSH2 0x2E8 JUMPI PUSH1 0x20 PUSH32 0x3847CE4AF77BA2ACB072656DF2710B411CFE562C30EDA8889AA922F6ED802540 SWAP2 PUSH2 0x4CB PUSH2 0x156B JUMP JUMPDEST PUSH2 0x4D3 PUSH2 0x1581 JUMP JUMPDEST PUSH1 0x1 PUSH1 0x1 PUSH1 0xA0 SHL SUB AND SWAP1 PUSH2 0x4E8 DUP3 ISZERO ISZERO PUSH2 0x182A JUMP JUMPDEST PUSH1 0x3 DUP1 SLOAD PUSH1 0x1 PUSH1 0x1 PUSH1 0xA0 SHL SUB NOT AND DUP4 OR SWAP1 SSTORE MLOAD SWAP1 DUP2 MSTORE LOG1 DUP1 RETURN JUMPDEST POP POP CALLVALUE PUSH2 0x2E8 JUMPI DUP2 PUSH1 0x3 NOT CALLDATASIZE ADD SLT PUSH2 0x2E8 JUMPI PUSH1 0x80 SWAP1 PUSH1 0x5 SLOAD SWAP1 PUSH1 0x7 SLOAD SWAP1 PUSH1 0x8 SLOAD SWAP1 PUSH1 0xC SLOAD SWAP3 DUP2 MLOAD SWAP5 DUP6 MSTORE PUSH1 0x20 DUP6 ADD MSTORE DUP4 ADD MSTORE PUSH1 0x60 DUP3 ADD MSTORE RETURN JUMPDEST POP CALLVALUE PUSH2 0x23F JUMPI PUSH1 0x20 CALLDATASIZE PUSH1 0x3 NOT ADD SLT PUSH2 0x23F JUMPI DUP3 DUP3 SWAP2 PUSH1 0x80 SWAP5 PUSH1 0x60 DUP5 MLOAD PUSH2 0x560 DUP2 PUSH2 0x1631 JUMP JUMPDEST DUP3 DUP2 MSTORE DUP3 PUSH1 0x20 DUP3 ADD MSTORE DUP3 DUP7 DUP3 ADD MSTORE ADD MSTORE CALLDATALOAD DUP2 MSTORE PUSH1 0xE PUSH1 0x20 MSTORE KECCAK256 SWAP1 DUP1 MLOAD SWAP1 PUSH2 0x586 DUP3 PUSH2 0x1631 JUMP JUMPDEST PUSH1 0x1 DUP1 PUSH1 0xA0 SHL SUB DUP4 SLOAD AND SWAP3 DUP4 DUP4 MSTORE PUSH1 0x1 DUP2 ADD SLOAD PUSH1 0x20 DUP5 ADD SWAP1 DUP2 MSTORE PUSH1 0x60 PUSH1 0xFF PUSH1 0x3 PUSH1 0x2 DUP6 ADD SLOAD SWAP5 DUP7 DUP9 ADD SWAP6 DUP7 MSTORE ADD SLOAD AND SWAP5 ADD SWAP4 ISZERO ISZERO DUP5 MSTORE DUP3 MLOAD SWAP5 DUP6 MSTORE MLOAD PUSH1 0x20 DUP6 ADD MSTORE MLOAD SWAP1 DUP4 ADD MSTORE MLOAD ISZERO ISZERO PUSH1 0x60 DUP3 ADD MSTORE RETURN JUMPDEST POP SWAP2 SWAP1 CALLVALUE PUSH2 0x2E8 JUMPI PUSH1 0x60 CALLDATASIZE PUSH1 0x3 NOT ADD SLT PUSH2 0x2E8 JUMPI DUP3 CALLDATALOAD SWAP2 PUSH1 0x24 DUP1 CALLDATALOAD SWAP5 PUSH1 0x44 CALLDATALOAD SWAP2 PUSH1 0x1 PUSH1 0x1 PUSH1 0x40 SHL SUB SWAP3 DUP4 DUP2 GT PUSH2 0x886 JUMPI PUSH2 0x613 SWAP1 CALLDATASIZE SWAP1 DUP5 ADD PUSH2 0x1525 JUMP JUMPDEST SWAP8 SWAP1 SWAP7 PUSH2 0x61E PUSH2 0x1733 JUMP JUMPDEST DUP1 ISZERO ISZERO DUP1 PUSH2 0x87A JUMPI JUMPDEST PUSH2 0x630 SWAP1 PUSH2 0x1756 JUMP JUMPDEST DUP1 DUP7 MSTORE PUSH1 0x20 SWAP4 PUSH1 0xD DUP6 MSTORE DUP8 DUP8 KECCAK256 SWAP4 PUSH1 0xFF PUSH1 0x8 DUP7 ADD SLOAD PUSH1 0x8 SHR AND ISZERO PUSH2 0x846 JUMPI DUP3 DUP9 MSTORE PUSH1 0xF DUP7 MSTORE DUP9 DUP9 KECCAK256 CALLER DUP10 MSTORE DUP7 MSTORE PUSH1 0xFF DUP10 DUP10 KECCAK256 SLOAD AND PUSH2 0x812 JUMPI DUP9 MLOAD SWAP5 DUP7 DUP7 ADD SWAP11 CALLER PUSH1 0x60 SHL DUP13 MSTORE DUP6 PUSH1 0x34 DUP9 ADD MSTORE PUSH1 0x34 DUP8 MSTORE PUSH1 0x60 DUP8 ADD SWAP12 DUP13 DUP11 DUP10 DUP3 LT SWAP2 GT OR PUSH2 0x800 JUMPI PUSH1 0x7 SWAP1 DUP14 DUP14 MSTORE DUP9 MLOAD SWAP1 KECCAK256 SWAP3 ADD SLOAD SWAP9 DUP14 GT PUSH2 0x7EE JUMPI PUSH1 0x5 SWAP13 DUP1 DUP15 SHL SWAP8 SWAP7 SWAP6 SWAP5 SWAP4 SWAP3 SWAP2 SWAP1 PUSH2 0x6BE DUP11 DUP11 ADD DUP16 PUSH2 0x164C JUMP JUMPDEST DUP14 MSTORE PUSH1 0x80 SWAP8 DUP9 DUP9 ADD SWAP1 DUP3 ADD SWAP2 CALLDATASIZE DUP4 GT PUSH2 0x7EA JUMPI DUP11 SWAP1 SWAP2 JUMPDEST DUP4 DUP4 LT PUSH2 0x7DA JUMPI POP POP POP POP SWAP8 DUP10 SWAP9 JUMPDEST DUP13 MLOAD DUP11 LT ISZERO PUSH2 0x725 JUMPI DUP10 DUP15 SHL DUP8 ADD DUP9 ADD MLOAD SWAP1 DUP2 DUP2 LT ISZERO PUSH2 0x715 JUMPI DUP12 MSTORE DUP9 MSTORE PUSH2 0x70F DUP12 DUP12 KECCAK256 JUMPDEST SWAP10 PUSH2 0x15F0 JUMP JUMPDEST SWAP9 PUSH2 0x6E4 JUMP JUMPDEST SWAP1 DUP12 MSTORE DUP9 MSTORE PUSH2 0x70F DUP12 DUP12 KECCAK256 PUSH2 0x709 JUMP JUMPDEST DUP11 SWAP9 SWAP6 SWAP8 POP DUP12 SWAP5 SWAP7 POP SUB PUSH2 0x7AA JUMPI POP POP SWAP1 PUSH32 0x786E090D783CACED3BADDCB29BD555FFB93FAF484529AB87FEAB4EC4C48A81E1 SWAP2 DUP4 DUP7 MSTORE PUSH1 0xF DUP3 MSTORE DUP1 DUP7 KECCAK256 CALLER DUP8 MSTORE DUP3 MSTORE DUP1 DUP7 KECCAK256 PUSH1 0x1 PUSH1 0xFF NOT DUP3 SLOAD AND OR SWAP1 SSTORE PUSH2 0x781 DUP6 PUSH1 0x8 SLOAD PUSH2 0x15E3 JUMP JUMPDEST PUSH1 0x8 SSTORE PUSH2 0x79C DUP6 CALLER PUSH1 0x1 DUP1 PUSH1 0xA0 SHL SUB PUSH1 0x2 SLOAD PUSH1 0x8 SHR AND PUSH2 0x166D JUMP JUMPDEST MLOAD SWAP4 DUP5 MSTORE CALLER SWAP4 LOG3 PUSH1 0x1 DUP1 SSTORE DUP1 RETURN JUMPDEST PUSH1 0x64 SWAP4 PUSH1 0xD SWAP3 SWAP4 MLOAD SWAP4 PUSH3 0x461BCD PUSH1 0xE5 SHL DUP6 MSTORE DUP5 ADD MSTORE DUP3 ADD MSTORE PUSH13 0x24B73B30B634B210383937B7B3 PUSH1 0x99 SHL PUSH1 0x44 DUP3 ADD MSTORE REVERT JUMPDEST DUP3 CALLDATALOAD DUP2 MSTORE SWAP2 DUP2 ADD SWAP2 DUP12 SWAP2 ADD PUSH2 0x6D5 JUMP JUMPDEST DUP13 DUP1 REVERT JUMPDEST PUSH4 0x4E487B71 PUSH1 0xE0 SHL DUP11 MSTORE PUSH1 0x41 DUP5 MSTORE DUP3 DUP11 REVERT JUMPDEST PUSH4 0x4E487B71 PUSH1 0xE0 SHL DUP12 MSTORE PUSH1 0x41 DUP6 MSTORE DUP4 DUP12 REVERT JUMPDEST DUP9 MLOAD PUSH3 0x461BCD PUSH1 0xE5 SHL DUP2 MSTORE SWAP2 DUP3 ADD DUP7 SWAP1 MSTORE PUSH1 0xF SWAP1 DUP3 ADD MSTORE PUSH15 0x105B1C9958591E4818DB185A5B5959 PUSH1 0x8A SHL PUSH1 0x44 DUP3 ADD MSTORE PUSH1 0x64 SWAP1 REVERT JUMPDEST DUP9 MLOAD PUSH3 0x461BCD PUSH1 0xE5 SHL DUP2 MSTORE SWAP2 DUP3 ADD DUP7 SWAP1 MSTORE PUSH1 0xF SWAP1 DUP3 ADD MSTORE PUSH15 0x21B630B4B6B9903737BA1037B832B7 PUSH1 0x89 SHL PUSH1 0x44 DUP3 ADD MSTORE PUSH1 0x64 SWAP1 REVERT JUMPDEST POP PUSH1 0xC SLOAD DUP2 GT ISZERO PUSH2 0x627 JUMP JUMPDEST DUP5 DUP1 REVERT JUMPDEST POP POP CALLVALUE PUSH2 0x2E8 JUMPI DUP2 PUSH1 0x3 NOT CALLDATASIZE ADD SLT PUSH2 0x2E8 JUMPI PUSH1 0x20 SWAP1 PUSH1 0x5 SLOAD SWAP1 MLOAD SWAP1 DUP2 MSTORE RETURN JUMPDEST POP SWAP1 CALLVALUE PUSH2 0x23F JUMPI DUP3 PUSH1 0x3 NOT CALLDATASIZE ADD SLT PUSH2 0x23F JUMPI PUSH1 0xFF PUSH1 0x8 DUP3 PUSH2 0x9B7 SWAP6 PUSH2 0x8CC PUSH2 0x189E JUMP JUMPDEST POP PUSH1 0xC SLOAD DUP2 MSTORE PUSH1 0xD PUSH1 0x20 MSTORE KECCAK256 DUP4 MLOAD SWAP5 PUSH2 0x8E4 DUP7 PUSH2 0x15FF JUMP JUMPDEST DUP2 SLOAD DUP7 MSTORE PUSH1 0x1 DUP3 ADD SLOAD PUSH1 0x20 DUP8 ADD MSTORE PUSH1 0x2 DUP3 ADD SLOAD DUP6 DUP8 ADD MSTORE PUSH1 0x3 DUP3 ADD SLOAD PUSH1 0x60 DUP8 ADD MSTORE DUP2 ADD SLOAD PUSH1 0x80 DUP7 ADD MSTORE PUSH1 0x5 DUP2 ADD SLOAD PUSH1 0xA0 DUP7 ADD MSTORE PUSH1 0x6 DUP2 ADD SLOAD PUSH1 0xC0 DUP7 ADD MSTORE PUSH1 0x7 DUP2 ADD SLOAD PUSH1 0xE0 DUP7 ADD MSTORE ADD SLOAD DUP2 DUP2 AND ISZERO ISZERO PUSH2 0x100 DUP6 ADD MSTORE PUSH1 0x8 SHR AND ISZERO ISZERO PUSH2 0x120 DUP4 ADD MSTORE MLOAD SWAP2 DUP3 SWAP2 DUP3 SWAP2 SWAP1 SWAP2 PUSH2 0x140 DUP2 ADD SWAP3 DUP1 MLOAD DUP3 MSTORE PUSH1 0x20 DUP2 ADD MLOAD PUSH1 0x20 DUP4 ADD MSTORE PUSH1 0x40 DUP2 ADD MLOAD PUSH1 0x40 DUP4 ADD MSTORE PUSH1 0x60 DUP2 ADD MLOAD PUSH1 0x60 DUP4 ADD MSTORE PUSH1 0x80 DUP2 ADD MLOAD PUSH1 0x80 DUP4 ADD MSTORE PUSH1 0xA0 DUP2 ADD MLOAD PUSH1 0xA0 DUP4 ADD MSTORE PUSH1 0xC0 DUP2 ADD MLOAD PUSH1 0xC0 DUP4 ADD MSTORE PUSH1 0xE0 DUP2 ADD MLOAD PUSH1 0xE0 DUP4 ADD MSTORE PUSH2 0x100 DUP1 DUP3 ADD MLOAD ISZERO ISZERO SWAP1 DUP4 ADD MSTORE PUSH2 0x120 DUP1 SWAP2 ADD MLOAD ISZERO ISZERO SWAP2 ADD MSTORE JUMP JUMPDEST SUB SWAP1 RETURN JUMPDEST POP POP CALLVALUE PUSH2 0x2E8 JUMPI DUP2 PUSH1 0x3 NOT CALLDATASIZE ADD SLT PUSH2 0x2E8 JUMPI PUSH1 0x20 SWAP1 PUSH1 0xC SLOAD SWAP1 MLOAD SWAP1 DUP2 MSTORE RETURN JUMPDEST POP POP CALLVALUE PUSH2 0x2E8 JUMPI DUP2 PUSH1 0x3 NOT CALLDATASIZE ADD SLT PUSH2 0x2E8 JUMPI PUSH1 0x20 SWAP1 PUSH1 0x7 SLOAD SWAP1 MLOAD SWAP1 DUP2 MSTORE RETURN JUMPDEST POP SWAP1 CALLVALUE PUSH2 0x23F JUMPI PUSH1 0x20 CALLDATASIZE PUSH1 0x3 NOT ADD SLT PUSH2 0x23F JUMPI PUSH1 0xFF PUSH1 0x8 DUP3 PUSH2 0x9B7 SWAP6 PUSH2 0xA1D PUSH2 0x189E JUMP JUMPDEST POP DUP6 CALLDATALOAD DUP2 MSTORE PUSH1 0xD PUSH1 0x20 MSTORE KECCAK256 DUP4 MLOAD SWAP5 PUSH2 0x8E4 DUP7 PUSH2 0x15FF JUMP JUMPDEST POP POP CALLVALUE PUSH2 0x2E8 JUMPI DUP2 PUSH1 0x3 NOT CALLDATASIZE ADD SLT PUSH2 0x2E8 JUMPI SWAP1 SLOAD SWAP1 MLOAD PUSH1 0x1 PUSH1 0x1 PUSH1 0xA0 SHL SUB SWAP1 SWAP2 AND DUP2 MSTORE PUSH1 0x20 SWAP1 RETURN JUMPDEST POP CALLVALUE PUSH2 0x23F JUMPI PUSH1 0x20 CALLDATASIZE PUSH1 0x3 NOT ADD SLT PUSH2 0x23F JUMPI DUP1 DUP3 PUSH2 0x140 SWAP5 PUSH1 0xFF SWAP4 CALLDATALOAD DUP2 MSTORE PUSH1 0xD PUSH1 0x20 MSTORE KECCAK256 DUP1 SLOAD SWAP4 PUSH1 0x1 DUP3 ADD SLOAD SWAP3 PUSH1 0x2 DUP4 ADD SLOAD SWAP1 PUSH1 0x3 DUP5 ADD SLOAD SWAP1 DUP5 ADD SLOAD SWAP1 PUSH1 0x5 DUP6 ADD SLOAD SWAP3 PUSH1 0x6 DUP7 ADD SLOAD SWAP5 PUSH1 0x8 PUSH1 0x7 DUP9 ADD SLOAD SWAP8 ADD SLOAD SWAP8 DUP2 MLOAD SWAP11 DUP12 MSTORE PUSH1 0x20 DUP12 ADD MSTORE DUP10 ADD MSTORE PUSH1 0x60 DUP9 ADD MSTORE PUSH1 0x80 DUP8 ADD MSTORE PUSH1 0xA0 DUP7 ADD MSTORE PUSH1 0xC0 DUP6 ADD MSTORE PUSH1 0xE0 DUP5 ADD MSTORE DUP2 DUP2 AND ISZERO ISZERO PUSH2 0x100 DUP5 ADD MSTORE PUSH1 0x8 SHR AND ISZERO ISZERO PUSH2 0x120 DUP3 ADD MSTORE RETURN JUMPDEST POP CALLVALUE PUSH2 0x23F JUMPI PUSH1 0x20 CALLDATASIZE PUSH1 0x3 NOT ADD SLT PUSH2 0x23F JUMPI PUSH1 0x80 SWAP3 DUP3 SWAP2 CALLDATALOAD DUP2 MSTORE PUSH1 0xE PUSH1 0x20 MSTORE KECCAK256 SWAP1 PUSH1 0x1 DUP1 PUSH1 0xA0 SHL SUB DUP3 SLOAD AND SWAP2 PUSH1 0x1 DUP2 ADD SLOAD SWAP2 PUSH1 0xFF PUSH1 0x3 PUSH1 0x2 DUP5 ADD SLOAD SWAP4 ADD SLOAD AND SWAP3 DUP2 MLOAD SWAP5 DUP6 MSTORE PUSH1 0x20 DUP6 ADD MSTORE DUP4 ADD MSTORE ISZERO ISZERO PUSH1 0x60 DUP3 ADD MSTORE RETURN JUMPDEST POP POP CALLVALUE PUSH2 0x2E8 JUMPI DUP2 PUSH1 0x3 NOT CALLDATASIZE ADD SLT PUSH2 0x2E8 JUMPI PUSH1 0x20 PUSH32 0x62E78CEA01BEE320CD4E420270B5EA74000D11B0C9F74754EBDBFC544B05A258 SWAP2 PUSH2 0xB83 PUSH2 0x1581 JUMP JUMPDEST PUSH2 0xB8B PUSH2 0x1715 JUMP JUMPDEST PUSH1 0x1 PUSH1 0xFF NOT PUSH1 0x2 SLOAD AND OR PUSH1 0x2 SSTORE MLOAD CALLER DUP2 MSTORE LOG1 DUP1 RETURN JUMPDEST DUP4 DUP3 CALLVALUE PUSH2 0x2E8 JUMPI PUSH1 0x20 CALLDATASIZE PUSH1 0x3 NOT ADD SLT PUSH2 0x2E8 JUMPI CALLDATALOAD PUSH2 0xBBC PUSH2 0x1581 JUMP JUMPDEST PUSH2 0xBCA PUSH2 0x7D0 DUP3 GT ISZERO PUSH2 0x1868 JUMP JUMPDEST PUSH1 0x9 SSTORE DUP1 RETURN JUMPDEST POP CALLVALUE PUSH2 0x23F JUMPI DUP2 PUSH1 0x3 NOT CALLDATASIZE ADD SLT PUSH2 0x23F JUMPI DUP2 PUSH1 0x20 SWAP4 PUSH1 0xFF SWAP3 PUSH2 0xBF0 PUSH2 0x1555 JUMP JUMPDEST SWAP1 CALLDATALOAD DUP3 MSTORE PUSH1 0xF DUP7 MSTORE DUP3 DUP3 KECCAK256 PUSH1 0x1 PUSH1 0x1 PUSH1 0xA0 SHL SUB SWAP1 SWAP2 AND DUP3 MSTORE DUP6 MSTORE KECCAK256 SLOAD SWAP2 MLOAD SWAP2 AND ISZERO ISZERO DUP2 MSTORE RETURN JUMPDEST DUP4 CALLVALUE PUSH2 0xC70 JUMPI DUP1 PUSH1 0x3 NOT CALLDATASIZE ADD SLT PUSH2 0xC70 JUMPI PUSH2 0xC2F PUSH2 0x1581 JUMP JUMPDEST DUP1 SLOAD PUSH1 0x1 PUSH1 0x1 PUSH1 0xA0 SHL SUB NOT DUP2 AND DUP3 SSTORE DUP2 SWAP1 PUSH1 0x1 PUSH1 0x1 PUSH1 0xA0 SHL SUB AND PUSH32 0x8BE0079C531659141344CD1FD0A4F28419497F9722A3DAAFE3B4186F6B6457E0 DUP3 DUP1 LOG3 DUP1 RETURN JUMPDEST DUP1 REVERT JUMPDEST POP SWAP1 CALLVALUE PUSH2 0x23F JUMPI PUSH1 0x20 CALLDATASIZE PUSH1 0x3 NOT ADD SLT PUSH2 0x23F JUMPI PUSH2 0xC8E PUSH2 0x156B JUMP JUMPDEST PUSH2 0xC96 PUSH2 0x1581 JUMP JUMPDEST DUP2 MLOAD PUSH4 0x70A08231 PUSH1 0xE0 SHL DUP2 MSTORE ADDRESS SWAP4 DUP2 ADD SWAP4 SWAP1 SWAP4 MSTORE PUSH1 0x1 PUSH1 0x1 PUSH1 0xA0 SHL SUB SWAP1 DUP2 AND SWAP1 PUSH1 0x20 DUP5 PUSH1 0x24 DUP2 DUP6 GAS STATICCALL SWAP3 DUP4 ISZERO PUSH2 0xD18 JUMPI POP DUP5 SWAP3 PUSH2 0xCDF JUMPI JUMPDEST PUSH2 0xCDC SWAP4 POP DUP5 SLOAD AND SWAP1 PUSH2 0x166D JUMP JUMPDEST DUP1 RETURN JUMPDEST SWAP2 POP PUSH1 0x20 DUP4 RETURNDATASIZE DUP3 GT PUSH2 0xD10 JUMPI JUMPDEST DUP2 PUSH2 0xCF9 PUSH1 0x20 SWAP4 DUP4 PUSH2 0x164C JUMP JUMPDEST DUP2 ADD SUB SLT PUSH2 0xD0C JUMPI PUSH2 0xCDC SWAP3 MLOAD SWAP2 PUSH2 0xCCE JUMP JUMPDEST DUP4 DUP1 REVERT JUMPDEST RETURNDATASIZE SWAP2 POP PUSH2 0xCEC JUMP JUMPDEST MLOAD RETURNDATASIZE DUP7 DUP3 RETURNDATACOPY RETURNDATASIZE SWAP1 REVERT JUMPDEST POP POP CALLVALUE PUSH2 0x2E8 JUMPI DUP2 PUSH1 0x3 NOT CALLDATASIZE ADD SLT PUSH2 0x2E8 JUMPI PUSH1 0x20 SWAP1 PUSH1 0xB SLOAD SWAP1 MLOAD SWAP1 DUP2 MSTORE RETURN JUMPDEST POP POP CALLVALUE PUSH2 0x2E8 JUMPI DUP2 PUSH1 0x3 NOT CALLDATASIZE ADD SLT PUSH2 0x2E8 JUMPI PUSH1 0x20 SWAP1 PUSH1 0x8 SLOAD SWAP1 MLOAD SWAP1 DUP2 MSTORE RETURN JUMPDEST POP CALLVALUE PUSH2 0x23F JUMPI DUP3 PUSH1 0x3 NOT CALLDATASIZE ADD SLT PUSH2 0x23F JUMPI SLOAD SWAP1 MLOAD PUSH1 0x1 PUSH1 0x1 PUSH1 0xA0 SHL SUB SWAP1 SWAP2 AND DUP2 MSTORE PUSH1 0x20 SWAP2 POP RETURN JUMPDEST POP POP CALLVALUE PUSH2 0x2E8 JUMPI DUP2 PUSH1 0x3 NOT CALLDATASIZE ADD SLT PUSH2 0x2E8 JUMPI PUSH1 0x20 SWAP1 PUSH1 0xFF PUSH1 0x2 SLOAD AND SWAP1 MLOAD SWAP1 ISZERO ISZERO DUP2 MSTORE RETURN JUMPDEST POP SWAP2 SWAP1 CALLVALUE PUSH2 0x2E8 JUMPI DUP1 PUSH1 0x3 NOT CALLDATASIZE ADD SLT PUSH2 0x2E8 JUMPI DUP3 CALLDATALOAD PUSH1 0x1 PUSH1 0x1 PUSH1 0x40 SHL SUB DUP2 GT PUSH2 0x23F JUMPI PUSH2 0xDDA SWAP1 CALLDATASIZE SWAP1 DUP6 ADD PUSH2 0x1525 JUMP JUMPDEST PUSH1 0x3 DUP1 SLOAD SWAP1 SWAP6 SWAP2 SWAP4 PUSH1 0x24 SWAP4 DUP5 CALLDATALOAD SWAP3 PUSH1 0x1 PUSH1 0x1 PUSH1 0xA0 SHL SUB SWAP1 DUP2 AND CALLER SUB PUSH2 0x106B JUMPI PUSH2 0xE01 PUSH2 0x1733 JUMP JUMPDEST PUSH2 0xE09 PUSH2 0x1715 JUMP JUMPDEST DUP7 ISZERO PUSH2 0x103C JUMPI DUP4 ISZERO PUSH2 0x1009 JUMPI PUSH2 0x2710 PUSH2 0xE24 PUSH1 0x9 SLOAD DUP7 PUSH2 0x15AD JUMP JUMPDEST DIV SWAP6 PUSH2 0xE30 DUP8 DUP7 PUSH2 0x15D6 JUMP JUMPDEST SWAP7 DUP5 DUP2 PUSH2 0xFBB JUMPI JUMPDEST POP POP PUSH1 0x5 SWAP3 PUSH2 0xE48 DUP9 DUP6 SLOAD PUSH2 0x15E3 JUMP JUMPDEST SWAP3 DUP4 DUP6 SSTORE PUSH1 0x0 DUP1 MLOAD PUSH1 0x20 PUSH2 0x18EB DUP4 CODECOPY DUP2 MLOAD SWAP2 MSTORE DUP7 DUP1 MLOAD DUP12 DUP2 MSTORE PUSH1 0x20 SWAP7 DUP8 DUP3 ADD MSTORE LOG1 PUSH1 0xC SWAP1 DUP2 SLOAD DUP13 MSTORE PUSH1 0xD DUP6 MSTORE DUP11 DUP8 DUP14 KECCAK256 SWAP9 DIV SWAP3 DUP13 JUMPDEST DUP13 DUP2 LT PUSH2 0xEBD JUMPI DUP14 DUP16 DUP15 DUP15 PUSH2 0xEA9 DUP16 DUP16 PUSH2 0xEB3 SWAP6 DUP2 ADD PUSH2 0xE9E DUP7 DUP3 SLOAD PUSH2 0x15E3 JUMP JUMPDEST SWAP1 SSTORE ADD SWAP2 DUP3 SLOAD PUSH2 0x15E3 JUMP JUMPDEST SWAP1 SSTORE PUSH1 0x7 SLOAD PUSH2 0x15E3 JUMP JUMPDEST PUSH1 0x7 SSTORE PUSH1 0x1 DUP1 SSTORE DUP1 RETURN JUMPDEST DUP1 DUP9 SHL DUP3 ADD CALLDATALOAD DUP1 DUP16 MSTORE PUSH1 0xE DUP9 MSTORE DUP10 DUP16 KECCAK256 SLOAD DUP5 AND PUSH2 0xF7F JUMPI SWAP1 DUP16 SWAP2 DUP16 DUP12 PUSH2 0xF7A SWAP5 DUP12 PUSH2 0xF43 SWAP4 DUP11 SLOAD DUP11 DUP6 MLOAD SWAP6 PUSH2 0xEF1 DUP8 PUSH2 0x1631 JUMP JUMPDEST ORIGIN DUP8 MSTORE DUP5 DUP8 ADD SWAP3 DUP4 MSTORE DUP1 DUP8 ADD SWAP4 TIMESTAMP DUP6 MSTORE PUSH1 0xE PUSH1 0x60 DUP10 ADD SWAP7 DUP3 DUP9 MSTORE DUP12 DUP4 MSTORE MSTORE KECCAK256 SWAP6 MLOAD AND PUSH1 0x1 DUP1 PUSH1 0xA0 SHL SUB NOT DUP7 SLOAD AND OR DUP6 SSTORE MLOAD PUSH1 0x1 DUP6 ADD SSTORE MLOAD PUSH1 0x2 DUP5 ADD SSTORE MLOAD ISZERO ISZERO SWAP2 ADD SWAP1 PUSH1 0xFF DUP1 NOT DUP4 SLOAD AND SWAP2 ISZERO ISZERO AND OR SWAP1 SSTORE JUMP JUMPDEST DUP6 SLOAD SWAP1 DUP12 MLOAD SWAP2 DUP3 MSTORE DUP8 DUP11 DUP4 ADD MSTORE PUSH32 0x5BCB732963CA51738114FD63F252E815F9697304ED10901C5D6CDA7C22B4E61C DUP13 ORIGIN SWAP4 LOG3 PUSH2 0x15F0 JUMP JUMPDEST PUSH2 0xE7D JUMP JUMPDEST DUP10 MLOAD PUSH3 0x461BCD PUSH1 0xE5 SHL DUP2 MSTORE DUP1 DUP14 ADD DUP10 SWAP1 MSTORE PUSH1 0x17 DUP2 DUP10 ADD MSTORE PUSH23 0x14185CDCC8185B1C9958591E481C9959DA5CDD195C9959 PUSH1 0x4A SHL PUSH1 0x44 DUP3 ADD MSTORE PUSH1 0x64 SWAP1 REVERT JUMPDEST DUP2 PUSH2 0xFF3 PUSH32 0xCBB219BD30D35F6F5B0533152ED88F4B4D72DE3A218B06F19D7E88411F63C8F3 SWAP4 DUP7 PUSH1 0x2 SLOAD PUSH1 0x8 SHR AND DUP8 DUP13 SLOAD AND SWAP1 PUSH2 0x166D JUMP JUMPDEST DUP5 DUP10 SLOAD AND DUP3 MLOAD SWAP2 DUP3 MSTORE PUSH1 0x20 DUP3 ADD MSTORE LOG1 CODESIZE DUP5 PUSH2 0xE38 JUMP JUMPDEST DUP3 MLOAD PUSH3 0x461BCD PUSH1 0xE5 SHL DUP2 MSTORE PUSH1 0x20 DUP2 DUP8 ADD MSTORE PUSH1 0xE DUP2 DUP9 ADD MSTORE PUSH14 0x139BC81C185CDCC8185B5BDD5B9D PUSH1 0x92 SHL PUSH1 0x44 DUP3 ADD MSTORE PUSH1 0x64 SWAP1 REVERT JUMPDEST DUP3 MLOAD PUSH3 0x461BCD PUSH1 0xE5 SHL DUP2 MSTORE PUSH1 0x20 DUP2 DUP8 ADD MSTORE PUSH1 0xA DUP2 DUP9 ADD MSTORE PUSH10 0x4E6F207469636B657473 PUSH1 0xB0 SHL PUSH1 0x44 DUP3 ADD MSTORE PUSH1 0x64 SWAP1 REVERT JUMPDEST DUP3 MLOAD PUSH3 0x461BCD PUSH1 0xE5 SHL DUP2 MSTORE PUSH1 0x20 DUP2 DUP8 ADD MSTORE PUSH1 0x10 DUP2 DUP9 ADD MSTORE PUSH16 0x27B7363C902630A137B634BA30AB2923 PUSH1 0x81 SHL PUSH1 0x44 DUP3 ADD MSTORE PUSH1 0x64 SWAP1 REVERT JUMPDEST POP POP CALLVALUE PUSH2 0x2E8 JUMPI DUP2 PUSH1 0x3 NOT CALLDATASIZE ADD SLT PUSH2 0x2E8 JUMPI PUSH1 0x20 SWAP1 PUSH1 0xA SLOAD SWAP1 MLOAD SWAP1 DUP2 MSTORE RETURN JUMPDEST POP CALLVALUE PUSH2 0x23F JUMPI DUP3 PUSH1 0x3 NOT CALLDATASIZE ADD SLT PUSH2 0x23F JUMPI PUSH2 0x10D8 PUSH2 0x1581 JUMP JUMPDEST PUSH1 0x2 SLOAD SWAP1 PUSH1 0xFF DUP3 AND ISZERO PUSH2 0x111A JUMPI POP PUSH1 0xFF NOT AND PUSH1 0x2 SSTORE MLOAD CALLER DUP2 MSTORE PUSH32 0x5DB9EE0A495BF2E6FF9C91A7834C1BA4FDD244A5E8AA4E537BD38AEAE4B073AA SWAP1 PUSH1 0x20 SWAP1 LOG1 DUP1 RETURN JUMPDEST DUP3 MLOAD PUSH4 0x8DFC202B PUSH1 0xE0 SHL DUP2 MSTORE REVERT JUMPDEST POP POP CALLVALUE PUSH2 0x2E8 JUMPI DUP2 PUSH1 0x3 NOT CALLDATASIZE ADD SLT PUSH2 0x2E8 JUMPI PUSH1 0x2 SLOAD SWAP1 MLOAD PUSH1 0x8 SWAP2 SWAP1 SWAP2 SHR PUSH1 0x1 PUSH1 0x1 PUSH1 0xA0 SHL SUB AND DUP2 MSTORE PUSH1 0x20 SWAP1 RETURN JUMPDEST POP POP CALLVALUE PUSH2 0x2E8 JUMPI DUP2 PUSH1 0x3 NOT CALLDATASIZE ADD SLT PUSH2 0x2E8 JUMPI PUSH1 0x20 SWAP1 PUSH1 0x6 SLOAD SWAP1 MLOAD SWAP1 DUP2 MSTORE RETURN JUMPDEST POP SWAP2 SWAP1 CALLVALUE PUSH2 0x2E8 JUMPI PUSH1 0x60 CALLDATASIZE PUSH1 0x3 NOT ADD SLT PUSH2 0x2E8 JUMPI DUP3 CALLDATALOAD PUSH1 0x24 CALLDATALOAD SWAP1 PUSH1 0x44 CALLDATALOAD SWAP5 DUP6 ISZERO ISZERO DUP7 SUB PUSH2 0x886 JUMPI PUSH2 0x11A3 PUSH2 0x1581 JUMP JUMPDEST DUP2 ISZERO ISZERO DUP1 PUSH2 0x13A0 JUMPI JUMPDEST PUSH2 0x11B5 SWAP1 PUSH2 0x1756 JUMP JUMPDEST DUP2 DUP6 MSTORE PUSH1 0xD PUSH1 0x20 MSTORE DUP4 DUP6 KECCAK256 SWAP2 PUSH1 0x8 DUP4 ADD SWAP4 DUP5 SLOAD SWAP8 PUSH1 0xFF DUP10 AND PUSH2 0x136B JUMPI PUSH1 0x1 DUP9 SWAP10 SWAP9 SWAP8 SWAP9 TIMESTAMP PUSH1 0x2 DUP9 ADD SSTORE DUP4 PUSH1 0x7 DUP9 ADD SSTORE PUSH1 0xFF NOT AND OR DUP7 SSTORE DUP1 PUSH2 0x1360 JUMPI JUMPDEST PUSH2 0x1334 JUMPI JUMPDEST DUP7 PUSH2 0x100 SWAP5 PUSH2 0xFF00 NOT SWAP7 DUP7 DUP9 DUP3 SLOAD AND OR SWAP1 SSTORE PUSH1 0x6 ADD SLOAD DUP2 MLOAD SWAP3 DUP4 MSTORE PUSH1 0x20 DUP4 ADD MSTORE PUSH32 0xB382055365AA71A67CC934673ADFAB8576A3CA149813376CFACED4963A1608AB SWAP2 LOG2 PUSH1 0xC SLOAD PUSH2 0x1245 SWAP1 PUSH2 0x15F0 JUMP JUMPDEST SWAP2 DUP3 PUSH1 0xC SSTORE DUP6 MLOAD SWAP2 PUSH2 0x1256 DUP4 PUSH2 0x15FF JUMP JUMPDEST DUP4 DUP4 MSTORE PUSH1 0x20 DUP4 ADD SWAP1 TIMESTAMP DUP3 MSTORE DUP8 DUP5 ADD SWAP1 DUP8 DUP3 MSTORE PUSH1 0x60 DUP6 ADD DUP9 DUP2 MSTORE PUSH1 0x80 DUP7 ADD SWAP1 DUP10 DUP3 MSTORE PUSH1 0xA0 DUP8 ADD SWAP4 DUP11 DUP6 MSTORE PUSH1 0xC0 DUP9 ADD SWAP6 DUP12 DUP8 MSTORE DUP13 DUP13 PUSH1 0xE0 DUP12 ADD SWAP10 DUP2 DUP12 MSTORE DUP12 ADD SWAP14 DUP15 MSTORE PUSH2 0x120 DUP12 ADD SWAP12 DUP2 DUP14 MSTORE DUP2 MSTORE PUSH1 0xD PUSH1 0x20 MSTORE KECCAK256 SWAP9 MLOAD DUP10 SSTORE MLOAD PUSH1 0x1 DUP10 ADD SSTORE MLOAD PUSH1 0x2 DUP9 ADD SSTORE MLOAD PUSH1 0x3 DUP8 ADD SSTORE MLOAD SWAP1 DUP6 ADD SSTORE MLOAD PUSH1 0x5 DUP5 ADD SSTORE MLOAD PUSH1 0x6 DUP4 ADD SSTORE MLOAD PUSH1 0x7 DUP3 ADD SSTORE PUSH1 0x8 ADD SWAP3 MLOAD ISZERO ISZERO PUSH2 0x12F1 SWAP1 DUP5 SWAP1 PUSH1 0xFF DUP1 NOT DUP4 SLOAD AND SWAP2 ISZERO ISZERO AND OR SWAP1 SSTORE JUMP JUMPDEST MLOAD ISZERO ISZERO SWAP1 DUP3 SLOAD SWAP2 PUSH1 0x8 SHL PUSH2 0xFF00 AND SWAP2 AND OR SWAP1 SSTORE PUSH1 0xC SLOAD SWAP1 MLOAD TIMESTAMP DUP2 MSTORE PUSH1 0x20 PUSH32 0xE934619C48E1B0B21B662ADF6B7C08AD37E6F0D120F40A505503B4FD3BCFEC58 SWAP2 LOG2 DUP1 RETURN JUMPDEST PUSH2 0x1358 PUSH2 0x2710 PUSH2 0x1349 PUSH1 0x5 SLOAD PUSH1 0xB SLOAD SWAP1 PUSH2 0x15AD JUMP JUMPDEST DIV DUP1 PUSH1 0x6 DUP8 ADD SSTORE PUSH1 0x5 SLOAD PUSH2 0x15D6 JUMP JUMPDEST PUSH1 0x5 SSTORE PUSH2 0x11F6 JUMP JUMPDEST POP PUSH1 0x5 SLOAD ISZERO ISZERO PUSH2 0x11F1 JUMP JUMPDEST DUP7 MLOAD PUSH3 0x461BCD PUSH1 0xE5 SHL DUP2 MSTORE PUSH1 0x20 DUP2 DUP7 ADD MSTORE PUSH1 0xF PUSH1 0x24 DUP3 ADD MSTORE PUSH15 0x105B1C9958591E481CD95D1D1B1959 PUSH1 0x8A SHL PUSH1 0x44 DUP3 ADD MSTORE PUSH1 0x64 SWAP1 REVERT JUMPDEST POP PUSH1 0xC SLOAD DUP3 GT ISZERO PUSH2 0x11AC JUMP JUMPDEST POP SWAP1 CALLVALUE PUSH2 0x23F JUMPI PUSH1 0x0 DUP1 MLOAD PUSH1 0x20 PUSH2 0x18EB DUP4 CODECOPY DUP2 MLOAD SWAP2 MSTORE SWAP2 PUSH32 0xCFDA897193FFDB0207C6F9900DA6832CCB396AEF4BA8932FC8BBA097CF0C8AAE PUSH1 0xA0 PUSH2 0x13EF CALLDATASIZE PUSH2 0x150A JUMP JUMPDEST PUSH2 0x13F7 PUSH2 0x1581 JUMP JUMPDEST DUP2 ISZERO ISZERO DUP1 PUSH2 0x14E2 JUMPI JUMPDEST PUSH2 0x1409 SWAP1 PUSH2 0x1756 JUMP JUMPDEST PUSH2 0x1411 PUSH2 0x1733 JUMP JUMPDEST PUSH2 0x141C DUP2 ISZERO ISZERO PUSH2 0x1799 JUMP JUMPDEST PUSH1 0x2 SLOAD SWAP1 PUSH2 0x1439 DUP2 PUSH1 0x1 DUP1 DUP8 SHL SUB SWAP4 ADDRESS SWAP1 DUP6 CALLER SWAP2 PUSH1 0x8 SHR AND PUSH2 0x17D2 JUMP JUMPDEST PUSH2 0x144B PUSH2 0x2710 PUSH2 0x3BB PUSH1 0xA SLOAD DUP5 PUSH2 0x15AD JUMP JUMPDEST SWAP6 DUP2 PUSH2 0x14C5 JUMPI JUMPDEST POP POP POP PUSH2 0x1461 DUP5 PUSH1 0x5 SLOAD PUSH2 0x15E3 JUMP JUMPDEST PUSH1 0x5 SSTORE DUP1 DUP8 MSTORE PUSH1 0xD PUSH1 0x20 MSTORE PUSH1 0x5 DUP6 DUP9 KECCAK256 ADD PUSH2 0x147D DUP6 DUP3 SLOAD PUSH2 0x15E3 JUMP JUMPDEST SWAP1 SSTORE DUP5 MLOAD SWAP1 DUP2 MSTORE DUP4 PUSH1 0x20 DUP3 ADD MSTORE PUSH1 0x60 DUP6 DUP3 ADD MSTORE PUSH1 0xF PUSH1 0x60 DUP3 ADD MSTORE PUSH15 0x425F4E4F5F34445F57494E4E455253 PUSH1 0x88 SHL PUSH1 0x80 DUP3 ADD MSTORE LOG1 PUSH1 0x5 SLOAD DUP3 MLOAD SWAP2 DUP3 MSTORE PUSH1 0x20 DUP3 ADD MSTORE LOG1 PUSH1 0x1 DUP1 SSTORE DUP1 RETURN JUMPDEST DUP3 PUSH2 0x14DA SWAP4 PUSH1 0x2 SLOAD PUSH1 0x8 SHR AND SWAP2 SLOAD AND SWAP1 PUSH2 0x166D JUMP JUMPDEST CODESIZE DUP1 DUP1 PUSH2 0x1452 JUMP JUMPDEST POP PUSH1 0xC SLOAD DUP3 GT ISZERO PUSH2 0x1400 JUMP JUMPDEST DUP5 SWAP1 CALLVALUE PUSH2 0x2E8 JUMPI DUP2 PUSH1 0x3 NOT CALLDATASIZE ADD SLT PUSH2 0x2E8 JUMPI PUSH1 0x20 SWAP1 PUSH1 0x9 SLOAD DUP2 MSTORE RETURN JUMPDEST PUSH1 0x40 SWAP1 PUSH1 0x3 NOT ADD SLT PUSH2 0x1520 JUMPI PUSH1 0x4 CALLDATALOAD SWAP1 PUSH1 0x24 CALLDATALOAD SWAP1 JUMP JUMPDEST PUSH1 0x0 DUP1 REVERT JUMPDEST SWAP2 DUP2 PUSH1 0x1F DUP5 ADD SLT ISZERO PUSH2 0x1520 JUMPI DUP3 CALLDATALOAD SWAP2 PUSH1 0x1 PUSH1 0x1 PUSH1 0x40 SHL SUB DUP4 GT PUSH2 0x1520 JUMPI PUSH1 0x20 DUP1 DUP6 ADD SWAP5 DUP5 PUSH1 0x5 SHL ADD ADD GT PUSH2 0x1520 JUMPI JUMP JUMPDEST PUSH1 0x24 CALLDATALOAD SWAP1 PUSH1 0x1 PUSH1 0x1 PUSH1 0xA0 SHL SUB DUP3 AND DUP3 SUB PUSH2 0x1520 JUMPI JUMP JUMPDEST PUSH1 0x4 CALLDATALOAD SWAP1 PUSH1 0x1 PUSH1 0x1 PUSH1 0xA0 SHL SUB DUP3 AND DUP3 SUB PUSH2 0x1520 JUMPI JUMP JUMPDEST PUSH1 0x0 SLOAD PUSH1 0x1 PUSH1 0x1 PUSH1 0xA0 SHL SUB AND CALLER SUB PUSH2 0x1595 JUMPI JUMP JUMPDEST PUSH1 0x40 MLOAD PUSH4 0x118CDAA7 PUSH1 0xE0 SHL DUP2 MSTORE CALLER PUSH1 0x4 DUP3 ADD MSTORE PUSH1 0x24 SWAP1 REVERT JUMPDEST DUP2 DUP2 MUL SWAP3 SWAP2 DUP2 ISZERO SWAP2 DUP5 DIV EQ OR ISZERO PUSH2 0x15C0 JUMPI JUMP JUMPDEST PUSH4 0x4E487B71 PUSH1 0xE0 SHL PUSH1 0x0 MSTORE PUSH1 0x11 PUSH1 0x4 MSTORE PUSH1 0x24 PUSH1 0x0 REVERT JUMPDEST SWAP2 SWAP1 DUP3 SUB SWAP2 DUP3 GT PUSH2 0x15C0 JUMPI JUMP JUMPDEST SWAP2 SWAP1 DUP3 ADD DUP1 SWAP3 GT PUSH2 0x15C0 JUMPI JUMP JUMPDEST PUSH1 0x0 NOT DUP2 EQ PUSH2 0x15C0 JUMPI PUSH1 0x1 ADD SWAP1 JUMP JUMPDEST PUSH2 0x140 DUP2 ADD SWAP1 DUP2 LT PUSH1 0x1 PUSH1 0x1 PUSH1 0x40 SHL SUB DUP3 GT OR PUSH2 0x161B JUMPI PUSH1 0x40 MSTORE JUMP JUMPDEST PUSH4 0x4E487B71 PUSH1 0xE0 SHL PUSH1 0x0 MSTORE PUSH1 0x41 PUSH1 0x4 MSTORE PUSH1 0x24 PUSH1 0x0 REVERT JUMPDEST PUSH1 0x80 DUP2 ADD SWAP1 DUP2 LT PUSH1 0x1 PUSH1 0x1 PUSH1 0x40 SHL SUB DUP3 GT OR PUSH2 0x161B JUMPI PUSH1 0x40 MSTORE JUMP JUMPDEST SWAP1 PUSH1 0x1F DUP1 NOT SWAP2 ADD AND DUP2 ADD SWAP1 DUP2 LT PUSH1 0x1 PUSH1 0x1 PUSH1 0x40 SHL SUB DUP3 GT OR PUSH2 0x161B JUMPI PUSH1 0x40 MSTORE JUMP JUMPDEST PUSH1 0x40 MLOAD PUSH4 0xA9059CBB PUSH1 0xE0 SHL PUSH1 0x20 DUP3 ADD MSTORE PUSH1 0x1 PUSH1 0x1 PUSH1 0xA0 SHL SUB SWAP1 SWAP3 AND PUSH1 0x24 DUP4 ADD MSTORE PUSH1 0x44 DUP1 DUP4 ADD SWAP4 SWAP1 SWAP4 MSTORE SWAP2 DUP2 MSTORE PUSH2 0x16AB SWAP2 PUSH2 0x16A6 DUP3 PUSH2 0x1631 JUMP JUMPDEST PUSH2 0x16AD JUMP JUMPDEST JUMP JUMPDEST SWAP1 PUSH1 0x0 PUSH1 0x20 SWAP2 DUP3 DUP2 MLOAD SWAP2 ADD DUP3 DUP6 GAS CALL ISZERO PUSH2 0x1709 JUMPI PUSH1 0x0 MLOAD RETURNDATASIZE PUSH2 0x1700 JUMPI POP PUSH1 0x1 PUSH1 0x1 PUSH1 0xA0 SHL SUB DUP2 AND EXTCODESIZE ISZERO JUMPDEST PUSH2 0x16DE JUMPI POP JUMP JUMPDEST PUSH1 0x40 MLOAD PUSH4 0x5274AFE7 PUSH1 0xE0 SHL DUP2 MSTORE PUSH1 0x1 PUSH1 0x1 PUSH1 0xA0 SHL SUB SWAP1 SWAP2 AND PUSH1 0x4 DUP3 ADD MSTORE PUSH1 0x24 SWAP1 REVERT JUMPDEST PUSH1 0x1 EQ ISZERO PUSH2 0x16D7 JUMP JUMPDEST PUSH1 0x40 MLOAD RETURNDATASIZE PUSH1 0x0 DUP3 RETURNDATACOPY RETURNDATASIZE SWAP1 REVERT JUMPDEST PUSH1 0xFF PUSH1 0x2 SLOAD AND PUSH2 0x1721 JUMPI JUMP JUMPDEST PUSH1 0x40 MLOAD PUSH4 0xD93C0665 PUSH1 0xE0 SHL DUP2 MSTORE PUSH1 0x4 SWAP1 REVERT JUMPDEST PUSH1 0x2 PUSH1 0x1 SLOAD EQ PUSH2 0x1744 JUMPI PUSH1 0x2 PUSH1 0x1 SSTORE JUMP JUMPDEST PUSH1 0x40 MLOAD PUSH4 0x3EE5AEB5 PUSH1 0xE0 SHL DUP2 MSTORE PUSH1 0x4 SWAP1 REVERT JUMPDEST ISZERO PUSH2 0x175D JUMPI JUMP JUMPDEST PUSH1 0x40 MLOAD PUSH3 0x461BCD PUSH1 0xE5 SHL DUP2 MSTORE PUSH1 0x20 PUSH1 0x4 DUP3 ADD MSTORE PUSH1 0x14 PUSH1 0x24 DUP3 ADD MSTORE PUSH20 0x149BDD5B9908191BD95CC81B9BDD08195E1A5CDD PUSH1 0x62 SHL PUSH1 0x44 DUP3 ADD MSTORE PUSH1 0x64 SWAP1 REVERT JUMPDEST ISZERO PUSH2 0x17A0 JUMPI JUMP JUMPDEST PUSH1 0x40 MLOAD PUSH3 0x461BCD PUSH1 0xE5 SHL DUP2 MSTORE PUSH1 0x20 PUSH1 0x4 DUP3 ADD MSTORE PUSH1 0xA PUSH1 0x24 DUP3 ADD MSTORE PUSH10 0x4E6F20737572706C7573 PUSH1 0xB0 SHL PUSH1 0x44 DUP3 ADD MSTORE PUSH1 0x64 SWAP1 REVERT JUMPDEST PUSH1 0x40 MLOAD PUSH4 0x23B872DD PUSH1 0xE0 SHL PUSH1 0x20 DUP3 ADD MSTORE PUSH1 0x1 PUSH1 0x1 PUSH1 0xA0 SHL SUB SWAP3 DUP4 AND PUSH1 0x24 DUP3 ADD MSTORE SWAP3 SWAP1 SWAP2 AND PUSH1 0x44 DUP4 ADD MSTORE PUSH1 0x64 DUP1 DUP4 ADD SWAP4 SWAP1 SWAP4 MSTORE SWAP2 DUP2 MSTORE PUSH1 0xA0 DUP2 ADD SWAP2 DUP2 DUP4 LT PUSH1 0x1 PUSH1 0x1 PUSH1 0x40 SHL SUB DUP5 GT OR PUSH2 0x161B JUMPI PUSH2 0x16AB SWAP3 PUSH1 0x40 MSTORE PUSH2 0x16AD JUMP JUMPDEST ISZERO PUSH2 0x1831 JUMPI JUMP JUMPDEST PUSH1 0x40 MLOAD PUSH3 0x461BCD PUSH1 0xE5 SHL DUP2 MSTORE PUSH1 0x20 PUSH1 0x4 DUP3 ADD MSTORE PUSH1 0xF PUSH1 0x24 DUP3 ADD MSTORE PUSH15 0x496E76616C69642061646472657373 PUSH1 0x88 SHL PUSH1 0x44 DUP3 ADD MSTORE PUSH1 0x64 SWAP1 REVERT JUMPDEST ISZERO PUSH2 0x186F JUMPI JUMP JUMPDEST PUSH1 0x40 MLOAD PUSH3 0x461BCD PUSH1 0xE5 SHL DUP2 MSTORE PUSH1 0x20 PUSH1 0x4 DUP3 ADD MSTORE PUSH1 0x7 PUSH1 0x24 DUP3 ADD MSTORE PUSH7 0x4D617820323025 PUSH1 0xC8 SHL PUSH1 0x44 DUP3 ADD MSTORE PUSH1 0x64 SWAP1 REVERT JUMPDEST PUSH1 0x40 MLOAD SWAP1 PUSH2 0x18AB DUP3 PUSH2 0x15FF JUMP JUMPDEST DUP2 PUSH2 0x120 PUSH1 0x0 SWAP2 DUP3 DUP2 MSTORE DUP3 PUSH1 0x20 DUP3 ADD MSTORE DUP3 PUSH1 0x40 DUP3 ADD MSTORE DUP3 PUSH1 0x60 DUP3 ADD MSTORE DUP3 PUSH1 0x80 DUP3 ADD MSTORE DUP3 PUSH1 0xA0 DUP3 ADD MSTORE DUP3 PUSH1 0xC0 DUP3 ADD MSTORE DUP3 PUSH1 0xE0 DUP3 ADD MSTORE DUP3 PUSH2 0x100 DUP3 ADD MSTORE ADD MSTORE JUMP INVALID 0x2B 0xD5 0x2F SWAP3 MSTORE8 CODECOPY DUP12 DUP11 0xEF PUSH23 0x98B9FE3BB703E471A3440C149637F7CCD8E962B4569CA2 PUSH5 0x6970667358 0x22 SLT KECCAK256 0xD5 BASEFEE LOG0 EXTCODECOPY 0xDB SWAP8 PUSH30 0xB94E67843637606E13B783CCEAB69743FD8F3231FCB7D1E5EB64736F6C63 NUMBER STOP ADDMOD EQ STOP CALLER "},"methodIdentifiers":{"claimJackpot(uint256,uint256,bytes32[])":"ad0507c4","contributeSurplusRuleA(uint256,uint256)":"d8a6a1b7","contributeSurplusRuleB(uint256,uint256)":"2c3dfbe6","currentRoundId()":"9cbe5efd","dailyPayoutPercent()":"6f5a757d","emergencyWithdraw(address)":"6ff1c9bc","getCurrentRound()":"a32bf597","getPassInfo(uint256)":"b440d883","getPoolBalance()":"abd70aa2","getRound(uint256)":"8f1327c0","getStats()":"c59d4847","hasClaimedRound(uint256,address)":"776aa527","laBolitaVRF()":"d0ac5417","owner()":"8da5cb5b","passFeePercent()":"1b07d267","pause()":"8456cb59","paused()":"5c975abb","paymentToken()":"3013ce29","pendingPassFunds()":"2eecd690","registerPassTickets(uint256[],uint256)":"531f2f59","renounceOwnership()":"715018a6","roundClaimed(uint256,address)":"694cf4fc","rounds(uint256)":"8c65c81f","setDailyPayoutPercent(uint256)":"e4d8b7d0","setLaBolitaVRF(address)":"c904d369","setPassFeePercent(uint256)":"7fb08ed8","setSurplusFeePercent(uint256)":"db88caa3","setTreasury(address)":"f0f44260","settleRound(uint256,bytes32,bool)":"2cec1700","superJackpotPool()":"7e396db5","surplusFeePercent()":"420fe072","ticketPasses(uint256)":"8944a3b9","totalClaimsPaid()":"6532ccf5","totalPassesRegistered()":"90522323","transferOwnership(address)":"f2fde38b","treasury()":"61d027b3","unpause()":"3f4ba83a"}}}}}