{"contracts/LaBolitaVRF.sol":{"LaBolitaVRF":{"abi":[{"inputs":[{"internalType":"address","name":"_paymentToken","type":"address"},{"internalType":"address","name":"_vrfCoordinator","type":"address"},{"internalType":"uint64","name":"_subscriptionId","type":"uint64"},{"internalType":"bytes32","name":"_keyHash","type":"bytes32"}],"stateMutability":"nonpayable","type":"constructor"},{"inputs":[],"name":"EnforcedPause","type":"error"},{"inputs":[],"name":"ExpectedPause","type":"error"},{"inputs":[{"internalType":"address","name":"have","type":"address"},{"internalType":"address","name":"want","type":"address"}],"name":"OnlyCoordinatorCanFulfill","type":"error"},{"inputs":[{"internalType":"address","name":"owner","type":"address"}],"name":"OwnableInvalidOwner","type":"error"},{"inputs":[{"internalType":"address","name":"account","type":"address"}],"name":"OwnableUnauthorizedAccount","type":"error"},{"inputs":[],"name":"ReentrancyGuardReentrantCall","type":"error"},{"inputs":[{"internalType":"address","name":"token","type":"address"}],"name":"SafeERC20FailedOperation","type":"error"},{"anonymous":false,"inputs":[{"indexed":true,"internalType":"address","name":"admin","type":"address"},{"indexed":false,"internalType":"bool","name":"status","type":"bool"}],"name":"AdminUpdated","type":"event"},{"anonymous":false,"inputs":[{"indexed":true,"internalType":"address","name":"user","type":"address"},{"indexed":false,"internalType":"uint256[]","name":"betIds","type":"uint256[]"},{"indexed":false,"internalType":"uint256[]","name":"ticketIds","type":"uint256[]"},{"indexed":false,"internalType":"uint256","name":"totalCost","type":"uint256"}],"name":"BatchCheckout","type":"event"},{"anonymous":false,"inputs":[{"indexed":true,"internalType":"uint256","name":"betId","type":"uint256"},{"indexed":true,"internalType":"address","name":"player","type":"address"},{"indexed":true,"internalType":"uint256","name":"drawId","type":"uint256"},{"indexed":false,"internalType":"enum LaBolitaVRF.BetType","name":"betType","type":"uint8"},{"indexed":false,"internalType":"string","name":"numbers","type":"string"},{"indexed":false,"internalType":"uint256","name":"amount","type":"uint256"}],"name":"BetPlacedDirect","type":"event"},{"anonymous":false,"inputs":[{"indexed":true,"internalType":"address","name":"user","type":"address"},{"indexed":false,"internalType":"uint256","name":"amount","type":"uint256"}],"name":"Deposited","type":"event"},{"anonymous":false,"inputs":[{"indexed":true,"internalType":"uint256","name":"drawId","type":"uint256"},{"indexed":false,"internalType":"string","name":"drawNumber","type":"string"},{"indexed":false,"internalType":"uint256","name":"scheduledTime","type":"uint256"}],"name":"DrawCreated","type":"event"},{"anonymous":false,"inputs":[{"indexed":true,"internalType":"uint256","name":"drawId","type":"uint256"},{"indexed":false,"internalType":"enum LaBolitaVRF.DrawStatus","name":"status","type":"uint8"}],"name":"DrawStatusChanged","type":"event"},{"anonymous":false,"inputs":[{"indexed":false,"internalType":"uint256","name":"jackpotAmount","type":"uint256"}],"name":"JackpotCapReached","type":"event"},{"anonymous":false,"inputs":[{"indexed":false,"internalType":"uint256","name":"newJackpot","type":"uint256"},{"indexed":false,"internalType":"uint256","name":"addedAmount","type":"uint256"}],"name":"JackpotIncreased","type":"event"},{"anonymous":false,"inputs":[{"indexed":true,"internalType":"uint256","name":"lotteryId","type":"uint256"},{"indexed":true,"internalType":"address","name":"winner","type":"address"},{"indexed":false,"internalType":"uint256","name":"amount","type":"uint256"}],"name":"JackpotWon","type":"event"},{"anonymous":false,"inputs":[{"indexed":true,"internalType":"uint256","name":"lotteryId","type":"uint256"},{"indexed":false,"internalType":"string","name":"drawName","type":"string"},{"indexed":false,"internalType":"uint256","name":"scheduledTime","type":"uint256"},{"indexed":false,"internalType":"uint256","name":"jackpot","type":"uint256"}],"name":"LotteryDrawCreated","type":"event"},{"anonymous":false,"inputs":[{"indexed":true,"internalType":"uint256","name":"ticketId","type":"uint256"},{"indexed":true,"internalType":"address","name":"player","type":"address"},{"indexed":false,"internalType":"uint8","name":"category","type":"uint8"},{"indexed":false,"internalType":"uint256","name":"amount","type":"uint256"}],"name":"LotteryPrizeClaimed","type":"event"},{"anonymous":false,"inputs":[{"indexed":true,"internalType":"uint256","name":"lotteryId","type":"uint256"},{"indexed":false,"internalType":"uint8[6]","name":"winningNumbers","type":"uint8[6]"},{"indexed":false,"internalType":"uint8","name":"keyNumber","type":"uint8"}],"name":"LotteryResultsGenerated","type":"event"},{"anonymous":false,"inputs":[{"indexed":true,"internalType":"uint256","name":"ticketId","type":"uint256"},{"indexed":true,"internalType":"address","name":"player","type":"address"},{"indexed":true,"internalType":"uint256","name":"lotteryId","type":"uint256"},{"indexed":false,"internalType":"uint8[6]","name":"numbers","type":"uint8[6]"},{"indexed":false,"internalType":"uint8","name":"keyNumber","type":"uint8"}],"name":"LotteryTicketPurchasedDirect","type":"event"},{"anonymous":false,"inputs":[{"indexed":true,"internalType":"address","name":"previousOwner","type":"address"},{"indexed":true,"internalType":"address","name":"newOwner","type":"address"}],"name":"OwnershipTransferred","type":"event"},{"anonymous":false,"inputs":[{"indexed":true,"internalType":"uint256","name":"ticketId","type":"uint256"},{"indexed":true,"internalType":"address","name":"user","type":"address"},{"indexed":false,"internalType":"uint256","name":"passAmount","type":"uint256"}],"name":"PassPurchased","type":"event"},{"anonymous":false,"inputs":[{"indexed":false,"internalType":"address","name":"account","type":"address"}],"name":"Paused","type":"event"},{"anonymous":false,"inputs":[{"indexed":true,"internalType":"address","name":"referrer","type":"address"},{"indexed":true,"internalType":"address","name":"referred","type":"address"},{"indexed":false,"internalType":"uint256","name":"amount","type":"uint256"}],"name":"ReferralBonusEarned","type":"event"},{"anonymous":false,"inputs":[{"indexed":true,"internalType":"uint256","name":"drawId","type":"uint256"},{"indexed":false,"internalType":"string","name":"fijos","type":"string"},{"indexed":false,"internalType":"string","name":"centenas","type":"string"},{"indexed":false,"internalType":"string","name":"parles","type":"string"}],"name":"ResultsSubmitted","type":"event"},{"anonymous":false,"inputs":[{"indexed":false,"internalType":"address","name":"account","type":"address"}],"name":"Unpaused","type":"event"},{"anonymous":false,"inputs":[{"indexed":true,"internalType":"uint256","name":"requestId","type":"uint256"},{"indexed":false,"internalType":"uint256","name":"randomWord","type":"uint256"}],"name":"VRFReceived","type":"event"},{"anonymous":false,"inputs":[{"indexed":true,"internalType":"uint256","name":"requestId","type":"uint256"},{"indexed":true,"internalType":"uint256","name":"drawId","type":"uint256"},{"indexed":false,"internalType":"bool","name":"isLottery","type":"bool"}],"name":"VRFRequested","type":"event"},{"anonymous":false,"inputs":[{"indexed":true,"internalType":"uint256","name":"betId","type":"uint256"},{"indexed":true,"internalType":"address","name":"player","type":"address"},{"indexed":false,"internalType":"uint256","name":"amount","type":"uint256"}],"name":"WinningsClaimed","type":"event"},{"anonymous":false,"inputs":[{"indexed":true,"internalType":"address","name":"user","type":"address"},{"indexed":false,"internalType":"uint256","name":"amount","type":"uint256"}],"name":"Withdrawn","type":"event"},{"inputs":[{"internalType":"address","name":"","type":"address"}],"name":"admins","outputs":[{"internalType":"bool","name":"","type":"bool"}],"stateMutability":"view","type":"function"},{"inputs":[{"components":[{"internalType":"uint256","name":"drawId","type":"uint256"},{"internalType":"enum LaBolitaVRF.BetType","name":"betType","type":"uint8"},{"internalType":"string","name":"numbers","type":"string"},{"internalType":"uint256","name":"amount","type":"uint256"}],"internalType":"struct LaBolitaVRF.BetInput[]","name":"_bets","type":"tuple[]"},{"components":[{"internalType":"uint256","name":"lotteryId","type":"uint256"},{"internalType":"uint8[6]","name":"numbers","type":"uint8[6]"},{"internalType":"uint8","name":"keyNumber","type":"uint8"},{"internalType":"bool","name":"includePass","type":"bool"}],"internalType":"struct LaBolitaVRF.TicketInput[]","name":"_tickets","type":"tuple[]"}],"name":"batchCheckout","outputs":[{"internalType":"uint256[]","name":"betIds","type":"uint256[]"},{"internalType":"uint256[]","name":"ticketIds","type":"uint256[]"}],"stateMutability":"nonpayable","type":"function"},{"inputs":[],"name":"betCounter","outputs":[{"internalType":"uint256","name":"","type":"uint256"}],"stateMutability":"view","type":"function"},{"inputs":[{"internalType":"uint256","name":"","type":"uint256"}],"name":"bets","outputs":[{"internalType":"address","name":"player","type":"address"},{"internalType":"uint256","name":"drawId","type":"uint256"},{"internalType":"enum LaBolitaVRF.BetType","name":"betType","type":"uint8"},{"internalType":"string","name":"numbers","type":"string"},{"internalType":"uint256","name":"amount","type":"uint256"},{"internalType":"bool","name":"claimed","type":"bool"},{"internalType":"uint256","name":"payout","type":"uint256"}],"stateMutability":"view","type":"function"},{"inputs":[],"name":"bettingCloseTime","outputs":[{"internalType":"uint256","name":"","type":"uint256"}],"stateMutability":"view","type":"function"},{"inputs":[{"internalType":"uint256","name":"_lotteryId","type":"uint256"},{"internalType":"uint8[6]","name":"_numbers","type":"uint8[6]"},{"internalType":"uint8","name":"_keyNumber","type":"uint8"}],"name":"buyLotteryTicketDirect","outputs":[],"stateMutability":"nonpayable","type":"function"},{"inputs":[],"name":"centenaMultiplier","outputs":[{"internalType":"uint256","name":"","type":"uint256"}],"stateMutability":"view","type":"function"},{"inputs":[{"internalType":"uint256","name":"_ticketId","type":"uint256"}],"name":"checkLotteryPrize","outputs":[{"internalType":"uint8","name":"category","type":"uint8"},{"internalType":"uint256","name":"prize","type":"uint256"}],"stateMutability":"view","type":"function"},{"inputs":[{"internalType":"uint256","name":"_betId","type":"uint256"}],"name":"checkWinnings","outputs":[{"internalType":"uint256","name":"","type":"uint256"}],"stateMutability":"view","type":"function"},{"inputs":[{"internalType":"uint256","name":"_ticketId","type":"uint256"}],"name":"claimLotteryPrize","outputs":[],"stateMutability":"nonpayable","type":"function"},{"inputs":[],"name":"claimReferralEarnings","outputs":[],"stateMutability":"nonpayable","type":"function"},{"inputs":[{"internalType":"uint256","name":"_betId","type":"uint256"}],"name":"claimWinnings","outputs":[],"stateMutability":"nonpayable","type":"function"},{"inputs":[{"internalType":"uint256","name":"_drawId","type":"uint256"}],"name":"closeDraw","outputs":[],"stateMutability":"nonpayable","type":"function"},{"inputs":[{"internalType":"uint256","name":"_lotteryId","type":"uint256"}],"name":"closeLotteryDraw","outputs":[],"stateMutability":"nonpayable","type":"function"},{"inputs":[{"internalType":"string","name":"_drawNumber","type":"string"},{"internalType":"uint256","name":"_scheduledTime","type":"uint256"}],"name":"createDraw","outputs":[],"stateMutability":"nonpayable","type":"function"},{"inputs":[{"internalType":"string","name":"_drawName","type":"string"},{"internalType":"uint256","name":"_scheduledTime","type":"uint256"}],"name":"createLotteryDraw","outputs":[],"stateMutability":"nonpayable","type":"function"},{"inputs":[],"name":"currentJackpot","outputs":[{"internalType":"uint256","name":"","type":"uint256"}],"stateMutability":"view","type":"function"},{"inputs":[{"internalType":"uint256","name":"_amount","type":"uint256"}],"name":"deposit","outputs":[],"stateMutability":"nonpayable","type":"function"},{"inputs":[{"internalType":"uint256","name":"","type":"uint256"},{"internalType":"uint256","name":"","type":"uint256"}],"name":"drawBets","outputs":[{"internalType":"uint256","name":"","type":"uint256"}],"stateMutability":"view","type":"function"},{"inputs":[],"name":"drawCounter","outputs":[{"internalType":"uint256","name":"","type":"uint256"}],"stateMutability":"view","type":"function"},{"inputs":[{"internalType":"uint256","name":"","type":"uint256"}],"name":"drawNames","outputs":[{"internalType":"string","name":"","type":"string"}],"stateMutability":"view","type":"function"},{"inputs":[{"internalType":"uint256","name":"","type":"uint256"}],"name":"drawTimes","outputs":[{"internalType":"uint256","name":"","type":"uint256"}],"stateMutability":"view","type":"function"},{"inputs":[{"internalType":"uint256","name":"","type":"uint256"}],"name":"draws","outputs":[{"internalType":"uint256","name":"id","type":"uint256"},{"internalType":"string","name":"drawNumber","type":"string"},{"internalType":"uint256","name":"scheduledTime","type":"uint256"},{"internalType":"enum LaBolitaVRF.DrawStatus","name":"status","type":"uint8"},{"internalType":"string","name":"winningFijos","type":"string"},{"internalType":"string","name":"winningCentenas","type":"string"},{"internalType":"string","name":"winningParles","type":"string"},{"internalType":"uint256","name":"totalBets","type":"uint256"},{"internalType":"uint256","name":"totalAmount","type":"uint256"},{"internalType":"uint256","name":"totalPaidOut","type":"uint256"},{"internalType":"uint256","name":"vrfRequestId","type":"uint256"},{"internalType":"uint256","name":"vrfRandomWord","type":"uint256"}],"stateMutability":"view","type":"function"},{"inputs":[{"internalType":"address","name":"_token","type":"address"}],"name":"emergencyWithdraw","outputs":[],"stateMutability":"nonpayable","type":"function"},{"inputs":[],"name":"fijoMultiplier","outputs":[{"internalType":"uint256","name":"","type":"uint256"}],"stateMutability":"view","type":"function"},{"inputs":[{"internalType":"address","name":"_user","type":"address"}],"name":"getBalance","outputs":[{"internalType":"uint256","name":"","type":"uint256"}],"stateMutability":"view","type":"function"},{"inputs":[{"internalType":"uint256","name":"_drawId","type":"uint256"}],"name":"getDrawBets","outputs":[{"internalType":"uint256[]","name":"","type":"uint256[]"}],"stateMutability":"view","type":"function"},{"inputs":[],"name":"getJackpot","outputs":[{"internalType":"uint256","name":"","type":"uint256"}],"stateMutability":"view","type":"function"},{"inputs":[{"internalType":"address","name":"_user","type":"address"}],"name":"getReferralInfo","outputs":[{"components":[{"internalType":"address","name":"referrer","type":"address"},{"internalType":"uint256","name":"totalReferred","type":"uint256"},{"internalType":"uint256","name":"totalEarnings","type":"uint256"},{"internalType":"uint256","name":"pendingEarnings","type":"uint256"},{"internalType":"uint256","name":"joinedAt","type":"uint256"}],"internalType":"struct LaBolitaVRF.ReferralInfo","name":"","type":"tuple"}],"stateMutability":"view","type":"function"},{"inputs":[{"internalType":"address","name":"_user","type":"address"}],"name":"getReferredUsers","outputs":[{"internalType":"address[]","name":"","type":"address[]"}],"stateMutability":"view","type":"function"},{"inputs":[{"internalType":"address","name":"_user","type":"address"}],"name":"getUserBets","outputs":[{"internalType":"uint256[]","name":"","type":"uint256[]"}],"stateMutability":"view","type":"function"},{"inputs":[{"internalType":"address","name":"_user","type":"address"}],"name":"getUserLotteryTickets","outputs":[{"internalType":"uint256[]","name":"","type":"uint256[]"}],"stateMutability":"view","type":"function"},{"inputs":[],"name":"jackpotCap","outputs":[{"internalType":"uint256","name":"","type":"uint256"}],"stateMutability":"view","type":"function"},{"inputs":[],"name":"jackpotManager","outputs":[{"internalType":"address","name":"","type":"address"}],"stateMutability":"view","type":"function"},{"inputs":[],"name":"jackpotPercentage","outputs":[{"internalType":"uint256","name":"","type":"uint256"}],"stateMutability":"view","type":"function"},{"inputs":[],"name":"lotteryCounter","outputs":[{"internalType":"uint256","name":"","type":"uint256"}],"stateMutability":"view","type":"function"},{"inputs":[{"internalType":"uint256","name":"","type":"uint256"},{"internalType":"uint256","name":"","type":"uint256"}],"name":"lotteryDrawTickets","outputs":[{"internalType":"uint256","name":"","type":"uint256"}],"stateMutability":"view","type":"function"},{"inputs":[{"internalType":"uint256","name":"","type":"uint256"}],"name":"lotteryDraws","outputs":[{"internalType":"uint256","name":"id","type":"uint256"},{"internalType":"string","name":"drawName","type":"string"},{"internalType":"uint256","name":"scheduledTime","type":"uint256"},{"internalType":"enum LaBolitaVRF.LotteryStatus","name":"status","type":"uint8"},{"internalType":"uint8","name":"keyNumber","type":"uint8"},{"internalType":"uint256","name":"jackpot","type":"uint256"},{"internalType":"uint256","name":"totalTickets","type":"uint256"},{"internalType":"uint256","name":"totalCollected","type":"uint256"},{"internalType":"uint256","name":"totalPaidOut","type":"uint256"},{"internalType":"bool","name":"jackpotWon","type":"bool"},{"internalType":"uint256","name":"vrfRequestId","type":"uint256"},{"internalType":"uint256","name":"vrfRandomWord","type":"uint256"}],"stateMutability":"view","type":"function"},{"inputs":[],"name":"lotteryTicketPrice","outputs":[{"internalType":"uint256","name":"","type":"uint256"}],"stateMutability":"view","type":"function"},{"inputs":[{"internalType":"uint256","name":"","type":"uint256"}],"name":"lotteryTickets","outputs":[{"internalType":"address","name":"player","type":"address"},{"internalType":"uint256","name":"lotteryId","type":"uint256"},{"internalType":"uint8","name":"keyNumber","type":"uint8"},{"internalType":"uint256","name":"purchaseTime","type":"uint256"},{"internalType":"bool","name":"claimed","type":"bool"},{"internalType":"uint256","name":"prize","type":"uint256"},{"internalType":"uint8","name":"category","type":"uint8"}],"stateMutability":"view","type":"function"},{"inputs":[],"name":"maxBetAmount","outputs":[{"internalType":"uint256","name":"","type":"uint256"}],"stateMutability":"view","type":"function"},{"inputs":[],"name":"minBetAmount","outputs":[{"internalType":"uint256","name":"","type":"uint256"}],"stateMutability":"view","type":"function"},{"inputs":[],"name":"minJackpot","outputs":[{"internalType":"uint256","name":"","type":"uint256"}],"stateMutability":"view","type":"function"},{"inputs":[],"name":"owner","outputs":[{"internalType":"address","name":"","type":"address"}],"stateMutability":"view","type":"function"},{"inputs":[],"name":"parleMultiplier","outputs":[{"internalType":"uint256","name":"","type":"uint256"}],"stateMutability":"view","type":"function"},{"inputs":[],"name":"passPrice","outputs":[{"internalType":"uint256","name":"","type":"uint256"}],"stateMutability":"view","type":"function"},{"inputs":[],"name":"pause","outputs":[],"stateMutability":"nonpayable","type":"function"},{"inputs":[],"name":"paused","outputs":[{"internalType":"bool","name":"","type":"bool"}],"stateMutability":"view","type":"function"},{"inputs":[],"name":"paymentToken","outputs":[{"internalType":"contract IERC20","name":"","type":"address"}],"stateMutability":"view","type":"function"},{"inputs":[{"internalType":"uint256","name":"_drawId","type":"uint256"},{"internalType":"enum LaBolitaVRF.BetType","name":"_betType","type":"uint8"},{"internalType":"string","name":"_numbers","type":"string"},{"internalType":"uint256","name":"_amount","type":"uint256"}],"name":"placeBetDirect","outputs":[],"stateMutability":"nonpayable","type":"function"},{"inputs":[],"name":"prize2Amount","outputs":[{"internalType":"uint256","name":"","type":"uint256"}],"stateMutability":"view","type":"function"},{"inputs":[],"name":"prize3Amount","outputs":[{"internalType":"uint256","name":"","type":"uint256"}],"stateMutability":"view","type":"function"},{"inputs":[],"name":"prize4Amount","outputs":[{"internalType":"uint256","name":"","type":"uint256"}],"stateMutability":"view","type":"function"},{"inputs":[],"name":"prize5Amount","outputs":[{"internalType":"uint256","name":"","type":"uint256"}],"stateMutability":"view","type":"function"},{"inputs":[],"name":"prize6Amount","outputs":[{"internalType":"uint256","name":"","type":"uint256"}],"stateMutability":"view","type":"function"},{"inputs":[],"name":"prize7Amount","outputs":[{"internalType":"uint256","name":"","type":"uint256"}],"stateMutability":"view","type":"function"},{"inputs":[],"name":"prize8Amount","outputs":[{"internalType":"uint256","name":"","type":"uint256"}],"stateMutability":"view","type":"function"},{"inputs":[{"internalType":"uint256","name":"requestId","type":"uint256"},{"internalType":"uint256[]","name":"randomWords","type":"uint256[]"}],"name":"rawFulfillRandomWords","outputs":[],"stateMutability":"nonpayable","type":"function"},{"inputs":[],"name":"referralBonusPercent","outputs":[{"internalType":"uint256","name":"","type":"uint256"}],"stateMutability":"view","type":"function"},{"inputs":[{"internalType":"address","name":"","type":"address"}],"name":"referralInfo","outputs":[{"internalType":"address","name":"referrer","type":"address"},{"internalType":"uint256","name":"totalReferred","type":"uint256"},{"internalType":"uint256","name":"totalEarnings","type":"uint256"},{"internalType":"uint256","name":"pendingEarnings","type":"uint256"},{"internalType":"uint256","name":"joinedAt","type":"uint256"}],"stateMutability":"view","type":"function"},{"inputs":[{"internalType":"address","name":"","type":"address"},{"internalType":"uint256","name":"","type":"uint256"}],"name":"referredUsers","outputs":[{"internalType":"address","name":"","type":"address"}],"stateMutability":"view","type":"function"},{"inputs":[{"internalType":"address","name":"_referrer","type":"address"}],"name":"registerReferral","outputs":[],"stateMutability":"nonpayable","type":"function"},{"inputs":[],"name":"renounceOwnership","outputs":[],"stateMutability":"nonpayable","type":"function"},{"inputs":[{"internalType":"uint256","name":"_drawId","type":"uint256"}],"name":"requestDrawResults","outputs":[],"stateMutability":"nonpayable","type":"function"},{"inputs":[{"internalType":"uint256","name":"_lotteryId","type":"uint256"}],"name":"requestLotteryResults","outputs":[],"stateMutability":"nonpayable","type":"function"},{"inputs":[{"internalType":"address","name":"_admin","type":"address"},{"internalType":"bool","name":"_status","type":"bool"}],"name":"setAdmin","outputs":[],"stateMutability":"nonpayable","type":"function"},{"inputs":[{"internalType":"uint256","name":"_min","type":"uint256"},{"internalType":"uint256","name":"_max","type":"uint256"}],"name":"setBetLimits","outputs":[],"stateMutability":"nonpayable","type":"function"},{"inputs":[{"internalType":"uint256","name":"_cap","type":"uint256"}],"name":"setJackpotCap","outputs":[],"stateMutability":"nonpayable","type":"function"},{"inputs":[{"internalType":"address","name":"_manager","type":"address"}],"name":"setJackpotManager","outputs":[],"stateMutability":"nonpayable","type":"function"},{"inputs":[{"internalType":"uint256","name":"_prize2","type":"uint256"},{"internalType":"uint256","name":"_prize3","type":"uint256"},{"internalType":"uint256","name":"_prize4","type":"uint256"},{"internalType":"uint256","name":"_prize5","type":"uint256"},{"internalType":"uint256","name":"_prize6","type":"uint256"},{"internalType":"uint256","name":"_prize7","type":"uint256"},{"internalType":"uint256","name":"_prize8","type":"uint256"}],"name":"setLotteryPrizes","outputs":[],"stateMutability":"nonpayable","type":"function"},{"inputs":[{"internalType":"uint256","name":"_price","type":"uint256"}],"name":"setLotteryTicketPrice","outputs":[],"stateMutability":"nonpayable","type":"function"},{"inputs":[{"internalType":"uint256","name":"_min","type":"uint256"}],"name":"setMinJackpot","outputs":[],"stateMutability":"nonpayable","type":"function"},{"inputs":[{"internalType":"uint256","name":"_price","type":"uint256"}],"name":"setPassPrice","outputs":[],"stateMutability":"nonpayable","type":"function"},{"inputs":[{"internalType":"uint256","name":"_percent","type":"uint256"}],"name":"setReferralBonus","outputs":[],"stateMutability":"nonpayable","type":"function"},{"inputs":[{"internalType":"uint64","name":"_subscriptionId","type":"uint64"},{"internalType":"bytes32","name":"_keyHash","type":"bytes32"},{"internalType":"uint32","name":"_callbackGasLimit","type":"uint32"},{"internalType":"uint16","name":"_requestConfirmations","type":"uint16"}],"name":"setVRFConfig","outputs":[],"stateMutability":"nonpayable","type":"function"},{"inputs":[],"name":"ticketCounter","outputs":[{"internalType":"uint256","name":"","type":"uint256"}],"stateMutability":"view","type":"function"},{"inputs":[{"internalType":"address","name":"newOwner","type":"address"}],"name":"transferOwnership","outputs":[],"stateMutability":"nonpayable","type":"function"},{"inputs":[],"name":"unpause","outputs":[],"stateMutability":"nonpayable","type":"function"},{"inputs":[{"internalType":"address","name":"","type":"address"}],"name":"userBalances","outputs":[{"internalType":"uint256","name":"","type":"uint256"}],"stateMutability":"view","type":"function"},{"inputs":[{"internalType":"address","name":"","type":"address"},{"internalType":"uint256","name":"","type":"uint256"}],"name":"userBets","outputs":[{"internalType":"uint256","name":"","type":"uint256"}],"stateMutability":"view","type":"function"},{"inputs":[{"internalType":"address","name":"","type":"address"},{"internalType":"uint256","name":"","type":"uint256"}],"name":"userLotteryTickets","outputs":[{"internalType":"uint256","name":"","type":"uint256"}],"stateMutability":"view","type":"function"},{"inputs":[],"name":"vrfCallbackGasLimit","outputs":[{"internalType":"uint32","name":"","type":"uint32"}],"stateMutability":"view","type":"function"},{"inputs":[],"name":"vrfCoordinator","outputs":[{"internalType":"contract VRFCoordinatorV2Interface","name":"","type":"address"}],"stateMutability":"view","type":"function"},{"inputs":[],"name":"vrfKeyHash","outputs":[{"internalType":"bytes32","name":"","type":"bytes32"}],"stateMutability":"view","type":"function"},{"inputs":[],"name":"vrfRequestConfirmations","outputs":[{"internalType":"uint16","name":"","type":"uint16"}],"stateMutability":"view","type":"function"},{"inputs":[{"internalType":"uint256","name":"","type":"uint256"}],"name":"vrfRequestPending","outputs":[{"internalType":"bool","name":"","type":"bool"}],"stateMutability":"view","type":"function"},{"inputs":[{"internalType":"uint256","name":"","type":"uint256"}],"name":"vrfRequestToDrawId","outputs":[{"internalType":"uint256","name":"","type":"uint256"}],"stateMutability":"view","type":"function"},{"inputs":[{"internalType":"uint256","name":"","type":"uint256"}],"name":"vrfRequestToLotteryId","outputs":[{"internalType":"uint256","name":"","type":"uint256"}],"stateMutability":"view","type":"function"},{"inputs":[],"name":"vrfSubscriptionId","outputs":[{"internalType":"uint64","name":"","type":"uint64"}],"stateMutability":"view","type":"function"},{"inputs":[{"internalType":"uint256","name":"_amount","type":"uint256"}],"name":"withdraw","outputs":[],"stateMutability":"nonpayable","type":"function"}],"evm":{"bytecode":{"linkReferences":{},"object":"60a0346200044d57601f620061f238819003918201601f19168301916001600160401b038311848410176200036f578084926080946040528339810103126200044d576200004d8162000492565b6200005b6020830162000492565b604083015190926001600160401b03821682036200044d57606001513315620004345760008054336001600160a01b0319821681178355939593916001600160a01b03909116907f8be0079c531659141344cd1fd0a4f28419497f9722a3daafe3b4186f6b6457e09080a3600180558160805264030007a12065ffffffffffff196004541617600455620f424080600b5580600c55633b9aca0080600d55620c3500600e55624c4b409182600f5562895440601055601e55611388601f556402540be4008060205564e8d4a5100060215564174876e8006022556023556024556305f5e1006025556302faf08060265562989680602755602855610e10602a556200016562000452565b618ca0815261d2f0602082015262012750604082015260005b60038110620004195750506200019362000452565b6200019d62000472565b60068152654d414e414e4160d01b60208201528152620001bc62000472565b6005815264544152444560d81b60208201526020820152620001dd62000472565b60058152644e4f43484560d81b6020820152604082015291602e946000935b6003851015620003855780518051906001600160401b0382116200036f578854600181811c9116801562000364575b60208210146200034e57601f811162000305575b50602090601f83116001146200029057928260019493602093869560009262000284575b5050600019600383901b1c191690841b178a555b01970194019395620001fc565b01519050388062000263565b908960005260206000209160005b601f1985168110620002ec575083602093600196938796938794601f19811610620002d2575b505050811b018a5562000277565b015160001960f88460031b161c19169055388080620002c4565b919260206001819286850151815501940192016200029e565b896000526020600020601f840160051c81016020851062000346575b601f830160051c82018110620003395750506200023f565b6000815560010162000321565b508062000321565b634e487b7160e01b600052602260045260246000fd5b90607f16906200022b565b634e487b7160e01b600052604160045260246000fd5b506101f4603155600880546001600160a01b0319166001600160a01b03871617815560028054610100600160e81b0319169390911b610100600160a81b03169290921760a89190911b600160a81b600160e81b031617905560035533600090815260296020908152604091829020805460ff1916600117905554601d5551615d4a9081620004a8823960805181613f520152f35b815162ffffff16602b8201556020909101906001016200017e565b604051631e4fbdf760e01b815260006004820152602490fd5b600080fd5b60405190606082016001600160401b038111838210176200036f57604052565b60408051919082016001600160401b038111838210176200036f57604052565b51906001600160a01b03821682036200044d5756fe6080604052600436101561001257600080fd5b60003560e01c8062cbdb0014614408578063041d443e146143ea5780630bd26e92146143155780630cc36c361461420a57806319495423146141ec5780631a65058c14613fbb5780631fe543e314613edf578063209ab71114613d6e57806321874ae214613cb057806321e501bb14613c6d57806322af00fa14613bcf57806326224c64146104585780632d56657d14613b585780632d81689514613b3a5780632e1a7d4d14613a675780633013ce2914613a3e578063323c6d541461354057806332e5b6d81461348d57806338da7ead1461346f57806339540b0a146134065780633b7ed734146133e25780633da3f922146133735780633f4ba83a146133095780633fb07a3b146132c9578063410fb08c146132a3578063426e438214613285578063429b62e514613246578063497172be1461321a5780634a382514146131fc5780634a4a6b4f146131de5780634b0bddd2146131565780634ee36a8414612d965780635487ab5b14612d65578063554df634146127475780635799ee2a146123a9578063598bc486146123855780635c975abb14612362578063636218fc14612344578063677bd9ff146121b55780636826eef41461219457806368d3adf21461216b5780636922d1e1146120f45780636cd425a5146120775780636ff1c9bc14611fd9578063715018a614611f805780637687dd4914611f615780637cf210f114611f435780638068aa6814611ef95780638456cb5914611e9f57806384ae48b514611e0b5780638a0ab21314611ded5780638a50238114611d4e5780638c4d59d014611d305780638da5cb5b14611d07578063907cb96c14611cbd578063911d018914611ca057806392b5ba0b14611c825780639329066c1461043a5780639398676d14611a9957806394a4e23e14611a7b5780639a037aa014611a225780639c9ad21a14611969578063a0ede5a414611948578063a11720ab14611909578063a3e56fa8146118dc578063a416f5ab146118be578063ad5a601214611892578063b6b55f25146117c6578063bebe329d146117a8578063c9f6707e1461177c578063ca3286f51461175e578063cab11d5d14611740578063cd6eaf1214611722578063db0ca0b414611687578063db309ab314611666578063dc158efa14611648578063e5286cab14611603578063e74579b114611583578063e92820e61461152a578063e9715de91461150c578063ed647d21146114e2578063ee03ac40146114c4578063ee996784146112ae578063f2fde38b14611228578063f33ce325146111f5578063f5e93c6414610492578063f8b2cb4f14610458578063f9cee0bd1461043a578063fa968eea1461041c5763fecf615d146103f957600080fd5b34610417576000366003190112610417576020602354604051908152f35b600080fd5b34610417576000366003190112610417576020600c54604051908152f35b34610417576000366003190112610417576020601d54604051908152f35b34610417576020366003190112610417576001600160a01b03610479614662565b1660005260096020526020604060002054604051908152f35b34610417576040366003190112610417576004356001600160401b0381116104175736602382011215610417576001600160401b03816004013511610417576024903682826004013560051b83010111610417578135916001600160401b0383116104175736602384011215610417576001600160401b03836004013511610417573681610120856004013502850101116104175761052f6149f2565b6105376149d4565b8160040135158015906111e8575b156111b75760009060009060009460005b8560040135811061118957506000601e545b8260040135821061112357505033600052600960205283604060002054106110e15733600052600960205260406000206105a3858254614794565b90556105b28560040135614b7a565b9460005b81600401358110610cc65750506105d96105d38260040135614b7a565b96614b7a565b906000805b8260040135821061073a5750505082151580610726575b61067e575b61066c8561067a88877e17cb6963158f82da6470841f98536ec1a6e4d71f82e30c65c1d69a6c23e1306040516060815261064861063a6060830188614685565b828103602084015285614685565b9260408201528033930390a260018055604051938493604085526040850190614685565b908382036020850152614685565b0390f35b60018060a01b0361069984826008541683600a541690614aeb565b600a541690813b15610417576000916106d1918360405180978195829463531f2f5960e01b8452604060048501526044840190614685565b908883015203925af1801561071a576106eb575b806105fa565b6001600160401b03821161070657506040528261067a6106e5565b634e487b7160e01b60009081526041600452fd5b6040513d6000823e3d90fd5b50600a546001600160a01b031615156105f5565b91959396976107538288600496949601358a8a01614b5c565b968735151580610cb9575b61076790614a15565b8735600052601960205260406000209160ff6003840154166005811015610ca45760016107949114614a5a565b6107af6107a86002850154602a5490614794565b4210614a99565b600960ff6107bf60e08c01614bf2565b1611610c6e5760009a975b60ff8c16976006998a8a10156108fd578b8a600160ff6107f56107f084602087016156b3565b614bf2565b16101591826108dd575b5050156108a25761080f8e6156c4565b60ff81168c81101561088a5760ff808f926107f08f9160206108396107f061084095838a016156b3565b96016156b3565b1691161461085657610851906156a2565b61080f565b60648e600d6040519162461bcd60e51b8352602060048401528201526c4e6f206475706c69636174657360981b6044820152fd5b50509c90985061089b9199506156a2565b9a976107ca565b60405162461bcd60e51b8152602060048201526014818f0152734e756d62657273206d75737420626520312d343960601b6044820152606490fd5b603192506107f060ff9260206108f393016156b3565b1611158a8d6107ff565b9b9850999295949693919b509750610916601454614831565b8060145561092660e08401614bf2565b9060405191610934836144bc565b3383528435602084015260405161094a816144f3565b803660e08801116104175760208701905b60e088018210610c565750509060ff916040850152166060830152426080830152600060a0830152600060c0830152600060e0830152600052601a60205260406000209060018060a01b0381511660018060a01b031983541617825560208101516001830155604081015160009060005b60068110610c2857505060028301556003820160ff6060830151169060ff19918282541617905560808201516004840155610a1c60a08301511515600585019060ff801983541691151516179055565b60c0820151600684015560ff60e06007809501930151169082541617905533600052601b602052610a546040600020601454906148a9565b8235600052601c602052610a6f6040600020601454906148a9565b8101610a7b8154614831565b9055610a8f6008601e5492019182546148de565b9055610ac9601e54612710610aa6601f5483614ad8565b04601d805490610ab683836148de565b6021541015610be4575b50505033615b5c565b60145490610ad960e08201614bf2565b6040519190600060208301845b60068310610bc45750505060ff1660c08301523590827f34a33e2dd210a7f0f3190aafee6788065bd4a3b799c99e81a15bc4699dc21e4060e03393a4610b2c828b614bac565b52610b4a610100610b44838660040135898801614b5c565b01614b6d565b610b5e575b610b5890614831565b906105de565b90610b81610b5891610b70848c614bac565b51610b7b8288614bac565b52614831565b91610b8c818b614bac565b51600b54906040519182527f4e1920c80a682117856af1446f309135172da07bc0cc0f98bca93ae74aafe12a60203393a39050610b4f565b60208060019260ff610bd5866146b9565b16815201920192019190610ae6565b82610c127fb0d06ccaa4821f41669bcc9a049d35783663cd32e846ae89a27dc9835330ce1a946040946148de565b80925582519182526020820152a18c8080610ac0565b90916020610c4d6001928460ff875116919060ff809160031b9316831b921b19161790565b930191016109cc565b60208091610c63846146b9565b81520191019061095b565b60405162461bcd60e51b815260206004820152600f818c01526e4b6579206d75737420626520302d3960881b6044820152606490fd5b8a634e487b7160e01b60005260216004526000fd5b506013548835111561075e565b610cd7818360040135868501614b3a565b80351515806110d4575b610cea90614752565b80356000526015602052604060002060ff60038201541660068110156110bf5760010361108b57610d2c610d256002830154602a5490614794565b42106147b7565b600c54606083013510158061107b575b610d45906147f4565b60036020830135101561041757610d6d610d626040840184614bc0565b906020850135615799565b610d78601254614831565b80601255610d896040840184614bc0565b6040519192610d97836144d8565b338352610dc06020840194873586526040850193610db960208a013586614840565b369161484c565b606084015260608601356080840152600060a0840152600060c0840152600052601660205260406000209260018060a01b0383511660018060a01b031985541617845551600184015551600381101561106657600283019060ff8019835416911617905560608101518051906001600160401b03821161105157610e476003850154614467565b90601f91828111611014575b506020918311600114610f9657610f8697969593836008969460069460c094600092610f8b575b50508160011b916000199060031b1c19161760038501555b60808101516004850155610ebb60a08201511515600586019060ff801983541691151516179055565b0151910155336000526017602052610eda6040600020601254906148a9565b82356000526018602052610ef56040600020601254906148a9565b60078101610f038154614831565b905501610f15606083013582546148de565b9055610f25606082013533615b5c565b610f7960125491827ff8873d4bfa04c03bc66a123371f2557a80126790097f9d18cbc1eb7233da238e610f5b6040840184614bc0565b9490936040519181839235973397602060608401359301358561490c565b0390a4610b7b828a614bac565b6105b6565b015190503880610e7a565b906003850160005260206000209160005b601f1985168110610ffc57509360018460069460c094610f869c9b9a9860089a98601f19811610610fe3575b505050811b016003850155610e92565b015160001960f88460031b161c19169055388080610fd3565b91926020600181928685015181550194019201610fa7565b611042906003870160005260206000208480870160051c82019260208810611048575b0160051c0190614892565b8f610e53565b92508192611037565b89634e487b7160e01b60005260416004526000fd5b88634e487b7160e01b60005260216004526000fd5b50600d5460608301351115610d3c565b60405162461bcd60e51b815260206004820152600d818801526c223930bb903737ba1037b832b760991b6044820152606490fd5b86634e487b7160e01b60005260216004526000fd5b5060115481351115610ce1565b60405162461bcd60e51b815260206004820152601b818401527a496e73756666696369656e7420657363726f772062616c616e636560281b6044820152606490fd5b90948161112f916148de565b94611147610100610b44838660040135888801614b5c565b61115b575b61115590614831565b90610568565b96939461118161117b61115592611175600b5480926148de565b986148de565b95614831565b97905061114c565b936111ac6111b29160606111a4888a60040135888c01614b3a565b0135906148de565b94614831565b610556565b606490600a6040519162461bcd60e51b83526020600484015282015269115b5c1d1e4818d85c9d60b21b6044820152fd5b5082600401351515610545565b3461041757602036600319011261041757611211600435615c73565b6040805160ff939093168352602083019190915290f35b3461041757602036600319011261041757611241614662565b611249614726565b6001600160a01b03908116908115611295576000548260018060a01b0319821617600055167f8be0079c531659141344cd1fd0a4f28419497f9722a3daafe3b4186f6b6457e0600080a3005b604051631e4fbdf760e01b815260006004820152602490fd5b34610417576020806003193601126104175760043590336000526029815260ff6040600020541680156114b0575b6112e590614c00565b811515806114a4575b6112f790614752565b8160005260158152604060002090600382019160ff835416600681101561148e5760020361144d57600a611388910180546000526007835261134160ff6040600020541615614c38565b82600254600354906004549160006040518097819582946305d3b1d360e41b845261ffff63ffffffff8316928a1c16906001600160401b038860a81c169060048601614c7c565b039260081c6001600160a01b03165af190811561071a57859260009261140d575b509381600080516020615cd5833981519152955560ff1990600382825416179055816000526005845282604060002055600784526001604060002091825416179055600080516020615cf58339815191528360405160008152a360405160038152a2005b925090508282813d8111611446575b6114268183614544565b810103126104175790518491600080516020615cd58339815191526113a9565b503d61141c565b60405162461bcd60e51b8152600481018390526019602482015278111c985dc81b5d5cdd0818994818db1bdcd95908199a5c9cdd603a1b6044820152606490fd5b634e487b7160e01b600052602160045260246000fd5b506011548211156112ee565b506000546001600160a01b031633146112dc565b34610417576000366003190112610417576020601054604051908152f35b346104175760003660031901126104175760206001600160401b0360025460a81c16604051908152f35b34610417576000366003190112610417576020603154604051908152f35b3461041757604036600319011261041757611543614662565b6024359060018060a01b03809116600052603360205260406000208054831015610417576020926115739161444f565b9190546040519260031b1c168152f35b3461041757602036600319011261041757600435600052601a60205260e0604060002060018060a01b038154169060018101549060ff600382015416600482015460ff6005840154169160ff6007600686015495015416946040519687526020870152604086015260608501521515608084015260a083015260c0820152f35b346104175760e03660031901126104175761161c614726565b60043560225560248035602355604435905560643560255560843560265560a43560275560c435602855005b34610417576000366003190112610417576020602754604051908152f35b346104175760203660031901126104175761167f614726565b600435600b55005b34610417576080366003190112610417576004356001600160401b03811681036104175760443563ffffffff8116809103610417576064359161ffff83168303610417576116d3614726565b600254906001600160401b0360a81b9060a81b16906001600160401b0360a81b19161760025560243560035565ffff000000006004549260201b169165ffffffffffff19161717600455600080f35b34610417576000366003190112610417576020602454604051908152f35b34610417576000366003190112610417576020600d54604051908152f35b34610417576000366003190112610417576020600b54604051908152f35b3461041757602036600319011261041757600435600381101561041757602090602b0154604051908152f35b34610417576000366003190112610417576020602554604051908152f35b34610417576020366003190112610417576004356117e26149f2565b6117ea6149d4565b80156118585760085461180b908290309033906001600160a01b0316614936565b33600052600960205260406000206118248282546148de565b90556040519081527f2da466a7b24304f47e87fa2e1e5a81b9831ce54fec19055ce277ca2f39ba42c460203392a260018055005b60405162461bcd60e51b81526020600482015260126024820152710416d6f756e74206d757374206265203e20360741b6044820152606490fd5b346104175760203660031901126104175760043560005260066020526020604060002054604051908152f35b34610417576000366003190112610417576020601254604051908152f35b346104175760003660031901126104175760025460405160089190911c6001600160a01b03168152602090f35b346104175761191736614439565b906000526018602052604060002080548210156104175760209161193a9161444f565b90546040519160031b1c8152f35b3461041757602036600319011261041757611961614726565b600435601e55005b346104175760203660031901126104175760043533600052602960205260ff604060002054168015611a0e575b61199f90614c00565b80151580611a02575b6119b190614752565b8060005260156020526003604060002001805460ff811690600682101561148e576119e0600160029314615751565b60ff1916179055600080516020615cd5833981519152602060405160028152a2005b506011548111156119a8565b506000546001600160a01b03163314611996565b3461041757602036600319011261041757600435611a3e614726565b6103e88111611a4c57603155005b60405162461bcd60e51b81526020600482015260076024820152664d61782031302560c81b6044820152606490fd5b34610417576000366003190112610417576020600e54604051908152f35b34610417576020806003193601126104175760043590336000526029815260ff604060002054168015611c6e575b611ad090614c00565b81151580611c62575b611ae290614a15565b8160005260198152604060002090600382019160ff835416600581101561148e57600203611c1d5790600b611b75920192835460005260078252611b2e60ff6040600020541615614c38565b81600254600354906004549160006040518098819582946305d3b1d360e41b845261ffff63ffffffff8316928a1c16906001600160401b038860a81c169060048601614c7c565b039260081c6001600160a01b03165af192831561071a57600093611be0575b5082600080516020615cf583398151915293945560ff199060038282541617905583600052600682528460406000205560078252600160406000209182541617905560405160018152a3005b92508183813d8311611c16575b611bf78183614544565b8101031261041757600080516020615cf5833981519152925192611b94565b503d611bed565b60405162461bcd60e51b815260048101839052601c60248201527f4c6f7474657279206d75737420626520636c6f736564206669727374000000006044820152606490fd5b50601354821115611ad9565b506000546001600160a01b03163314611ac7565b34610417576000366003190112610417576020601154604051908152f35b346104175760003660031901126104175760208054604051908152f35b3461041757604036600319011261041757611cd6614662565b6001600160a01b03166000908152601b60205260409020805460243591908210156104175760209161193a9161444f565b34610417576000366003190112610417576000546040516001600160a01b039091168152602090f35b34610417576000366003190112610417576020601454604051908152f35b346104175760203660031901126104175760043533600052602960205260ff604060002054168015611dd9575b611d8490614c00565b80151580611dcd575b611d9690614a15565b60005260196020526003604060002001805460ff811690600582101561148e57611dc4600160029314615751565b60ff1916179055005b50601354811115611d8d565b506000546001600160a01b03163314611d7b565b34610417576000366003190112610417576020601e54604051908152f35b3461041757600036600319011261041757611e246149f2565b3360005260326020526003604060002001548015611e6c5733600081815260326020526040812060030155600854611e669291906001600160a01b0316614aeb565b60018055005b60405162461bcd60e51b815260206004820152600b60248201526a4e6f206561726e696e677360a81b6044820152606490fd5b3461041757600036600319011261041757611eb8614726565b611ec06149d4565b600160ff1960025416176002557f62e78cea01bee320cd4e420270b5ea74000d11b0c9f74754ebdbfc544b05a2586020604051338152a1005b3461041757604036600319011261041757611f12614662565b6001600160a01b03166000908152601760205260409020805460243591908210156104175760209161193a9161444f565b34610417576000366003190112610417576020601f54604051908152f35b3461041757611f6f36614439565b90611f78614726565b600c55600d55005b3461041757600036600319011261041757611f99614726565b600080546001600160a01b0319811682556001600160a01b03167f8be0079c531659141344cd1fd0a4f28419497f9722a3daafe3b4186f6b6457e08280a3005b3461041757602036600319011261041757611ff2614662565b611ffa614726565b6040516370a0823160e01b8152306004820152906001600160a01b03908116602083602481845afa91821561071a57600092612042575b61204093506000541690614aeb565b005b91506020833d821161206f575b8161205c60209383614544565b8101031261041757612040925191612031565b3d915061204f565b34610417576020806003193601126104175760043560005260188152604060002090604051808383829554938481520190600052836000209260005b858282106120de575050506120ca92500383614544565b61067a604051928284938452830190614685565b85548452600195860195889550930192016120b3565b3461041757602080600319360112610417576001600160a01b03612116614662565b16600052601b8152604060002090604051808383829554938481520190600052836000209260005b85828210612155575050506120ca92500383614544565b855484526001958601958895509301920161213e565b3461041757600036600319011261041757600a546040516001600160a01b039091168152602090f35b34610417576020366003190112610417576121ad614726565b600435602055005b3461041757602080600319360112610417576004356121d26149f2565b806000526016825260406000209160018060a01b03808454163303612310576005840180549461220560ff8716156156d6565b60018101546000526015845260406000209160ff600384015416600681101561148e576004036122d6576122398383615917565b9687156122a3576122949388600681957f5380cf6fe903b40c6d5a9e0dfbca2f3a423f0a21520b4d5947ed5169bdba946d999895600160099660ff19161790550155016122878382546148de565b9055339060085416614aeb565b6040519384523393a360018055005b60405162461bcd60e51b815260048101879052600b60248201526a4e6f2077696e6e696e677360a81b6044820152606490fd5b60405162461bcd60e51b8152600481018690526012602482015271111c985dc81b9bdd0818dbdb5c1b195d195960721b6044820152606490fd5b60405162461bcd60e51b815260048101839052600c60248201526b139bdd081e5bdd5c8818995d60a21b6044820152606490fd5b34610417576000366003190112610417576020602154604051908152f35b3461041757600036600319011261041757602060ff600254166040519015158152f35b3461041757600036600319011261041757602060045461ffff60405191831c168152f35b34610417576123b7366146f4565b909133600052602960205260ff604060002054168015612733575b6123db90614c00565b6123e6428311615714565b6123f1601354614831565b92836013556040519360c085018581106001600160401b0382111761271d576040526000855260006020860152600060408601526000606086015260006080860152600060a0860152604051946101a086018681106001600160401b0382111761271d5760405281865261246636848661484c565b6020870152846040870152600160608701526080860152600060a0860152600060c0860152600060e086015260006101008601526000610120860152600061014086015260006101608601526000610180860152600052601960205260406000208451815560208501518051906001600160401b03821161271d5781906124f06001850154614467565b601f81116126dd575b50602090601f831160011461266b57600092612660575b50508160011b916000199060031b1c19161760018201555b604085015160028201556060850151600581101561148e57600382019060ff8019835416911617905560808501519460009560005b60068110612632575050610180600c917f3433f759b0701674c603c0f151b43eca229255c3b1f6b1437c82de5a4ec6df59969760048501556005840160ff60a08301511660ff1982541617905560c0810151600685015560e08101516007850155610100810151600885015561012081015160098501556125f46101408201511515600a86019060ff801983541691151516179055565b610160810151600b850155015191015560135493601d546126226040519485946060865260608601916148eb565b91602084015260408301520390a2005b909660206126576001928460ff8c5116919060ff809160031b9316831b921b19161790565b9801910161255d565b015190508780612510565b9250600184016000526020600020906000935b601f19841685106126c2576001945083601f198116106126a9575b505050811b016001820155612528565b015160001960f88460031b161c19169055878080612699565b8181015183556020948501946001909301929091019061267e565b61270d90600186016000526020600020601f850160051c81019160208610612713575b601f0160051c0190614892565b886124f9565b9091508190612700565b634e487b7160e01b600052604160045260246000fd5b506000546001600160a01b031633146123d2565b3461041757612755366146f4565b909133600052602960205260ff604060002054168015612d51575b61277990614c00565b612784428311615714565b61278f601154614831565b92836011556040519361018085018581106001600160401b0382111761271d576040528085526127c036838561484c565b6020860152836040860152600160608601526040516127de8161450e565b6000815260808601526040516127f38161450e565b6000815260a08601526040516128088161450e565b6000815260c0860152600060e08601526000610100860152600061012086015260006101408601526000610160860152600052601560205260406000208451815560208501518051906001600160401b03821161271d57819061286e6001850154614467565b601f8111612d1c575b50602090601f8311600114612caa57600092612c9f575b50508160011b916000199060031b1c19161760018201555b60408501516002820155600381016060860151600681101561148e5760ff8019835416911617905560808501518051906001600160401b03821161271d5781906128f36004850154614467565b601f8111612c6a575b50602090601f8311600114612bf857600092612bed575b50508160011b916000199060031b1c19161760048201555b60a08501518051906001600160401b03821161271d5781906129506005850154614467565b601f8111612bb8575b50602090601f8311600114612b4657600092612b3b575b50508160011b916000199060031b1c19161760058201555b60c08501519485516001600160401b03811161271d576129ab6006840154614467565b601f8111612b06575b506020601f8211600114612a6f57918161016092600b947f7422a3316e28b0bc364bf8dada8bba9e211cb7a96513c7741e5af87b4ebf451f999a600092612a64575b50508160011b916000199060031b1c19161760068501555b60e0810151600785015561010081015160088501556101208101516009850155610140810151600a850155015191015560115493612a596040519384936040855260408501916148eb565b9060208301520390a2005b015190508a806129f6565b6006840160005260206000209760005b601f1984168110612aee5750827f7422a3316e28b0bc364bf8dada8bba9e211cb7a96513c7741e5af87b4ebf451f9899600b959360019361016096601f19811610612ad5575b505050811b016006850155612a0e565b015160001960f88460031b161c191690558a8080612ac5565b828201518a5560019099019860209283019201612a7f565b612b3590600685016000526020600020601f840160051c8101916020851061271357601f0160051c0190614892565b876129b4565b015190508780612970565b9250600584016000526020600020906000935b601f1984168510612b9d576001945083601f19811610612b84575b505050811b016005820155612988565b015160001960f88460031b161c19169055878080612b74565b81810151835560209485019460019093019290910190612b59565b612be790600586016000526020600020601f850160051c8101916020861061271357601f0160051c0190614892565b88612959565b015190508780612913565b9250600484016000526020600020906000935b601f1984168510612c4f576001945083601f19811610612c36575b505050811b01600482015561292b565b015160001960f88460031b161c19169055878080612c26565b81810151835560209485019460019093019290910190612c0b565b612c9990600486016000526020600020601f850160051c8101916020861061271357601f0160051c0190614892565b886128fc565b01519050878061288e565b9250600184016000526020600020906000935b601f1984168510612d01576001945083601f19811610612ce8575b505050811b0160018201556128a6565b015160001960f88460031b161c19169055878080612cd8565b81810151835560209485019460019093019290910190612cbd565b612d4b90600186016000526020600020601f850160051c8101916020861061271357601f0160051c0190614892565b88612877565b506000546001600160a01b03163314612770565b34610417576020366003190112610417576004356000526007602052602060ff604060002054166040519015158152f35b346104175760803660031901126104175760036024351015610417576001600160401b0360443581811161041757612dd29036906004016146c7565b612dda6149f2565b612de26149d4565b600435151580613148575b612df690614752565b6004356000526015602052604060002060ff600382015416600681101561148e5760010361311057612e32610d256002830154602a5490614794565b600c54606435101580613102575b612e49906147f4565b612e568284602435615799565b6008546001600160a01b0390612e759060643590309033908516614936565b612e80601254614831565b8060125560405190612e91826144d8565b3382526020820160043581526040830190612eae60243583614840565b612eb936888a61484c565b92606085019384526064356080860152600060a0860152600060c0860152600052601660205260406000209484511660018060a01b0319865416178555516001850155600284019051600381101561148e5760ff801983541691161790555195865190811161271d57612f2f6003840154614467565b601f81116130cd575b506020601f821160011461305557918160c092600694600898999a60009261304a575b50508160011b916000199060031b1c19161760038501555b60808101516004850155612f9c60a08201511515600586019060ff801983541691151516179055565b0151910155336000526017602052612fbb6040600020601254906148a9565b6004356000526018602052612fd76040600020601254906148a9565b60078101612fe58154614831565b905501612ff560643582546148de565b905561300360643533615b5c565b6012547ff8873d4bfa04c03bc66a123371f2557a80126790097f9d18cbc1eb7233da238e60405180613041600435963396606435916024358561490c565b0390a460018055005b015190508a80612f5b565b6003840160005260206000209760005b601f19841681106130b557508260089798996006959360019360c096601f1981161061309c575b505050811b016003850155612f73565b015160001960f88460031b161c191690558a808061308c565b828201518a5560019099019860209283019201613065565b6130fc90600385016000526020600020601f840160051c8101916020851061271357601f0160051c0190614892565b87612f38565b50600d546064351115612e40565b60405162461bcd60e51b815260206004820152601060248201526f223930bb9034b9903737ba1037b832b760811b6044820152606490fd5b506011546004351115612ded565b346104175760403660031901126104175761316f614662565b6024359081151590818303610417577f235bc17e7930760029e9f4d860a2a8089976de5b381cf8380fc11c1d88a11133916131d56020926131ae614726565b60018060a01b031694856000526029845260406000209060ff801983541691151516179055565b604051908152a2005b34610417576000366003190112610417576020601354604051908152f35b34610417576000366003190112610417576020602254604051908152f35b346104175760203660031901126104175760043560005260056020526020604060002054604051908152f35b34610417576020366003190112610417576001600160a01b03613267614662565b166000526029602052602060ff604060002054166040519015158152f35b34610417576000366003190112610417576020602a54604051908152f35b346104175760203660031901126104175760206132c1600435615c16565b604051908152f35b34610417576020366003190112610417576004356003811015610417576132f561067a91602e01614565565b60405191829160208352602083019061460b565b3461041757600036600319011261041757613322614726565b60025460ff8116156133615760ff19166002557f5db9ee0a495bf2e6ff9c91a7834c1ba4fdd244a5e8aa4e537bd38aeae4b073aa6020604051338152a1005b604051638dfc202b60e01b8152600490fd5b346104175760203660031901126104175760043561338f614726565b601d54811061339d57602155005b60405162461bcd60e51b815260206004820152601e60248201527f436170206d757374206265203e3d2063757272656e74206a61636b706f7400006044820152606490fd5b3461041757600036600319011261041757602063ffffffff60045416604051908152f35b346104175760203660031901126104175760a06001600160a01b038061342a614662565b16600052603260205260406000209081541690600181015490600281015460046003830154920154926040519485526020850152604084015260608301526080820152f35b34610417576000366003190112610417576020600f54604051908152f35b3461041757602080600319360112610417576001600160a01b0390816134b1614662565b1660005260338152604060002060405191828183549182815201908193600052826000209060005b81811061352a57505050836134ef910384614544565b60405192818401908285525180915260408401929160005b8281106135145785850386f35b8351871685529381019392810192600101613507565b82548816845292840192600192830192016134d9565b3461041757610100366003190112610417573660e4116104175760e43560ff811681036104175761356f6149f2565b6135776149d4565b600435151580613a30575b61358b90614a15565b600435600052601960205260406000209060ff600383015416600581101561148e5760016135b99114614a5a565b6135cd6107a86002840154602a5490614794565b600960ff8216116139f95760005b600660ff821610158061371f57600160ff6135ff611fe08560051b16602401614bf2565b161015806136fc575b156136c057613616826156c4565b600660ff82161061363157505061362c906156a2565b6135db565b816136aa57613649611fe08460051b16602401614bf2565b60ff8061365f611fe08560051b16602401614bf2565b1691161461367557613670906156a2565b613616565b60405162461bcd60e51b815260206004820152600d60248201526c4e6f206475706c69636174657360981b6044820152606490fd5b634e487b7160e01b600052603260045260246000fd5b60405162461bcd60e51b81526020600482015260146024820152734e756d62657273206d75737420626520312d343960601b6044820152606490fd5b50506000603160ff613717611fe08560051b16602401614bf2565b161115613608565b600854601e548491869161373f91309033906001600160a01b0316614936565b61374a601454614831565b90816014556040519161375c836144bc565b3383526004356020840152604051613773816144f3565b6024815b60e482106139e1575050604084015260ff84166060840152426080840152600060a0840152600060c0840152600060e0840152600052601a60205260406000209160018060a01b0381511660018060a01b031984541617835560208101516001840155604081015160009060005b600681106139b357505060028401556003830160ff6060830151169060ff1991828254161790556080820151600485015561383560a08301511515600586019060ff801983541691151516179055565b60ff60e0600760c0850151966006978882015501930151169082541617905533600052601b60205261386e6040600020601454906148a9565b600435600052601c60205261388a6040600020601454906148a9565b600781016138988154614831565b90556138ac6008601e5492019182546148de565b90556138eb601e546127106138c3601f5483614ad8565b04601d546138d182826148de565b60215480911161399f575b508161395a575b505033615b5c565b60145491604051918260246000915b83831061393a5760ff851660c087015260043533887f34a33e2dd210a7f0f3190aafee6788065bd4a3b799c99e81a15bc4699dc21e4060e08aa460018055005b60208060019260ff61394b866146b9565b168152019201920191906138fa565b816139887fb0d06ccaa4821f41669bcc9a049d35783663cd32e846ae89a27dc9835330ce1a936040936148de565b9081601d5582519182526020820152a184806138e3565b819250906139ac91614794565b90866138dc565b909160206139d86001928460ff875116919060ff809160031b9316831b921b19161790565b930191016137e5565b602080916139ee846146b9565b815201910190613777565b60405162461bcd60e51b815260206004820152600f60248201526e4b6579206d75737420626520302d3960881b6044820152606490fd5b506013546004351115613582565b34610417576000366003190112610417576008546040516001600160a01b039091168152602090f35b3461041757602036600319011261041757600435613a836149f2565b3360005260096020528060406000205410613afe573360005260096020526040600020613ab1828254614794565b9055600854613acc90829033906001600160a01b0316614aeb565b6040519081527f7084f5476618d8e60b11ef0d7d3f06914655adb8793e28ff7f018d4c76d505d560203392a260018055005b60405162461bcd60e51b8152602060048201526014602482015273496e73756666696369656e742062616c616e636560601b6044820152606490fd5b34610417576000366003190112610417576020602654604051908152f35b3461041757602080600319360112610417576001600160a01b03613b7a614662565b1660005260178152604060002090604051808383829554938481520190600052836000209260005b85828210613bb9575050506120ca92500383614544565b8554845260019586019588955093019201613ba2565b34610417576020366003190112610417576004356000526016602052604060002060018060a01b0381541660018201549160ff600282015416613c1460038301614565565b91613c57600482015493613c46600660ff60058601541694015494604051988998895260208901526040880190614678565b60e0606087015260e086019061460b565b926080850152151560a084015260c08301520390f35b3461041757602036600319011261041757613c86614662565b613c8e614726565b600a80546001600160a01b0319166001600160a01b0392909216919091179055005b346104175760203660031901126104175760a0613ccb614662565b60006080604051613cdb816144a1565b8281528260208201528260408201528260608201520152600180831b03809116600052603260205260406000209060405190613d16826144a1565b8254169182825260018101546020830190815260028201549060408401918252608060046003850154946060870195865201549401938452604051948552516020850152516040840152516060830152516080820152f35b3461041757602080600319360112610417576001600160a01b039081613d92614662565b16338114613ea2578015613e6a5733600052603282528260406000205416613e305790603391336000526032825260406000208160018060a01b0319825416178155600442910155806000526001604060002001613df08154614831565b90556000525260406000208054600160401b81101561271d57613e189160018201815561444f565b819291549060031b9133831b921b1916179055600080f35b60405162461bcd60e51b8152600481018390526012602482015271105b1c9958591e481c9959da5cdd195c995960721b6044820152606490fd5b60405162461bcd60e51b815260048101839052601060248201526f24b73b30b634b2103932b332b93932b960811b6044820152606490fd5b60405162461bcd60e51b815260048101839052601560248201527421b0b73737ba103932b332b9103cb7bab939b2b63360591b6044820152606490fd5b34610417576040366003190112610417576024356001600160401b038111610417573660238201121561041757806004013590613f1b8261464b565b90613f296040519283614544565b82825260209260248484019160051b8301019136831161041757602401905b828210613fac57837f00000000000000000000000000000000000000000000000000000000000000006001600160a01b031633819003613f8e5761204082600435614cb3565b6044906040519063073e64fd60e21b82523360048301526024820152fd5b81358152908401908401613f48565b346104175760208060031936011261041757600435613fd86149f2565b6000818152601a83526040902080546001600160a01b03929190831633036141b557600581019283549461400f60ff8716156156d6565b60019586840190815460005260198352604060002060ff600382015416600581101561148e576004036141785761404681876159c9565b96909887156141485793879591938b6140ed9894818d60ff60077f6454b890e6df04ed2b48ec8ba08dddf37aae6d6446859a1291411ecd54b659b29e9a6140cf9c858419809a161790558b6006820155019116908186825416179055600983016140b18a82546148de565b90551480614139575b6140f4575b5050505050339060085416614aeb565b6040519182913396836020909392919360ff60408201951681520152565b0390a38055005b600a01918254161790558154601d55547ff75adeadf04a8ca4130d3774f98bdb151c71b80eb8ee92a224bced1c538e9408604051928584523393a38980808b816140bf565b5060ff600a82015416156140ba565b60405162461bcd60e51b81526004810187905260086024820152674e6f207072697a6560c01b6044820152606490fd5b60405162461bcd60e51b8152600481018590526015602482015274131bdd1d195c9e481b9bdd0818dbdb5c1b195d1959605a1b6044820152606490fd5b60405162461bcd60e51b815260048101859052600f60248201526e139bdd081e5bdd5c881d1a58dad95d608a1b6044820152606490fd5b34610417576000366003190112610417576020602854604051908152f35b34610417576020366003190112610417576004356000526015602052604060002080549061423a60018201614565565b60028201549060ff6003840154169261425560048201614565565b61426160058301614565565b9061426e60068401614565565b946007840154956008850154926009860154946142a8600b600a890154980154986040519c8d5260208d61018091829101528d019061460b565b9360408c015260068a101561148e576142d76142f3946142e5938d9c60608e01528c608081840391015261460b565b908a820360a08c015261460b565b9088820360c08a015261460b565b9460e08701526101008601526101208501526101408401526101608301520390f35b34610417576020366003190112610417576004356000526019602052604060002080549061434560018201614565565b60028201549060ff6003840154169260ff6005820154166006820154600783015460088401549060098501549260ff600a87015416946143a2600c600b890154980154986040519c8d5260208d61018091829101528d019061460b565b9860408c015260058a101561148e578a9960608b015260808a015260a089015260c088015260e087015261010086015215156101208501526101408401526101608301520390f35b34610417576000366003190112610417576020600354604051908152f35b346104175761441636614439565b90600052601c602052604060002080548210156104175760209161193a9161444f565b6040906003190112610417576004359060243590565b80548210156136aa5760005260206000200190600090565b90600182811c92168015614497575b602083101461448157565b634e487b7160e01b600052602260045260246000fd5b91607f1691614476565b60a081019081106001600160401b0382111761271d57604052565b61010081019081106001600160401b0382111761271d57604052565b60e081019081106001600160401b0382111761271d57604052565b60c081019081106001600160401b0382111761271d57604052565b602081019081106001600160401b0382111761271d57604052565b604081019081106001600160401b0382111761271d57604052565b90601f801991011681019081106001600160401b0382111761271d57604052565b906040519182600082549261457984614467565b9081845260019485811690816000146145e857506001146145a5575b50506145a392500383614544565b565b9093915060005260209081600020936000915b8183106145d05750506145a393508201013880614595565b855488840185015294850194879450918301916145b8565b9150506145a394506020925060ff191682840152151560051b8201013880614595565b919082519283825260005b848110614637575050826000602080949584010152601f8019910116010190565b602081830181015184830182015201614616565b6001600160401b03811161271d5760051b60200190565b600435906001600160a01b038216820361041757565b90600382101561148e5752565b90815180825260208080930193019160005b8281106146a5575050505090565b835185529381019392810192600101614697565b359060ff8216820361041757565b9181601f84011215610417578235916001600160401b038311610417576020838186019501011161041757565b604060031982011261041757600435906001600160401b0382116104175761471e916004016146c7565b909160243590565b6000546001600160a01b0316330361473a57565b60405163118cdaa760e01b8152336004820152602490fd5b1561475957565b60405162461bcd60e51b8152602060048201526013602482015272111c985dc8191bd95cc81b9bdd08195e1a5cdd606a1b6044820152606490fd5b919082039182116147a157565b634e487b7160e01b600052601160045260246000fd5b156147be57565b60405162461bcd60e51b815260206004820152600e60248201526d10995d1d1a5b99c818db1bdcd95960921b6044820152606490fd5b156147fb57565b60405162461bcd60e51b815260206004820152600e60248201526d125b9d985b1a5908185b5bdd5b9d60921b6044820152606490fd5b60001981146147a15760010190565b600382101561148e5752565b9291926001600160401b03821161271d5760405191614875601f8201601f191660200184614544565b829481845281830111610417578281602093846000960137010152565b81811061489d575050565b60008155600101614892565b8054600160401b81101561271d576148c69160018201815561444f565b819291549060031b91821b91600019901b1916179055565b919082018092116147a157565b908060209392818452848401376000828201840152601f01601f1916010190565b949392916040926149208761493194614678565b6060602088015260608701916148eb565b930152565b6040516323b872dd60e01b60208201526001600160a01b0392831660248201529290911660448301526064808301939093529181526145a391614978826144a1565b906000602091828151910182855af11561071a576000513d6149cb57506001600160a01b0381163b155b6149a95750565b604051635274afe760e01b81526001600160a01b039091166004820152602490fd5b600114156149a2565b60ff600254166149e057565b60405163d93c066560e01b8152600490fd5b600260015414614a03576002600155565b604051633ee5aeb560e01b8152600490fd5b15614a1c57565b60405162461bcd60e51b8152602060048201526016602482015275131bdd1d195c9e48191bd95cc81b9bdd08195e1a5cdd60521b6044820152606490fd5b15614a6157565b60405162461bcd60e51b815260206004820152601060248201526f2637ba3a32b93c903737ba1037b832b760811b6044820152606490fd5b15614aa057565b60405162461bcd60e51b815260206004820152601060248201526f141d5c98da185cd95cc818db1bdcd95960821b6044820152606490fd5b818102929181159184041417156147a157565b60405163a9059cbb60e01b60208201526001600160a01b03909216602483015260448083019390935291815260808101916001600160401b0383118284101761271d576145a392604052614978565b91908110156136aa5760051b81013590607e1981360301821215610417570190565b91908110156136aa57610120020190565b3580151581036104175790565b90614b848261464b565b614b916040519182614544565b8281528092614ba2601f199161464b565b0190602036910137565b80518210156136aa5760209160051b010190565b903590601e198136030182121561041757018035906001600160401b0382116104175760200191813603831361041757565b3560ff811681036104175790565b15614c0757565b60405162461bcd60e51b81526020600482015260096024820152682737ba1030b236b4b760b91b6044820152606490fd5b15614c3f57565b60405162461bcd60e51b815260206004820152601560248201527415949188185b1c9958591e481c995c5d595cdd1959605a1b6044820152606490fd5b90949363ffffffff9061ffff6001956001600160401b0360809660a087019a87521660208601521660408401521660608201520152565b919082600052600760205260ff60406000205416156155d357826000526007602052604060002060ff1981541690558051156136aa576020015191807f936fe18cf1ae151e1bc53947d9b72671fb007ae8fb2ec8ad96d98a23c8d51dc16020604051868152a280600052600560205260406000205480614fab5750600052600660205260406000205480614d4657509050565b9182600052601960205260406000209080600c8301559260405190614d6a826144f3565b60c03683376000925b600660ff85161015614e2d576031860695600187018097116147a1576040516020810191825260208152614da681614529565b5190209060009560005b60ff811660ff8816811015614e205760ff614dce818c1692896156b3565b511614614de357614dde906156a2565b614db0565b509291969093955060015b15614dfd575b50909391614d73565b9360ff614e19929516614e1360ff8316886156b3565b526156a2565b9238614df4565b5050929196909395614dee565b60009592949293505b60ff8616936005851015614ed857614e4d876156c4565b60ff81166006811015614ec45790614e879160ff614e6b898b6156b3565b511660ff614e79838c6156b3565b511610614e8c575b506156a2565b614e4d565b614ebd60ff614e9b8a8c6156b3565b51169160ff614eaa828d6156b3565b5116614eb68b8d6156b3565b528a6156b3565b5238614e81565b5050935094614ed2906156a2565b94614e36565b600a9193965060ff929594500616908260009060005b60068110614f7d575050906003916004820155600581018360ff19825416179055601d54600682015501600460ff1982541617905560405191826000905b60068210614f64575050508160e09160c07f0660eb7e74391df8c47658e512cfca513f8ab5a3f1e191ffc960552bf229fe03940152a2565b60208060019260ff865116815201930191019091614f2c565b90916020614fa26001928460ff875116919060ff809160031b9316831b921b19161790565b93019101614eee565b809150600052601560205260406000209280600b8501556064810660405190614fd382614529565b6002825260208201906020368337600a810460300191826030116147a1578351156136aa57600a9260f81b6001600160f81b03191660001a905306603001806030116147a1578151600110156136aa5760f81b6001600160f81b03191660001a60218201538051906001600160401b03821161271d5781906150586004880154614467565b601f811161559e575b50602090601f831160011461552c57600092615521575b50508160011b916000199060031b1c19161760048501555b60405160208101918252602081526150a781614529565b5190206040516150b681614529565b600381526020368183013760646103e88306046030016030116147a1578051156136aa57603060646103e88406040160f81b6001600160f81b03191660001a6020820153600a806103e884060406603001806030116147a1578151600110156136aa5760f81b6001600160f81b03191660001a6021820153600a6103e8830606603001806030116147a1578151600210156136aa5760f81b6001600160f81b03191660001a60228201538051906001600160401b03821161271d5761517e6005870154614467565b601f81116154ec575b50602090601f8311600114615478576127109392916000918361546d575b50508160011b916000199060031b1c19161760058601555b60405160208101918252602081526151d481614529565b5190200692604051936151e685614529565b600485526020850160203682376103e88204603001806030116147a1578651156136aa5760f81b6001600160f81b03191660001a9053600a6064820406603001806030116147a1578551600110156136aa5760f81b6001600160f81b03191660001a6021860153600a8082040660300190816030116147a1578551600210156136aa57600a9160f81b6001600160f81b03191660001a602287015306603001806030116147a1578451600310156136aa5760f81b6001600160f81b03191660001a602385015383516001600160401b03811161271d576152c96006830154614467565b601f8111615438575b506020601f82116001146153a2579181615379927f4cab5e734ebef082a0255b7313875fe2004541b62282a13fb40201e6d55a70b894869798600092615397575b50508160011b916000199060031b1c19161760068201555b60038101600460ff1982541617905560405191829160608352600661536a615359606086016004850161560c565b85810360208701526005840161560c565b9184830360408601520161560c565b0390a2600080516020615cd5833981519152602060405160048152a2565b015190503880615313565b6006830160005260206000209560005b601f19841681106154205750828596977f4cab5e734ebef082a0255b7313875fe2004541b62282a13fb40201e6d55a70b8959360019361537996601f19811610615407575b505050811b01600682015561532b565b015160001960f88460031b161c191690553880806153f7565b828201518855600190970196602092830192016153b2565b61546790600684016000526020600020601f840160051c8101916020851061271357601f0160051c0190614892565b386152d2565b0151905038806151a5565b906005870160005260206000209160005b601f19851681106154d457509183916001936127109695601f198116106154bb575b505050811b0160058601556151bd565b015160001960f88460031b161c191690553880806154ab565b91926020600181928685015181550194019201615489565b61551b90600588016000526020600020601f850160051c8101916020861061271357601f0160051c0190614892565b38615187565b015190503880615078565b9250600487016000526020600020906000935b601f1984168510615583576001945083601f1981161061556a575b505050811b016004850155615090565b015160001960f88460031b161c1916905538808061555a565b8181015183556020948501946001909301929091019061553f565b6155cd90600489016000526020600020601f850160051c8101916020861061271357601f0160051c0190614892565b38615061565b60405162461bcd60e51b815260206004820152601160248201527014995c5d595cdd081b9bdd08199bdd5b99607a1b6044820152606490fd5b906000929180549161561d83614467565b91828252600193848116908160001461567f575060011461563f575b50505050565b90919394506000526020928360002092846000945b83861061566b575050505001019038808080615639565b805485870183015294019385908201615654565b9294505050602093945060ff191683830152151560051b01019038808080615639565b60ff1660ff81146147a15760010190565b9060068110156136aa5760051b0190565b60ff60019116019060ff82116147a157565b156156dd57565b60405162461bcd60e51b815260206004820152600f60248201526e105b1c9958591e4818db185a5b5959608a1b6044820152606490fd5b1561571b57565b60405162461bcd60e51b815260206004820152600e60248201526d4d7573742062652066757475726560901b6044820152606490fd5b1561575857565b60405162461bcd60e51b81526020600482015260086024820152672737ba1037b832b760c11b6044820152606490fd5b9081518110156136aa570160200190565b91906157a691369161484c565b90600381101561148e578061588c57506002815103615856575b60005b8151811015615852576001600160f81b0319600360fc1b816157e58486615788565b511610159081615837575b5015615804576157ff90614831565b6157c3565b60405162461bcd60e51b815260206004820152600b60248201526a4f6e6c792064696769747360a81b6044820152606490fd5b603960f81b91506158488385615788565b51161115386157f0565b5050565b60405162461bcd60e51b815260206004820152600e60248201526d46696a6f3a20322064696769747360901b6044820152606490fd5b6001036158d6576003815103156157c05760405162461bcd60e51b815260206004820152601160248201527043656e74656e613a20332064696769747360781b6044820152606490fd5b6004815103156157c05760405162461bcd60e51b815260206004820152600f60248201526e5061726c653a20342064696769747360881b6044820152606490fd5b600281015460ff16600060038210156159b557508061598b57506159406004600e549301614565565b60405161595b81615954816003870161560c565b0382614544565b60208151910120906020815191012014615976575050600090565b612710916004615987920154614ad8565b0490565b6001036159a6576159a16005600f549301614565565b615940565b6159a160066010549301614565565b634e487b7160e01b81526021600452602490fd5b9091906000906004840160028201835b600660ff818184161015615a585760005b8282821610615a05575b505050615a00906156a2565b6159d9565b8180615a118688615b43565b905490615a1e858b615b43565b949054600395861b1c16931b1c1614615a3f57615a3a906156a2565b6159ea565b50505093615a4f615a00916156a2565b949038806159f4565b505050505060ff600381929593949501541681600584015416149216906006821490818092615b3c575b615b2d5750615b2357600581148080615b1c575b615b0f57615b0557600481148080615afe575b615af157615ae75760031480918192615adf575b50615ad657615ace57600090600090565b602854600891565b50602754600791565b905038615abd565b5050602654600691565b5050506025549060059190565b5082615aa9565b5050602454600491565b5050506023549060039190565b5082615a96565b5050602254600291565b60060154600194909350915050565b5083615a82565b91909160068310156136aa57601f908360051c01921690565b6001600160a01b03908116600081815260326020526040812054919391909216919082151580615c0b575b615b915750505050565b7fa6d05371a3daec878bf8c7ed5a16dbc19f0595497358c6beacf4c90478f1a74b9160026040612710615bc960209560315490614ad8565b049286815260328552600382822001615be38582546148de565b9055868152603285522001615bf98282546148de565b9055604051908152a338808080615639565b506031541515615b87565b6000908152601660205260408120600181015482526015602052604082209060ff6003830154166006811015615c5f57600403615c5a57615c579250615917565b90565b505090565b634e487b7160e01b84526021600452602484fd5b906000918252601a60205260408220600181015483526019602052604083209060ff6003830154166005811015615cc057600403615cba57615cb69293506159c9565b9091565b50508190565b634e487b7160e01b85526021600452602485fdfe3fb14dcb75745b2fd6b729f1f6d005ff458435f4113b58be6e3dbf69cbcd394a70729b1530d81cb2f698363e030ece9bae966cffe435373e298dad8e7099f5bda2646970667358221220228626e38c44af0ea9db26e8bad53428e223f5339d3e10434156921dd7b7e22364736f6c63430008140033","opcodes":"PUSH1 0xA0 CALLVALUE PUSH3 0x44D JUMPI PUSH1 0x1F PUSH3 0x61F2 CODESIZE DUP2 SWAP1 SUB SWAP2 DUP3 ADD PUSH1 0x1F NOT AND DUP4 ADD SWAP2 PUSH1 0x1 PUSH1 0x1 PUSH1 0x40 SHL SUB DUP4 GT DUP5 DUP5 LT OR PUSH3 0x36F JUMPI DUP1 DUP5 SWAP3 PUSH1 0x80 SWAP5 PUSH1 0x40 MSTORE DUP4 CODECOPY DUP2 ADD SUB SLT PUSH3 0x44D JUMPI PUSH3 0x4D DUP2 PUSH3 0x492 JUMP JUMPDEST PUSH3 0x5B PUSH1 0x20 DUP4 ADD PUSH3 0x492 JUMP JUMPDEST PUSH1 0x40 DUP4 ADD MLOAD SWAP1 SWAP3 PUSH1 0x1 PUSH1 0x1 PUSH1 0x40 SHL SUB DUP3 AND DUP3 SUB PUSH3 0x44D JUMPI PUSH1 0x60 ADD MLOAD CALLER ISZERO PUSH3 0x434 JUMPI PUSH1 0x0 DUP1 SLOAD CALLER PUSH1 0x1 PUSH1 0x1 PUSH1 0xA0 SHL SUB NOT DUP3 AND DUP2 OR DUP4 SSTORE SWAP4 SWAP6 SWAP4 SWAP2 PUSH1 0x1 PUSH1 0x1 PUSH1 0xA0 SHL SUB SWAP1 SWAP2 AND SWAP1 PUSH32 0x8BE0079C531659141344CD1FD0A4F28419497F9722A3DAAFE3B4186F6B6457E0 SWAP1 DUP1 LOG3 PUSH1 0x1 DUP1 SSTORE DUP2 PUSH1 0x80 MSTORE PUSH5 0x30007A120 PUSH6 0xFFFFFFFFFFFF NOT PUSH1 0x4 SLOAD AND OR PUSH1 0x4 SSTORE PUSH3 0xF4240 DUP1 PUSH1 0xB SSTORE DUP1 PUSH1 0xC SSTORE PUSH4 0x3B9ACA00 DUP1 PUSH1 0xD SSTORE PUSH3 0xC3500 PUSH1 0xE SSTORE PUSH3 0x4C4B40 SWAP2 DUP3 PUSH1 0xF SSTORE PUSH3 0x895440 PUSH1 0x10 SSTORE PUSH1 0x1E SSTORE PUSH2 0x1388 PUSH1 0x1F SSTORE PUSH5 0x2540BE400 DUP1 PUSH1 0x20 SSTORE PUSH5 0xE8D4A51000 PUSH1 0x21 SSTORE PUSH5 0x174876E800 PUSH1 0x22 SSTORE PUSH1 0x23 SSTORE PUSH1 0x24 SSTORE PUSH4 0x5F5E100 PUSH1 0x25 SSTORE PUSH4 0x2FAF080 PUSH1 0x26 SSTORE PUSH3 0x989680 PUSH1 0x27 SSTORE PUSH1 0x28 SSTORE PUSH2 0xE10 PUSH1 0x2A SSTORE PUSH3 0x165 PUSH3 0x452 JUMP JUMPDEST PUSH2 0x8CA0 DUP2 MSTORE PUSH2 0xD2F0 PUSH1 0x20 DUP3 ADD MSTORE PUSH3 0x12750 PUSH1 0x40 DUP3 ADD MSTORE PUSH1 0x0 JUMPDEST PUSH1 0x3 DUP2 LT PUSH3 0x419 JUMPI POP POP PUSH3 0x193 PUSH3 0x452 JUMP JUMPDEST PUSH3 0x19D PUSH3 0x472 JUMP JUMPDEST PUSH1 0x6 DUP2 MSTORE PUSH6 0x4D414E414E41 PUSH1 0xD0 SHL PUSH1 0x20 DUP3 ADD MSTORE DUP2 MSTORE PUSH3 0x1BC PUSH3 0x472 JUMP JUMPDEST PUSH1 0x5 DUP2 MSTORE PUSH5 0x5441524445 PUSH1 0xD8 SHL PUSH1 0x20 DUP3 ADD MSTORE PUSH1 0x20 DUP3 ADD MSTORE PUSH3 0x1DD PUSH3 0x472 JUMP JUMPDEST PUSH1 0x5 DUP2 MSTORE PUSH5 0x4E4F434845 PUSH1 0xD8 SHL PUSH1 0x20 DUP3 ADD MSTORE PUSH1 0x40 DUP3 ADD MSTORE SWAP2 PUSH1 0x2E SWAP5 PUSH1 0x0 SWAP4 JUMPDEST PUSH1 0x3 DUP6 LT ISZERO PUSH3 0x385 JUMPI DUP1 MLOAD DUP1 MLOAD SWAP1 PUSH1 0x1 PUSH1 0x1 PUSH1 0x40 SHL SUB DUP3 GT PUSH3 0x36F JUMPI DUP9 SLOAD PUSH1 0x1 DUP2 DUP2 SHR SWAP2 AND DUP1 ISZERO PUSH3 0x364 JUMPI JUMPDEST PUSH1 0x20 DUP3 LT EQ PUSH3 0x34E JUMPI PUSH1 0x1F DUP2 GT PUSH3 0x305 JUMPI JUMPDEST POP PUSH1 0x20 SWAP1 PUSH1 0x1F DUP4 GT PUSH1 0x1 EQ PUSH3 0x290 JUMPI SWAP3 DUP3 PUSH1 0x1 SWAP5 SWAP4 PUSH1 0x20 SWAP4 DUP7 SWAP6 PUSH1 0x0 SWAP3 PUSH3 0x284 JUMPI JUMPDEST POP POP PUSH1 0x0 NOT PUSH1 0x3 DUP4 SWAP1 SHL SHR NOT AND SWAP1 DUP5 SHL OR DUP11 SSTORE JUMPDEST ADD SWAP8 ADD SWAP5 ADD SWAP4 SWAP6 PUSH3 0x1FC JUMP JUMPDEST ADD MLOAD SWAP1 POP CODESIZE DUP1 PUSH3 0x263 JUMP JUMPDEST SWAP1 DUP10 PUSH1 0x0 MSTORE PUSH1 0x20 PUSH1 0x0 KECCAK256 SWAP2 PUSH1 0x0 JUMPDEST PUSH1 0x1F NOT DUP6 AND DUP2 LT PUSH3 0x2EC JUMPI POP DUP4 PUSH1 0x20 SWAP4 PUSH1 0x1 SWAP7 SWAP4 DUP8 SWAP7 SWAP4 DUP8 SWAP5 PUSH1 0x1F NOT DUP2 AND LT PUSH3 0x2D2 JUMPI JUMPDEST POP POP POP DUP2 SHL ADD DUP11 SSTORE PUSH3 0x277 JUMP JUMPDEST ADD MLOAD PUSH1 0x0 NOT PUSH1 0xF8 DUP5 PUSH1 0x3 SHL AND SHR NOT AND SWAP1 SSTORE CODESIZE DUP1 DUP1 PUSH3 0x2C4 JUMP JUMPDEST SWAP2 SWAP3 PUSH1 0x20 PUSH1 0x1 DUP2 SWAP3 DUP7 DUP6 ADD MLOAD DUP2 SSTORE ADD SWAP5 ADD SWAP3 ADD PUSH3 0x29E JUMP JUMPDEST DUP10 PUSH1 0x0 MSTORE PUSH1 0x20 PUSH1 0x0 KECCAK256 PUSH1 0x1F DUP5 ADD PUSH1 0x5 SHR DUP2 ADD PUSH1 0x20 DUP6 LT PUSH3 0x346 JUMPI JUMPDEST PUSH1 0x1F DUP4 ADD PUSH1 0x5 SHR DUP3 ADD DUP2 LT PUSH3 0x339 JUMPI POP POP PUSH3 0x23F JUMP JUMPDEST PUSH1 0x0 DUP2 SSTORE PUSH1 0x1 ADD PUSH3 0x321 JUMP JUMPDEST POP DUP1 PUSH3 0x321 JUMP JUMPDEST PUSH4 0x4E487B71 PUSH1 0xE0 SHL PUSH1 0x0 MSTORE PUSH1 0x22 PUSH1 0x4 MSTORE PUSH1 0x24 PUSH1 0x0 REVERT JUMPDEST SWAP1 PUSH1 0x7F AND SWAP1 PUSH3 0x22B JUMP JUMPDEST PUSH4 0x4E487B71 PUSH1 0xE0 SHL PUSH1 0x0 MSTORE PUSH1 0x41 PUSH1 0x4 MSTORE PUSH1 0x24 PUSH1 0x0 REVERT JUMPDEST POP PUSH2 0x1F4 PUSH1 0x31 SSTORE PUSH1 0x8 DUP1 SLOAD PUSH1 0x1 PUSH1 0x1 PUSH1 0xA0 SHL SUB NOT AND PUSH1 0x1 PUSH1 0x1 PUSH1 0xA0 SHL SUB DUP8 AND OR DUP2 SSTORE PUSH1 0x2 DUP1 SLOAD PUSH2 0x100 PUSH1 0x1 PUSH1 0xE8 SHL SUB NOT AND SWAP4 SWAP1 SWAP2 SHL PUSH2 0x100 PUSH1 0x1 PUSH1 0xA8 SHL SUB AND SWAP3 SWAP1 SWAP3 OR PUSH1 0xA8 SWAP2 SWAP1 SWAP2 SHL PUSH1 0x1 PUSH1 0xA8 SHL PUSH1 0x1 PUSH1 0xE8 SHL SUB AND OR SWAP1 SSTORE PUSH1 0x3 SSTORE CALLER PUSH1 0x0 SWAP1 DUP2 MSTORE PUSH1 0x29 PUSH1 0x20 SWAP1 DUP2 MSTORE PUSH1 0x40 SWAP2 DUP3 SWAP1 KECCAK256 DUP1 SLOAD PUSH1 0xFF NOT AND PUSH1 0x1 OR SWAP1 SSTORE SLOAD PUSH1 0x1D SSTORE MLOAD PUSH2 0x5D4A SWAP1 DUP2 PUSH3 0x4A8 DUP3 CODECOPY PUSH1 0x80 MLOAD DUP2 PUSH2 0x3F52 ADD MSTORE RETURN JUMPDEST DUP2 MLOAD PUSH3 0xFFFFFF AND PUSH1 0x2B DUP3 ADD SSTORE PUSH1 0x20 SWAP1 SWAP2 ADD SWAP1 PUSH1 0x1 ADD PUSH3 0x17E JUMP JUMPDEST PUSH1 0x40 MLOAD PUSH4 0x1E4FBDF7 PUSH1 0xE0 SHL DUP2 MSTORE PUSH1 0x0 PUSH1 0x4 DUP3 ADD MSTORE PUSH1 0x24 SWAP1 REVERT JUMPDEST PUSH1 0x0 DUP1 REVERT JUMPDEST PUSH1 0x40 MLOAD SWAP1 PUSH1 0x60 DUP3 ADD PUSH1 0x1 PUSH1 0x1 PUSH1 0x40 SHL SUB DUP2 GT DUP4 DUP3 LT OR PUSH3 0x36F JUMPI PUSH1 0x40 MSTORE JUMP JUMPDEST PUSH1 0x40 DUP1 MLOAD SWAP2 SWAP1 DUP3 ADD PUSH1 0x1 PUSH1 0x1 PUSH1 0x40 SHL SUB DUP2 GT DUP4 DUP3 LT OR PUSH3 0x36F JUMPI PUSH1 0x40 MSTORE JUMP JUMPDEST MLOAD SWAP1 PUSH1 0x1 PUSH1 0x1 PUSH1 0xA0 SHL SUB DUP3 AND DUP3 SUB PUSH3 0x44D JUMPI JUMP INVALID PUSH1 0x80 PUSH1 0x40 MSTORE PUSH1 0x4 CALLDATASIZE LT ISZERO PUSH2 0x12 JUMPI PUSH1 0x0 DUP1 REVERT JUMPDEST PUSH1 0x0 CALLDATALOAD PUSH1 0xE0 SHR DUP1 PUSH3 0xCBDB00 EQ PUSH2 0x4408 JUMPI DUP1 PUSH4 0x41D443E EQ PUSH2 0x43EA JUMPI DUP1 PUSH4 0xBD26E92 EQ PUSH2 0x4315 JUMPI DUP1 PUSH4 0xCC36C36 EQ PUSH2 0x420A JUMPI DUP1 PUSH4 0x19495423 EQ PUSH2 0x41EC JUMPI DUP1 PUSH4 0x1A65058C EQ PUSH2 0x3FBB JUMPI DUP1 PUSH4 0x1FE543E3 EQ PUSH2 0x3EDF JUMPI DUP1 PUSH4 0x209AB711 EQ PUSH2 0x3D6E JUMPI DUP1 PUSH4 0x21874AE2 EQ PUSH2 0x3CB0 JUMPI DUP1 PUSH4 0x21E501BB EQ PUSH2 0x3C6D JUMPI DUP1 PUSH4 0x22AF00FA EQ PUSH2 0x3BCF JUMPI DUP1 PUSH4 0x26224C64 EQ PUSH2 0x458 JUMPI DUP1 PUSH4 0x2D56657D EQ PUSH2 0x3B58 JUMPI DUP1 PUSH4 0x2D816895 EQ PUSH2 0x3B3A JUMPI DUP1 PUSH4 0x2E1A7D4D EQ PUSH2 0x3A67 JUMPI DUP1 PUSH4 0x3013CE29 EQ PUSH2 0x3A3E JUMPI DUP1 PUSH4 0x323C6D54 EQ PUSH2 0x3540 JUMPI DUP1 PUSH4 0x32E5B6D8 EQ PUSH2 0x348D JUMPI DUP1 PUSH4 0x38DA7EAD EQ PUSH2 0x346F JUMPI DUP1 PUSH4 0x39540B0A EQ PUSH2 0x3406 JUMPI DUP1 PUSH4 0x3B7ED734 EQ PUSH2 0x33E2 JUMPI DUP1 PUSH4 0x3DA3F922 EQ PUSH2 0x3373 JUMPI DUP1 PUSH4 0x3F4BA83A EQ PUSH2 0x3309 JUMPI DUP1 PUSH4 0x3FB07A3B EQ PUSH2 0x32C9 JUMPI DUP1 PUSH4 0x410FB08C EQ PUSH2 0x32A3 JUMPI DUP1 PUSH4 0x426E4382 EQ PUSH2 0x3285 JUMPI DUP1 PUSH4 0x429B62E5 EQ PUSH2 0x3246 JUMPI DUP1 PUSH4 0x497172BE EQ PUSH2 0x321A JUMPI DUP1 PUSH4 0x4A382514 EQ PUSH2 0x31FC JUMPI DUP1 PUSH4 0x4A4A6B4F EQ PUSH2 0x31DE JUMPI DUP1 PUSH4 0x4B0BDDD2 EQ PUSH2 0x3156 JUMPI DUP1 PUSH4 0x4EE36A84 EQ PUSH2 0x2D96 JUMPI DUP1 PUSH4 0x5487AB5B EQ PUSH2 0x2D65 JUMPI DUP1 PUSH4 0x554DF634 EQ PUSH2 0x2747 JUMPI DUP1 PUSH4 0x5799EE2A EQ PUSH2 0x23A9 JUMPI DUP1 PUSH4 0x598BC486 EQ PUSH2 0x2385 JUMPI DUP1 PUSH4 0x5C975ABB EQ PUSH2 0x2362 JUMPI DUP1 PUSH4 0x636218FC EQ PUSH2 0x2344 JUMPI DUP1 PUSH4 0x677BD9FF EQ PUSH2 0x21B5 JUMPI DUP1 PUSH4 0x6826EEF4 EQ PUSH2 0x2194 JUMPI DUP1 PUSH4 0x68D3ADF2 EQ PUSH2 0x216B JUMPI DUP1 PUSH4 0x6922D1E1 EQ PUSH2 0x20F4 JUMPI DUP1 PUSH4 0x6CD425A5 EQ PUSH2 0x2077 JUMPI DUP1 PUSH4 0x6FF1C9BC EQ PUSH2 0x1FD9 JUMPI DUP1 PUSH4 0x715018A6 EQ PUSH2 0x1F80 JUMPI DUP1 PUSH4 0x7687DD49 EQ PUSH2 0x1F61 JUMPI DUP1 PUSH4 0x7CF210F1 EQ PUSH2 0x1F43 JUMPI DUP1 PUSH4 0x8068AA68 EQ PUSH2 0x1EF9 JUMPI DUP1 PUSH4 0x8456CB59 EQ PUSH2 0x1E9F JUMPI DUP1 PUSH4 0x84AE48B5 EQ PUSH2 0x1E0B JUMPI DUP1 PUSH4 0x8A0AB213 EQ PUSH2 0x1DED JUMPI DUP1 PUSH4 0x8A502381 EQ PUSH2 0x1D4E JUMPI DUP1 PUSH4 0x8C4D59D0 EQ PUSH2 0x1D30 JUMPI DUP1 PUSH4 0x8DA5CB5B EQ PUSH2 0x1D07 JUMPI DUP1 PUSH4 0x907CB96C EQ PUSH2 0x1CBD JUMPI DUP1 PUSH4 0x911D0189 EQ PUSH2 0x1CA0 JUMPI DUP1 PUSH4 0x92B5BA0B EQ PUSH2 0x1C82 JUMPI DUP1 PUSH4 0x9329066C EQ PUSH2 0x43A JUMPI DUP1 PUSH4 0x9398676D EQ PUSH2 0x1A99 JUMPI DUP1 PUSH4 0x94A4E23E EQ PUSH2 0x1A7B JUMPI DUP1 PUSH4 0x9A037AA0 EQ PUSH2 0x1A22 JUMPI DUP1 PUSH4 0x9C9AD21A EQ PUSH2 0x1969 JUMPI DUP1 PUSH4 0xA0EDE5A4 EQ PUSH2 0x1948 JUMPI DUP1 PUSH4 0xA11720AB EQ PUSH2 0x1909 JUMPI DUP1 PUSH4 0xA3E56FA8 EQ PUSH2 0x18DC JUMPI DUP1 PUSH4 0xA416F5AB EQ PUSH2 0x18BE JUMPI DUP1 PUSH4 0xAD5A6012 EQ PUSH2 0x1892 JUMPI DUP1 PUSH4 0xB6B55F25 EQ PUSH2 0x17C6 JUMPI DUP1 PUSH4 0xBEBE329D EQ PUSH2 0x17A8 JUMPI DUP1 PUSH4 0xC9F6707E EQ PUSH2 0x177C JUMPI DUP1 PUSH4 0xCA3286F5 EQ PUSH2 0x175E JUMPI DUP1 PUSH4 0xCAB11D5D EQ PUSH2 0x1740 JUMPI DUP1 PUSH4 0xCD6EAF12 EQ PUSH2 0x1722 JUMPI DUP1 PUSH4 0xDB0CA0B4 EQ PUSH2 0x1687 JUMPI DUP1 PUSH4 0xDB309AB3 EQ PUSH2 0x1666 JUMPI DUP1 PUSH4 0xDC158EFA EQ PUSH2 0x1648 JUMPI DUP1 PUSH4 0xE5286CAB EQ PUSH2 0x1603 JUMPI DUP1 PUSH4 0xE74579B1 EQ PUSH2 0x1583 JUMPI DUP1 PUSH4 0xE92820E6 EQ PUSH2 0x152A JUMPI DUP1 PUSH4 0xE9715DE9 EQ PUSH2 0x150C JUMPI DUP1 PUSH4 0xED647D21 EQ PUSH2 0x14E2 JUMPI DUP1 PUSH4 0xEE03AC40 EQ PUSH2 0x14C4 JUMPI DUP1 PUSH4 0xEE996784 EQ PUSH2 0x12AE JUMPI DUP1 PUSH4 0xF2FDE38B EQ PUSH2 0x1228 JUMPI DUP1 PUSH4 0xF33CE325 EQ PUSH2 0x11F5 JUMPI DUP1 PUSH4 0xF5E93C64 EQ PUSH2 0x492 JUMPI DUP1 PUSH4 0xF8B2CB4F EQ PUSH2 0x458 JUMPI DUP1 PUSH4 0xF9CEE0BD EQ PUSH2 0x43A JUMPI DUP1 PUSH4 0xFA968EEA EQ PUSH2 0x41C JUMPI PUSH4 0xFECF615D EQ PUSH2 0x3F9 JUMPI PUSH1 0x0 DUP1 REVERT JUMPDEST CALLVALUE PUSH2 0x417 JUMPI PUSH1 0x0 CALLDATASIZE PUSH1 0x3 NOT ADD SLT PUSH2 0x417 JUMPI PUSH1 0x20 PUSH1 0x23 SLOAD PUSH1 0x40 MLOAD SWAP1 DUP2 MSTORE RETURN JUMPDEST PUSH1 0x0 DUP1 REVERT JUMPDEST CALLVALUE PUSH2 0x417 JUMPI PUSH1 0x0 CALLDATASIZE PUSH1 0x3 NOT ADD SLT PUSH2 0x417 JUMPI PUSH1 0x20 PUSH1 0xC SLOAD PUSH1 0x40 MLOAD SWAP1 DUP2 MSTORE RETURN JUMPDEST CALLVALUE PUSH2 0x417 JUMPI PUSH1 0x0 CALLDATASIZE PUSH1 0x3 NOT ADD SLT PUSH2 0x417 JUMPI PUSH1 0x20 PUSH1 0x1D SLOAD PUSH1 0x40 MLOAD SWAP1 DUP2 MSTORE RETURN JUMPDEST CALLVALUE PUSH2 0x417 JUMPI PUSH1 0x20 CALLDATASIZE PUSH1 0x3 NOT ADD SLT PUSH2 0x417 JUMPI PUSH1 0x1 PUSH1 0x1 PUSH1 0xA0 SHL SUB PUSH2 0x479 PUSH2 0x4662 JUMP JUMPDEST AND PUSH1 0x0 MSTORE PUSH1 0x9 PUSH1 0x20 MSTORE PUSH1 0x20 PUSH1 0x40 PUSH1 0x0 KECCAK256 SLOAD PUSH1 0x40 MLOAD SWAP1 DUP2 MSTORE RETURN JUMPDEST CALLVALUE PUSH2 0x417 JUMPI PUSH1 0x40 CALLDATASIZE PUSH1 0x3 NOT ADD SLT PUSH2 0x417 JUMPI PUSH1 0x4 CALLDATALOAD PUSH1 0x1 PUSH1 0x1 PUSH1 0x40 SHL SUB DUP2 GT PUSH2 0x417 JUMPI CALLDATASIZE PUSH1 0x23 DUP3 ADD SLT ISZERO PUSH2 0x417 JUMPI PUSH1 0x1 PUSH1 0x1 PUSH1 0x40 SHL SUB DUP2 PUSH1 0x4 ADD CALLDATALOAD GT PUSH2 0x417 JUMPI PUSH1 0x24 SWAP1 CALLDATASIZE DUP3 DUP3 PUSH1 0x4 ADD CALLDATALOAD PUSH1 0x5 SHL DUP4 ADD ADD GT PUSH2 0x417 JUMPI DUP2 CALLDATALOAD SWAP2 PUSH1 0x1 PUSH1 0x1 PUSH1 0x40 SHL SUB DUP4 GT PUSH2 0x417 JUMPI CALLDATASIZE PUSH1 0x23 DUP5 ADD SLT ISZERO PUSH2 0x417 JUMPI PUSH1 0x1 PUSH1 0x1 PUSH1 0x40 SHL SUB DUP4 PUSH1 0x4 ADD CALLDATALOAD GT PUSH2 0x417 JUMPI CALLDATASIZE DUP2 PUSH2 0x120 DUP6 PUSH1 0x4 ADD CALLDATALOAD MUL DUP6 ADD ADD GT PUSH2 0x417 JUMPI PUSH2 0x52F PUSH2 0x49F2 JUMP JUMPDEST PUSH2 0x537 PUSH2 0x49D4 JUMP JUMPDEST DUP2 PUSH1 0x4 ADD CALLDATALOAD ISZERO DUP1 ISZERO SWAP1 PUSH2 0x11E8 JUMPI JUMPDEST ISZERO PUSH2 0x11B7 JUMPI PUSH1 0x0 SWAP1 PUSH1 0x0 SWAP1 PUSH1 0x0 SWAP5 PUSH1 0x0 JUMPDEST DUP6 PUSH1 0x4 ADD CALLDATALOAD DUP2 LT PUSH2 0x1189 JUMPI POP PUSH1 0x0 PUSH1 0x1E SLOAD JUMPDEST DUP3 PUSH1 0x4 ADD CALLDATALOAD DUP3 LT PUSH2 0x1123 JUMPI POP POP CALLER PUSH1 0x0 MSTORE PUSH1 0x9 PUSH1 0x20 MSTORE DUP4 PUSH1 0x40 PUSH1 0x0 KECCAK256 SLOAD LT PUSH2 0x10E1 JUMPI CALLER PUSH1 0x0 MSTORE PUSH1 0x9 PUSH1 0x20 MSTORE PUSH1 0x40 PUSH1 0x0 KECCAK256 PUSH2 0x5A3 DUP6 DUP3 SLOAD PUSH2 0x4794 JUMP JUMPDEST SWAP1 SSTORE PUSH2 0x5B2 DUP6 PUSH1 0x4 ADD CALLDATALOAD PUSH2 0x4B7A JUMP JUMPDEST SWAP5 PUSH1 0x0 JUMPDEST DUP2 PUSH1 0x4 ADD CALLDATALOAD DUP2 LT PUSH2 0xCC6 JUMPI POP POP PUSH2 0x5D9 PUSH2 0x5D3 DUP3 PUSH1 0x4 ADD CALLDATALOAD PUSH2 0x4B7A JUMP JUMPDEST SWAP7 PUSH2 0x4B7A JUMP JUMPDEST SWAP1 PUSH1 0x0 DUP1 JUMPDEST DUP3 PUSH1 0x4 ADD CALLDATALOAD DUP3 LT PUSH2 0x73A JUMPI POP POP POP DUP3 ISZERO ISZERO DUP1 PUSH2 0x726 JUMPI JUMPDEST PUSH2 0x67E JUMPI JUMPDEST PUSH2 0x66C DUP6 PUSH2 0x67A DUP9 DUP8 PUSH31 0x17CB6963158F82DA6470841F98536EC1A6E4D71F82E30C65C1D69A6C23E130 PUSH1 0x40 MLOAD PUSH1 0x60 DUP2 MSTORE PUSH2 0x648 PUSH2 0x63A PUSH1 0x60 DUP4 ADD DUP9 PUSH2 0x4685 JUMP JUMPDEST DUP3 DUP2 SUB PUSH1 0x20 DUP5 ADD MSTORE DUP6 PUSH2 0x4685 JUMP JUMPDEST SWAP3 PUSH1 0x40 DUP3 ADD MSTORE DUP1 CALLER SWAP4 SUB SWAP1 LOG2 PUSH1 0x1 DUP1 SSTORE PUSH1 0x40 MLOAD SWAP4 DUP5 SWAP4 PUSH1 0x40 DUP6 MSTORE PUSH1 0x40 DUP6 ADD SWAP1 PUSH2 0x4685 JUMP JUMPDEST SWAP1 DUP4 DUP3 SUB PUSH1 0x20 DUP6 ADD MSTORE PUSH2 0x4685 JUMP JUMPDEST SUB SWAP1 RETURN JUMPDEST PUSH1 0x1 DUP1 PUSH1 0xA0 SHL SUB PUSH2 0x699 DUP5 DUP3 PUSH1 0x8 SLOAD AND DUP4 PUSH1 0xA SLOAD AND SWAP1 PUSH2 0x4AEB JUMP JUMPDEST PUSH1 0xA SLOAD AND SWAP1 DUP2 EXTCODESIZE ISZERO PUSH2 0x417 JUMPI PUSH1 0x0 SWAP2 PUSH2 0x6D1 SWAP2 DUP4 PUSH1 0x40 MLOAD DUP1 SWAP8 DUP2 SWAP6 DUP3 SWAP5 PUSH4 0x531F2F59 PUSH1 0xE0 SHL DUP5 MSTORE PUSH1 0x40 PUSH1 0x4 DUP6 ADD MSTORE PUSH1 0x44 DUP5 ADD SWAP1 PUSH2 0x4685 JUMP JUMPDEST SWAP1 DUP9 DUP4 ADD MSTORE SUB SWAP3 GAS CALL DUP1 ISZERO PUSH2 0x71A JUMPI PUSH2 0x6EB JUMPI JUMPDEST DUP1 PUSH2 0x5FA JUMP JUMPDEST PUSH1 0x1 PUSH1 0x1 PUSH1 0x40 SHL SUB DUP3 GT PUSH2 0x706 JUMPI POP PUSH1 0x40 MSTORE DUP3 PUSH2 0x67A PUSH2 0x6E5 JUMP JUMPDEST PUSH4 0x4E487B71 PUSH1 0xE0 SHL PUSH1 0x0 SWAP1 DUP2 MSTORE PUSH1 0x41 PUSH1 0x4 MSTORE REVERT JUMPDEST PUSH1 0x40 MLOAD RETURNDATASIZE PUSH1 0x0 DUP3 RETURNDATACOPY RETURNDATASIZE SWAP1 REVERT JUMPDEST POP PUSH1 0xA SLOAD PUSH1 0x1 PUSH1 0x1 PUSH1 0xA0 SHL SUB AND ISZERO ISZERO PUSH2 0x5F5 JUMP JUMPDEST SWAP2 SWAP6 SWAP4 SWAP7 SWAP8 PUSH2 0x753 DUP3 DUP9 PUSH1 0x4 SWAP7 SWAP5 SWAP7 ADD CALLDATALOAD DUP11 DUP11 ADD PUSH2 0x4B5C JUMP JUMPDEST SWAP7 DUP8 CALLDATALOAD ISZERO ISZERO DUP1 PUSH2 0xCB9 JUMPI JUMPDEST PUSH2 0x767 SWAP1 PUSH2 0x4A15 JUMP JUMPDEST DUP8 CALLDATALOAD PUSH1 0x0 MSTORE PUSH1 0x19 PUSH1 0x20 MSTORE PUSH1 0x40 PUSH1 0x0 KECCAK256 SWAP2 PUSH1 0xFF PUSH1 0x3 DUP5 ADD SLOAD AND PUSH1 0x5 DUP2 LT ISZERO PUSH2 0xCA4 JUMPI PUSH1 0x1 PUSH2 0x794 SWAP2 EQ PUSH2 0x4A5A JUMP JUMPDEST PUSH2 0x7AF PUSH2 0x7A8 PUSH1 0x2 DUP6 ADD SLOAD PUSH1 0x2A SLOAD SWAP1 PUSH2 0x4794 JUMP JUMPDEST TIMESTAMP LT PUSH2 0x4A99 JUMP JUMPDEST PUSH1 0x9 PUSH1 0xFF PUSH2 0x7BF PUSH1 0xE0 DUP13 ADD PUSH2 0x4BF2 JUMP JUMPDEST AND GT PUSH2 0xC6E JUMPI PUSH1 0x0 SWAP11 SWAP8 JUMPDEST PUSH1 0xFF DUP13 AND SWAP8 PUSH1 0x6 SWAP10 DUP11 DUP11 LT ISZERO PUSH2 0x8FD JUMPI DUP12 DUP11 PUSH1 0x1 PUSH1 0xFF PUSH2 0x7F5 PUSH2 0x7F0 DUP5 PUSH1 0x20 DUP8 ADD PUSH2 0x56B3 JUMP JUMPDEST PUSH2 0x4BF2 JUMP JUMPDEST AND LT ISZERO SWAP2 DUP3 PUSH2 0x8DD JUMPI JUMPDEST POP POP ISZERO PUSH2 0x8A2 JUMPI PUSH2 0x80F DUP15 PUSH2 0x56C4 JUMP JUMPDEST PUSH1 0xFF DUP2 AND DUP13 DUP2 LT ISZERO PUSH2 0x88A JUMPI PUSH1 0xFF DUP1 DUP16 SWAP3 PUSH2 0x7F0 DUP16 SWAP2 PUSH1 0x20 PUSH2 0x839 PUSH2 0x7F0 PUSH2 0x840 SWAP6 DUP4 DUP11 ADD PUSH2 0x56B3 JUMP JUMPDEST SWAP7 ADD PUSH2 0x56B3 JUMP JUMPDEST AND SWAP2 AND EQ PUSH2 0x856 JUMPI PUSH2 0x851 SWAP1 PUSH2 0x56A2 JUMP JUMPDEST PUSH2 0x80F JUMP JUMPDEST PUSH1 0x64 DUP15 PUSH1 0xD PUSH1 0x40 MLOAD SWAP2 PUSH3 0x461BCD PUSH1 0xE5 SHL DUP4 MSTORE PUSH1 0x20 PUSH1 0x4 DUP5 ADD MSTORE DUP3 ADD MSTORE PUSH13 0x4E6F206475706C696361746573 PUSH1 0x98 SHL PUSH1 0x44 DUP3 ADD MSTORE REVERT JUMPDEST POP POP SWAP13 SWAP1 SWAP9 POP PUSH2 0x89B SWAP2 SWAP10 POP PUSH2 0x56A2 JUMP JUMPDEST SWAP11 SWAP8 PUSH2 0x7CA JUMP JUMPDEST PUSH1 0x40 MLOAD PUSH3 0x461BCD PUSH1 0xE5 SHL DUP2 MSTORE PUSH1 0x20 PUSH1 0x4 DUP3 ADD MSTORE PUSH1 0x14 DUP2 DUP16 ADD MSTORE PUSH20 0x4E756D62657273206D75737420626520312D3439 PUSH1 0x60 SHL PUSH1 0x44 DUP3 ADD MSTORE PUSH1 0x64 SWAP1 REVERT JUMPDEST PUSH1 0x31 SWAP3 POP PUSH2 0x7F0 PUSH1 0xFF SWAP3 PUSH1 0x20 PUSH2 0x8F3 SWAP4 ADD PUSH2 0x56B3 JUMP JUMPDEST AND GT ISZERO DUP11 DUP14 PUSH2 0x7FF JUMP JUMPDEST SWAP12 SWAP9 POP SWAP10 SWAP3 SWAP6 SWAP5 SWAP7 SWAP4 SWAP2 SWAP12 POP SWAP8 POP PUSH2 0x916 PUSH1 0x14 SLOAD PUSH2 0x4831 JUMP JUMPDEST DUP1 PUSH1 0x14 SSTORE PUSH2 0x926 PUSH1 0xE0 DUP5 ADD PUSH2 0x4BF2 JUMP JUMPDEST SWAP1 PUSH1 0x40 MLOAD SWAP2 PUSH2 0x934 DUP4 PUSH2 0x44BC JUMP JUMPDEST CALLER DUP4 MSTORE DUP5 CALLDATALOAD PUSH1 0x20 DUP5 ADD MSTORE PUSH1 0x40 MLOAD PUSH2 0x94A DUP2 PUSH2 0x44F3 JUMP JUMPDEST DUP1 CALLDATASIZE PUSH1 0xE0 DUP9 ADD GT PUSH2 0x417 JUMPI PUSH1 0x20 DUP8 ADD SWAP1 JUMPDEST PUSH1 0xE0 DUP9 ADD DUP3 LT PUSH2 0xC56 JUMPI POP POP SWAP1 PUSH1 0xFF SWAP2 PUSH1 0x40 DUP6 ADD MSTORE AND PUSH1 0x60 DUP4 ADD MSTORE TIMESTAMP PUSH1 0x80 DUP4 ADD MSTORE PUSH1 0x0 PUSH1 0xA0 DUP4 ADD MSTORE PUSH1 0x0 PUSH1 0xC0 DUP4 ADD MSTORE PUSH1 0x0 PUSH1 0xE0 DUP4 ADD MSTORE PUSH1 0x0 MSTORE PUSH1 0x1A PUSH1 0x20 MSTORE PUSH1 0x40 PUSH1 0x0 KECCAK256 SWAP1 PUSH1 0x1 DUP1 PUSH1 0xA0 SHL SUB DUP2 MLOAD AND PUSH1 0x1 DUP1 PUSH1 0xA0 SHL SUB NOT DUP4 SLOAD AND OR DUP3 SSTORE PUSH1 0x20 DUP2 ADD MLOAD PUSH1 0x1 DUP4 ADD SSTORE PUSH1 0x40 DUP2 ADD MLOAD PUSH1 0x0 SWAP1 PUSH1 0x0 JUMPDEST PUSH1 0x6 DUP2 LT PUSH2 0xC28 JUMPI POP POP PUSH1 0x2 DUP4 ADD SSTORE PUSH1 0x3 DUP3 ADD PUSH1 0xFF PUSH1 0x60 DUP4 ADD MLOAD AND SWAP1 PUSH1 0xFF NOT SWAP2 DUP3 DUP3 SLOAD AND OR SWAP1 SSTORE PUSH1 0x80 DUP3 ADD MLOAD PUSH1 0x4 DUP5 ADD SSTORE PUSH2 0xA1C PUSH1 0xA0 DUP4 ADD MLOAD ISZERO ISZERO PUSH1 0x5 DUP6 ADD SWAP1 PUSH1 0xFF DUP1 NOT DUP4 SLOAD AND SWAP2 ISZERO ISZERO AND OR SWAP1 SSTORE JUMP JUMPDEST PUSH1 0xC0 DUP3 ADD MLOAD PUSH1 0x6 DUP5 ADD SSTORE PUSH1 0xFF PUSH1 0xE0 PUSH1 0x7 DUP1 SWAP6 ADD SWAP4 ADD MLOAD AND SWAP1 DUP3 SLOAD AND OR SWAP1 SSTORE CALLER PUSH1 0x0 MSTORE PUSH1 0x1B PUSH1 0x20 MSTORE PUSH2 0xA54 PUSH1 0x40 PUSH1 0x0 KECCAK256 PUSH1 0x14 SLOAD SWAP1 PUSH2 0x48A9 JUMP JUMPDEST DUP3 CALLDATALOAD PUSH1 0x0 MSTORE PUSH1 0x1C PUSH1 0x20 MSTORE PUSH2 0xA6F PUSH1 0x40 PUSH1 0x0 KECCAK256 PUSH1 0x14 SLOAD SWAP1 PUSH2 0x48A9 JUMP JUMPDEST DUP2 ADD PUSH2 0xA7B DUP2 SLOAD PUSH2 0x4831 JUMP JUMPDEST SWAP1 SSTORE PUSH2 0xA8F PUSH1 0x8 PUSH1 0x1E SLOAD SWAP3 ADD SWAP2 DUP3 SLOAD PUSH2 0x48DE JUMP JUMPDEST SWAP1 SSTORE PUSH2 0xAC9 PUSH1 0x1E SLOAD PUSH2 0x2710 PUSH2 0xAA6 PUSH1 0x1F SLOAD DUP4 PUSH2 0x4AD8 JUMP JUMPDEST DIV PUSH1 0x1D DUP1 SLOAD SWAP1 PUSH2 0xAB6 DUP4 DUP4 PUSH2 0x48DE JUMP JUMPDEST PUSH1 0x21 SLOAD LT ISZERO PUSH2 0xBE4 JUMPI JUMPDEST POP POP POP CALLER PUSH2 0x5B5C JUMP JUMPDEST PUSH1 0x14 SLOAD SWAP1 PUSH2 0xAD9 PUSH1 0xE0 DUP3 ADD PUSH2 0x4BF2 JUMP JUMPDEST PUSH1 0x40 MLOAD SWAP2 SWAP1 PUSH1 0x0 PUSH1 0x20 DUP4 ADD DUP5 JUMPDEST PUSH1 0x6 DUP4 LT PUSH2 0xBC4 JUMPI POP POP POP PUSH1 0xFF AND PUSH1 0xC0 DUP4 ADD MSTORE CALLDATALOAD SWAP1 DUP3 PUSH32 0x34A33E2DD210A7F0F3190AAFEE6788065BD4A3B799C99E81A15BC4699DC21E40 PUSH1 0xE0 CALLER SWAP4 LOG4 PUSH2 0xB2C DUP3 DUP12 PUSH2 0x4BAC JUMP JUMPDEST MSTORE PUSH2 0xB4A PUSH2 0x100 PUSH2 0xB44 DUP4 DUP7 PUSH1 0x4 ADD CALLDATALOAD DUP10 DUP9 ADD PUSH2 0x4B5C JUMP JUMPDEST ADD PUSH2 0x4B6D JUMP JUMPDEST PUSH2 0xB5E JUMPI JUMPDEST PUSH2 0xB58 SWAP1 PUSH2 0x4831 JUMP JUMPDEST SWAP1 PUSH2 0x5DE JUMP JUMPDEST SWAP1 PUSH2 0xB81 PUSH2 0xB58 SWAP2 PUSH2 0xB70 DUP5 DUP13 PUSH2 0x4BAC JUMP JUMPDEST MLOAD PUSH2 0xB7B DUP3 DUP9 PUSH2 0x4BAC JUMP JUMPDEST MSTORE PUSH2 0x4831 JUMP JUMPDEST SWAP2 PUSH2 0xB8C DUP2 DUP12 PUSH2 0x4BAC JUMP JUMPDEST MLOAD PUSH1 0xB SLOAD SWAP1 PUSH1 0x40 MLOAD SWAP2 DUP3 MSTORE PUSH32 0x4E1920C80A682117856AF1446F309135172DA07BC0CC0F98BCA93AE74AAFE12A PUSH1 0x20 CALLER SWAP4 LOG3 SWAP1 POP PUSH2 0xB4F JUMP JUMPDEST PUSH1 0x20 DUP1 PUSH1 0x1 SWAP3 PUSH1 0xFF PUSH2 0xBD5 DUP7 PUSH2 0x46B9 JUMP JUMPDEST AND DUP2 MSTORE ADD SWAP3 ADD SWAP3 ADD SWAP2 SWAP1 PUSH2 0xAE6 JUMP JUMPDEST DUP3 PUSH2 0xC12 PUSH32 0xB0D06CCAA4821F41669BCC9A049D35783663CD32E846AE89A27DC9835330CE1A SWAP5 PUSH1 0x40 SWAP5 PUSH2 0x48DE JUMP JUMPDEST DUP1 SWAP3 SSTORE DUP3 MLOAD SWAP2 DUP3 MSTORE PUSH1 0x20 DUP3 ADD MSTORE LOG1 DUP13 DUP1 DUP1 PUSH2 0xAC0 JUMP JUMPDEST SWAP1 SWAP2 PUSH1 0x20 PUSH2 0xC4D PUSH1 0x1 SWAP3 DUP5 PUSH1 0xFF DUP8 MLOAD AND SWAP2 SWAP1 PUSH1 0xFF DUP1 SWAP2 PUSH1 0x3 SHL SWAP4 AND DUP4 SHL SWAP3 SHL NOT AND OR SWAP1 JUMP JUMPDEST SWAP4 ADD SWAP2 ADD PUSH2 0x9CC JUMP JUMPDEST PUSH1 0x20 DUP1 SWAP2 PUSH2 0xC63 DUP5 PUSH2 0x46B9 JUMP JUMPDEST DUP2 MSTORE ADD SWAP2 ADD SWAP1 PUSH2 0x95B JUMP JUMPDEST PUSH1 0x40 MLOAD PUSH3 0x461BCD PUSH1 0xE5 SHL DUP2 MSTORE PUSH1 0x20 PUSH1 0x4 DUP3 ADD MSTORE PUSH1 0xF DUP2 DUP13 ADD MSTORE PUSH15 0x4B6579206D75737420626520302D39 PUSH1 0x88 SHL PUSH1 0x44 DUP3 ADD MSTORE PUSH1 0x64 SWAP1 REVERT JUMPDEST DUP11 PUSH4 0x4E487B71 PUSH1 0xE0 SHL PUSH1 0x0 MSTORE PUSH1 0x21 PUSH1 0x4 MSTORE PUSH1 0x0 REVERT JUMPDEST POP PUSH1 0x13 SLOAD DUP9 CALLDATALOAD GT ISZERO PUSH2 0x75E JUMP JUMPDEST PUSH2 0xCD7 DUP2 DUP4 PUSH1 0x4 ADD CALLDATALOAD DUP7 DUP6 ADD PUSH2 0x4B3A JUMP JUMPDEST DUP1 CALLDATALOAD ISZERO ISZERO DUP1 PUSH2 0x10D4 JUMPI JUMPDEST PUSH2 0xCEA SWAP1 PUSH2 0x4752 JUMP JUMPDEST DUP1 CALLDATALOAD PUSH1 0x0 MSTORE PUSH1 0x15 PUSH1 0x20 MSTORE PUSH1 0x40 PUSH1 0x0 KECCAK256 PUSH1 0xFF PUSH1 0x3 DUP3 ADD SLOAD AND PUSH1 0x6 DUP2 LT ISZERO PUSH2 0x10BF JUMPI PUSH1 0x1 SUB PUSH2 0x108B JUMPI PUSH2 0xD2C PUSH2 0xD25 PUSH1 0x2 DUP4 ADD SLOAD PUSH1 0x2A SLOAD SWAP1 PUSH2 0x4794 JUMP JUMPDEST TIMESTAMP LT PUSH2 0x47B7 JUMP JUMPDEST PUSH1 0xC SLOAD PUSH1 0x60 DUP4 ADD CALLDATALOAD LT ISZERO DUP1 PUSH2 0x107B JUMPI JUMPDEST PUSH2 0xD45 SWAP1 PUSH2 0x47F4 JUMP JUMPDEST PUSH1 0x3 PUSH1 0x20 DUP4 ADD CALLDATALOAD LT ISZERO PUSH2 0x417 JUMPI PUSH2 0xD6D PUSH2 0xD62 PUSH1 0x40 DUP5 ADD DUP5 PUSH2 0x4BC0 JUMP JUMPDEST SWAP1 PUSH1 0x20 DUP6 ADD CALLDATALOAD PUSH2 0x5799 JUMP JUMPDEST PUSH2 0xD78 PUSH1 0x12 SLOAD PUSH2 0x4831 JUMP JUMPDEST DUP1 PUSH1 0x12 SSTORE PUSH2 0xD89 PUSH1 0x40 DUP5 ADD DUP5 PUSH2 0x4BC0 JUMP JUMPDEST PUSH1 0x40 MLOAD SWAP2 SWAP3 PUSH2 0xD97 DUP4 PUSH2 0x44D8 JUMP JUMPDEST CALLER DUP4 MSTORE PUSH2 0xDC0 PUSH1 0x20 DUP5 ADD SWAP5 DUP8 CALLDATALOAD DUP7 MSTORE PUSH1 0x40 DUP6 ADD SWAP4 PUSH2 0xDB9 PUSH1 0x20 DUP11 ADD CALLDATALOAD DUP7 PUSH2 0x4840 JUMP JUMPDEST CALLDATASIZE SWAP2 PUSH2 0x484C JUMP JUMPDEST PUSH1 0x60 DUP5 ADD MSTORE PUSH1 0x60 DUP7 ADD CALLDATALOAD PUSH1 0x80 DUP5 ADD MSTORE PUSH1 0x0 PUSH1 0xA0 DUP5 ADD MSTORE PUSH1 0x0 PUSH1 0xC0 DUP5 ADD MSTORE PUSH1 0x0 MSTORE PUSH1 0x16 PUSH1 0x20 MSTORE PUSH1 0x40 PUSH1 0x0 KECCAK256 SWAP3 PUSH1 0x1 DUP1 PUSH1 0xA0 SHL SUB DUP4 MLOAD AND PUSH1 0x1 DUP1 PUSH1 0xA0 SHL SUB NOT DUP6 SLOAD AND OR DUP5 SSTORE MLOAD PUSH1 0x1 DUP5 ADD SSTORE MLOAD PUSH1 0x3 DUP2 LT ISZERO PUSH2 0x1066 JUMPI PUSH1 0x2 DUP4 ADD SWAP1 PUSH1 0xFF DUP1 NOT DUP4 SLOAD AND SWAP2 AND OR SWAP1 SSTORE PUSH1 0x60 DUP2 ADD MLOAD DUP1 MLOAD SWAP1 PUSH1 0x1 PUSH1 0x1 PUSH1 0x40 SHL SUB DUP3 GT PUSH2 0x1051 JUMPI PUSH2 0xE47 PUSH1 0x3 DUP6 ADD SLOAD PUSH2 0x4467 JUMP JUMPDEST SWAP1 PUSH1 0x1F SWAP2 DUP3 DUP2 GT PUSH2 0x1014 JUMPI JUMPDEST POP PUSH1 0x20 SWAP2 DUP4 GT PUSH1 0x1 EQ PUSH2 0xF96 JUMPI PUSH2 0xF86 SWAP8 SWAP7 SWAP6 SWAP4 DUP4 PUSH1 0x8 SWAP7 SWAP5 PUSH1 0x6 SWAP5 PUSH1 0xC0 SWAP5 PUSH1 0x0 SWAP3 PUSH2 0xF8B JUMPI JUMPDEST POP POP DUP2 PUSH1 0x1 SHL SWAP2 PUSH1 0x0 NOT SWAP1 PUSH1 0x3 SHL SHR NOT AND OR PUSH1 0x3 DUP6 ADD SSTORE JUMPDEST PUSH1 0x80 DUP2 ADD MLOAD PUSH1 0x4 DUP6 ADD SSTORE PUSH2 0xEBB PUSH1 0xA0 DUP3 ADD MLOAD ISZERO ISZERO PUSH1 0x5 DUP7 ADD SWAP1 PUSH1 0xFF DUP1 NOT DUP4 SLOAD AND SWAP2 ISZERO ISZERO AND OR SWAP1 SSTORE JUMP JUMPDEST ADD MLOAD SWAP2 ADD SSTORE CALLER PUSH1 0x0 MSTORE PUSH1 0x17 PUSH1 0x20 MSTORE PUSH2 0xEDA PUSH1 0x40 PUSH1 0x0 KECCAK256 PUSH1 0x12 SLOAD SWAP1 PUSH2 0x48A9 JUMP JUMPDEST DUP3 CALLDATALOAD PUSH1 0x0 MSTORE PUSH1 0x18 PUSH1 0x20 MSTORE PUSH2 0xEF5 PUSH1 0x40 PUSH1 0x0 KECCAK256 PUSH1 0x12 SLOAD SWAP1 PUSH2 0x48A9 JUMP JUMPDEST PUSH1 0x7 DUP2 ADD PUSH2 0xF03 DUP2 SLOAD PUSH2 0x4831 JUMP JUMPDEST SWAP1 SSTORE ADD PUSH2 0xF15 PUSH1 0x60 DUP4 ADD CALLDATALOAD DUP3 SLOAD PUSH2 0x48DE JUMP JUMPDEST SWAP1 SSTORE PUSH2 0xF25 PUSH1 0x60 DUP3 ADD CALLDATALOAD CALLER PUSH2 0x5B5C JUMP JUMPDEST PUSH2 0xF79 PUSH1 0x12 SLOAD SWAP2 DUP3 PUSH32 0xF8873D4BFA04C03BC66A123371F2557A80126790097F9D18CBC1EB7233DA238E PUSH2 0xF5B PUSH1 0x40 DUP5 ADD DUP5 PUSH2 0x4BC0 JUMP JUMPDEST SWAP5 SWAP1 SWAP4 PUSH1 0x40 MLOAD SWAP2 DUP2 DUP4 SWAP3 CALLDATALOAD SWAP8 CALLER SWAP8 PUSH1 0x20 PUSH1 0x60 DUP5 ADD CALLDATALOAD SWAP4 ADD CALLDATALOAD DUP6 PUSH2 0x490C JUMP JUMPDEST SUB SWAP1 LOG4 PUSH2 0xB7B DUP3 DUP11 PUSH2 0x4BAC JUMP JUMPDEST PUSH2 0x5B6 JUMP JUMPDEST ADD MLOAD SWAP1 POP CODESIZE DUP1 PUSH2 0xE7A JUMP JUMPDEST SWAP1 PUSH1 0x3 DUP6 ADD PUSH1 0x0 MSTORE PUSH1 0x20 PUSH1 0x0 KECCAK256 SWAP2 PUSH1 0x0 JUMPDEST PUSH1 0x1F NOT DUP6 AND DUP2 LT PUSH2 0xFFC JUMPI POP SWAP4 PUSH1 0x1 DUP5 PUSH1 0x6 SWAP5 PUSH1 0xC0 SWAP5 PUSH2 0xF86 SWAP13 SWAP12 SWAP11 SWAP9 PUSH1 0x8 SWAP11 SWAP9 PUSH1 0x1F NOT DUP2 AND LT PUSH2 0xFE3 JUMPI JUMPDEST POP POP POP DUP2 SHL ADD PUSH1 0x3 DUP6 ADD SSTORE PUSH2 0xE92 JUMP JUMPDEST ADD MLOAD PUSH1 0x0 NOT PUSH1 0xF8 DUP5 PUSH1 0x3 SHL AND SHR NOT AND SWAP1 SSTORE CODESIZE DUP1 DUP1 PUSH2 0xFD3 JUMP JUMPDEST SWAP2 SWAP3 PUSH1 0x20 PUSH1 0x1 DUP2 SWAP3 DUP7 DUP6 ADD MLOAD DUP2 SSTORE ADD SWAP5 ADD SWAP3 ADD PUSH2 0xFA7 JUMP JUMPDEST PUSH2 0x1042 SWAP1 PUSH1 0x3 DUP8 ADD PUSH1 0x0 MSTORE PUSH1 0x20 PUSH1 0x0 KECCAK256 DUP5 DUP1 DUP8 ADD PUSH1 0x5 SHR DUP3 ADD SWAP3 PUSH1 0x20 DUP9 LT PUSH2 0x1048 JUMPI JUMPDEST ADD PUSH1 0x5 SHR ADD SWAP1 PUSH2 0x4892 JUMP JUMPDEST DUP16 PUSH2 0xE53 JUMP JUMPDEST SWAP3 POP DUP2 SWAP3 PUSH2 0x1037 JUMP JUMPDEST DUP10 PUSH4 0x4E487B71 PUSH1 0xE0 SHL PUSH1 0x0 MSTORE PUSH1 0x41 PUSH1 0x4 MSTORE PUSH1 0x0 REVERT JUMPDEST DUP9 PUSH4 0x4E487B71 PUSH1 0xE0 SHL PUSH1 0x0 MSTORE PUSH1 0x21 PUSH1 0x4 MSTORE PUSH1 0x0 REVERT JUMPDEST POP PUSH1 0xD SLOAD PUSH1 0x60 DUP4 ADD CALLDATALOAD GT ISZERO PUSH2 0xD3C JUMP JUMPDEST PUSH1 0x40 MLOAD PUSH3 0x461BCD PUSH1 0xE5 SHL DUP2 MSTORE PUSH1 0x20 PUSH1 0x4 DUP3 ADD MSTORE PUSH1 0xD DUP2 DUP9 ADD MSTORE PUSH13 0x223930BB903737BA1037B832B7 PUSH1 0x99 SHL PUSH1 0x44 DUP3 ADD MSTORE PUSH1 0x64 SWAP1 REVERT JUMPDEST DUP7 PUSH4 0x4E487B71 PUSH1 0xE0 SHL PUSH1 0x0 MSTORE PUSH1 0x21 PUSH1 0x4 MSTORE PUSH1 0x0 REVERT JUMPDEST POP PUSH1 0x11 SLOAD DUP2 CALLDATALOAD GT ISZERO PUSH2 0xCE1 JUMP JUMPDEST PUSH1 0x40 MLOAD PUSH3 0x461BCD PUSH1 0xE5 SHL DUP2 MSTORE PUSH1 0x20 PUSH1 0x4 DUP3 ADD MSTORE PUSH1 0x1B DUP2 DUP5 ADD MSTORE PUSH27 0x496E73756666696369656E7420657363726F772062616C616E6365 PUSH1 0x28 SHL PUSH1 0x44 DUP3 ADD MSTORE PUSH1 0x64 SWAP1 REVERT JUMPDEST SWAP1 SWAP5 DUP2 PUSH2 0x112F SWAP2 PUSH2 0x48DE JUMP JUMPDEST SWAP5 PUSH2 0x1147 PUSH2 0x100 PUSH2 0xB44 DUP4 DUP7 PUSH1 0x4 ADD CALLDATALOAD DUP9 DUP9 ADD PUSH2 0x4B5C JUMP JUMPDEST PUSH2 0x115B JUMPI JUMPDEST PUSH2 0x1155 SWAP1 PUSH2 0x4831 JUMP JUMPDEST SWAP1 PUSH2 0x568 JUMP JUMPDEST SWAP7 SWAP4 SWAP5 PUSH2 0x1181 PUSH2 0x117B PUSH2 0x1155 SWAP3 PUSH2 0x1175 PUSH1 0xB SLOAD DUP1 SWAP3 PUSH2 0x48DE JUMP JUMPDEST SWAP9 PUSH2 0x48DE JUMP JUMPDEST SWAP6 PUSH2 0x4831 JUMP JUMPDEST SWAP8 SWAP1 POP PUSH2 0x114C JUMP JUMPDEST SWAP4 PUSH2 0x11AC PUSH2 0x11B2 SWAP2 PUSH1 0x60 PUSH2 0x11A4 DUP9 DUP11 PUSH1 0x4 ADD CALLDATALOAD DUP9 DUP13 ADD PUSH2 0x4B3A JUMP JUMPDEST ADD CALLDATALOAD SWAP1 PUSH2 0x48DE JUMP JUMPDEST SWAP5 PUSH2 0x4831 JUMP JUMPDEST PUSH2 0x556 JUMP JUMPDEST PUSH1 0x64 SWAP1 PUSH1 0xA PUSH1 0x40 MLOAD SWAP2 PUSH3 0x461BCD PUSH1 0xE5 SHL DUP4 MSTORE PUSH1 0x20 PUSH1 0x4 DUP5 ADD MSTORE DUP3 ADD MSTORE PUSH10 0x115B5C1D1E4818D85C9D PUSH1 0xB2 SHL PUSH1 0x44 DUP3 ADD MSTORE REVERT JUMPDEST POP DUP3 PUSH1 0x4 ADD CALLDATALOAD ISZERO ISZERO PUSH2 0x545 JUMP JUMPDEST CALLVALUE PUSH2 0x417 JUMPI PUSH1 0x20 CALLDATASIZE PUSH1 0x3 NOT ADD SLT PUSH2 0x417 JUMPI PUSH2 0x1211 PUSH1 0x4 CALLDATALOAD PUSH2 0x5C73 JUMP JUMPDEST PUSH1 0x40 DUP1 MLOAD PUSH1 0xFF SWAP4 SWAP1 SWAP4 AND DUP4 MSTORE PUSH1 0x20 DUP4 ADD SWAP2 SWAP1 SWAP2 MSTORE SWAP1 RETURN JUMPDEST CALLVALUE PUSH2 0x417 JUMPI PUSH1 0x20 CALLDATASIZE PUSH1 0x3 NOT ADD SLT PUSH2 0x417 JUMPI PUSH2 0x1241 PUSH2 0x4662 JUMP JUMPDEST PUSH2 0x1249 PUSH2 0x4726 JUMP JUMPDEST PUSH1 0x1 PUSH1 0x1 PUSH1 0xA0 SHL SUB SWAP1 DUP2 AND SWAP1 DUP2 ISZERO PUSH2 0x1295 JUMPI PUSH1 0x0 SLOAD DUP3 PUSH1 0x1 DUP1 PUSH1 0xA0 SHL SUB NOT DUP3 AND OR PUSH1 0x0 SSTORE AND PUSH32 0x8BE0079C531659141344CD1FD0A4F28419497F9722A3DAAFE3B4186F6B6457E0 PUSH1 0x0 DUP1 LOG3 STOP JUMPDEST PUSH1 0x40 MLOAD PUSH4 0x1E4FBDF7 PUSH1 0xE0 SHL DUP2 MSTORE PUSH1 0x0 PUSH1 0x4 DUP3 ADD MSTORE PUSH1 0x24 SWAP1 REVERT JUMPDEST CALLVALUE PUSH2 0x417 JUMPI PUSH1 0x20 DUP1 PUSH1 0x3 NOT CALLDATASIZE ADD SLT PUSH2 0x417 JUMPI PUSH1 0x4 CALLDATALOAD SWAP1 CALLER PUSH1 0x0 MSTORE PUSH1 0x29 DUP2 MSTORE PUSH1 0xFF PUSH1 0x40 PUSH1 0x0 KECCAK256 SLOAD AND DUP1 ISZERO PUSH2 0x14B0 JUMPI JUMPDEST PUSH2 0x12E5 SWAP1 PUSH2 0x4C00 JUMP JUMPDEST DUP2 ISZERO ISZERO DUP1 PUSH2 0x14A4 JUMPI JUMPDEST PUSH2 0x12F7 SWAP1 PUSH2 0x4752 JUMP JUMPDEST DUP2 PUSH1 0x0 MSTORE PUSH1 0x15 DUP2 MSTORE PUSH1 0x40 PUSH1 0x0 KECCAK256 SWAP1 PUSH1 0x3 DUP3 ADD SWAP2 PUSH1 0xFF DUP4 SLOAD AND PUSH1 0x6 DUP2 LT ISZERO PUSH2 0x148E JUMPI PUSH1 0x2 SUB PUSH2 0x144D JUMPI PUSH1 0xA PUSH2 0x1388 SWAP2 ADD DUP1 SLOAD PUSH1 0x0 MSTORE PUSH1 0x7 DUP4 MSTORE PUSH2 0x1341 PUSH1 0xFF PUSH1 0x40 PUSH1 0x0 KECCAK256 SLOAD AND ISZERO PUSH2 0x4C38 JUMP JUMPDEST DUP3 PUSH1 0x2 SLOAD PUSH1 0x3 SLOAD SWAP1 PUSH1 0x4 SLOAD SWAP2 PUSH1 0x0 PUSH1 0x40 MLOAD DUP1 SWAP8 DUP2 SWAP6 DUP3 SWAP5 PUSH4 0x5D3B1D3 PUSH1 0xE4 SHL DUP5 MSTORE PUSH2 0xFFFF PUSH4 0xFFFFFFFF DUP4 AND SWAP3 DUP11 SHR AND SWAP1 PUSH1 0x1 PUSH1 0x1 PUSH1 0x40 SHL SUB DUP9 PUSH1 0xA8 SHR AND SWAP1 PUSH1 0x4 DUP7 ADD PUSH2 0x4C7C JUMP JUMPDEST SUB SWAP3 PUSH1 0x8 SHR PUSH1 0x1 PUSH1 0x1 PUSH1 0xA0 SHL SUB AND GAS CALL SWAP1 DUP2 ISZERO PUSH2 0x71A JUMPI DUP6 SWAP3 PUSH1 0x0 SWAP3 PUSH2 0x140D JUMPI JUMPDEST POP SWAP4 DUP2 PUSH1 0x0 DUP1 MLOAD PUSH1 0x20 PUSH2 0x5CD5 DUP4 CODECOPY DUP2 MLOAD SWAP2 MSTORE SWAP6 SSTORE PUSH1 0xFF NOT SWAP1 PUSH1 0x3 DUP3 DUP3 SLOAD AND OR SWAP1 SSTORE DUP2 PUSH1 0x0 MSTORE PUSH1 0x5 DUP5 MSTORE DUP3 PUSH1 0x40 PUSH1 0x0 KECCAK256 SSTORE PUSH1 0x7 DUP5 MSTORE PUSH1 0x1 PUSH1 0x40 PUSH1 0x0 KECCAK256 SWAP2 DUP3 SLOAD AND OR SWAP1 SSTORE PUSH1 0x0 DUP1 MLOAD PUSH1 0x20 PUSH2 0x5CF5 DUP4 CODECOPY DUP2 MLOAD SWAP2 MSTORE DUP4 PUSH1 0x40 MLOAD PUSH1 0x0 DUP2 MSTORE LOG3 PUSH1 0x40 MLOAD PUSH1 0x3 DUP2 MSTORE LOG2 STOP JUMPDEST SWAP3 POP SWAP1 POP DUP3 DUP3 DUP2 RETURNDATASIZE DUP2 GT PUSH2 0x1446 JUMPI JUMPDEST PUSH2 0x1426 DUP2 DUP4 PUSH2 0x4544 JUMP JUMPDEST DUP2 ADD SUB SLT PUSH2 0x417 JUMPI SWAP1 MLOAD DUP5 SWAP2 PUSH1 0x0 DUP1 MLOAD PUSH1 0x20 PUSH2 0x5CD5 DUP4 CODECOPY DUP2 MLOAD SWAP2 MSTORE PUSH2 0x13A9 JUMP JUMPDEST POP RETURNDATASIZE PUSH2 0x141C JUMP JUMPDEST PUSH1 0x40 MLOAD PUSH3 0x461BCD PUSH1 0xE5 SHL DUP2 MSTORE PUSH1 0x4 DUP2 ADD DUP4 SWAP1 MSTORE PUSH1 0x19 PUSH1 0x24 DUP3 ADD MSTORE PUSH25 0x111C985DC81B5D5CDD0818994818DB1BDCD95908199A5C9CDD PUSH1 0x3A SHL PUSH1 0x44 DUP3 ADD MSTORE PUSH1 0x64 SWAP1 REVERT JUMPDEST PUSH4 0x4E487B71 PUSH1 0xE0 SHL PUSH1 0x0 MSTORE PUSH1 0x21 PUSH1 0x4 MSTORE PUSH1 0x24 PUSH1 0x0 REVERT JUMPDEST POP PUSH1 0x11 SLOAD DUP3 GT ISZERO PUSH2 0x12EE JUMP JUMPDEST POP PUSH1 0x0 SLOAD PUSH1 0x1 PUSH1 0x1 PUSH1 0xA0 SHL SUB AND CALLER EQ PUSH2 0x12DC JUMP JUMPDEST CALLVALUE PUSH2 0x417 JUMPI PUSH1 0x0 CALLDATASIZE PUSH1 0x3 NOT ADD SLT PUSH2 0x417 JUMPI PUSH1 0x20 PUSH1 0x10 SLOAD PUSH1 0x40 MLOAD SWAP1 DUP2 MSTORE RETURN JUMPDEST CALLVALUE PUSH2 0x417 JUMPI PUSH1 0x0 CALLDATASIZE PUSH1 0x3 NOT ADD SLT PUSH2 0x417 JUMPI PUSH1 0x20 PUSH1 0x1 PUSH1 0x1 PUSH1 0x40 SHL SUB PUSH1 0x2 SLOAD PUSH1 0xA8 SHR AND PUSH1 0x40 MLOAD SWAP1 DUP2 MSTORE RETURN JUMPDEST CALLVALUE PUSH2 0x417 JUMPI PUSH1 0x0 CALLDATASIZE PUSH1 0x3 NOT ADD SLT PUSH2 0x417 JUMPI PUSH1 0x20 PUSH1 0x31 SLOAD PUSH1 0x40 MLOAD SWAP1 DUP2 MSTORE RETURN JUMPDEST CALLVALUE PUSH2 0x417 JUMPI PUSH1 0x40 CALLDATASIZE PUSH1 0x3 NOT ADD SLT PUSH2 0x417 JUMPI PUSH2 0x1543 PUSH2 0x4662 JUMP JUMPDEST PUSH1 0x24 CALLDATALOAD SWAP1 PUSH1 0x1 DUP1 PUSH1 0xA0 SHL SUB DUP1 SWAP2 AND PUSH1 0x0 MSTORE PUSH1 0x33 PUSH1 0x20 MSTORE PUSH1 0x40 PUSH1 0x0 KECCAK256 DUP1 SLOAD DUP4 LT ISZERO PUSH2 0x417 JUMPI PUSH1 0x20 SWAP3 PUSH2 0x1573 SWAP2 PUSH2 0x444F JUMP JUMPDEST SWAP2 SWAP1 SLOAD PUSH1 0x40 MLOAD SWAP3 PUSH1 0x3 SHL SHR AND DUP2 MSTORE RETURN JUMPDEST CALLVALUE PUSH2 0x417 JUMPI PUSH1 0x20 CALLDATASIZE PUSH1 0x3 NOT ADD SLT PUSH2 0x417 JUMPI PUSH1 0x4 CALLDATALOAD PUSH1 0x0 MSTORE PUSH1 0x1A PUSH1 0x20 MSTORE PUSH1 0xE0 PUSH1 0x40 PUSH1 0x0 KECCAK256 PUSH1 0x1 DUP1 PUSH1 0xA0 SHL SUB DUP2 SLOAD AND SWAP1 PUSH1 0x1 DUP2 ADD SLOAD SWAP1 PUSH1 0xFF PUSH1 0x3 DUP3 ADD SLOAD AND PUSH1 0x4 DUP3 ADD SLOAD PUSH1 0xFF PUSH1 0x5 DUP5 ADD SLOAD AND SWAP2 PUSH1 0xFF PUSH1 0x7 PUSH1 0x6 DUP7 ADD SLOAD SWAP6 ADD SLOAD AND SWAP5 PUSH1 0x40 MLOAD SWAP7 DUP8 MSTORE PUSH1 0x20 DUP8 ADD MSTORE PUSH1 0x40 DUP7 ADD MSTORE PUSH1 0x60 DUP6 ADD MSTORE ISZERO ISZERO PUSH1 0x80 DUP5 ADD MSTORE PUSH1 0xA0 DUP4 ADD MSTORE PUSH1 0xC0 DUP3 ADD MSTORE RETURN JUMPDEST CALLVALUE PUSH2 0x417 JUMPI PUSH1 0xE0 CALLDATASIZE PUSH1 0x3 NOT ADD SLT PUSH2 0x417 JUMPI PUSH2 0x161C PUSH2 0x4726 JUMP JUMPDEST PUSH1 0x4 CALLDATALOAD PUSH1 0x22 SSTORE PUSH1 0x24 DUP1 CALLDATALOAD PUSH1 0x23 SSTORE PUSH1 0x44 CALLDATALOAD SWAP1 SSTORE PUSH1 0x64 CALLDATALOAD PUSH1 0x25 SSTORE PUSH1 0x84 CALLDATALOAD PUSH1 0x26 SSTORE PUSH1 0xA4 CALLDATALOAD PUSH1 0x27 SSTORE PUSH1 0xC4 CALLDATALOAD PUSH1 0x28 SSTORE STOP JUMPDEST CALLVALUE PUSH2 0x417 JUMPI PUSH1 0x0 CALLDATASIZE PUSH1 0x3 NOT ADD SLT PUSH2 0x417 JUMPI PUSH1 0x20 PUSH1 0x27 SLOAD PUSH1 0x40 MLOAD SWAP1 DUP2 MSTORE RETURN JUMPDEST CALLVALUE PUSH2 0x417 JUMPI PUSH1 0x20 CALLDATASIZE PUSH1 0x3 NOT ADD SLT PUSH2 0x417 JUMPI PUSH2 0x167F PUSH2 0x4726 JUMP JUMPDEST PUSH1 0x4 CALLDATALOAD PUSH1 0xB SSTORE STOP JUMPDEST CALLVALUE PUSH2 0x417 JUMPI PUSH1 0x80 CALLDATASIZE PUSH1 0x3 NOT ADD SLT PUSH2 0x417 JUMPI PUSH1 0x4 CALLDATALOAD PUSH1 0x1 PUSH1 0x1 PUSH1 0x40 SHL SUB DUP2 AND DUP2 SUB PUSH2 0x417 JUMPI PUSH1 0x44 CALLDATALOAD PUSH4 0xFFFFFFFF DUP2 AND DUP1 SWAP2 SUB PUSH2 0x417 JUMPI PUSH1 0x64 CALLDATALOAD SWAP2 PUSH2 0xFFFF DUP4 AND DUP4 SUB PUSH2 0x417 JUMPI PUSH2 0x16D3 PUSH2 0x4726 JUMP JUMPDEST PUSH1 0x2 SLOAD SWAP1 PUSH1 0x1 PUSH1 0x1 PUSH1 0x40 SHL SUB PUSH1 0xA8 SHL SWAP1 PUSH1 0xA8 SHL AND SWAP1 PUSH1 0x1 PUSH1 0x1 PUSH1 0x40 SHL SUB PUSH1 0xA8 SHL NOT AND OR PUSH1 0x2 SSTORE PUSH1 0x24 CALLDATALOAD PUSH1 0x3 SSTORE PUSH6 0xFFFF00000000 PUSH1 0x4 SLOAD SWAP3 PUSH1 0x20 SHL AND SWAP2 PUSH6 0xFFFFFFFFFFFF NOT AND OR OR PUSH1 0x4 SSTORE PUSH1 0x0 DUP1 RETURN JUMPDEST CALLVALUE PUSH2 0x417 JUMPI PUSH1 0x0 CALLDATASIZE PUSH1 0x3 NOT ADD SLT PUSH2 0x417 JUMPI PUSH1 0x20 PUSH1 0x24 SLOAD PUSH1 0x40 MLOAD SWAP1 DUP2 MSTORE RETURN JUMPDEST CALLVALUE PUSH2 0x417 JUMPI PUSH1 0x0 CALLDATASIZE PUSH1 0x3 NOT ADD SLT PUSH2 0x417 JUMPI PUSH1 0x20 PUSH1 0xD SLOAD PUSH1 0x40 MLOAD SWAP1 DUP2 MSTORE RETURN JUMPDEST CALLVALUE PUSH2 0x417 JUMPI PUSH1 0x0 CALLDATASIZE PUSH1 0x3 NOT ADD SLT PUSH2 0x417 JUMPI PUSH1 0x20 PUSH1 0xB SLOAD PUSH1 0x40 MLOAD SWAP1 DUP2 MSTORE RETURN JUMPDEST CALLVALUE PUSH2 0x417 JUMPI PUSH1 0x20 CALLDATASIZE PUSH1 0x3 NOT ADD SLT PUSH2 0x417 JUMPI PUSH1 0x4 CALLDATALOAD PUSH1 0x3 DUP2 LT ISZERO PUSH2 0x417 JUMPI PUSH1 0x20 SWAP1 PUSH1 0x2B ADD SLOAD PUSH1 0x40 MLOAD SWAP1 DUP2 MSTORE RETURN JUMPDEST CALLVALUE PUSH2 0x417 JUMPI PUSH1 0x0 CALLDATASIZE PUSH1 0x3 NOT ADD SLT PUSH2 0x417 JUMPI PUSH1 0x20 PUSH1 0x25 SLOAD PUSH1 0x40 MLOAD SWAP1 DUP2 MSTORE RETURN JUMPDEST CALLVALUE PUSH2 0x417 JUMPI PUSH1 0x20 CALLDATASIZE PUSH1 0x3 NOT ADD SLT PUSH2 0x417 JUMPI PUSH1 0x4 CALLDATALOAD PUSH2 0x17E2 PUSH2 0x49F2 JUMP JUMPDEST PUSH2 0x17EA PUSH2 0x49D4 JUMP JUMPDEST DUP1 ISZERO PUSH2 0x1858 JUMPI PUSH1 0x8 SLOAD PUSH2 0x180B SWAP1 DUP3 SWAP1 ADDRESS SWAP1 CALLER SWAP1 PUSH1 0x1 PUSH1 0x1 PUSH1 0xA0 SHL SUB AND PUSH2 0x4936 JUMP JUMPDEST CALLER PUSH1 0x0 MSTORE PUSH1 0x9 PUSH1 0x20 MSTORE PUSH1 0x40 PUSH1 0x0 KECCAK256 PUSH2 0x1824 DUP3 DUP3 SLOAD PUSH2 0x48DE JUMP JUMPDEST SWAP1 SSTORE PUSH1 0x40 MLOAD SWAP1 DUP2 MSTORE PUSH32 0x2DA466A7B24304F47E87FA2E1E5A81B9831CE54FEC19055CE277CA2F39BA42C4 PUSH1 0x20 CALLER SWAP3 LOG2 PUSH1 0x1 DUP1 SSTORE STOP JUMPDEST PUSH1 0x40 MLOAD PUSH3 0x461BCD PUSH1 0xE5 SHL DUP2 MSTORE PUSH1 0x20 PUSH1 0x4 DUP3 ADD MSTORE PUSH1 0x12 PUSH1 0x24 DUP3 ADD MSTORE PUSH18 0x416D6F756E74206D757374206265203E203 PUSH1 0x74 SHL PUSH1 0x44 DUP3 ADD MSTORE PUSH1 0x64 SWAP1 REVERT JUMPDEST CALLVALUE PUSH2 0x417 JUMPI PUSH1 0x20 CALLDATASIZE PUSH1 0x3 NOT ADD SLT PUSH2 0x417 JUMPI PUSH1 0x4 CALLDATALOAD PUSH1 0x0 MSTORE PUSH1 0x6 PUSH1 0x20 MSTORE PUSH1 0x20 PUSH1 0x40 PUSH1 0x0 KECCAK256 SLOAD PUSH1 0x40 MLOAD SWAP1 DUP2 MSTORE RETURN JUMPDEST CALLVALUE PUSH2 0x417 JUMPI PUSH1 0x0 CALLDATASIZE PUSH1 0x3 NOT ADD SLT PUSH2 0x417 JUMPI PUSH1 0x20 PUSH1 0x12 SLOAD PUSH1 0x40 MLOAD SWAP1 DUP2 MSTORE RETURN JUMPDEST CALLVALUE PUSH2 0x417 JUMPI PUSH1 0x0 CALLDATASIZE PUSH1 0x3 NOT ADD SLT PUSH2 0x417 JUMPI PUSH1 0x2 SLOAD PUSH1 0x40 MLOAD PUSH1 0x8 SWAP2 SWAP1 SWAP2 SHR PUSH1 0x1 PUSH1 0x1 PUSH1 0xA0 SHL SUB AND DUP2 MSTORE PUSH1 0x20 SWAP1 RETURN JUMPDEST CALLVALUE PUSH2 0x417 JUMPI PUSH2 0x1917 CALLDATASIZE PUSH2 0x4439 JUMP JUMPDEST SWAP1 PUSH1 0x0 MSTORE PUSH1 0x18 PUSH1 0x20 MSTORE PUSH1 0x40 PUSH1 0x0 KECCAK256 DUP1 SLOAD DUP3 LT ISZERO PUSH2 0x417 JUMPI PUSH1 0x20 SWAP2 PUSH2 0x193A SWAP2 PUSH2 0x444F JUMP JUMPDEST SWAP1 SLOAD PUSH1 0x40 MLOAD SWAP2 PUSH1 0x3 SHL SHR DUP2 MSTORE RETURN JUMPDEST CALLVALUE PUSH2 0x417 JUMPI PUSH1 0x20 CALLDATASIZE PUSH1 0x3 NOT ADD SLT PUSH2 0x417 JUMPI PUSH2 0x1961 PUSH2 0x4726 JUMP JUMPDEST PUSH1 0x4 CALLDATALOAD PUSH1 0x1E SSTORE STOP JUMPDEST CALLVALUE PUSH2 0x417 JUMPI PUSH1 0x20 CALLDATASIZE PUSH1 0x3 NOT ADD SLT PUSH2 0x417 JUMPI PUSH1 0x4 CALLDATALOAD CALLER PUSH1 0x0 MSTORE PUSH1 0x29 PUSH1 0x20 MSTORE PUSH1 0xFF PUSH1 0x40 PUSH1 0x0 KECCAK256 SLOAD AND DUP1 ISZERO PUSH2 0x1A0E JUMPI JUMPDEST PUSH2 0x199F SWAP1 PUSH2 0x4C00 JUMP JUMPDEST DUP1 ISZERO ISZERO DUP1 PUSH2 0x1A02 JUMPI JUMPDEST PUSH2 0x19B1 SWAP1 PUSH2 0x4752 JUMP JUMPDEST DUP1 PUSH1 0x0 MSTORE PUSH1 0x15 PUSH1 0x20 MSTORE PUSH1 0x3 PUSH1 0x40 PUSH1 0x0 KECCAK256 ADD DUP1 SLOAD PUSH1 0xFF DUP2 AND SWAP1 PUSH1 0x6 DUP3 LT ISZERO PUSH2 0x148E JUMPI PUSH2 0x19E0 PUSH1 0x1 PUSH1 0x2 SWAP4 EQ PUSH2 0x5751 JUMP JUMPDEST PUSH1 0xFF NOT AND OR SWAP1 SSTORE PUSH1 0x0 DUP1 MLOAD PUSH1 0x20 PUSH2 0x5CD5 DUP4 CODECOPY DUP2 MLOAD SWAP2 MSTORE PUSH1 0x20 PUSH1 0x40 MLOAD PUSH1 0x2 DUP2 MSTORE LOG2 STOP JUMPDEST POP PUSH1 0x11 SLOAD DUP2 GT ISZERO PUSH2 0x19A8 JUMP JUMPDEST POP PUSH1 0x0 SLOAD PUSH1 0x1 PUSH1 0x1 PUSH1 0xA0 SHL SUB AND CALLER EQ PUSH2 0x1996 JUMP JUMPDEST CALLVALUE PUSH2 0x417 JUMPI PUSH1 0x20 CALLDATASIZE PUSH1 0x3 NOT ADD SLT PUSH2 0x417 JUMPI PUSH1 0x4 CALLDATALOAD PUSH2 0x1A3E PUSH2 0x4726 JUMP JUMPDEST PUSH2 0x3E8 DUP2 GT PUSH2 0x1A4C JUMPI PUSH1 0x31 SSTORE STOP JUMPDEST PUSH1 0x40 MLOAD PUSH3 0x461BCD PUSH1 0xE5 SHL DUP2 MSTORE PUSH1 0x20 PUSH1 0x4 DUP3 ADD MSTORE PUSH1 0x7 PUSH1 0x24 DUP3 ADD MSTORE PUSH7 0x4D617820313025 PUSH1 0xC8 SHL PUSH1 0x44 DUP3 ADD MSTORE PUSH1 0x64 SWAP1 REVERT JUMPDEST CALLVALUE PUSH2 0x417 JUMPI PUSH1 0x0 CALLDATASIZE PUSH1 0x3 NOT ADD SLT PUSH2 0x417 JUMPI PUSH1 0x20 PUSH1 0xE SLOAD PUSH1 0x40 MLOAD SWAP1 DUP2 MSTORE RETURN JUMPDEST CALLVALUE PUSH2 0x417 JUMPI PUSH1 0x20 DUP1 PUSH1 0x3 NOT CALLDATASIZE ADD SLT PUSH2 0x417 JUMPI PUSH1 0x4 CALLDATALOAD SWAP1 CALLER PUSH1 0x0 MSTORE PUSH1 0x29 DUP2 MSTORE PUSH1 0xFF PUSH1 0x40 PUSH1 0x0 KECCAK256 SLOAD AND DUP1 ISZERO PUSH2 0x1C6E JUMPI JUMPDEST PUSH2 0x1AD0 SWAP1 PUSH2 0x4C00 JUMP JUMPDEST DUP2 ISZERO ISZERO DUP1 PUSH2 0x1C62 JUMPI JUMPDEST PUSH2 0x1AE2 SWAP1 PUSH2 0x4A15 JUMP JUMPDEST DUP2 PUSH1 0x0 MSTORE PUSH1 0x19 DUP2 MSTORE PUSH1 0x40 PUSH1 0x0 KECCAK256 SWAP1 PUSH1 0x3 DUP3 ADD SWAP2 PUSH1 0xFF DUP4 SLOAD AND PUSH1 0x5 DUP2 LT ISZERO PUSH2 0x148E JUMPI PUSH1 0x2 SUB PUSH2 0x1C1D JUMPI SWAP1 PUSH1 0xB PUSH2 0x1B75 SWAP3 ADD SWAP3 DUP4 SLOAD PUSH1 0x0 MSTORE PUSH1 0x7 DUP3 MSTORE PUSH2 0x1B2E PUSH1 0xFF PUSH1 0x40 PUSH1 0x0 KECCAK256 SLOAD AND ISZERO PUSH2 0x4C38 JUMP JUMPDEST DUP2 PUSH1 0x2 SLOAD PUSH1 0x3 SLOAD SWAP1 PUSH1 0x4 SLOAD SWAP2 PUSH1 0x0 PUSH1 0x40 MLOAD DUP1 SWAP9 DUP2 SWAP6 DUP3 SWAP5 PUSH4 0x5D3B1D3 PUSH1 0xE4 SHL DUP5 MSTORE PUSH2 0xFFFF PUSH4 0xFFFFFFFF DUP4 AND SWAP3 DUP11 SHR AND SWAP1 PUSH1 0x1 PUSH1 0x1 PUSH1 0x40 SHL SUB DUP9 PUSH1 0xA8 SHR AND SWAP1 PUSH1 0x4 DUP7 ADD PUSH2 0x4C7C JUMP JUMPDEST SUB SWAP3 PUSH1 0x8 SHR PUSH1 0x1 PUSH1 0x1 PUSH1 0xA0 SHL SUB AND GAS CALL SWAP3 DUP4 ISZERO PUSH2 0x71A JUMPI PUSH1 0x0 SWAP4 PUSH2 0x1BE0 JUMPI JUMPDEST POP DUP3 PUSH1 0x0 DUP1 MLOAD PUSH1 0x20 PUSH2 0x5CF5 DUP4 CODECOPY DUP2 MLOAD SWAP2 MSTORE SWAP4 SWAP5 SSTORE PUSH1 0xFF NOT SWAP1 PUSH1 0x3 DUP3 DUP3 SLOAD AND OR SWAP1 SSTORE DUP4 PUSH1 0x0 MSTORE PUSH1 0x6 DUP3 MSTORE DUP5 PUSH1 0x40 PUSH1 0x0 KECCAK256 SSTORE PUSH1 0x7 DUP3 MSTORE PUSH1 0x1 PUSH1 0x40 PUSH1 0x0 KECCAK256 SWAP2 DUP3 SLOAD AND OR SWAP1 SSTORE PUSH1 0x40 MLOAD PUSH1 0x1 DUP2 MSTORE LOG3 STOP JUMPDEST SWAP3 POP DUP2 DUP4 DUP2 RETURNDATASIZE DUP4 GT PUSH2 0x1C16 JUMPI JUMPDEST PUSH2 0x1BF7 DUP2 DUP4 PUSH2 0x4544 JUMP JUMPDEST DUP2 ADD SUB SLT PUSH2 0x417 JUMPI PUSH1 0x0 DUP1 MLOAD PUSH1 0x20 PUSH2 0x5CF5 DUP4 CODECOPY DUP2 MLOAD SWAP2 MSTORE SWAP3 MLOAD SWAP3 PUSH2 0x1B94 JUMP JUMPDEST POP RETURNDATASIZE PUSH2 0x1BED JUMP JUMPDEST PUSH1 0x40 MLOAD PUSH3 0x461BCD PUSH1 0xE5 SHL DUP2 MSTORE PUSH1 0x4 DUP2 ADD DUP4 SWAP1 MSTORE PUSH1 0x1C PUSH1 0x24 DUP3 ADD MSTORE PUSH32 0x4C6F7474657279206D75737420626520636C6F73656420666972737400000000 PUSH1 0x44 DUP3 ADD MSTORE PUSH1 0x64 SWAP1 REVERT JUMPDEST POP PUSH1 0x13 SLOAD DUP3 GT ISZERO PUSH2 0x1AD9 JUMP JUMPDEST POP PUSH1 0x0 SLOAD PUSH1 0x1 PUSH1 0x1 PUSH1 0xA0 SHL SUB AND CALLER EQ PUSH2 0x1AC7 JUMP JUMPDEST CALLVALUE PUSH2 0x417 JUMPI PUSH1 0x0 CALLDATASIZE PUSH1 0x3 NOT ADD SLT PUSH2 0x417 JUMPI PUSH1 0x20 PUSH1 0x11 SLOAD PUSH1 0x40 MLOAD SWAP1 DUP2 MSTORE RETURN JUMPDEST CALLVALUE PUSH2 0x417 JUMPI PUSH1 0x0 CALLDATASIZE PUSH1 0x3 NOT ADD SLT PUSH2 0x417 JUMPI PUSH1 0x20 DUP1 SLOAD PUSH1 0x40 MLOAD SWAP1 DUP2 MSTORE RETURN JUMPDEST CALLVALUE PUSH2 0x417 JUMPI PUSH1 0x40 CALLDATASIZE PUSH1 0x3 NOT ADD SLT PUSH2 0x417 JUMPI PUSH2 0x1CD6 PUSH2 0x4662 JUMP JUMPDEST PUSH1 0x1 PUSH1 0x1 PUSH1 0xA0 SHL SUB AND PUSH1 0x0 SWAP1 DUP2 MSTORE PUSH1 0x1B PUSH1 0x20 MSTORE PUSH1 0x40 SWAP1 KECCAK256 DUP1 SLOAD PUSH1 0x24 CALLDATALOAD SWAP2 SWAP1 DUP3 LT ISZERO PUSH2 0x417 JUMPI PUSH1 0x20 SWAP2 PUSH2 0x193A SWAP2 PUSH2 0x444F JUMP JUMPDEST CALLVALUE PUSH2 0x417 JUMPI PUSH1 0x0 CALLDATASIZE PUSH1 0x3 NOT ADD SLT PUSH2 0x417 JUMPI PUSH1 0x0 SLOAD PUSH1 0x40 MLOAD PUSH1 0x1 PUSH1 0x1 PUSH1 0xA0 SHL SUB SWAP1 SWAP2 AND DUP2 MSTORE PUSH1 0x20 SWAP1 RETURN JUMPDEST CALLVALUE PUSH2 0x417 JUMPI PUSH1 0x0 CALLDATASIZE PUSH1 0x3 NOT ADD SLT PUSH2 0x417 JUMPI PUSH1 0x20 PUSH1 0x14 SLOAD PUSH1 0x40 MLOAD SWAP1 DUP2 MSTORE RETURN JUMPDEST CALLVALUE PUSH2 0x417 JUMPI PUSH1 0x20 CALLDATASIZE PUSH1 0x3 NOT ADD SLT PUSH2 0x417 JUMPI PUSH1 0x4 CALLDATALOAD CALLER PUSH1 0x0 MSTORE PUSH1 0x29 PUSH1 0x20 MSTORE PUSH1 0xFF PUSH1 0x40 PUSH1 0x0 KECCAK256 SLOAD AND DUP1 ISZERO PUSH2 0x1DD9 JUMPI JUMPDEST PUSH2 0x1D84 SWAP1 PUSH2 0x4C00 JUMP JUMPDEST DUP1 ISZERO ISZERO DUP1 PUSH2 0x1DCD JUMPI JUMPDEST PUSH2 0x1D96 SWAP1 PUSH2 0x4A15 JUMP JUMPDEST PUSH1 0x0 MSTORE PUSH1 0x19 PUSH1 0x20 MSTORE PUSH1 0x3 PUSH1 0x40 PUSH1 0x0 KECCAK256 ADD DUP1 SLOAD PUSH1 0xFF DUP2 AND SWAP1 PUSH1 0x5 DUP3 LT ISZERO PUSH2 0x148E JUMPI PUSH2 0x1DC4 PUSH1 0x1 PUSH1 0x2 SWAP4 EQ PUSH2 0x5751 JUMP JUMPDEST PUSH1 0xFF NOT AND OR SWAP1 SSTORE STOP JUMPDEST POP PUSH1 0x13 SLOAD DUP2 GT ISZERO PUSH2 0x1D8D JUMP JUMPDEST POP PUSH1 0x0 SLOAD PUSH1 0x1 PUSH1 0x1 PUSH1 0xA0 SHL SUB AND CALLER EQ PUSH2 0x1D7B JUMP JUMPDEST CALLVALUE PUSH2 0x417 JUMPI PUSH1 0x0 CALLDATASIZE PUSH1 0x3 NOT ADD SLT PUSH2 0x417 JUMPI PUSH1 0x20 PUSH1 0x1E SLOAD PUSH1 0x40 MLOAD SWAP1 DUP2 MSTORE RETURN JUMPDEST CALLVALUE PUSH2 0x417 JUMPI PUSH1 0x0 CALLDATASIZE PUSH1 0x3 NOT ADD SLT PUSH2 0x417 JUMPI PUSH2 0x1E24 PUSH2 0x49F2 JUMP JUMPDEST CALLER PUSH1 0x0 MSTORE PUSH1 0x32 PUSH1 0x20 MSTORE PUSH1 0x3 PUSH1 0x40 PUSH1 0x0 KECCAK256 ADD SLOAD DUP1 ISZERO PUSH2 0x1E6C JUMPI CALLER PUSH1 0x0 DUP2 DUP2 MSTORE PUSH1 0x32 PUSH1 0x20 MSTORE PUSH1 0x40 DUP2 KECCAK256 PUSH1 0x3 ADD SSTORE PUSH1 0x8 SLOAD PUSH2 0x1E66 SWAP3 SWAP2 SWAP1 PUSH1 0x1 PUSH1 0x1 PUSH1 0xA0 SHL SUB AND PUSH2 0x4AEB JUMP JUMPDEST PUSH1 0x1 DUP1 SSTORE STOP JUMPDEST PUSH1 0x40 MLOAD PUSH3 0x461BCD PUSH1 0xE5 SHL DUP2 MSTORE PUSH1 0x20 PUSH1 0x4 DUP3 ADD MSTORE PUSH1 0xB PUSH1 0x24 DUP3 ADD MSTORE PUSH11 0x4E6F206561726E696E6773 PUSH1 0xA8 SHL PUSH1 0x44 DUP3 ADD MSTORE PUSH1 0x64 SWAP1 REVERT JUMPDEST CALLVALUE PUSH2 0x417 JUMPI PUSH1 0x0 CALLDATASIZE PUSH1 0x3 NOT ADD SLT PUSH2 0x417 JUMPI PUSH2 0x1EB8 PUSH2 0x4726 JUMP JUMPDEST PUSH2 0x1EC0 PUSH2 0x49D4 JUMP JUMPDEST PUSH1 0x1 PUSH1 0xFF NOT PUSH1 0x2 SLOAD AND OR PUSH1 0x2 SSTORE PUSH32 0x62E78CEA01BEE320CD4E420270B5EA74000D11B0C9F74754EBDBFC544B05A258 PUSH1 0x20 PUSH1 0x40 MLOAD CALLER DUP2 MSTORE LOG1 STOP JUMPDEST CALLVALUE PUSH2 0x417 JUMPI PUSH1 0x40 CALLDATASIZE PUSH1 0x3 NOT ADD SLT PUSH2 0x417 JUMPI PUSH2 0x1F12 PUSH2 0x4662 JUMP JUMPDEST PUSH1 0x1 PUSH1 0x1 PUSH1 0xA0 SHL SUB AND PUSH1 0x0 SWAP1 DUP2 MSTORE PUSH1 0x17 PUSH1 0x20 MSTORE PUSH1 0x40 SWAP1 KECCAK256 DUP1 SLOAD PUSH1 0x24 CALLDATALOAD SWAP2 SWAP1 DUP3 LT ISZERO PUSH2 0x417 JUMPI PUSH1 0x20 SWAP2 PUSH2 0x193A SWAP2 PUSH2 0x444F JUMP JUMPDEST CALLVALUE PUSH2 0x417 JUMPI PUSH1 0x0 CALLDATASIZE PUSH1 0x3 NOT ADD SLT PUSH2 0x417 JUMPI PUSH1 0x20 PUSH1 0x1F SLOAD PUSH1 0x40 MLOAD SWAP1 DUP2 MSTORE RETURN JUMPDEST CALLVALUE PUSH2 0x417 JUMPI PUSH2 0x1F6F CALLDATASIZE PUSH2 0x4439 JUMP JUMPDEST SWAP1 PUSH2 0x1F78 PUSH2 0x4726 JUMP JUMPDEST PUSH1 0xC SSTORE PUSH1 0xD SSTORE STOP JUMPDEST CALLVALUE PUSH2 0x417 JUMPI PUSH1 0x0 CALLDATASIZE PUSH1 0x3 NOT ADD SLT PUSH2 0x417 JUMPI PUSH2 0x1F99 PUSH2 0x4726 JUMP JUMPDEST PUSH1 0x0 DUP1 SLOAD PUSH1 0x1 PUSH1 0x1 PUSH1 0xA0 SHL SUB NOT DUP2 AND DUP3 SSTORE PUSH1 0x1 PUSH1 0x1 PUSH1 0xA0 SHL SUB AND PUSH32 0x8BE0079C531659141344CD1FD0A4F28419497F9722A3DAAFE3B4186F6B6457E0 DUP3 DUP1 LOG3 STOP JUMPDEST CALLVALUE PUSH2 0x417 JUMPI PUSH1 0x20 CALLDATASIZE PUSH1 0x3 NOT ADD SLT PUSH2 0x417 JUMPI PUSH2 0x1FF2 PUSH2 0x4662 JUMP JUMPDEST PUSH2 0x1FFA PUSH2 0x4726 JUMP JUMPDEST PUSH1 0x40 MLOAD PUSH4 0x70A08231 PUSH1 0xE0 SHL DUP2 MSTORE ADDRESS PUSH1 0x4 DUP3 ADD MSTORE SWAP1 PUSH1 0x1 PUSH1 0x1 PUSH1 0xA0 SHL SUB SWAP1 DUP2 AND PUSH1 0x20 DUP4 PUSH1 0x24 DUP2 DUP5 GAS STATICCALL SWAP2 DUP3 ISZERO PUSH2 0x71A JUMPI PUSH1 0x0 SWAP3 PUSH2 0x2042 JUMPI JUMPDEST PUSH2 0x2040 SWAP4 POP PUSH1 0x0 SLOAD AND SWAP1 PUSH2 0x4AEB JUMP JUMPDEST STOP JUMPDEST SWAP2 POP PUSH1 0x20 DUP4 RETURNDATASIZE DUP3 GT PUSH2 0x206F JUMPI JUMPDEST DUP2 PUSH2 0x205C PUSH1 0x20 SWAP4 DUP4 PUSH2 0x4544 JUMP JUMPDEST DUP2 ADD SUB SLT PUSH2 0x417 JUMPI PUSH2 0x2040 SWAP3 MLOAD SWAP2 PUSH2 0x2031 JUMP JUMPDEST RETURNDATASIZE SWAP2 POP PUSH2 0x204F JUMP JUMPDEST CALLVALUE PUSH2 0x417 JUMPI PUSH1 0x20 DUP1 PUSH1 0x3 NOT CALLDATASIZE ADD SLT PUSH2 0x417 JUMPI PUSH1 0x4 CALLDATALOAD PUSH1 0x0 MSTORE PUSH1 0x18 DUP2 MSTORE PUSH1 0x40 PUSH1 0x0 KECCAK256 SWAP1 PUSH1 0x40 MLOAD DUP1 DUP4 DUP4 DUP3 SWAP6 SLOAD SWAP4 DUP5 DUP2 MSTORE ADD SWAP1 PUSH1 0x0 MSTORE DUP4 PUSH1 0x0 KECCAK256 SWAP3 PUSH1 0x0 JUMPDEST DUP6 DUP3 DUP3 LT PUSH2 0x20DE JUMPI POP POP POP PUSH2 0x20CA SWAP3 POP SUB DUP4 PUSH2 0x4544 JUMP JUMPDEST PUSH2 0x67A PUSH1 0x40 MLOAD SWAP3 DUP3 DUP5 SWAP4 DUP5 MSTORE DUP4 ADD SWAP1 PUSH2 0x4685 JUMP JUMPDEST DUP6 SLOAD DUP5 MSTORE PUSH1 0x1 SWAP6 DUP7 ADD SWAP6 DUP9 SWAP6 POP SWAP4 ADD SWAP3 ADD PUSH2 0x20B3 JUMP JUMPDEST CALLVALUE PUSH2 0x417 JUMPI PUSH1 0x20 DUP1 PUSH1 0x3 NOT CALLDATASIZE ADD SLT PUSH2 0x417 JUMPI PUSH1 0x1 PUSH1 0x1 PUSH1 0xA0 SHL SUB PUSH2 0x2116 PUSH2 0x4662 JUMP JUMPDEST AND PUSH1 0x0 MSTORE PUSH1 0x1B DUP2 MSTORE PUSH1 0x40 PUSH1 0x0 KECCAK256 SWAP1 PUSH1 0x40 MLOAD DUP1 DUP4 DUP4 DUP3 SWAP6 SLOAD SWAP4 DUP5 DUP2 MSTORE ADD SWAP1 PUSH1 0x0 MSTORE DUP4 PUSH1 0x0 KECCAK256 SWAP3 PUSH1 0x0 JUMPDEST DUP6 DUP3 DUP3 LT PUSH2 0x2155 JUMPI POP POP POP PUSH2 0x20CA SWAP3 POP SUB DUP4 PUSH2 0x4544 JUMP JUMPDEST DUP6 SLOAD DUP5 MSTORE PUSH1 0x1 SWAP6 DUP7 ADD SWAP6 DUP9 SWAP6 POP SWAP4 ADD SWAP3 ADD PUSH2 0x213E JUMP JUMPDEST CALLVALUE PUSH2 0x417 JUMPI PUSH1 0x0 CALLDATASIZE PUSH1 0x3 NOT ADD SLT PUSH2 0x417 JUMPI PUSH1 0xA SLOAD PUSH1 0x40 MLOAD PUSH1 0x1 PUSH1 0x1 PUSH1 0xA0 SHL SUB SWAP1 SWAP2 AND DUP2 MSTORE PUSH1 0x20 SWAP1 RETURN JUMPDEST CALLVALUE PUSH2 0x417 JUMPI PUSH1 0x20 CALLDATASIZE PUSH1 0x3 NOT ADD SLT PUSH2 0x417 JUMPI PUSH2 0x21AD PUSH2 0x4726 JUMP JUMPDEST PUSH1 0x4 CALLDATALOAD PUSH1 0x20 SSTORE STOP JUMPDEST CALLVALUE PUSH2 0x417 JUMPI PUSH1 0x20 DUP1 PUSH1 0x3 NOT CALLDATASIZE ADD SLT PUSH2 0x417 JUMPI PUSH1 0x4 CALLDATALOAD PUSH2 0x21D2 PUSH2 0x49F2 JUMP JUMPDEST DUP1 PUSH1 0x0 MSTORE PUSH1 0x16 DUP3 MSTORE PUSH1 0x40 PUSH1 0x0 KECCAK256 SWAP2 PUSH1 0x1 DUP1 PUSH1 0xA0 SHL SUB DUP1 DUP5 SLOAD AND CALLER SUB PUSH2 0x2310 JUMPI PUSH1 0x5 DUP5 ADD DUP1 SLOAD SWAP5 PUSH2 0x2205 PUSH1 0xFF DUP8 AND ISZERO PUSH2 0x56D6 JUMP JUMPDEST PUSH1 0x1 DUP2 ADD SLOAD PUSH1 0x0 MSTORE PUSH1 0x15 DUP5 MSTORE PUSH1 0x40 PUSH1 0x0 KECCAK256 SWAP2 PUSH1 0xFF PUSH1 0x3 DUP5 ADD SLOAD AND PUSH1 0x6 DUP2 LT ISZERO PUSH2 0x148E JUMPI PUSH1 0x4 SUB PUSH2 0x22D6 JUMPI PUSH2 0x2239 DUP4 DUP4 PUSH2 0x5917 JUMP JUMPDEST SWAP7 DUP8 ISZERO PUSH2 0x22A3 JUMPI PUSH2 0x2294 SWAP4 DUP9 PUSH1 0x6 DUP2 SWAP6 PUSH32 0x5380CF6FE903B40C6D5A9E0DFBCA2F3A423F0A21520B4D5947ED5169BDBA946D SWAP10 SWAP9 SWAP6 PUSH1 0x1 PUSH1 0x9 SWAP7 PUSH1 0xFF NOT AND OR SWAP1 SSTORE ADD SSTORE ADD PUSH2 0x2287 DUP4 DUP3 SLOAD PUSH2 0x48DE JUMP JUMPDEST SWAP1 SSTORE CALLER SWAP1 PUSH1 0x8 SLOAD AND PUSH2 0x4AEB JUMP JUMPDEST PUSH1 0x40 MLOAD SWAP4 DUP5 MSTORE CALLER SWAP4 LOG3 PUSH1 0x1 DUP1 SSTORE STOP JUMPDEST PUSH1 0x40 MLOAD PUSH3 0x461BCD PUSH1 0xE5 SHL DUP2 MSTORE PUSH1 0x4 DUP2 ADD DUP8 SWAP1 MSTORE PUSH1 0xB PUSH1 0x24 DUP3 ADD MSTORE PUSH11 0x4E6F2077696E6E696E6773 PUSH1 0xA8 SHL PUSH1 0x44 DUP3 ADD MSTORE PUSH1 0x64 SWAP1 REVERT JUMPDEST PUSH1 0x40 MLOAD PUSH3 0x461BCD PUSH1 0xE5 SHL DUP2 MSTORE PUSH1 0x4 DUP2 ADD DUP7 SWAP1 MSTORE PUSH1 0x12 PUSH1 0x24 DUP3 ADD MSTORE PUSH18 0x111C985DC81B9BDD0818DBDB5C1B195D1959 PUSH1 0x72 SHL PUSH1 0x44 DUP3 ADD MSTORE PUSH1 0x64 SWAP1 REVERT JUMPDEST PUSH1 0x40 MLOAD PUSH3 0x461BCD PUSH1 0xE5 SHL DUP2 MSTORE PUSH1 0x4 DUP2 ADD DUP4 SWAP1 MSTORE PUSH1 0xC PUSH1 0x24 DUP3 ADD MSTORE PUSH12 0x139BDD081E5BDD5C8818995D PUSH1 0xA2 SHL PUSH1 0x44 DUP3 ADD MSTORE PUSH1 0x64 SWAP1 REVERT JUMPDEST CALLVALUE PUSH2 0x417 JUMPI PUSH1 0x0 CALLDATASIZE PUSH1 0x3 NOT ADD SLT PUSH2 0x417 JUMPI PUSH1 0x20 PUSH1 0x21 SLOAD PUSH1 0x40 MLOAD SWAP1 DUP2 MSTORE RETURN JUMPDEST CALLVALUE PUSH2 0x417 JUMPI PUSH1 0x0 CALLDATASIZE PUSH1 0x3 NOT ADD SLT PUSH2 0x417 JUMPI PUSH1 0x20 PUSH1 0xFF PUSH1 0x2 SLOAD AND PUSH1 0x40 MLOAD SWAP1 ISZERO ISZERO DUP2 MSTORE RETURN JUMPDEST CALLVALUE PUSH2 0x417 JUMPI PUSH1 0x0 CALLDATASIZE PUSH1 0x3 NOT ADD SLT PUSH2 0x417 JUMPI PUSH1 0x20 PUSH1 0x4 SLOAD PUSH2 0xFFFF PUSH1 0x40 MLOAD SWAP2 DUP4 SHR AND DUP2 MSTORE RETURN JUMPDEST CALLVALUE PUSH2 0x417 JUMPI PUSH2 0x23B7 CALLDATASIZE PUSH2 0x46F4 JUMP JUMPDEST SWAP1 SWAP2 CALLER PUSH1 0x0 MSTORE PUSH1 0x29 PUSH1 0x20 MSTORE PUSH1 0xFF PUSH1 0x40 PUSH1 0x0 KECCAK256 SLOAD AND DUP1 ISZERO PUSH2 0x2733 JUMPI JUMPDEST PUSH2 0x23DB SWAP1 PUSH2 0x4C00 JUMP JUMPDEST PUSH2 0x23E6 TIMESTAMP DUP4 GT PUSH2 0x5714 JUMP JUMPDEST PUSH2 0x23F1 PUSH1 0x13 SLOAD PUSH2 0x4831 JUMP JUMPDEST SWAP3 DUP4 PUSH1 0x13 SSTORE PUSH1 0x40 MLOAD SWAP4 PUSH1 0xC0 DUP6 ADD DUP6 DUP2 LT PUSH1 0x1 PUSH1 0x1 PUSH1 0x40 SHL SUB DUP3 GT OR PUSH2 0x271D JUMPI PUSH1 0x40 MSTORE PUSH1 0x0 DUP6 MSTORE PUSH1 0x0 PUSH1 0x20 DUP7 ADD MSTORE PUSH1 0x0 PUSH1 0x40 DUP7 ADD MSTORE PUSH1 0x0 PUSH1 0x60 DUP7 ADD MSTORE PUSH1 0x0 PUSH1 0x80 DUP7 ADD MSTORE PUSH1 0x0 PUSH1 0xA0 DUP7 ADD MSTORE PUSH1 0x40 MLOAD SWAP5 PUSH2 0x1A0 DUP7 ADD DUP7 DUP2 LT PUSH1 0x1 PUSH1 0x1 PUSH1 0x40 SHL SUB DUP3 GT OR PUSH2 0x271D JUMPI PUSH1 0x40 MSTORE DUP2 DUP7 MSTORE PUSH2 0x2466 CALLDATASIZE DUP5 DUP7 PUSH2 0x484C JUMP JUMPDEST PUSH1 0x20 DUP8 ADD MSTORE DUP5 PUSH1 0x40 DUP8 ADD MSTORE PUSH1 0x1 PUSH1 0x60 DUP8 ADD MSTORE PUSH1 0x80 DUP7 ADD MSTORE PUSH1 0x0 PUSH1 0xA0 DUP7 ADD MSTORE PUSH1 0x0 PUSH1 0xC0 DUP7 ADD MSTORE PUSH1 0x0 PUSH1 0xE0 DUP7 ADD MSTORE PUSH1 0x0 PUSH2 0x100 DUP7 ADD MSTORE PUSH1 0x0 PUSH2 0x120 DUP7 ADD MSTORE PUSH1 0x0 PUSH2 0x140 DUP7 ADD MSTORE PUSH1 0x0 PUSH2 0x160 DUP7 ADD MSTORE PUSH1 0x0 PUSH2 0x180 DUP7 ADD MSTORE PUSH1 0x0 MSTORE PUSH1 0x19 PUSH1 0x20 MSTORE PUSH1 0x40 PUSH1 0x0 KECCAK256 DUP5 MLOAD DUP2 SSTORE PUSH1 0x20 DUP6 ADD MLOAD DUP1 MLOAD SWAP1 PUSH1 0x1 PUSH1 0x1 PUSH1 0x40 SHL SUB DUP3 GT PUSH2 0x271D JUMPI DUP2 SWAP1 PUSH2 0x24F0 PUSH1 0x1 DUP6 ADD SLOAD PUSH2 0x4467 JUMP JUMPDEST PUSH1 0x1F DUP2 GT PUSH2 0x26DD JUMPI JUMPDEST POP PUSH1 0x20 SWAP1 PUSH1 0x1F DUP4 GT PUSH1 0x1 EQ PUSH2 0x266B JUMPI PUSH1 0x0 SWAP3 PUSH2 0x2660 JUMPI JUMPDEST POP POP DUP2 PUSH1 0x1 SHL SWAP2 PUSH1 0x0 NOT SWAP1 PUSH1 0x3 SHL SHR NOT AND OR PUSH1 0x1 DUP3 ADD SSTORE JUMPDEST PUSH1 0x40 DUP6 ADD MLOAD PUSH1 0x2 DUP3 ADD SSTORE PUSH1 0x60 DUP6 ADD MLOAD PUSH1 0x5 DUP2 LT ISZERO PUSH2 0x148E JUMPI PUSH1 0x3 DUP3 ADD SWAP1 PUSH1 0xFF DUP1 NOT DUP4 SLOAD AND SWAP2 AND OR SWAP1 SSTORE PUSH1 0x80 DUP6 ADD MLOAD SWAP5 PUSH1 0x0 SWAP6 PUSH1 0x0 JUMPDEST PUSH1 0x6 DUP2 LT PUSH2 0x2632 JUMPI POP POP PUSH2 0x180 PUSH1 0xC SWAP2 PUSH32 0x3433F759B0701674C603C0F151B43ECA229255C3B1F6B1437C82DE5A4EC6DF59 SWAP7 SWAP8 PUSH1 0x4 DUP6 ADD SSTORE PUSH1 0x5 DUP5 ADD PUSH1 0xFF PUSH1 0xA0 DUP4 ADD MLOAD AND PUSH1 0xFF NOT DUP3 SLOAD AND OR SWAP1 SSTORE PUSH1 0xC0 DUP2 ADD MLOAD PUSH1 0x6 DUP6 ADD SSTORE PUSH1 0xE0 DUP2 ADD MLOAD PUSH1 0x7 DUP6 ADD SSTORE PUSH2 0x100 DUP2 ADD MLOAD PUSH1 0x8 DUP6 ADD SSTORE PUSH2 0x120 DUP2 ADD MLOAD PUSH1 0x9 DUP6 ADD SSTORE PUSH2 0x25F4 PUSH2 0x140 DUP3 ADD MLOAD ISZERO ISZERO PUSH1 0xA DUP7 ADD SWAP1 PUSH1 0xFF DUP1 NOT DUP4 SLOAD AND SWAP2 ISZERO ISZERO AND OR SWAP1 SSTORE JUMP JUMPDEST PUSH2 0x160 DUP2 ADD MLOAD PUSH1 0xB DUP6 ADD SSTORE ADD MLOAD SWAP2 ADD SSTORE PUSH1 0x13 SLOAD SWAP4 PUSH1 0x1D SLOAD PUSH2 0x2622 PUSH1 0x40 MLOAD SWAP5 DUP6 SWAP5 PUSH1 0x60 DUP7 MSTORE PUSH1 0x60 DUP7 ADD SWAP2 PUSH2 0x48EB JUMP JUMPDEST SWAP2 PUSH1 0x20 DUP5 ADD MSTORE PUSH1 0x40 DUP4 ADD MSTORE SUB SWAP1 LOG2 STOP JUMPDEST SWAP1 SWAP7 PUSH1 0x20 PUSH2 0x2657 PUSH1 0x1 SWAP3 DUP5 PUSH1 0xFF DUP13 MLOAD AND SWAP2 SWAP1 PUSH1 0xFF DUP1 SWAP2 PUSH1 0x3 SHL SWAP4 AND DUP4 SHL SWAP3 SHL NOT AND OR SWAP1 JUMP JUMPDEST SWAP9 ADD SWAP2 ADD PUSH2 0x255D JUMP JUMPDEST ADD MLOAD SWAP1 POP DUP8 DUP1 PUSH2 0x2510 JUMP JUMPDEST SWAP3 POP PUSH1 0x1 DUP5 ADD PUSH1 0x0 MSTORE PUSH1 0x20 PUSH1 0x0 KECCAK256 SWAP1 PUSH1 0x0 SWAP4 JUMPDEST PUSH1 0x1F NOT DUP5 AND DUP6 LT PUSH2 0x26C2 JUMPI PUSH1 0x1 SWAP5 POP DUP4 PUSH1 0x1F NOT DUP2 AND LT PUSH2 0x26A9 JUMPI JUMPDEST POP POP POP DUP2 SHL ADD PUSH1 0x1 DUP3 ADD SSTORE PUSH2 0x2528 JUMP JUMPDEST ADD MLOAD PUSH1 0x0 NOT PUSH1 0xF8 DUP5 PUSH1 0x3 SHL AND SHR NOT AND SWAP1 SSTORE DUP8 DUP1 DUP1 PUSH2 0x2699 JUMP JUMPDEST DUP2 DUP2 ADD MLOAD DUP4 SSTORE PUSH1 0x20 SWAP5 DUP6 ADD SWAP5 PUSH1 0x1 SWAP1 SWAP4 ADD SWAP3 SWAP1 SWAP2 ADD SWAP1 PUSH2 0x267E JUMP JUMPDEST PUSH2 0x270D SWAP1 PUSH1 0x1 DUP7 ADD PUSH1 0x0 MSTORE PUSH1 0x20 PUSH1 0x0 KECCAK256 PUSH1 0x1F DUP6 ADD PUSH1 0x5 SHR DUP2 ADD SWAP2 PUSH1 0x20 DUP7 LT PUSH2 0x2713 JUMPI JUMPDEST PUSH1 0x1F ADD PUSH1 0x5 SHR ADD SWAP1 PUSH2 0x4892 JUMP JUMPDEST DUP9 PUSH2 0x24F9 JUMP JUMPDEST SWAP1 SWAP2 POP DUP2 SWAP1 PUSH2 0x2700 JUMP JUMPDEST PUSH4 0x4E487B71 PUSH1 0xE0 SHL PUSH1 0x0 MSTORE PUSH1 0x41 PUSH1 0x4 MSTORE PUSH1 0x24 PUSH1 0x0 REVERT JUMPDEST POP PUSH1 0x0 SLOAD PUSH1 0x1 PUSH1 0x1 PUSH1 0xA0 SHL SUB AND CALLER EQ PUSH2 0x23D2 JUMP JUMPDEST CALLVALUE PUSH2 0x417 JUMPI PUSH2 0x2755 CALLDATASIZE PUSH2 0x46F4 JUMP JUMPDEST SWAP1 SWAP2 CALLER PUSH1 0x0 MSTORE PUSH1 0x29 PUSH1 0x20 MSTORE PUSH1 0xFF PUSH1 0x40 PUSH1 0x0 KECCAK256 SLOAD AND DUP1 ISZERO PUSH2 0x2D51 JUMPI JUMPDEST PUSH2 0x2779 SWAP1 PUSH2 0x4C00 JUMP JUMPDEST PUSH2 0x2784 TIMESTAMP DUP4 GT PUSH2 0x5714 JUMP JUMPDEST PUSH2 0x278F PUSH1 0x11 SLOAD PUSH2 0x4831 JUMP JUMPDEST SWAP3 DUP4 PUSH1 0x11 SSTORE PUSH1 0x40 MLOAD SWAP4 PUSH2 0x180 DUP6 ADD DUP6 DUP2 LT PUSH1 0x1 PUSH1 0x1 PUSH1 0x40 SHL SUB DUP3 GT OR PUSH2 0x271D JUMPI PUSH1 0x40 MSTORE DUP1 DUP6 MSTORE PUSH2 0x27C0 CALLDATASIZE DUP4 DUP6 PUSH2 0x484C JUMP JUMPDEST PUSH1 0x20 DUP7 ADD MSTORE DUP4 PUSH1 0x40 DUP7 ADD MSTORE PUSH1 0x1 PUSH1 0x60 DUP7 ADD MSTORE PUSH1 0x40 MLOAD PUSH2 0x27DE DUP2 PUSH2 0x450E JUMP JUMPDEST PUSH1 0x0 DUP2 MSTORE PUSH1 0x80 DUP7 ADD MSTORE PUSH1 0x40 MLOAD PUSH2 0x27F3 DUP2 PUSH2 0x450E JUMP JUMPDEST PUSH1 0x0 DUP2 MSTORE PUSH1 0xA0 DUP7 ADD MSTORE PUSH1 0x40 MLOAD PUSH2 0x2808 DUP2 PUSH2 0x450E JUMP JUMPDEST PUSH1 0x0 DUP2 MSTORE PUSH1 0xC0 DUP7 ADD MSTORE PUSH1 0x0 PUSH1 0xE0 DUP7 ADD MSTORE PUSH1 0x0 PUSH2 0x100 DUP7 ADD MSTORE PUSH1 0x0 PUSH2 0x120 DUP7 ADD MSTORE PUSH1 0x0 PUSH2 0x140 DUP7 ADD MSTORE PUSH1 0x0 PUSH2 0x160 DUP7 ADD MSTORE PUSH1 0x0 MSTORE PUSH1 0x15 PUSH1 0x20 MSTORE PUSH1 0x40 PUSH1 0x0 KECCAK256 DUP5 MLOAD DUP2 SSTORE PUSH1 0x20 DUP6 ADD MLOAD DUP1 MLOAD SWAP1 PUSH1 0x1 PUSH1 0x1 PUSH1 0x40 SHL SUB DUP3 GT PUSH2 0x271D JUMPI DUP2 SWAP1 PUSH2 0x286E PUSH1 0x1 DUP6 ADD SLOAD PUSH2 0x4467 JUMP JUMPDEST PUSH1 0x1F DUP2 GT PUSH2 0x2D1C JUMPI JUMPDEST POP PUSH1 0x20 SWAP1 PUSH1 0x1F DUP4 GT PUSH1 0x1 EQ PUSH2 0x2CAA JUMPI PUSH1 0x0 SWAP3 PUSH2 0x2C9F JUMPI JUMPDEST POP POP DUP2 PUSH1 0x1 SHL SWAP2 PUSH1 0x0 NOT SWAP1 PUSH1 0x3 SHL SHR NOT AND OR PUSH1 0x1 DUP3 ADD SSTORE JUMPDEST PUSH1 0x40 DUP6 ADD MLOAD PUSH1 0x2 DUP3 ADD SSTORE PUSH1 0x3 DUP2 ADD PUSH1 0x60 DUP7 ADD MLOAD PUSH1 0x6 DUP2 LT ISZERO PUSH2 0x148E JUMPI PUSH1 0xFF DUP1 NOT DUP4 SLOAD AND SWAP2 AND OR SWAP1 SSTORE PUSH1 0x80 DUP6 ADD MLOAD DUP1 MLOAD SWAP1 PUSH1 0x1 PUSH1 0x1 PUSH1 0x40 SHL SUB DUP3 GT PUSH2 0x271D JUMPI DUP2 SWAP1 PUSH2 0x28F3 PUSH1 0x4 DUP6 ADD SLOAD PUSH2 0x4467 JUMP JUMPDEST PUSH1 0x1F DUP2 GT PUSH2 0x2C6A JUMPI JUMPDEST POP PUSH1 0x20 SWAP1 PUSH1 0x1F DUP4 GT PUSH1 0x1 EQ PUSH2 0x2BF8 JUMPI PUSH1 0x0 SWAP3 PUSH2 0x2BED JUMPI JUMPDEST POP POP DUP2 PUSH1 0x1 SHL SWAP2 PUSH1 0x0 NOT SWAP1 PUSH1 0x3 SHL SHR NOT AND OR PUSH1 0x4 DUP3 ADD SSTORE JUMPDEST PUSH1 0xA0 DUP6 ADD MLOAD DUP1 MLOAD SWAP1 PUSH1 0x1 PUSH1 0x1 PUSH1 0x40 SHL SUB DUP3 GT PUSH2 0x271D JUMPI DUP2 SWAP1 PUSH2 0x2950 PUSH1 0x5 DUP6 ADD SLOAD PUSH2 0x4467 JUMP JUMPDEST PUSH1 0x1F DUP2 GT PUSH2 0x2BB8 JUMPI JUMPDEST POP PUSH1 0x20 SWAP1 PUSH1 0x1F DUP4 GT PUSH1 0x1 EQ PUSH2 0x2B46 JUMPI PUSH1 0x0 SWAP3 PUSH2 0x2B3B JUMPI JUMPDEST POP POP DUP2 PUSH1 0x1 SHL SWAP2 PUSH1 0x0 NOT SWAP1 PUSH1 0x3 SHL SHR NOT AND OR PUSH1 0x5 DUP3 ADD SSTORE JUMPDEST PUSH1 0xC0 DUP6 ADD MLOAD SWAP5 DUP6 MLOAD PUSH1 0x1 PUSH1 0x1 PUSH1 0x40 SHL SUB DUP2 GT PUSH2 0x271D JUMPI PUSH2 0x29AB PUSH1 0x6 DUP5 ADD SLOAD PUSH2 0x4467 JUMP JUMPDEST PUSH1 0x1F DUP2 GT PUSH2 0x2B06 JUMPI JUMPDEST POP PUSH1 0x20 PUSH1 0x1F DUP3 GT PUSH1 0x1 EQ PUSH2 0x2A6F JUMPI SWAP2 DUP2 PUSH2 0x160 SWAP3 PUSH1 0xB SWAP5 PUSH32 0x7422A3316E28B0BC364BF8DADA8BBA9E211CB7A96513C7741E5AF87B4EBF451F SWAP10 SWAP11 PUSH1 0x0 SWAP3 PUSH2 0x2A64 JUMPI JUMPDEST POP POP DUP2 PUSH1 0x1 SHL SWAP2 PUSH1 0x0 NOT SWAP1 PUSH1 0x3 SHL SHR NOT AND OR PUSH1 0x6 DUP6 ADD SSTORE JUMPDEST PUSH1 0xE0 DUP2 ADD MLOAD PUSH1 0x7 DUP6 ADD SSTORE PUSH2 0x100 DUP2 ADD MLOAD PUSH1 0x8 DUP6 ADD SSTORE PUSH2 0x120 DUP2 ADD MLOAD PUSH1 0x9 DUP6 ADD SSTORE PUSH2 0x140 DUP2 ADD MLOAD PUSH1 0xA DUP6 ADD SSTORE ADD MLOAD SWAP2 ADD SSTORE PUSH1 0x11 SLOAD SWAP4 PUSH2 0x2A59 PUSH1 0x40 MLOAD SWAP4 DUP5 SWAP4 PUSH1 0x40 DUP6 MSTORE PUSH1 0x40 DUP6 ADD SWAP2 PUSH2 0x48EB JUMP JUMPDEST SWAP1 PUSH1 0x20 DUP4 ADD MSTORE SUB SWAP1 LOG2 STOP JUMPDEST ADD MLOAD SWAP1 POP DUP11 DUP1 PUSH2 0x29F6 JUMP JUMPDEST PUSH1 0x6 DUP5 ADD PUSH1 0x0 MSTORE PUSH1 0x20 PUSH1 0x0 KECCAK256 SWAP8 PUSH1 0x0 JUMPDEST PUSH1 0x1F NOT DUP5 AND DUP2 LT PUSH2 0x2AEE JUMPI POP DUP3 PUSH32 0x7422A3316E28B0BC364BF8DADA8BBA9E211CB7A96513C7741E5AF87B4EBF451F SWAP9 SWAP10 PUSH1 0xB SWAP6 SWAP4 PUSH1 0x1 SWAP4 PUSH2 0x160 SWAP7 PUSH1 0x1F NOT DUP2 AND LT PUSH2 0x2AD5 JUMPI JUMPDEST POP POP POP DUP2 SHL ADD PUSH1 0x6 DUP6 ADD SSTORE PUSH2 0x2A0E JUMP JUMPDEST ADD MLOAD PUSH1 0x0 NOT PUSH1 0xF8 DUP5 PUSH1 0x3 SHL AND SHR NOT AND SWAP1 SSTORE DUP11 DUP1 DUP1 PUSH2 0x2AC5 JUMP JUMPDEST DUP3 DUP3 ADD MLOAD DUP11 SSTORE PUSH1 0x1 SWAP1 SWAP10 ADD SWAP9 PUSH1 0x20 SWAP3 DUP4 ADD SWAP3 ADD PUSH2 0x2A7F JUMP JUMPDEST PUSH2 0x2B35 SWAP1 PUSH1 0x6 DUP6 ADD PUSH1 0x0 MSTORE PUSH1 0x20 PUSH1 0x0 KECCAK256 PUSH1 0x1F DUP5 ADD PUSH1 0x5 SHR DUP2 ADD SWAP2 PUSH1 0x20 DUP6 LT PUSH2 0x2713 JUMPI PUSH1 0x1F ADD PUSH1 0x5 SHR ADD SWAP1 PUSH2 0x4892 JUMP JUMPDEST DUP8 PUSH2 0x29B4 JUMP JUMPDEST ADD MLOAD SWAP1 POP DUP8 DUP1 PUSH2 0x2970 JUMP JUMPDEST SWAP3 POP PUSH1 0x5 DUP5 ADD PUSH1 0x0 MSTORE PUSH1 0x20 PUSH1 0x0 KECCAK256 SWAP1 PUSH1 0x0 SWAP4 JUMPDEST PUSH1 0x1F NOT DUP5 AND DUP6 LT PUSH2 0x2B9D JUMPI PUSH1 0x1 SWAP5 POP DUP4 PUSH1 0x1F NOT DUP2 AND LT PUSH2 0x2B84 JUMPI JUMPDEST POP POP POP DUP2 SHL ADD PUSH1 0x5 DUP3 ADD SSTORE PUSH2 0x2988 JUMP JUMPDEST ADD MLOAD PUSH1 0x0 NOT PUSH1 0xF8 DUP5 PUSH1 0x3 SHL AND SHR NOT AND SWAP1 SSTORE DUP8 DUP1 DUP1 PUSH2 0x2B74 JUMP JUMPDEST DUP2 DUP2 ADD MLOAD DUP4 SSTORE PUSH1 0x20 SWAP5 DUP6 ADD SWAP5 PUSH1 0x1 SWAP1 SWAP4 ADD SWAP3 SWAP1 SWAP2 ADD SWAP1 PUSH2 0x2B59 JUMP JUMPDEST PUSH2 0x2BE7 SWAP1 PUSH1 0x5 DUP7 ADD PUSH1 0x0 MSTORE PUSH1 0x20 PUSH1 0x0 KECCAK256 PUSH1 0x1F DUP6 ADD PUSH1 0x5 SHR DUP2 ADD SWAP2 PUSH1 0x20 DUP7 LT PUSH2 0x2713 JUMPI PUSH1 0x1F ADD PUSH1 0x5 SHR ADD SWAP1 PUSH2 0x4892 JUMP JUMPDEST DUP9 PUSH2 0x2959 JUMP JUMPDEST ADD MLOAD SWAP1 POP DUP8 DUP1 PUSH2 0x2913 JUMP JUMPDEST SWAP3 POP PUSH1 0x4 DUP5 ADD PUSH1 0x0 MSTORE PUSH1 0x20 PUSH1 0x0 KECCAK256 SWAP1 PUSH1 0x0 SWAP4 JUMPDEST PUSH1 0x1F NOT DUP5 AND DUP6 LT PUSH2 0x2C4F JUMPI PUSH1 0x1 SWAP5 POP DUP4 PUSH1 0x1F NOT DUP2 AND LT PUSH2 0x2C36 JUMPI JUMPDEST POP POP POP DUP2 SHL ADD PUSH1 0x4 DUP3 ADD SSTORE PUSH2 0x292B JUMP JUMPDEST ADD MLOAD PUSH1 0x0 NOT PUSH1 0xF8 DUP5 PUSH1 0x3 SHL AND SHR NOT AND SWAP1 SSTORE DUP8 DUP1 DUP1 PUSH2 0x2C26 JUMP JUMPDEST DUP2 DUP2 ADD MLOAD DUP4 SSTORE PUSH1 0x20 SWAP5 DUP6 ADD SWAP5 PUSH1 0x1 SWAP1 SWAP4 ADD SWAP3 SWAP1 SWAP2 ADD SWAP1 PUSH2 0x2C0B JUMP JUMPDEST PUSH2 0x2C99 SWAP1 PUSH1 0x4 DUP7 ADD PUSH1 0x0 MSTORE PUSH1 0x20 PUSH1 0x0 KECCAK256 PUSH1 0x1F DUP6 ADD PUSH1 0x5 SHR DUP2 ADD SWAP2 PUSH1 0x20 DUP7 LT PUSH2 0x2713 JUMPI PUSH1 0x1F ADD PUSH1 0x5 SHR ADD SWAP1 PUSH2 0x4892 JUMP JUMPDEST DUP9 PUSH2 0x28FC JUMP JUMPDEST ADD MLOAD SWAP1 POP DUP8 DUP1 PUSH2 0x288E JUMP JUMPDEST SWAP3 POP PUSH1 0x1 DUP5 ADD PUSH1 0x0 MSTORE PUSH1 0x20 PUSH1 0x0 KECCAK256 SWAP1 PUSH1 0x0 SWAP4 JUMPDEST PUSH1 0x1F NOT DUP5 AND DUP6 LT PUSH2 0x2D01 JUMPI PUSH1 0x1 SWAP5 POP DUP4 PUSH1 0x1F NOT DUP2 AND LT PUSH2 0x2CE8 JUMPI JUMPDEST POP POP POP DUP2 SHL ADD PUSH1 0x1 DUP3 ADD SSTORE PUSH2 0x28A6 JUMP JUMPDEST ADD MLOAD PUSH1 0x0 NOT PUSH1 0xF8 DUP5 PUSH1 0x3 SHL AND SHR NOT AND SWAP1 SSTORE DUP8 DUP1 DUP1 PUSH2 0x2CD8 JUMP JUMPDEST DUP2 DUP2 ADD MLOAD DUP4 SSTORE PUSH1 0x20 SWAP5 DUP6 ADD SWAP5 PUSH1 0x1 SWAP1 SWAP4 ADD SWAP3 SWAP1 SWAP2 ADD SWAP1 PUSH2 0x2CBD JUMP JUMPDEST PUSH2 0x2D4B SWAP1 PUSH1 0x1 DUP7 ADD PUSH1 0x0 MSTORE PUSH1 0x20 PUSH1 0x0 KECCAK256 PUSH1 0x1F DUP6 ADD PUSH1 0x5 SHR DUP2 ADD SWAP2 PUSH1 0x20 DUP7 LT PUSH2 0x2713 JUMPI PUSH1 0x1F ADD PUSH1 0x5 SHR ADD SWAP1 PUSH2 0x4892 JUMP JUMPDEST DUP9 PUSH2 0x2877 JUMP JUMPDEST POP PUSH1 0x0 SLOAD PUSH1 0x1 PUSH1 0x1 PUSH1 0xA0 SHL SUB AND CALLER EQ PUSH2 0x2770 JUMP JUMPDEST CALLVALUE PUSH2 0x417 JUMPI PUSH1 0x20 CALLDATASIZE PUSH1 0x3 NOT ADD SLT PUSH2 0x417 JUMPI PUSH1 0x4 CALLDATALOAD PUSH1 0x0 MSTORE PUSH1 0x7 PUSH1 0x20 MSTORE PUSH1 0x20 PUSH1 0xFF PUSH1 0x40 PUSH1 0x0 KECCAK256 SLOAD AND PUSH1 0x40 MLOAD SWAP1 ISZERO ISZERO DUP2 MSTORE RETURN JUMPDEST CALLVALUE PUSH2 0x417 JUMPI PUSH1 0x80 CALLDATASIZE PUSH1 0x3 NOT ADD SLT PUSH2 0x417 JUMPI PUSH1 0x3 PUSH1 0x24 CALLDATALOAD LT ISZERO PUSH2 0x417 JUMPI PUSH1 0x1 PUSH1 0x1 PUSH1 0x40 SHL SUB PUSH1 0x44 CALLDATALOAD DUP2 DUP2 GT PUSH2 0x417 JUMPI PUSH2 0x2DD2 SWAP1 CALLDATASIZE SWAP1 PUSH1 0x4 ADD PUSH2 0x46C7 JUMP JUMPDEST PUSH2 0x2DDA PUSH2 0x49F2 JUMP JUMPDEST PUSH2 0x2DE2 PUSH2 0x49D4 JUMP JUMPDEST PUSH1 0x4 CALLDATALOAD ISZERO ISZERO DUP1 PUSH2 0x3148 JUMPI JUMPDEST PUSH2 0x2DF6 SWAP1 PUSH2 0x4752 JUMP JUMPDEST PUSH1 0x4 CALLDATALOAD PUSH1 0x0 MSTORE PUSH1 0x15 PUSH1 0x20 MSTORE PUSH1 0x40 PUSH1 0x0 KECCAK256 PUSH1 0xFF PUSH1 0x3 DUP3 ADD SLOAD AND PUSH1 0x6 DUP2 LT ISZERO PUSH2 0x148E JUMPI PUSH1 0x1 SUB PUSH2 0x3110 JUMPI PUSH2 0x2E32 PUSH2 0xD25 PUSH1 0x2 DUP4 ADD SLOAD PUSH1 0x2A SLOAD SWAP1 PUSH2 0x4794 JUMP JUMPDEST PUSH1 0xC SLOAD PUSH1 0x64 CALLDATALOAD LT ISZERO DUP1 PUSH2 0x3102 JUMPI JUMPDEST PUSH2 0x2E49 SWAP1 PUSH2 0x47F4 JUMP JUMPDEST PUSH2 0x2E56 DUP3 DUP5 PUSH1 0x24 CALLDATALOAD PUSH2 0x5799 JUMP JUMPDEST PUSH1 0x8 SLOAD PUSH1 0x1 PUSH1 0x1 PUSH1 0xA0 SHL SUB SWAP1 PUSH2 0x2E75 SWAP1 PUSH1 0x64 CALLDATALOAD SWAP1 ADDRESS SWAP1 CALLER SWAP1 DUP6 AND PUSH2 0x4936 JUMP JUMPDEST PUSH2 0x2E80 PUSH1 0x12 SLOAD PUSH2 0x4831 JUMP JUMPDEST DUP1 PUSH1 0x12 SSTORE PUSH1 0x40 MLOAD SWAP1 PUSH2 0x2E91 DUP3 PUSH2 0x44D8 JUMP JUMPDEST CALLER DUP3 MSTORE PUSH1 0x20 DUP3 ADD PUSH1 0x4 CALLDATALOAD DUP2 MSTORE PUSH1 0x40 DUP4 ADD SWAP1 PUSH2 0x2EAE PUSH1 0x24 CALLDATALOAD DUP4 PUSH2 0x4840 JUMP JUMPDEST PUSH2 0x2EB9 CALLDATASIZE DUP9 DUP11 PUSH2 0x484C JUMP JUMPDEST SWAP3 PUSH1 0x60 DUP6 ADD SWAP4 DUP5 MSTORE PUSH1 0x64 CALLDATALOAD PUSH1 0x80 DUP7 ADD MSTORE PUSH1 0x0 PUSH1 0xA0 DUP7 ADD MSTORE PUSH1 0x0 PUSH1 0xC0 DUP7 ADD MSTORE PUSH1 0x0 MSTORE PUSH1 0x16 PUSH1 0x20 MSTORE PUSH1 0x40 PUSH1 0x0 KECCAK256 SWAP5 DUP5 MLOAD AND PUSH1 0x1 DUP1 PUSH1 0xA0 SHL SUB NOT DUP7 SLOAD AND OR DUP6 SSTORE MLOAD PUSH1 0x1 DUP6 ADD SSTORE PUSH1 0x2 DUP5 ADD SWAP1 MLOAD PUSH1 0x3 DUP2 LT ISZERO PUSH2 0x148E JUMPI PUSH1 0xFF DUP1 NOT DUP4 SLOAD AND SWAP2 AND OR SWAP1 SSTORE MLOAD SWAP6 DUP7 MLOAD SWAP1 DUP2 GT PUSH2 0x271D JUMPI PUSH2 0x2F2F PUSH1 0x3 DUP5 ADD SLOAD PUSH2 0x4467 JUMP JUMPDEST PUSH1 0x1F DUP2 GT PUSH2 0x30CD JUMPI JUMPDEST POP PUSH1 0x20 PUSH1 0x1F DUP3 GT PUSH1 0x1 EQ PUSH2 0x3055 JUMPI SWAP2 DUP2 PUSH1 0xC0 SWAP3 PUSH1 0x6 SWAP5 PUSH1 0x8 SWAP9 SWAP10 SWAP11 PUSH1 0x0 SWAP3 PUSH2 0x304A JUMPI JUMPDEST POP POP DUP2 PUSH1 0x1 SHL SWAP2 PUSH1 0x0 NOT SWAP1 PUSH1 0x3 SHL SHR NOT AND OR PUSH1 0x3 DUP6 ADD SSTORE JUMPDEST PUSH1 0x80 DUP2 ADD MLOAD PUSH1 0x4 DUP6 ADD SSTORE PUSH2 0x2F9C PUSH1 0xA0 DUP3 ADD MLOAD ISZERO ISZERO PUSH1 0x5 DUP7 ADD SWAP1 PUSH1 0xFF DUP1 NOT DUP4 SLOAD AND SWAP2 ISZERO ISZERO AND OR SWAP1 SSTORE JUMP JUMPDEST ADD MLOAD SWAP2 ADD SSTORE CALLER PUSH1 0x0 MSTORE PUSH1 0x17 PUSH1 0x20 MSTORE PUSH2 0x2FBB PUSH1 0x40 PUSH1 0x0 KECCAK256 PUSH1 0x12 SLOAD SWAP1 PUSH2 0x48A9 JUMP JUMPDEST PUSH1 0x4 CALLDATALOAD PUSH1 0x0 MSTORE PUSH1 0x18 PUSH1 0x20 MSTORE PUSH2 0x2FD7 PUSH1 0x40 PUSH1 0x0 KECCAK256 PUSH1 0x12 SLOAD SWAP1 PUSH2 0x48A9 JUMP JUMPDEST PUSH1 0x7 DUP2 ADD PUSH2 0x2FE5 DUP2 SLOAD PUSH2 0x4831 JUMP JUMPDEST SWAP1 SSTORE ADD PUSH2 0x2FF5 PUSH1 0x64 CALLDATALOAD DUP3 SLOAD PUSH2 0x48DE JUMP JUMPDEST SWAP1 SSTORE PUSH2 0x3003 PUSH1 0x64 CALLDATALOAD CALLER PUSH2 0x5B5C JUMP JUMPDEST PUSH1 0x12 SLOAD PUSH32 0xF8873D4BFA04C03BC66A123371F2557A80126790097F9D18CBC1EB7233DA238E PUSH1 0x40 MLOAD DUP1 PUSH2 0x3041 PUSH1 0x4 CALLDATALOAD SWAP7 CALLER SWAP7 PUSH1 0x64 CALLDATALOAD SWAP2 PUSH1 0x24 CALLDATALOAD DUP6 PUSH2 0x490C JUMP JUMPDEST SUB SWAP1 LOG4 PUSH1 0x1 DUP1 SSTORE STOP JUMPDEST ADD MLOAD SWAP1 POP DUP11 DUP1 PUSH2 0x2F5B JUMP JUMPDEST PUSH1 0x3 DUP5 ADD PUSH1 0x0 MSTORE PUSH1 0x20 PUSH1 0x0 KECCAK256 SWAP8 PUSH1 0x0 JUMPDEST PUSH1 0x1F NOT DUP5 AND DUP2 LT PUSH2 0x30B5 JUMPI POP DUP3 PUSH1 0x8 SWAP8 SWAP9 SWAP10 PUSH1 0x6 SWAP6 SWAP4 PUSH1 0x1 SWAP4 PUSH1 0xC0 SWAP7 PUSH1 0x1F NOT DUP2 AND LT PUSH2 0x309C JUMPI JUMPDEST POP POP POP DUP2 SHL ADD PUSH1 0x3 DUP6 ADD SSTORE PUSH2 0x2F73 JUMP JUMPDEST ADD MLOAD PUSH1 0x0 NOT PUSH1 0xF8 DUP5 PUSH1 0x3 SHL AND SHR NOT AND SWAP1 SSTORE DUP11 DUP1 DUP1 PUSH2 0x308C JUMP JUMPDEST DUP3 DUP3 ADD MLOAD DUP11 SSTORE PUSH1 0x1 SWAP1 SWAP10 ADD SWAP9 PUSH1 0x20 SWAP3 DUP4 ADD SWAP3 ADD PUSH2 0x3065 JUMP JUMPDEST PUSH2 0x30FC SWAP1 PUSH1 0x3 DUP6 ADD PUSH1 0x0 MSTORE PUSH1 0x20 PUSH1 0x0 KECCAK256 PUSH1 0x1F DUP5 ADD PUSH1 0x5 SHR DUP2 ADD SWAP2 PUSH1 0x20 DUP6 LT PUSH2 0x2713 JUMPI PUSH1 0x1F ADD PUSH1 0x5 SHR ADD SWAP1 PUSH2 0x4892 JUMP JUMPDEST DUP8 PUSH2 0x2F38 JUMP JUMPDEST POP PUSH1 0xD SLOAD PUSH1 0x64 CALLDATALOAD GT ISZERO PUSH2 0x2E40 JUMP JUMPDEST PUSH1 0x40 MLOAD PUSH3 0x461BCD PUSH1 0xE5 SHL DUP2 MSTORE PUSH1 0x20 PUSH1 0x4 DUP3 ADD MSTORE PUSH1 0x10 PUSH1 0x24 DUP3 ADD MSTORE PUSH16 0x223930BB9034B9903737BA1037B832B7 PUSH1 0x81 SHL PUSH1 0x44 DUP3 ADD MSTORE PUSH1 0x64 SWAP1 REVERT JUMPDEST POP PUSH1 0x11 SLOAD PUSH1 0x4 CALLDATALOAD GT ISZERO PUSH2 0x2DED JUMP JUMPDEST CALLVALUE PUSH2 0x417 JUMPI PUSH1 0x40 CALLDATASIZE PUSH1 0x3 NOT ADD SLT PUSH2 0x417 JUMPI PUSH2 0x316F PUSH2 0x4662 JUMP JUMPDEST PUSH1 0x24 CALLDATALOAD SWAP1 DUP2 ISZERO ISZERO SWAP1 DUP2 DUP4 SUB PUSH2 0x417 JUMPI PUSH32 0x235BC17E7930760029E9F4D860A2A8089976DE5B381CF8380FC11C1D88A11133 SWAP2 PUSH2 0x31D5 PUSH1 0x20 SWAP3 PUSH2 0x31AE PUSH2 0x4726 JUMP JUMPDEST PUSH1 0x1 DUP1 PUSH1 0xA0 SHL SUB AND SWAP5 DUP6 PUSH1 0x0 MSTORE PUSH1 0x29 DUP5 MSTORE PUSH1 0x40 PUSH1 0x0 KECCAK256 SWAP1 PUSH1 0xFF DUP1 NOT DUP4 SLOAD AND SWAP2 ISZERO ISZERO AND OR SWAP1 SSTORE JUMP JUMPDEST PUSH1 0x40 MLOAD SWAP1 DUP2 MSTORE LOG2 STOP JUMPDEST CALLVALUE PUSH2 0x417 JUMPI PUSH1 0x0 CALLDATASIZE PUSH1 0x3 NOT ADD SLT PUSH2 0x417 JUMPI PUSH1 0x20 PUSH1 0x13 SLOAD PUSH1 0x40 MLOAD SWAP1 DUP2 MSTORE RETURN JUMPDEST CALLVALUE PUSH2 0x417 JUMPI PUSH1 0x0 CALLDATASIZE PUSH1 0x3 NOT ADD SLT PUSH2 0x417 JUMPI PUSH1 0x20 PUSH1 0x22 SLOAD PUSH1 0x40 MLOAD SWAP1 DUP2 MSTORE RETURN JUMPDEST CALLVALUE PUSH2 0x417 JUMPI PUSH1 0x20 CALLDATASIZE PUSH1 0x3 NOT ADD SLT PUSH2 0x417 JUMPI PUSH1 0x4 CALLDATALOAD PUSH1 0x0 MSTORE PUSH1 0x5 PUSH1 0x20 MSTORE PUSH1 0x20 PUSH1 0x40 PUSH1 0x0 KECCAK256 SLOAD PUSH1 0x40 MLOAD SWAP1 DUP2 MSTORE RETURN JUMPDEST CALLVALUE PUSH2 0x417 JUMPI PUSH1 0x20 CALLDATASIZE PUSH1 0x3 NOT ADD SLT PUSH2 0x417 JUMPI PUSH1 0x1 PUSH1 0x1 PUSH1 0xA0 SHL SUB PUSH2 0x3267 PUSH2 0x4662 JUMP JUMPDEST AND PUSH1 0x0 MSTORE PUSH1 0x29 PUSH1 0x20 MSTORE PUSH1 0x20 PUSH1 0xFF PUSH1 0x40 PUSH1 0x0 KECCAK256 SLOAD AND PUSH1 0x40 MLOAD SWAP1 ISZERO ISZERO DUP2 MSTORE RETURN JUMPDEST CALLVALUE PUSH2 0x417 JUMPI PUSH1 0x0 CALLDATASIZE PUSH1 0x3 NOT ADD SLT PUSH2 0x417 JUMPI PUSH1 0x20 PUSH1 0x2A SLOAD PUSH1 0x40 MLOAD SWAP1 DUP2 MSTORE RETURN JUMPDEST CALLVALUE PUSH2 0x417 JUMPI PUSH1 0x20 CALLDATASIZE PUSH1 0x3 NOT ADD SLT PUSH2 0x417 JUMPI PUSH1 0x20 PUSH2 0x32C1 PUSH1 0x4 CALLDATALOAD PUSH2 0x5C16 JUMP JUMPDEST PUSH1 0x40 MLOAD SWAP1 DUP2 MSTORE RETURN JUMPDEST CALLVALUE PUSH2 0x417 JUMPI PUSH1 0x20 CALLDATASIZE PUSH1 0x3 NOT ADD SLT PUSH2 0x417 JUMPI PUSH1 0x4 CALLDATALOAD PUSH1 0x3 DUP2 LT ISZERO PUSH2 0x417 JUMPI PUSH2 0x32F5 PUSH2 0x67A SWAP2 PUSH1 0x2E ADD PUSH2 0x4565 JUMP JUMPDEST PUSH1 0x40 MLOAD SWAP2 DUP3 SWAP2 PUSH1 0x20 DUP4 MSTORE PUSH1 0x20 DUP4 ADD SWAP1 PUSH2 0x460B JUMP JUMPDEST CALLVALUE PUSH2 0x417 JUMPI PUSH1 0x0 CALLDATASIZE PUSH1 0x3 NOT ADD SLT PUSH2 0x417 JUMPI PUSH2 0x3322 PUSH2 0x4726 JUMP JUMPDEST PUSH1 0x2 SLOAD PUSH1 0xFF DUP2 AND ISZERO PUSH2 0x3361 JUMPI PUSH1 0xFF NOT AND PUSH1 0x2 SSTORE PUSH32 0x5DB9EE0A495BF2E6FF9C91A7834C1BA4FDD244A5E8AA4E537BD38AEAE4B073AA PUSH1 0x20 PUSH1 0x40 MLOAD CALLER DUP2 MSTORE LOG1 STOP JUMPDEST PUSH1 0x40 MLOAD PUSH4 0x8DFC202B PUSH1 0xE0 SHL DUP2 MSTORE PUSH1 0x4 SWAP1 REVERT JUMPDEST CALLVALUE PUSH2 0x417 JUMPI PUSH1 0x20 CALLDATASIZE PUSH1 0x3 NOT ADD SLT PUSH2 0x417 JUMPI PUSH1 0x4 CALLDATALOAD PUSH2 0x338F PUSH2 0x4726 JUMP JUMPDEST PUSH1 0x1D SLOAD DUP2 LT PUSH2 0x339D JUMPI PUSH1 0x21 SSTORE STOP JUMPDEST PUSH1 0x40 MLOAD PUSH3 0x461BCD PUSH1 0xE5 SHL DUP2 MSTORE PUSH1 0x20 PUSH1 0x4 DUP3 ADD MSTORE PUSH1 0x1E PUSH1 0x24 DUP3 ADD MSTORE PUSH32 0x436170206D757374206265203E3D2063757272656E74206A61636B706F740000 PUSH1 0x44 DUP3 ADD MSTORE PUSH1 0x64 SWAP1 REVERT JUMPDEST CALLVALUE PUSH2 0x417 JUMPI PUSH1 0x0 CALLDATASIZE PUSH1 0x3 NOT ADD SLT PUSH2 0x417 JUMPI PUSH1 0x20 PUSH4 0xFFFFFFFF PUSH1 0x4 SLOAD AND PUSH1 0x40 MLOAD SWAP1 DUP2 MSTORE RETURN JUMPDEST CALLVALUE PUSH2 0x417 JUMPI PUSH1 0x20 CALLDATASIZE PUSH1 0x3 NOT ADD SLT PUSH2 0x417 JUMPI PUSH1 0xA0 PUSH1 0x1 PUSH1 0x1 PUSH1 0xA0 SHL SUB DUP1 PUSH2 0x342A PUSH2 0x4662 JUMP JUMPDEST AND PUSH1 0x0 MSTORE PUSH1 0x32 PUSH1 0x20 MSTORE PUSH1 0x40 PUSH1 0x0 KECCAK256 SWAP1 DUP2 SLOAD AND SWAP1 PUSH1 0x1 DUP2 ADD SLOAD SWAP1 PUSH1 0x2 DUP2 ADD SLOAD PUSH1 0x4 PUSH1 0x3 DUP4 ADD SLOAD SWAP3 ADD SLOAD SWAP3 PUSH1 0x40 MLOAD SWAP5 DUP6 MSTORE PUSH1 0x20 DUP6 ADD MSTORE PUSH1 0x40 DUP5 ADD MSTORE PUSH1 0x60 DUP4 ADD MSTORE PUSH1 0x80 DUP3 ADD MSTORE RETURN JUMPDEST CALLVALUE PUSH2 0x417 JUMPI PUSH1 0x0 CALLDATASIZE PUSH1 0x3 NOT ADD SLT PUSH2 0x417 JUMPI PUSH1 0x20 PUSH1 0xF SLOAD PUSH1 0x40 MLOAD SWAP1 DUP2 MSTORE RETURN JUMPDEST CALLVALUE PUSH2 0x417 JUMPI PUSH1 0x20 DUP1 PUSH1 0x3 NOT CALLDATASIZE ADD SLT PUSH2 0x417 JUMPI PUSH1 0x1 PUSH1 0x1 PUSH1 0xA0 SHL SUB SWAP1 DUP2 PUSH2 0x34B1 PUSH2 0x4662 JUMP JUMPDEST AND PUSH1 0x0 MSTORE PUSH1 0x33 DUP2 MSTORE PUSH1 0x40 PUSH1 0x0 KECCAK256 PUSH1 0x40 MLOAD SWAP2 DUP3 DUP2 DUP4 SLOAD SWAP2 DUP3 DUP2 MSTORE ADD SWAP1 DUP2 SWAP4 PUSH1 0x0 MSTORE DUP3 PUSH1 0x0 KECCAK256 SWAP1 PUSH1 0x0 JUMPDEST DUP2 DUP2 LT PUSH2 0x352A JUMPI POP POP POP DUP4 PUSH2 0x34EF SWAP2 SUB DUP5 PUSH2 0x4544 JUMP JUMPDEST PUSH1 0x40 MLOAD SWAP3 DUP2 DUP5 ADD SWAP1 DUP3 DUP6 MSTORE MLOAD DUP1 SWAP2 MSTORE PUSH1 0x40 DUP5 ADD SWAP3 SWAP2 PUSH1 0x0 JUMPDEST DUP3 DUP2 LT PUSH2 0x3514 JUMPI DUP6 DUP6 SUB DUP7 RETURN JUMPDEST DUP4 MLOAD DUP8 AND DUP6 MSTORE SWAP4 DUP2 ADD SWAP4 SWAP3 DUP2 ADD SWAP3 PUSH1 0x1 ADD PUSH2 0x3507 JUMP JUMPDEST DUP3 SLOAD DUP9 AND DUP5 MSTORE SWAP3 DUP5 ADD SWAP3 PUSH1 0x1 SWAP3 DUP4 ADD SWAP3 ADD PUSH2 0x34D9 JUMP JUMPDEST CALLVALUE PUSH2 0x417 JUMPI PUSH2 0x100 CALLDATASIZE PUSH1 0x3 NOT ADD SLT PUSH2 0x417 JUMPI CALLDATASIZE PUSH1 0xE4 GT PUSH2 0x417 JUMPI PUSH1 0xE4 CALLDATALOAD PUSH1 0xFF DUP2 AND DUP2 SUB PUSH2 0x417 JUMPI PUSH2 0x356F PUSH2 0x49F2 JUMP JUMPDEST PUSH2 0x3577 PUSH2 0x49D4 JUMP JUMPDEST PUSH1 0x4 CALLDATALOAD ISZERO ISZERO DUP1 PUSH2 0x3A30 JUMPI JUMPDEST PUSH2 0x358B SWAP1 PUSH2 0x4A15 JUMP JUMPDEST PUSH1 0x4 CALLDATALOAD PUSH1 0x0 MSTORE PUSH1 0x19 PUSH1 0x20 MSTORE PUSH1 0x40 PUSH1 0x0 KECCAK256 SWAP1 PUSH1 0xFF PUSH1 0x3 DUP4 ADD SLOAD AND PUSH1 0x5 DUP2 LT ISZERO PUSH2 0x148E JUMPI PUSH1 0x1 PUSH2 0x35B9 SWAP2 EQ PUSH2 0x4A5A JUMP JUMPDEST PUSH2 0x35CD PUSH2 0x7A8 PUSH1 0x2 DUP5 ADD SLOAD PUSH1 0x2A SLOAD SWAP1 PUSH2 0x4794 JUMP JUMPDEST PUSH1 0x9 PUSH1 0xFF DUP3 AND GT PUSH2 0x39F9 JUMPI PUSH1 0x0 JUMPDEST PUSH1 0x6 PUSH1 0xFF DUP3 AND LT ISZERO DUP1 PUSH2 0x371F JUMPI PUSH1 0x1 PUSH1 0xFF PUSH2 0x35FF PUSH2 0x1FE0 DUP6 PUSH1 0x5 SHL AND PUSH1 0x24 ADD PUSH2 0x4BF2 JUMP JUMPDEST AND LT ISZERO DUP1 PUSH2 0x36FC JUMPI JUMPDEST ISZERO PUSH2 0x36C0 JUMPI PUSH2 0x3616 DUP3 PUSH2 0x56C4 JUMP JUMPDEST PUSH1 0x6 PUSH1 0xFF DUP3 AND LT PUSH2 0x3631 JUMPI POP POP PUSH2 0x362C SWAP1 PUSH2 0x56A2 JUMP JUMPDEST PUSH2 0x35DB JUMP JUMPDEST DUP2 PUSH2 0x36AA JUMPI PUSH2 0x3649 PUSH2 0x1FE0 DUP5 PUSH1 0x5 SHL AND PUSH1 0x24 ADD PUSH2 0x4BF2 JUMP JUMPDEST PUSH1 0xFF DUP1 PUSH2 0x365F PUSH2 0x1FE0 DUP6 PUSH1 0x5 SHL AND PUSH1 0x24 ADD PUSH2 0x4BF2 JUMP JUMPDEST AND SWAP2 AND EQ PUSH2 0x3675 JUMPI PUSH2 0x3670 SWAP1 PUSH2 0x56A2 JUMP JUMPDEST PUSH2 0x3616 JUMP JUMPDEST PUSH1 0x40 MLOAD PUSH3 0x461BCD PUSH1 0xE5 SHL DUP2 MSTORE PUSH1 0x20 PUSH1 0x4 DUP3 ADD MSTORE PUSH1 0xD PUSH1 0x24 DUP3 ADD MSTORE PUSH13 0x4E6F206475706C696361746573 PUSH1 0x98 SHL PUSH1 0x44 DUP3 ADD MSTORE PUSH1 0x64 SWAP1 REVERT JUMPDEST PUSH4 0x4E487B71 PUSH1 0xE0 SHL PUSH1 0x0 MSTORE PUSH1 0x32 PUSH1 0x4 MSTORE PUSH1 0x24 PUSH1 0x0 REVERT JUMPDEST PUSH1 0x40 MLOAD PUSH3 0x461BCD PUSH1 0xE5 SHL DUP2 MSTORE PUSH1 0x20 PUSH1 0x4 DUP3 ADD MSTORE PUSH1 0x14 PUSH1 0x24 DUP3 ADD MSTORE PUSH20 0x4E756D62657273206D75737420626520312D3439 PUSH1 0x60 SHL PUSH1 0x44 DUP3 ADD MSTORE PUSH1 0x64 SWAP1 REVERT JUMPDEST POP POP PUSH1 0x0 PUSH1 0x31 PUSH1 0xFF PUSH2 0x3717 PUSH2 0x1FE0 DUP6 PUSH1 0x5 SHL AND PUSH1 0x24 ADD PUSH2 0x4BF2 JUMP JUMPDEST AND GT ISZERO PUSH2 0x3608 JUMP JUMPDEST PUSH1 0x8 SLOAD PUSH1 0x1E SLOAD DUP5 SWAP2 DUP7 SWAP2 PUSH2 0x373F SWAP2 ADDRESS SWAP1 CALLER SWAP1 PUSH1 0x1 PUSH1 0x1 PUSH1 0xA0 SHL SUB AND PUSH2 0x4936 JUMP JUMPDEST PUSH2 0x374A PUSH1 0x14 SLOAD PUSH2 0x4831 JUMP JUMPDEST SWAP1 DUP2 PUSH1 0x14 SSTORE PUSH1 0x40 MLOAD SWAP2 PUSH2 0x375C DUP4 PUSH2 0x44BC JUMP JUMPDEST CALLER DUP4 MSTORE PUSH1 0x4 CALLDATALOAD PUSH1 0x20 DUP5 ADD MSTORE PUSH1 0x40 MLOAD PUSH2 0x3773 DUP2 PUSH2 0x44F3 JUMP JUMPDEST PUSH1 0x24 DUP2 JUMPDEST PUSH1 0xE4 DUP3 LT PUSH2 0x39E1 JUMPI POP POP PUSH1 0x40 DUP5 ADD MSTORE PUSH1 0xFF DUP5 AND PUSH1 0x60 DUP5 ADD MSTORE TIMESTAMP PUSH1 0x80 DUP5 ADD MSTORE PUSH1 0x0 PUSH1 0xA0 DUP5 ADD MSTORE PUSH1 0x0 PUSH1 0xC0 DUP5 ADD MSTORE PUSH1 0x0 PUSH1 0xE0 DUP5 ADD MSTORE PUSH1 0x0 MSTORE PUSH1 0x1A PUSH1 0x20 MSTORE PUSH1 0x40 PUSH1 0x0 KECCAK256 SWAP2 PUSH1 0x1 DUP1 PUSH1 0xA0 SHL SUB DUP2 MLOAD AND PUSH1 0x1 DUP1 PUSH1 0xA0 SHL SUB NOT DUP5 SLOAD AND OR DUP4 SSTORE PUSH1 0x20 DUP2 ADD MLOAD PUSH1 0x1 DUP5 ADD SSTORE PUSH1 0x40 DUP2 ADD MLOAD PUSH1 0x0 SWAP1 PUSH1 0x0 JUMPDEST PUSH1 0x6 DUP2 LT PUSH2 0x39B3 JUMPI POP POP PUSH1 0x2 DUP5 ADD SSTORE PUSH1 0x3 DUP4 ADD PUSH1 0xFF PUSH1 0x60 DUP4 ADD MLOAD AND SWAP1 PUSH1 0xFF NOT SWAP2 DUP3 DUP3 SLOAD AND OR SWAP1 SSTORE PUSH1 0x80 DUP3 ADD MLOAD PUSH1 0x4 DUP6 ADD SSTORE PUSH2 0x3835 PUSH1 0xA0 DUP4 ADD MLOAD ISZERO ISZERO PUSH1 0x5 DUP7 ADD SWAP1 PUSH1 0xFF DUP1 NOT DUP4 SLOAD AND SWAP2 ISZERO ISZERO AND OR SWAP1 SSTORE JUMP JUMPDEST PUSH1 0xFF PUSH1 0xE0 PUSH1 0x7 PUSH1 0xC0 DUP6 ADD MLOAD SWAP7 PUSH1 0x6 SWAP8 DUP9 DUP3 ADD SSTORE ADD SWAP4 ADD MLOAD AND SWAP1 DUP3 SLOAD AND OR SWAP1 SSTORE CALLER PUSH1 0x0 MSTORE PUSH1 0x1B PUSH1 0x20 MSTORE PUSH2 0x386E PUSH1 0x40 PUSH1 0x0 KECCAK256 PUSH1 0x14 SLOAD SWAP1 PUSH2 0x48A9 JUMP JUMPDEST PUSH1 0x4 CALLDATALOAD PUSH1 0x0 MSTORE PUSH1 0x1C PUSH1 0x20 MSTORE PUSH2 0x388A PUSH1 0x40 PUSH1 0x0 KECCAK256 PUSH1 0x14 SLOAD SWAP1 PUSH2 0x48A9 JUMP JUMPDEST PUSH1 0x7 DUP2 ADD PUSH2 0x3898 DUP2 SLOAD PUSH2 0x4831 JUMP JUMPDEST SWAP1 SSTORE PUSH2 0x38AC PUSH1 0x8 PUSH1 0x1E SLOAD SWAP3 ADD SWAP2 DUP3 SLOAD PUSH2 0x48DE JUMP JUMPDEST SWAP1 SSTORE PUSH2 0x38EB PUSH1 0x1E SLOAD PUSH2 0x2710 PUSH2 0x38C3 PUSH1 0x1F SLOAD DUP4 PUSH2 0x4AD8 JUMP JUMPDEST DIV PUSH1 0x1D SLOAD PUSH2 0x38D1 DUP3 DUP3 PUSH2 0x48DE JUMP JUMPDEST PUSH1 0x21 SLOAD DUP1 SWAP2 GT PUSH2 0x399F JUMPI JUMPDEST POP DUP2 PUSH2 0x395A JUMPI JUMPDEST POP POP CALLER PUSH2 0x5B5C JUMP JUMPDEST PUSH1 0x14 SLOAD SWAP2 PUSH1 0x40 MLOAD SWAP2 DUP3 PUSH1 0x24 PUSH1 0x0 SWAP2 JUMPDEST DUP4 DUP4 LT PUSH2 0x393A JUMPI PUSH1 0xFF DUP6 AND PUSH1 0xC0 DUP8 ADD MSTORE PUSH1 0x4 CALLDATALOAD CALLER DUP9 PUSH32 0x34A33E2DD210A7F0F3190AAFEE6788065BD4A3B799C99E81A15BC4699DC21E40 PUSH1 0xE0 DUP11 LOG4 PUSH1 0x1 DUP1 SSTORE STOP JUMPDEST PUSH1 0x20 DUP1 PUSH1 0x1 SWAP3 PUSH1 0xFF PUSH2 0x394B DUP7 PUSH2 0x46B9 JUMP JUMPDEST AND DUP2 MSTORE ADD SWAP3 ADD SWAP3 ADD SWAP2 SWAP1 PUSH2 0x38FA JUMP JUMPDEST DUP2 PUSH2 0x3988 PUSH32 0xB0D06CCAA4821F41669BCC9A049D35783663CD32E846AE89A27DC9835330CE1A SWAP4 PUSH1 0x40 SWAP4 PUSH2 0x48DE JUMP JUMPDEST SWAP1 DUP2 PUSH1 0x1D SSTORE DUP3 MLOAD SWAP2 DUP3 MSTORE PUSH1 0x20 DUP3 ADD MSTORE LOG1 DUP5 DUP1 PUSH2 0x38E3 JUMP JUMPDEST DUP2 SWAP3 POP SWAP1 PUSH2 0x39AC SWAP2 PUSH2 0x4794 JUMP JUMPDEST SWAP1 DUP7 PUSH2 0x38DC JUMP JUMPDEST SWAP1 SWAP2 PUSH1 0x20 PUSH2 0x39D8 PUSH1 0x1 SWAP3 DUP5 PUSH1 0xFF DUP8 MLOAD AND SWAP2 SWAP1 PUSH1 0xFF DUP1 SWAP2 PUSH1 0x3 SHL SWAP4 AND DUP4 SHL SWAP3 SHL NOT AND OR SWAP1 JUMP JUMPDEST SWAP4 ADD SWAP2 ADD PUSH2 0x37E5 JUMP JUMPDEST PUSH1 0x20 DUP1 SWAP2 PUSH2 0x39EE DUP5 PUSH2 0x46B9 JUMP JUMPDEST DUP2 MSTORE ADD SWAP2 ADD SWAP1 PUSH2 0x3777 JUMP JUMPDEST PUSH1 0x40 MLOAD PUSH3 0x461BCD PUSH1 0xE5 SHL DUP2 MSTORE PUSH1 0x20 PUSH1 0x4 DUP3 ADD MSTORE PUSH1 0xF PUSH1 0x24 DUP3 ADD MSTORE PUSH15 0x4B6579206D75737420626520302D39 PUSH1 0x88 SHL PUSH1 0x44 DUP3 ADD MSTORE PUSH1 0x64 SWAP1 REVERT JUMPDEST POP PUSH1 0x13 SLOAD PUSH1 0x4 CALLDATALOAD GT ISZERO PUSH2 0x3582 JUMP JUMPDEST CALLVALUE PUSH2 0x417 JUMPI PUSH1 0x0 CALLDATASIZE PUSH1 0x3 NOT ADD SLT PUSH2 0x417 JUMPI PUSH1 0x8 SLOAD PUSH1 0x40 MLOAD PUSH1 0x1 PUSH1 0x1 PUSH1 0xA0 SHL SUB SWAP1 SWAP2 AND DUP2 MSTORE PUSH1 0x20 SWAP1 RETURN JUMPDEST CALLVALUE PUSH2 0x417 JUMPI PUSH1 0x20 CALLDATASIZE PUSH1 0x3 NOT ADD SLT PUSH2 0x417 JUMPI PUSH1 0x4 CALLDATALOAD PUSH2 0x3A83 PUSH2 0x49F2 JUMP JUMPDEST CALLER PUSH1 0x0 MSTORE PUSH1 0x9 PUSH1 0x20 MSTORE DUP1 PUSH1 0x40 PUSH1 0x0 KECCAK256 SLOAD LT PUSH2 0x3AFE JUMPI CALLER PUSH1 0x0 MSTORE PUSH1 0x9 PUSH1 0x20 MSTORE PUSH1 0x40 PUSH1 0x0 KECCAK256 PUSH2 0x3AB1 DUP3 DUP3 SLOAD PUSH2 0x4794 JUMP JUMPDEST SWAP1 SSTORE PUSH1 0x8 SLOAD PUSH2 0x3ACC SWAP1 DUP3 SWAP1 CALLER SWAP1 PUSH1 0x1 PUSH1 0x1 PUSH1 0xA0 SHL SUB AND PUSH2 0x4AEB JUMP JUMPDEST PUSH1 0x40 MLOAD SWAP1 DUP2 MSTORE PUSH32 0x7084F5476618D8E60B11EF0D7D3F06914655ADB8793E28FF7F018D4C76D505D5 PUSH1 0x20 CALLER SWAP3 LOG2 PUSH1 0x1 DUP1 SSTORE STOP JUMPDEST PUSH1 0x40 MLOAD PUSH3 0x461BCD PUSH1 0xE5 SHL DUP2 MSTORE PUSH1 0x20 PUSH1 0x4 DUP3 ADD MSTORE PUSH1 0x14 PUSH1 0x24 DUP3 ADD MSTORE PUSH20 0x496E73756666696369656E742062616C616E6365 PUSH1 0x60 SHL PUSH1 0x44 DUP3 ADD MSTORE PUSH1 0x64 SWAP1 REVERT JUMPDEST CALLVALUE PUSH2 0x417 JUMPI PUSH1 0x0 CALLDATASIZE PUSH1 0x3 NOT ADD SLT PUSH2 0x417 JUMPI PUSH1 0x20 PUSH1 0x26 SLOAD PUSH1 0x40 MLOAD SWAP1 DUP2 MSTORE RETURN JUMPDEST CALLVALUE PUSH2 0x417 JUMPI PUSH1 0x20 DUP1 PUSH1 0x3 NOT CALLDATASIZE ADD SLT PUSH2 0x417 JUMPI PUSH1 0x1 PUSH1 0x1 PUSH1 0xA0 SHL SUB PUSH2 0x3B7A PUSH2 0x4662 JUMP JUMPDEST AND PUSH1 0x0 MSTORE PUSH1 0x17 DUP2 MSTORE PUSH1 0x40 PUSH1 0x0 KECCAK256 SWAP1 PUSH1 0x40 MLOAD DUP1 DUP4 DUP4 DUP3 SWAP6 SLOAD SWAP4 DUP5 DUP2 MSTORE ADD SWAP1 PUSH1 0x0 MSTORE DUP4 PUSH1 0x0 KECCAK256 SWAP3 PUSH1 0x0 JUMPDEST DUP6 DUP3 DUP3 LT PUSH2 0x3BB9 JUMPI POP POP POP PUSH2 0x20CA SWAP3 POP SUB DUP4 PUSH2 0x4544 JUMP JUMPDEST DUP6 SLOAD DUP5 MSTORE PUSH1 0x1 SWAP6 DUP7 ADD SWAP6 DUP9 SWAP6 POP SWAP4 ADD SWAP3 ADD PUSH2 0x3BA2 JUMP JUMPDEST CALLVALUE PUSH2 0x417 JUMPI PUSH1 0x20 CALLDATASIZE PUSH1 0x3 NOT ADD SLT PUSH2 0x417 JUMPI PUSH1 0x4 CALLDATALOAD PUSH1 0x0 MSTORE PUSH1 0x16 PUSH1 0x20 MSTORE PUSH1 0x40 PUSH1 0x0 KECCAK256 PUSH1 0x1 DUP1 PUSH1 0xA0 SHL SUB DUP2 SLOAD AND PUSH1 0x1 DUP3 ADD SLOAD SWAP2 PUSH1 0xFF PUSH1 0x2 DUP3 ADD SLOAD AND PUSH2 0x3C14 PUSH1 0x3 DUP4 ADD PUSH2 0x4565 JUMP JUMPDEST SWAP2 PUSH2 0x3C57 PUSH1 0x4 DUP3 ADD SLOAD SWAP4 PUSH2 0x3C46 PUSH1 0x6 PUSH1 0xFF PUSH1 0x5 DUP7 ADD SLOAD AND SWAP5 ADD SLOAD SWAP5 PUSH1 0x40 MLOAD SWAP9 DUP10 SWAP9 DUP10 MSTORE PUSH1 0x20 DUP10 ADD MSTORE PUSH1 0x40 DUP9 ADD SWAP1 PUSH2 0x4678 JUMP JUMPDEST PUSH1 0xE0 PUSH1 0x60 DUP8 ADD MSTORE PUSH1 0xE0 DUP7 ADD SWAP1 PUSH2 0x460B JUMP JUMPDEST SWAP3 PUSH1 0x80 DUP6 ADD MSTORE ISZERO ISZERO PUSH1 0xA0 DUP5 ADD MSTORE PUSH1 0xC0 DUP4 ADD MSTORE SUB SWAP1 RETURN JUMPDEST CALLVALUE PUSH2 0x417 JUMPI PUSH1 0x20 CALLDATASIZE PUSH1 0x3 NOT ADD SLT PUSH2 0x417 JUMPI PUSH2 0x3C86 PUSH2 0x4662 JUMP JUMPDEST PUSH2 0x3C8E PUSH2 0x4726 JUMP JUMPDEST PUSH1 0xA DUP1 SLOAD PUSH1 0x1 PUSH1 0x1 PUSH1 0xA0 SHL SUB NOT AND PUSH1 0x1 PUSH1 0x1 PUSH1 0xA0 SHL SUB SWAP3 SWAP1 SWAP3 AND SWAP2 SWAP1 SWAP2 OR SWAP1 SSTORE STOP JUMPDEST CALLVALUE PUSH2 0x417 JUMPI PUSH1 0x20 CALLDATASIZE PUSH1 0x3 NOT ADD SLT PUSH2 0x417 JUMPI PUSH1 0xA0 PUSH2 0x3CCB PUSH2 0x4662 JUMP JUMPDEST PUSH1 0x0 PUSH1 0x80 PUSH1 0x40 MLOAD PUSH2 0x3CDB DUP2 PUSH2 0x44A1 JUMP JUMPDEST DUP3 DUP2 MSTORE DUP3 PUSH1 0x20 DUP3 ADD MSTORE DUP3 PUSH1 0x40 DUP3 ADD MSTORE DUP3 PUSH1 0x60 DUP3 ADD MSTORE ADD MSTORE PUSH1 0x1 DUP1 DUP4 SHL SUB DUP1 SWAP2 AND PUSH1 0x0 MSTORE PUSH1 0x32 PUSH1 0x20 MSTORE PUSH1 0x40 PUSH1 0x0 KECCAK256 SWAP1 PUSH1 0x40 MLOAD SWAP1 PUSH2 0x3D16 DUP3 PUSH2 0x44A1 JUMP JUMPDEST DUP3 SLOAD AND SWAP2 DUP3 DUP3 MSTORE PUSH1 0x1 DUP2 ADD SLOAD PUSH1 0x20 DUP4 ADD SWAP1 DUP2 MSTORE PUSH1 0x2 DUP3 ADD SLOAD SWAP1 PUSH1 0x40 DUP5 ADD SWAP2 DUP3 MSTORE PUSH1 0x80 PUSH1 0x4 PUSH1 0x3 DUP6 ADD SLOAD SWAP5 PUSH1 0x60 DUP8 ADD SWAP6 DUP7 MSTORE ADD SLOAD SWAP5 ADD SWAP4 DUP5 MSTORE PUSH1 0x40 MLOAD SWAP5 DUP6 MSTORE MLOAD PUSH1 0x20 DUP6 ADD MSTORE MLOAD PUSH1 0x40 DUP5 ADD MSTORE MLOAD PUSH1 0x60 DUP4 ADD MSTORE MLOAD PUSH1 0x80 DUP3 ADD MSTORE RETURN JUMPDEST CALLVALUE PUSH2 0x417 JUMPI PUSH1 0x20 DUP1 PUSH1 0x3 NOT CALLDATASIZE ADD SLT PUSH2 0x417 JUMPI PUSH1 0x1 PUSH1 0x1 PUSH1 0xA0 SHL SUB SWAP1 DUP2 PUSH2 0x3D92 PUSH2 0x4662 JUMP JUMPDEST AND CALLER DUP2 EQ PUSH2 0x3EA2 JUMPI DUP1 ISZERO PUSH2 0x3E6A JUMPI CALLER PUSH1 0x0 MSTORE PUSH1 0x32 DUP3 MSTORE DUP3 PUSH1 0x40 PUSH1 0x0 KECCAK256 SLOAD AND PUSH2 0x3E30 JUMPI SWAP1 PUSH1 0x33 SWAP2 CALLER PUSH1 0x0 MSTORE PUSH1 0x32 DUP3 MSTORE PUSH1 0x40 PUSH1 0x0 KECCAK256 DUP2 PUSH1 0x1 DUP1 PUSH1 0xA0 SHL SUB NOT DUP3 SLOAD AND OR DUP2 SSTORE PUSH1 0x4 TIMESTAMP SWAP2 ADD SSTORE DUP1 PUSH1 0x0 MSTORE PUSH1 0x1 PUSH1 0x40 PUSH1 0x0 KECCAK256 ADD PUSH2 0x3DF0 DUP2 SLOAD PUSH2 0x4831 JUMP JUMPDEST SWAP1 SSTORE PUSH1 0x0 MSTORE MSTORE PUSH1 0x40 PUSH1 0x0 KECCAK256 DUP1 SLOAD PUSH1 0x1 PUSH1 0x40 SHL DUP2 LT ISZERO PUSH2 0x271D JUMPI PUSH2 0x3E18 SWAP2 PUSH1 0x1 DUP3 ADD DUP2 SSTORE PUSH2 0x444F JUMP JUMPDEST DUP2 SWAP3 SWAP2 SLOAD SWAP1 PUSH1 0x3 SHL SWAP2 CALLER DUP4 SHL SWAP3 SHL NOT AND OR SWAP1 SSTORE PUSH1 0x0 DUP1 RETURN JUMPDEST PUSH1 0x40 MLOAD PUSH3 0x461BCD PUSH1 0xE5 SHL DUP2 MSTORE PUSH1 0x4 DUP2 ADD DUP4 SWAP1 MSTORE PUSH1 0x12 PUSH1 0x24 DUP3 ADD MSTORE PUSH18 0x105B1C9958591E481C9959DA5CDD195C9959 PUSH1 0x72 SHL PUSH1 0x44 DUP3 ADD MSTORE PUSH1 0x64 SWAP1 REVERT JUMPDEST PUSH1 0x40 MLOAD PUSH3 0x461BCD PUSH1 0xE5 SHL DUP2 MSTORE PUSH1 0x4 DUP2 ADD DUP4 SWAP1 MSTORE PUSH1 0x10 PUSH1 0x24 DUP3 ADD MSTORE PUSH16 0x24B73B30B634B2103932B332B93932B9 PUSH1 0x81 SHL PUSH1 0x44 DUP3 ADD MSTORE PUSH1 0x64 SWAP1 REVERT JUMPDEST PUSH1 0x40 MLOAD PUSH3 0x461BCD PUSH1 0xE5 SHL DUP2 MSTORE PUSH1 0x4 DUP2 ADD DUP4 SWAP1 MSTORE PUSH1 0x15 PUSH1 0x24 DUP3 ADD MSTORE PUSH21 0x21B0B73737BA103932B332B9103CB7BAB939B2B633 PUSH1 0x59 SHL PUSH1 0x44 DUP3 ADD MSTORE PUSH1 0x64 SWAP1 REVERT JUMPDEST CALLVALUE PUSH2 0x417 JUMPI PUSH1 0x40 CALLDATASIZE PUSH1 0x3 NOT ADD SLT PUSH2 0x417 JUMPI PUSH1 0x24 CALLDATALOAD PUSH1 0x1 PUSH1 0x1 PUSH1 0x40 SHL SUB DUP2 GT PUSH2 0x417 JUMPI CALLDATASIZE PUSH1 0x23 DUP3 ADD SLT ISZERO PUSH2 0x417 JUMPI DUP1 PUSH1 0x4 ADD CALLDATALOAD SWAP1 PUSH2 0x3F1B DUP3 PUSH2 0x464B JUMP JUMPDEST SWAP1 PUSH2 0x3F29 PUSH1 0x40 MLOAD SWAP3 DUP4 PUSH2 0x4544 JUMP JUMPDEST DUP3 DUP3 MSTORE PUSH1 0x20 SWAP3 PUSH1 0x24 DUP5 DUP5 ADD SWAP2 PUSH1 0x5 SHL DUP4 ADD ADD SWAP2 CALLDATASIZE DUP4 GT PUSH2 0x417 JUMPI PUSH1 0x24 ADD SWAP1 JUMPDEST DUP3 DUP3 LT PUSH2 0x3FAC JUMPI DUP4 PUSH32 0x0 PUSH1 0x1 PUSH1 0x1 PUSH1 0xA0 SHL SUB AND CALLER DUP2 SWAP1 SUB PUSH2 0x3F8E JUMPI PUSH2 0x2040 DUP3 PUSH1 0x4 CALLDATALOAD PUSH2 0x4CB3 JUMP JUMPDEST PUSH1 0x44 SWAP1 PUSH1 0x40 MLOAD SWAP1 PUSH4 0x73E64FD PUSH1 0xE2 SHL DUP3 MSTORE CALLER PUSH1 0x4 DUP4 ADD MSTORE PUSH1 0x24 DUP3 ADD MSTORE REVERT JUMPDEST DUP2 CALLDATALOAD DUP2 MSTORE SWAP1 DUP5 ADD SWAP1 DUP5 ADD PUSH2 0x3F48 JUMP JUMPDEST CALLVALUE PUSH2 0x417 JUMPI PUSH1 0x20 DUP1 PUSH1 0x3 NOT CALLDATASIZE ADD SLT PUSH2 0x417 JUMPI PUSH1 0x4 CALLDATALOAD PUSH2 0x3FD8 PUSH2 0x49F2 JUMP JUMPDEST PUSH1 0x0 DUP2 DUP2 MSTORE PUSH1 0x1A DUP4 MSTORE PUSH1 0x40 SWAP1 KECCAK256 DUP1 SLOAD PUSH1 0x1 PUSH1 0x1 PUSH1 0xA0 SHL SUB SWAP3 SWAP2 SWAP1 DUP4 AND CALLER SUB PUSH2 0x41B5 JUMPI PUSH1 0x5 DUP2 ADD SWAP3 DUP4 SLOAD SWAP5 PUSH2 0x400F PUSH1 0xFF DUP8 AND ISZERO PUSH2 0x56D6 JUMP JUMPDEST PUSH1 0x1 SWAP6 DUP7 DUP5 ADD SWAP1 DUP2 SLOAD PUSH1 0x0 MSTORE PUSH1 0x19 DUP4 MSTORE PUSH1 0x40 PUSH1 0x0 KECCAK256 PUSH1 0xFF PUSH1 0x3 DUP3 ADD SLOAD AND PUSH1 0x5 DUP2 LT ISZERO PUSH2 0x148E JUMPI PUSH1 0x4 SUB PUSH2 0x4178 JUMPI PUSH2 0x4046 DUP2 DUP8 PUSH2 0x59C9 JUMP JUMPDEST SWAP7 SWAP1 SWAP9 DUP8 ISZERO PUSH2 0x4148 JUMPI SWAP4 DUP8 SWAP6 SWAP2 SWAP4 DUP12 PUSH2 0x40ED SWAP9 SWAP5 DUP2 DUP14 PUSH1 0xFF PUSH1 0x7 PUSH32 0x6454B890E6DF04ED2B48EC8BA08DDDF37AAE6D6446859A1291411ECD54B659B2 SWAP15 SWAP11 PUSH2 0x40CF SWAP13 DUP6 DUP5 NOT DUP1 SWAP11 AND OR SWAP1 SSTORE DUP12 PUSH1 0x6 DUP3 ADD SSTORE ADD SWAP2 AND SWAP1 DUP2 DUP7 DUP3 SLOAD AND OR SWAP1 SSTORE PUSH1 0x9 DUP4 ADD PUSH2 0x40B1 DUP11 DUP3 SLOAD PUSH2 0x48DE JUMP JUMPDEST SWAP1 SSTORE EQ DUP1 PUSH2 0x4139 JUMPI JUMPDEST PUSH2 0x40F4 JUMPI JUMPDEST POP POP POP POP POP CALLER SWAP1 PUSH1 0x8 SLOAD AND PUSH2 0x4AEB JUMP JUMPDEST PUSH1 0x40 MLOAD SWAP2 DUP3 SWAP2 CALLER SWAP7 DUP4 PUSH1 0x20 SWAP1 SWAP4 SWAP3 SWAP2 SWAP4 PUSH1 0xFF PUSH1 0x40 DUP3 ADD SWAP6 AND DUP2 MSTORE ADD MSTORE JUMP JUMPDEST SUB SWAP1 LOG3 DUP1 SSTORE STOP JUMPDEST PUSH1 0xA ADD SWAP2 DUP3 SLOAD AND OR SWAP1 SSTORE DUP2 SLOAD PUSH1 0x1D SSTORE SLOAD PUSH32 0xF75ADEADF04A8CA4130D3774F98BDB151C71B80EB8EE92A224BCED1C538E9408 PUSH1 0x40 MLOAD SWAP3 DUP6 DUP5 MSTORE CALLER SWAP4 LOG3 DUP10 DUP1 DUP1 DUP12 DUP2 PUSH2 0x40BF JUMP JUMPDEST POP PUSH1 0xFF PUSH1 0xA DUP3 ADD SLOAD AND ISZERO PUSH2 0x40BA JUMP JUMPDEST PUSH1 0x40 MLOAD PUSH3 0x461BCD PUSH1 0xE5 SHL DUP2 MSTORE PUSH1 0x4 DUP2 ADD DUP8 SWAP1 MSTORE PUSH1 0x8 PUSH1 0x24 DUP3 ADD MSTORE PUSH8 0x4E6F207072697A65 PUSH1 0xC0 SHL PUSH1 0x44 DUP3 ADD MSTORE PUSH1 0x64 SWAP1 REVERT JUMPDEST PUSH1 0x40 MLOAD PUSH3 0x461BCD PUSH1 0xE5 SHL DUP2 MSTORE PUSH1 0x4 DUP2 ADD DUP6 SWAP1 MSTORE PUSH1 0x15 PUSH1 0x24 DUP3 ADD MSTORE PUSH21 0x131BDD1D195C9E481B9BDD0818DBDB5C1B195D1959 PUSH1 0x5A SHL PUSH1 0x44 DUP3 ADD MSTORE PUSH1 0x64 SWAP1 REVERT JUMPDEST PUSH1 0x40 MLOAD PUSH3 0x461BCD PUSH1 0xE5 SHL DUP2 MSTORE PUSH1 0x4 DUP2 ADD DUP6 SWAP1 MSTORE PUSH1 0xF PUSH1 0x24 DUP3 ADD MSTORE PUSH15 0x139BDD081E5BDD5C881D1A58DAD95D PUSH1 0x8A SHL PUSH1 0x44 DUP3 ADD MSTORE PUSH1 0x64 SWAP1 REVERT JUMPDEST CALLVALUE PUSH2 0x417 JUMPI PUSH1 0x0 CALLDATASIZE PUSH1 0x3 NOT ADD SLT PUSH2 0x417 JUMPI PUSH1 0x20 PUSH1 0x28 SLOAD PUSH1 0x40 MLOAD SWAP1 DUP2 MSTORE RETURN JUMPDEST CALLVALUE PUSH2 0x417 JUMPI PUSH1 0x20 CALLDATASIZE PUSH1 0x3 NOT ADD SLT PUSH2 0x417 JUMPI PUSH1 0x4 CALLDATALOAD PUSH1 0x0 MSTORE PUSH1 0x15 PUSH1 0x20 MSTORE PUSH1 0x40 PUSH1 0x0 KECCAK256 DUP1 SLOAD SWAP1 PUSH2 0x423A PUSH1 0x1 DUP3 ADD PUSH2 0x4565 JUMP JUMPDEST PUSH1 0x2 DUP3 ADD SLOAD SWAP1 PUSH1 0xFF PUSH1 0x3 DUP5 ADD SLOAD AND SWAP3 PUSH2 0x4255 PUSH1 0x4 DUP3 ADD PUSH2 0x4565 JUMP JUMPDEST PUSH2 0x4261 PUSH1 0x5 DUP4 ADD PUSH2 0x4565 JUMP JUMPDEST SWAP1 PUSH2 0x426E PUSH1 0x6 DUP5 ADD PUSH2 0x4565 JUMP JUMPDEST SWAP5 PUSH1 0x7 DUP5 ADD SLOAD SWAP6 PUSH1 0x8 DUP6 ADD SLOAD SWAP3 PUSH1 0x9 DUP7 ADD SLOAD SWAP5 PUSH2 0x42A8 PUSH1 0xB PUSH1 0xA DUP10 ADD SLOAD SWAP9 ADD SLOAD SWAP9 PUSH1 0x40 MLOAD SWAP13 DUP14 MSTORE PUSH1 0x20 DUP14 PUSH2 0x180 SWAP2 DUP3 SWAP2 ADD MSTORE DUP14 ADD SWAP1 PUSH2 0x460B JUMP JUMPDEST SWAP4 PUSH1 0x40 DUP13 ADD MSTORE PUSH1 0x6 DUP11 LT ISZERO PUSH2 0x148E JUMPI PUSH2 0x42D7 PUSH2 0x42F3 SWAP5 PUSH2 0x42E5 SWAP4 DUP14 SWAP13 PUSH1 0x60 DUP15 ADD MSTORE DUP13 PUSH1 0x80 DUP2 DUP5 SUB SWAP2 ADD MSTORE PUSH2 0x460B JUMP JUMPDEST SWAP1 DUP11 DUP3 SUB PUSH1 0xA0 DUP13 ADD MSTORE PUSH2 0x460B JUMP JUMPDEST SWAP1 DUP9 DUP3 SUB PUSH1 0xC0 DUP11 ADD MSTORE PUSH2 0x460B JUMP JUMPDEST SWAP5 PUSH1 0xE0 DUP8 ADD MSTORE PUSH2 0x100 DUP7 ADD MSTORE PUSH2 0x120 DUP6 ADD MSTORE PUSH2 0x140 DUP5 ADD MSTORE PUSH2 0x160 DUP4 ADD MSTORE SUB SWAP1 RETURN JUMPDEST CALLVALUE PUSH2 0x417 JUMPI PUSH1 0x20 CALLDATASIZE PUSH1 0x3 NOT ADD SLT PUSH2 0x417 JUMPI PUSH1 0x4 CALLDATALOAD PUSH1 0x0 MSTORE PUSH1 0x19 PUSH1 0x20 MSTORE PUSH1 0x40 PUSH1 0x0 KECCAK256 DUP1 SLOAD SWAP1 PUSH2 0x4345 PUSH1 0x1 DUP3 ADD PUSH2 0x4565 JUMP JUMPDEST PUSH1 0x2 DUP3 ADD SLOAD SWAP1 PUSH1 0xFF PUSH1 0x3 DUP5 ADD SLOAD AND SWAP3 PUSH1 0xFF PUSH1 0x5 DUP3 ADD SLOAD AND PUSH1 0x6 DUP3 ADD SLOAD PUSH1 0x7 DUP4 ADD SLOAD PUSH1 0x8 DUP5 ADD SLOAD SWAP1 PUSH1 0x9 DUP6 ADD SLOAD SWAP3 PUSH1 0xFF PUSH1 0xA DUP8 ADD SLOAD AND SWAP5 PUSH2 0x43A2 PUSH1 0xC PUSH1 0xB DUP10 ADD SLOAD SWAP9 ADD SLOAD SWAP9 PUSH1 0x40 MLOAD SWAP13 DUP14 MSTORE PUSH1 0x20 DUP14 PUSH2 0x180 SWAP2 DUP3 SWAP2 ADD MSTORE DUP14 ADD SWAP1 PUSH2 0x460B JUMP JUMPDEST SWAP9 PUSH1 0x40 DUP13 ADD MSTORE PUSH1 0x5 DUP11 LT ISZERO PUSH2 0x148E JUMPI DUP11 SWAP10 PUSH1 0x60 DUP12 ADD MSTORE PUSH1 0x80 DUP11 ADD MSTORE PUSH1 0xA0 DUP10 ADD MSTORE PUSH1 0xC0 DUP9 ADD MSTORE PUSH1 0xE0 DUP8 ADD MSTORE PUSH2 0x100 DUP7 ADD MSTORE ISZERO ISZERO PUSH2 0x120 DUP6 ADD MSTORE PUSH2 0x140 DUP5 ADD MSTORE PUSH2 0x160 DUP4 ADD MSTORE SUB SWAP1 RETURN JUMPDEST CALLVALUE PUSH2 0x417 JUMPI PUSH1 0x0 CALLDATASIZE PUSH1 0x3 NOT ADD SLT PUSH2 0x417 JUMPI PUSH1 0x20 PUSH1 0x3 SLOAD PUSH1 0x40 MLOAD SWAP1 DUP2 MSTORE RETURN JUMPDEST CALLVALUE PUSH2 0x417 JUMPI PUSH2 0x4416 CALLDATASIZE PUSH2 0x4439 JUMP JUMPDEST SWAP1 PUSH1 0x0 MSTORE PUSH1 0x1C PUSH1 0x20 MSTORE PUSH1 0x40 PUSH1 0x0 KECCAK256 DUP1 SLOAD DUP3 LT ISZERO PUSH2 0x417 JUMPI PUSH1 0x20 SWAP2 PUSH2 0x193A SWAP2 PUSH2 0x444F JUMP JUMPDEST PUSH1 0x40 SWAP1 PUSH1 0x3 NOT ADD SLT PUSH2 0x417 JUMPI PUSH1 0x4 CALLDATALOAD SWAP1 PUSH1 0x24 CALLDATALOAD SWAP1 JUMP JUMPDEST DUP1 SLOAD DUP3 LT ISZERO PUSH2 0x36AA JUMPI PUSH1 0x0 MSTORE PUSH1 0x20 PUSH1 0x0 KECCAK256 ADD SWAP1 PUSH1 0x0 SWAP1 JUMP JUMPDEST SWAP1 PUSH1 0x1 DUP3 DUP2 SHR SWAP3 AND DUP1 ISZERO PUSH2 0x4497 JUMPI JUMPDEST PUSH1 0x20 DUP4 LT EQ PUSH2 0x4481 JUMPI JUMP JUMPDEST PUSH4 0x4E487B71 PUSH1 0xE0 SHL PUSH1 0x0 MSTORE PUSH1 0x22 PUSH1 0x4 MSTORE PUSH1 0x24 PUSH1 0x0 REVERT JUMPDEST SWAP2 PUSH1 0x7F AND SWAP2 PUSH2 0x4476 JUMP JUMPDEST PUSH1 0xA0 DUP2 ADD SWAP1 DUP2 LT PUSH1 0x1 PUSH1 0x1 PUSH1 0x40 SHL SUB DUP3 GT OR PUSH2 0x271D JUMPI PUSH1 0x40 MSTORE JUMP JUMPDEST PUSH2 0x100 DUP2 ADD SWAP1 DUP2 LT PUSH1 0x1 PUSH1 0x1 PUSH1 0x40 SHL SUB DUP3 GT OR PUSH2 0x271D JUMPI PUSH1 0x40 MSTORE JUMP JUMPDEST PUSH1 0xE0 DUP2 ADD SWAP1 DUP2 LT PUSH1 0x1 PUSH1 0x1 PUSH1 0x40 SHL SUB DUP3 GT OR PUSH2 0x271D JUMPI PUSH1 0x40 MSTORE JUMP JUMPDEST PUSH1 0xC0 DUP2 ADD SWAP1 DUP2 LT PUSH1 0x1 PUSH1 0x1 PUSH1 0x40 SHL SUB DUP3 GT OR PUSH2 0x271D JUMPI PUSH1 0x40 MSTORE JUMP JUMPDEST PUSH1 0x20 DUP2 ADD SWAP1 DUP2 LT PUSH1 0x1 PUSH1 0x1 PUSH1 0x40 SHL SUB DUP3 GT OR PUSH2 0x271D JUMPI PUSH1 0x40 MSTORE JUMP JUMPDEST PUSH1 0x40 DUP2 ADD SWAP1 DUP2 LT PUSH1 0x1 PUSH1 0x1 PUSH1 0x40 SHL SUB DUP3 GT OR PUSH2 0x271D JUMPI PUSH1 0x40 MSTORE JUMP JUMPDEST SWAP1 PUSH1 0x1F DUP1 NOT SWAP2 ADD AND DUP2 ADD SWAP1 DUP2 LT PUSH1 0x1 PUSH1 0x1 PUSH1 0x40 SHL SUB DUP3 GT OR PUSH2 0x271D JUMPI PUSH1 0x40 MSTORE JUMP JUMPDEST SWAP1 PUSH1 0x40 MLOAD SWAP2 DUP3 PUSH1 0x0 DUP3 SLOAD SWAP3 PUSH2 0x4579 DUP5 PUSH2 0x4467 JUMP JUMPDEST SWAP1 DUP2 DUP5 MSTORE PUSH1 0x1 SWAP5 DUP6 DUP2 AND SWAP1 DUP2 PUSH1 0x0 EQ PUSH2 0x45E8 JUMPI POP PUSH1 0x1 EQ PUSH2 0x45A5 JUMPI JUMPDEST POP POP PUSH2 0x45A3 SWAP3 POP SUB DUP4 PUSH2 0x4544 JUMP JUMPDEST JUMP JUMPDEST SWAP1 SWAP4 SWAP2 POP PUSH1 0x0 MSTORE PUSH1 0x20 SWAP1 DUP2 PUSH1 0x0 KECCAK256 SWAP4 PUSH1 0x0 SWAP2 JUMPDEST DUP2 DUP4 LT PUSH2 0x45D0 JUMPI POP POP PUSH2 0x45A3 SWAP4 POP DUP3 ADD ADD CODESIZE DUP1 PUSH2 0x4595 JUMP JUMPDEST DUP6 SLOAD DUP9 DUP5 ADD DUP6 ADD MSTORE SWAP5 DUP6 ADD SWAP5 DUP8 SWAP5 POP SWAP2 DUP4 ADD SWAP2 PUSH2 0x45B8 JUMP JUMPDEST SWAP2 POP POP PUSH2 0x45A3 SWAP5 POP PUSH1 0x20 SWAP3 POP PUSH1 0xFF NOT AND DUP3 DUP5 ADD MSTORE ISZERO ISZERO PUSH1 0x5 SHL DUP3 ADD ADD CODESIZE DUP1 PUSH2 0x4595 JUMP JUMPDEST SWAP2 SWAP1 DUP3 MLOAD SWAP3 DUP4 DUP3 MSTORE PUSH1 0x0 JUMPDEST DUP5 DUP2 LT PUSH2 0x4637 JUMPI POP POP DUP3 PUSH1 0x0 PUSH1 0x20 DUP1 SWAP5 SWAP6 DUP5 ADD ADD MSTORE PUSH1 0x1F DUP1 NOT SWAP2 ADD AND ADD ADD SWAP1 JUMP JUMPDEST PUSH1 0x20 DUP2 DUP4 ADD DUP2 ADD MLOAD DUP5 DUP4 ADD DUP3 ADD MSTORE ADD PUSH2 0x4616 JUMP JUMPDEST PUSH1 0x1 PUSH1 0x1 PUSH1 0x40 SHL SUB DUP2 GT PUSH2 0x271D JUMPI PUSH1 0x5 SHL PUSH1 0x20 ADD SWAP1 JUMP JUMPDEST PUSH1 0x4 CALLDATALOAD SWAP1 PUSH1 0x1 PUSH1 0x1 PUSH1 0xA0 SHL SUB DUP3 AND DUP3 SUB PUSH2 0x417 JUMPI JUMP JUMPDEST SWAP1 PUSH1 0x3 DUP3 LT ISZERO PUSH2 0x148E JUMPI MSTORE JUMP JUMPDEST SWAP1 DUP2 MLOAD DUP1 DUP3 MSTORE PUSH1 0x20 DUP1 DUP1 SWAP4 ADD SWAP4 ADD SWAP2 PUSH1 0x0 JUMPDEST DUP3 DUP2 LT PUSH2 0x46A5 JUMPI POP POP POP POP SWAP1 JUMP JUMPDEST DUP4 MLOAD DUP6 MSTORE SWAP4 DUP2 ADD SWAP4 SWAP3 DUP2 ADD SWAP3 PUSH1 0x1 ADD PUSH2 0x4697 JUMP JUMPDEST CALLDATALOAD SWAP1 PUSH1 0xFF DUP3 AND DUP3 SUB PUSH2 0x417 JUMPI JUMP JUMPDEST SWAP2 DUP2 PUSH1 0x1F DUP5 ADD SLT ISZERO PUSH2 0x417 JUMPI DUP3 CALLDATALOAD SWAP2 PUSH1 0x1 PUSH1 0x1 PUSH1 0x40 SHL SUB DUP4 GT PUSH2 0x417 JUMPI PUSH1 0x20 DUP4 DUP2 DUP7 ADD SWAP6 ADD ADD GT PUSH2 0x417 JUMPI JUMP JUMPDEST PUSH1 0x40 PUSH1 0x3 NOT DUP3 ADD SLT PUSH2 0x417 JUMPI PUSH1 0x4 CALLDATALOAD SWAP1 PUSH1 0x1 PUSH1 0x1 PUSH1 0x40 SHL SUB DUP3 GT PUSH2 0x417 JUMPI PUSH2 0x471E SWAP2 PUSH1 0x4 ADD PUSH2 0x46C7 JUMP JUMPDEST SWAP1 SWAP2 PUSH1 0x24 CALLDATALOAD SWAP1 JUMP JUMPDEST PUSH1 0x0 SLOAD PUSH1 0x1 PUSH1 0x1 PUSH1 0xA0 SHL SUB AND CALLER SUB PUSH2 0x473A JUMPI JUMP JUMPDEST PUSH1 0x40 MLOAD PUSH4 0x118CDAA7 PUSH1 0xE0 SHL DUP2 MSTORE CALLER PUSH1 0x4 DUP3 ADD MSTORE PUSH1 0x24 SWAP1 REVERT JUMPDEST ISZERO PUSH2 0x4759 JUMPI JUMP JUMPDEST PUSH1 0x40 MLOAD PUSH3 0x461BCD PUSH1 0xE5 SHL DUP2 MSTORE PUSH1 0x20 PUSH1 0x4 DUP3 ADD MSTORE PUSH1 0x13 PUSH1 0x24 DUP3 ADD MSTORE PUSH19 0x111C985DC8191BD95CC81B9BDD08195E1A5CDD PUSH1 0x6A SHL PUSH1 0x44 DUP3 ADD MSTORE PUSH1 0x64 SWAP1 REVERT JUMPDEST SWAP2 SWAP1 DUP3 SUB SWAP2 DUP3 GT PUSH2 0x47A1 JUMPI JUMP JUMPDEST PUSH4 0x4E487B71 PUSH1 0xE0 SHL PUSH1 0x0 MSTORE PUSH1 0x11 PUSH1 0x4 MSTORE PUSH1 0x24 PUSH1 0x0 REVERT JUMPDEST ISZERO PUSH2 0x47BE JUMPI JUMP JUMPDEST PUSH1 0x40 MLOAD PUSH3 0x461BCD PUSH1 0xE5 SHL DUP2 MSTORE PUSH1 0x20 PUSH1 0x4 DUP3 ADD MSTORE PUSH1 0xE PUSH1 0x24 DUP3 ADD MSTORE PUSH14 0x10995D1D1A5B99C818DB1BDCD959 PUSH1 0x92 SHL PUSH1 0x44 DUP3 ADD MSTORE PUSH1 0x64 SWAP1 REVERT JUMPDEST ISZERO PUSH2 0x47FB JUMPI JUMP JUMPDEST PUSH1 0x40 MLOAD PUSH3 0x461BCD PUSH1 0xE5 SHL DUP2 MSTORE PUSH1 0x20 PUSH1 0x4 DUP3 ADD MSTORE PUSH1 0xE PUSH1 0x24 DUP3 ADD MSTORE PUSH14 0x125B9D985B1A5908185B5BDD5B9D PUSH1 0x92 SHL PUSH1 0x44 DUP3 ADD MSTORE PUSH1 0x64 SWAP1 REVERT JUMPDEST PUSH1 0x0 NOT DUP2 EQ PUSH2 0x47A1 JUMPI PUSH1 0x1 ADD SWAP1 JUMP JUMPDEST PUSH1 0x3 DUP3 LT ISZERO PUSH2 0x148E JUMPI MSTORE JUMP JUMPDEST SWAP3 SWAP2 SWAP3 PUSH1 0x1 PUSH1 0x1 PUSH1 0x40 SHL SUB DUP3 GT PUSH2 0x271D JUMPI PUSH1 0x40 MLOAD SWAP2 PUSH2 0x4875 PUSH1 0x1F DUP3 ADD PUSH1 0x1F NOT AND PUSH1 0x20 ADD DUP5 PUSH2 0x4544 JUMP JUMPDEST DUP3 SWAP5 DUP2 DUP5 MSTORE DUP2 DUP4 ADD GT PUSH2 0x417 JUMPI DUP3 DUP2 PUSH1 0x20 SWAP4 DUP5 PUSH1 0x0 SWAP7 ADD CALLDATACOPY ADD ADD MSTORE JUMP JUMPDEST DUP2 DUP2 LT PUSH2 0x489D JUMPI POP POP JUMP JUMPDEST PUSH1 0x0 DUP2 SSTORE PUSH1 0x1 ADD PUSH2 0x4892 JUMP JUMPDEST DUP1 SLOAD PUSH1 0x1 PUSH1 0x40 SHL DUP2 LT ISZERO PUSH2 0x271D JUMPI PUSH2 0x48C6 SWAP2 PUSH1 0x1 DUP3 ADD DUP2 SSTORE PUSH2 0x444F JUMP JUMPDEST DUP2 SWAP3 SWAP2 SLOAD SWAP1 PUSH1 0x3 SHL SWAP2 DUP3 SHL SWAP2 PUSH1 0x0 NOT SWAP1 SHL NOT AND OR SWAP1 SSTORE JUMP JUMPDEST SWAP2 SWAP1 DUP3 ADD DUP1 SWAP3 GT PUSH2 0x47A1 JUMPI JUMP JUMPDEST SWAP1 DUP1 PUSH1 0x20 SWAP4 SWAP3 DUP2 DUP5 MSTORE DUP5 DUP5 ADD CALLDATACOPY PUSH1 0x0 DUP3 DUP3 ADD DUP5 ADD MSTORE PUSH1 0x1F ADD PUSH1 0x1F NOT AND ADD ADD SWAP1 JUMP JUMPDEST SWAP5 SWAP4 SWAP3 SWAP2 PUSH1 0x40 SWAP3 PUSH2 0x4920 DUP8 PUSH2 0x4931 SWAP5 PUSH2 0x4678 JUMP JUMPDEST PUSH1 0x60 PUSH1 0x20 DUP9 ADD MSTORE PUSH1 0x60 DUP8 ADD SWAP2 PUSH2 0x48EB JUMP JUMPDEST SWAP4 ADD MSTORE JUMP JUMPDEST PUSH1 0x40 MLOAD PUSH4 0x23B872DD PUSH1 0xE0 SHL PUSH1 0x20 DUP3 ADD MSTORE PUSH1 0x1 PUSH1 0x1 PUSH1 0xA0 SHL SUB SWAP3 DUP4 AND PUSH1 0x24 DUP3 ADD MSTORE SWAP3 SWAP1 SWAP2 AND PUSH1 0x44 DUP4 ADD MSTORE PUSH1 0x64 DUP1 DUP4 ADD SWAP4 SWAP1 SWAP4 MSTORE SWAP2 DUP2 MSTORE PUSH2 0x45A3 SWAP2 PUSH2 0x4978 DUP3 PUSH2 0x44A1 JUMP JUMPDEST SWAP1 PUSH1 0x0 PUSH1 0x20 SWAP2 DUP3 DUP2 MLOAD SWAP2 ADD DUP3 DUP6 GAS CALL ISZERO PUSH2 0x71A JUMPI PUSH1 0x0 MLOAD RETURNDATASIZE PUSH2 0x49CB JUMPI POP PUSH1 0x1 PUSH1 0x1 PUSH1 0xA0 SHL SUB DUP2 AND EXTCODESIZE ISZERO JUMPDEST PUSH2 0x49A9 JUMPI POP JUMP JUMPDEST PUSH1 0x40 MLOAD PUSH4 0x5274AFE7 PUSH1 0xE0 SHL DUP2 MSTORE PUSH1 0x1 PUSH1 0x1 PUSH1 0xA0 SHL SUB SWAP1 SWAP2 AND PUSH1 0x4 DUP3 ADD MSTORE PUSH1 0x24 SWAP1 REVERT JUMPDEST PUSH1 0x1 EQ ISZERO PUSH2 0x49A2 JUMP JUMPDEST PUSH1 0xFF PUSH1 0x2 SLOAD AND PUSH2 0x49E0 JUMPI JUMP JUMPDEST PUSH1 0x40 MLOAD PUSH4 0xD93C0665 PUSH1 0xE0 SHL DUP2 MSTORE PUSH1 0x4 SWAP1 REVERT JUMPDEST PUSH1 0x2 PUSH1 0x1 SLOAD EQ PUSH2 0x4A03 JUMPI PUSH1 0x2 PUSH1 0x1 SSTORE JUMP JUMPDEST PUSH1 0x40 MLOAD PUSH4 0x3EE5AEB5 PUSH1 0xE0 SHL DUP2 MSTORE PUSH1 0x4 SWAP1 REVERT JUMPDEST ISZERO PUSH2 0x4A1C JUMPI JUMP JUMPDEST PUSH1 0x40 MLOAD PUSH3 0x461BCD PUSH1 0xE5 SHL DUP2 MSTORE PUSH1 0x20 PUSH1 0x4 DUP3 ADD MSTORE PUSH1 0x16 PUSH1 0x24 DUP3 ADD MSTORE PUSH22 0x131BDD1D195C9E48191BD95CC81B9BDD08195E1A5CDD PUSH1 0x52 SHL PUSH1 0x44 DUP3 ADD MSTORE PUSH1 0x64 SWAP1 REVERT JUMPDEST ISZERO PUSH2 0x4A61 JUMPI JUMP JUMPDEST PUSH1 0x40 MLOAD PUSH3 0x461BCD PUSH1 0xE5 SHL DUP2 MSTORE PUSH1 0x20 PUSH1 0x4 DUP3 ADD MSTORE PUSH1 0x10 PUSH1 0x24 DUP3 ADD MSTORE PUSH16 0x2637BA3A32B93C903737BA1037B832B7 PUSH1 0x81 SHL PUSH1 0x44 DUP3 ADD MSTORE PUSH1 0x64 SWAP1 REVERT JUMPDEST ISZERO PUSH2 0x4AA0 JUMPI JUMP JUMPDEST PUSH1 0x40 MLOAD PUSH3 0x461BCD PUSH1 0xE5 SHL DUP2 MSTORE PUSH1 0x20 PUSH1 0x4 DUP3 ADD MSTORE PUSH1 0x10 PUSH1 0x24 DUP3 ADD MSTORE PUSH16 0x141D5C98DA185CD95CC818DB1BDCD959 PUSH1 0x82 SHL PUSH1 0x44 DUP3 ADD MSTORE PUSH1 0x64 SWAP1 REVERT JUMPDEST DUP2 DUP2 MUL SWAP3 SWAP2 DUP2 ISZERO SWAP2 DUP5 DIV EQ OR ISZERO PUSH2 0x47A1 JUMPI JUMP JUMPDEST PUSH1 0x40 MLOAD PUSH4 0xA9059CBB PUSH1 0xE0 SHL PUSH1 0x20 DUP3 ADD MSTORE PUSH1 0x1 PUSH1 0x1 PUSH1 0xA0 SHL SUB SWAP1 SWAP3 AND PUSH1 0x24 DUP4 ADD MSTORE PUSH1 0x44 DUP1 DUP4 ADD SWAP4 SWAP1 SWAP4 MSTORE SWAP2 DUP2 MSTORE PUSH1 0x80 DUP2 ADD SWAP2 PUSH1 0x1 PUSH1 0x1 PUSH1 0x40 SHL SUB DUP4 GT DUP3 DUP5 LT OR PUSH2 0x271D JUMPI PUSH2 0x45A3 SWAP3 PUSH1 0x40 MSTORE PUSH2 0x4978 JUMP JUMPDEST SWAP2 SWAP1 DUP2 LT ISZERO PUSH2 0x36AA JUMPI PUSH1 0x5 SHL DUP2 ADD CALLDATALOAD SWAP1 PUSH1 0x7E NOT DUP2 CALLDATASIZE SUB ADD DUP3 SLT ISZERO PUSH2 0x417 JUMPI ADD SWAP1 JUMP JUMPDEST SWAP2 SWAP1 DUP2 LT ISZERO PUSH2 0x36AA JUMPI PUSH2 0x120 MUL ADD SWAP1 JUMP JUMPDEST CALLDATALOAD DUP1 ISZERO ISZERO DUP2 SUB PUSH2 0x417 JUMPI SWAP1 JUMP JUMPDEST SWAP1 PUSH2 0x4B84 DUP3 PUSH2 0x464B JUMP JUMPDEST PUSH2 0x4B91 PUSH1 0x40 MLOAD SWAP2 DUP3 PUSH2 0x4544 JUMP JUMPDEST DUP3 DUP2 MSTORE DUP1 SWAP3 PUSH2 0x4BA2 PUSH1 0x1F NOT SWAP2 PUSH2 0x464B JUMP JUMPDEST ADD SWAP1 PUSH1 0x20 CALLDATASIZE SWAP2 ADD CALLDATACOPY JUMP JUMPDEST DUP1 MLOAD DUP3 LT ISZERO PUSH2 0x36AA JUMPI PUSH1 0x20 SWAP2 PUSH1 0x5 SHL ADD ADD SWAP1 JUMP JUMPDEST SWAP1 CALLDATALOAD SWAP1 PUSH1 0x1E NOT DUP2 CALLDATASIZE SUB ADD DUP3 SLT ISZERO PUSH2 0x417 JUMPI ADD DUP1 CALLDATALOAD SWAP1 PUSH1 0x1 PUSH1 0x1 PUSH1 0x40 SHL SUB DUP3 GT PUSH2 0x417 JUMPI PUSH1 0x20 ADD SWAP2 DUP2 CALLDATASIZE SUB DUP4 SGT PUSH2 0x417 JUMPI JUMP JUMPDEST CALLDATALOAD PUSH1 0xFF DUP2 AND DUP2 SUB PUSH2 0x417 JUMPI SWAP1 JUMP JUMPDEST ISZERO PUSH2 0x4C07 JUMPI JUMP JUMPDEST PUSH1 0x40 MLOAD PUSH3 0x461BCD PUSH1 0xE5 SHL DUP2 MSTORE PUSH1 0x20 PUSH1 0x4 DUP3 ADD MSTORE PUSH1 0x9 PUSH1 0x24 DUP3 ADD MSTORE PUSH9 0x2737BA1030B236B4B7 PUSH1 0xB9 SHL PUSH1 0x44 DUP3 ADD MSTORE PUSH1 0x64 SWAP1 REVERT JUMPDEST ISZERO PUSH2 0x4C3F JUMPI JUMP JUMPDEST PUSH1 0x40 MLOAD PUSH3 0x461BCD PUSH1 0xE5 SHL DUP2 MSTORE PUSH1 0x20 PUSH1 0x4 DUP3 ADD MSTORE PUSH1 0x15 PUSH1 0x24 DUP3 ADD MSTORE PUSH21 0x15949188185B1C9958591E481C995C5D595CDD1959 PUSH1 0x5A SHL PUSH1 0x44 DUP3 ADD MSTORE PUSH1 0x64 SWAP1 REVERT JUMPDEST SWAP1 SWAP5 SWAP4 PUSH4 0xFFFFFFFF SWAP1 PUSH2 0xFFFF PUSH1 0x1 SWAP6 PUSH1 0x1 PUSH1 0x1 PUSH1 0x40 SHL SUB PUSH1 0x80 SWAP7 PUSH1 0xA0 DUP8 ADD SWAP11 DUP8 MSTORE AND PUSH1 0x20 DUP7 ADD MSTORE AND PUSH1 0x40 DUP5 ADD MSTORE AND PUSH1 0x60 DUP3 ADD MSTORE ADD MSTORE JUMP JUMPDEST SWAP2 SWAP1 DUP3 PUSH1 0x0 MSTORE PUSH1 0x7 PUSH1 0x20 MSTORE PUSH1 0xFF PUSH1 0x40 PUSH1 0x0 KECCAK256 SLOAD AND ISZERO PUSH2 0x55D3 JUMPI DUP3 PUSH1 0x0 MSTORE PUSH1 0x7 PUSH1 0x20 MSTORE PUSH1 0x40 PUSH1 0x0 KECCAK256 PUSH1 0xFF NOT DUP2 SLOAD AND SWAP1 SSTORE DUP1 MLOAD ISZERO PUSH2 0x36AA JUMPI PUSH1 0x20 ADD MLOAD SWAP2 DUP1 PUSH32 0x936FE18CF1AE151E1BC53947D9B72671FB007AE8FB2EC8AD96D98A23C8D51DC1 PUSH1 0x20 PUSH1 0x40 MLOAD DUP7 DUP2 MSTORE LOG2 DUP1 PUSH1 0x0 MSTORE PUSH1 0x5 PUSH1 0x20 MSTORE PUSH1 0x40 PUSH1 0x0 KECCAK256 SLOAD DUP1 PUSH2 0x4FAB JUMPI POP PUSH1 0x0 MSTORE PUSH1 0x6 PUSH1 0x20 MSTORE PUSH1 0x40 PUSH1 0x0 KECCAK256 SLOAD DUP1 PUSH2 0x4D46 JUMPI POP SWAP1 POP JUMP JUMPDEST SWAP2 DUP3 PUSH1 0x0 MSTORE PUSH1 0x19 PUSH1 0x20 MSTORE PUSH1 0x40 PUSH1 0x0 KECCAK256 SWAP1 DUP1 PUSH1 0xC DUP4 ADD SSTORE SWAP3 PUSH1 0x40 MLOAD SWAP1 PUSH2 0x4D6A DUP3 PUSH2 0x44F3 JUMP JUMPDEST PUSH1 0xC0 CALLDATASIZE DUP4 CALLDATACOPY PUSH1 0x0 SWAP3 JUMPDEST PUSH1 0x6 PUSH1 0xFF DUP6 AND LT ISZERO PUSH2 0x4E2D JUMPI PUSH1 0x31 DUP7 MOD SWAP6 PUSH1 0x1 DUP8 ADD DUP1 SWAP8 GT PUSH2 0x47A1 JUMPI PUSH1 0x40 MLOAD PUSH1 0x20 DUP2 ADD SWAP2 DUP3 MSTORE PUSH1 0x20 DUP2 MSTORE PUSH2 0x4DA6 DUP2 PUSH2 0x4529 JUMP JUMPDEST MLOAD SWAP1 KECCAK256 SWAP1 PUSH1 0x0 SWAP6 PUSH1 0x0 JUMPDEST PUSH1 0xFF DUP2 AND PUSH1 0xFF DUP9 AND DUP2 LT ISZERO PUSH2 0x4E20 JUMPI PUSH1 0xFF PUSH2 0x4DCE DUP2 DUP13 AND SWAP3 DUP10 PUSH2 0x56B3 JUMP JUMPDEST MLOAD AND EQ PUSH2 0x4DE3 JUMPI PUSH2 0x4DDE SWAP1 PUSH2 0x56A2 JUMP JUMPDEST PUSH2 0x4DB0 JUMP JUMPDEST POP SWAP3 SWAP2 SWAP7 SWAP1 SWAP4 SWAP6 POP PUSH1 0x1 JUMPDEST ISZERO PUSH2 0x4DFD JUMPI JUMPDEST POP SWAP1 SWAP4 SWAP2 PUSH2 0x4D73 JUMP JUMPDEST SWAP4 PUSH1 0xFF PUSH2 0x4E19 SWAP3 SWAP6 AND PUSH2 0x4E13 PUSH1 0xFF DUP4 AND DUP9 PUSH2 0x56B3 JUMP JUMPDEST MSTORE PUSH2 0x56A2 JUMP JUMPDEST SWAP3 CODESIZE PUSH2 0x4DF4 JUMP JUMPDEST POP POP SWAP3 SWAP2 SWAP7 SWAP1 SWAP4 SWAP6 PUSH2 0x4DEE JUMP JUMPDEST PUSH1 0x0 SWAP6 SWAP3 SWAP5 SWAP3 SWAP4 POP JUMPDEST PUSH1 0xFF DUP7 AND SWAP4 PUSH1 0x5 DUP6 LT ISZERO PUSH2 0x4ED8 JUMPI PUSH2 0x4E4D DUP8 PUSH2 0x56C4 JUMP JUMPDEST PUSH1 0xFF DUP2 AND PUSH1 0x6 DUP2 LT ISZERO PUSH2 0x4EC4 JUMPI SWAP1 PUSH2 0x4E87 SWAP2 PUSH1 0xFF PUSH2 0x4E6B DUP10 DUP12 PUSH2 0x56B3 JUMP JUMPDEST MLOAD AND PUSH1 0xFF PUSH2 0x4E79 DUP4 DUP13 PUSH2 0x56B3 JUMP JUMPDEST MLOAD AND LT PUSH2 0x4E8C JUMPI JUMPDEST POP PUSH2 0x56A2 JUMP JUMPDEST PUSH2 0x4E4D JUMP JUMPDEST PUSH2 0x4EBD PUSH1 0xFF PUSH2 0x4E9B DUP11 DUP13 PUSH2 0x56B3 JUMP JUMPDEST MLOAD AND SWAP2 PUSH1 0xFF PUSH2 0x4EAA DUP3 DUP14 PUSH2 0x56B3 JUMP JUMPDEST MLOAD AND PUSH2 0x4EB6 DUP12 DUP14 PUSH2 0x56B3 JUMP JUMPDEST MSTORE DUP11 PUSH2 0x56B3 JUMP JUMPDEST MSTORE CODESIZE PUSH2 0x4E81 JUMP JUMPDEST POP POP SWAP4 POP SWAP5 PUSH2 0x4ED2 SWAP1 PUSH2 0x56A2 JUMP JUMPDEST SWAP5 PUSH2 0x4E36 JUMP JUMPDEST PUSH1 0xA SWAP2 SWAP4 SWAP7 POP PUSH1 0xFF SWAP3 SWAP6 SWAP5 POP MOD AND SWAP1 DUP3 PUSH1 0x0 SWAP1 PUSH1 0x0 JUMPDEST PUSH1 0x6 DUP2 LT PUSH2 0x4F7D JUMPI POP POP SWAP1 PUSH1 0x3 SWAP2 PUSH1 0x4 DUP3 ADD SSTORE PUSH1 0x5 DUP2 ADD DUP4 PUSH1 0xFF NOT DUP3 SLOAD AND OR SWAP1 SSTORE PUSH1 0x1D SLOAD PUSH1 0x6 DUP3 ADD SSTORE ADD PUSH1 0x4 PUSH1 0xFF NOT DUP3 SLOAD AND OR SWAP1 SSTORE PUSH1 0x40 MLOAD SWAP2 DUP3 PUSH1 0x0 SWAP1 JUMPDEST PUSH1 0x6 DUP3 LT PUSH2 0x4F64 JUMPI POP POP POP DUP2 PUSH1 0xE0 SWAP2 PUSH1 0xC0 PUSH32 0x660EB7E74391DF8C47658E512CFCA513F8AB5A3F1E191FFC960552BF229FE03 SWAP5 ADD MSTORE LOG2 JUMP JUMPDEST PUSH1 0x20 DUP1 PUSH1 0x1 SWAP3 PUSH1 0xFF DUP7 MLOAD AND DUP2 MSTORE ADD SWAP4 ADD SWAP2 ADD SWAP1 SWAP2 PUSH2 0x4F2C JUMP JUMPDEST SWAP1 SWAP2 PUSH1 0x20 PUSH2 0x4FA2 PUSH1 0x1 SWAP3 DUP5 PUSH1 0xFF DUP8 MLOAD AND SWAP2 SWAP1 PUSH1 0xFF DUP1 SWAP2 PUSH1 0x3 SHL SWAP4 AND DUP4 SHL SWAP3 SHL NOT AND OR SWAP1 JUMP JUMPDEST SWAP4 ADD SWAP2 ADD PUSH2 0x4EEE JUMP JUMPDEST DUP1 SWAP2 POP PUSH1 0x0 MSTORE PUSH1 0x15 PUSH1 0x20 MSTORE PUSH1 0x40 PUSH1 0x0 KECCAK256 SWAP3 DUP1 PUSH1 0xB DUP6 ADD SSTORE PUSH1 0x64 DUP2 MOD PUSH1 0x40 MLOAD SWAP1 PUSH2 0x4FD3 DUP3 PUSH2 0x4529 JUMP JUMPDEST PUSH1 0x2 DUP3 MSTORE PUSH1 0x20 DUP3 ADD SWAP1 PUSH1 0x20 CALLDATASIZE DUP4 CALLDATACOPY PUSH1 0xA DUP2 DIV PUSH1 0x30 ADD SWAP2 DUP3 PUSH1 0x30 GT PUSH2 0x47A1 JUMPI DUP4 MLOAD ISZERO PUSH2 0x36AA JUMPI PUSH1 0xA SWAP3 PUSH1 0xF8 SHL PUSH1 0x1 PUSH1 0x1 PUSH1 0xF8 SHL SUB NOT AND PUSH1 0x0 BYTE SWAP1 MSTORE8 MOD PUSH1 0x30 ADD DUP1 PUSH1 0x30 GT PUSH2 0x47A1 JUMPI DUP2 MLOAD PUSH1 0x1 LT ISZERO PUSH2 0x36AA JUMPI PUSH1 0xF8 SHL PUSH1 0x1 PUSH1 0x1 PUSH1 0xF8 SHL SUB NOT AND PUSH1 0x0 BYTE PUSH1 0x21 DUP3 ADD MSTORE8 DUP1 MLOAD SWAP1 PUSH1 0x1 PUSH1 0x1 PUSH1 0x40 SHL SUB DUP3 GT PUSH2 0x271D JUMPI DUP2 SWAP1 PUSH2 0x5058 PUSH1 0x4 DUP9 ADD SLOAD PUSH2 0x4467 JUMP JUMPDEST PUSH1 0x1F DUP2 GT PUSH2 0x559E JUMPI JUMPDEST POP PUSH1 0x20 SWAP1 PUSH1 0x1F DUP4 GT PUSH1 0x1 EQ PUSH2 0x552C JUMPI PUSH1 0x0 SWAP3 PUSH2 0x5521 JUMPI JUMPDEST POP POP DUP2 PUSH1 0x1 SHL SWAP2 PUSH1 0x0 NOT SWAP1 PUSH1 0x3 SHL SHR NOT AND OR PUSH1 0x4 DUP6 ADD SSTORE JUMPDEST PUSH1 0x40 MLOAD PUSH1 0x20 DUP2 ADD SWAP2 DUP3 MSTORE PUSH1 0x20 DUP2 MSTORE PUSH2 0x50A7 DUP2 PUSH2 0x4529 JUMP JUMPDEST MLOAD SWAP1 KECCAK256 PUSH1 0x40 MLOAD PUSH2 0x50B6 DUP2 PUSH2 0x4529 JUMP JUMPDEST PUSH1 0x3 DUP2 MSTORE PUSH1 0x20 CALLDATASIZE DUP2 DUP4 ADD CALLDATACOPY PUSH1 0x64 PUSH2 0x3E8 DUP4 MOD DIV PUSH1 0x30 ADD PUSH1 0x30 GT PUSH2 0x47A1 JUMPI DUP1 MLOAD ISZERO PUSH2 0x36AA JUMPI PUSH1 0x30 PUSH1 0x64 PUSH2 0x3E8 DUP5 MOD DIV ADD PUSH1 0xF8 SHL PUSH1 0x1 PUSH1 0x1 PUSH1 0xF8 SHL SUB NOT AND PUSH1 0x0 BYTE PUSH1 0x20 DUP3 ADD MSTORE8 PUSH1 0xA DUP1 PUSH2 0x3E8 DUP5 MOD DIV MOD PUSH1 0x30 ADD DUP1 PUSH1 0x30 GT PUSH2 0x47A1 JUMPI DUP2 MLOAD PUSH1 0x1 LT ISZERO PUSH2 0x36AA JUMPI PUSH1 0xF8 SHL PUSH1 0x1 PUSH1 0x1 PUSH1 0xF8 SHL SUB NOT AND PUSH1 0x0 BYTE PUSH1 0x21 DUP3 ADD MSTORE8 PUSH1 0xA PUSH2 0x3E8 DUP4 MOD MOD PUSH1 0x30 ADD DUP1 PUSH1 0x30 GT PUSH2 0x47A1 JUMPI DUP2 MLOAD PUSH1 0x2 LT ISZERO PUSH2 0x36AA JUMPI PUSH1 0xF8 SHL PUSH1 0x1 PUSH1 0x1 PUSH1 0xF8 SHL SUB NOT AND PUSH1 0x0 BYTE PUSH1 0x22 DUP3 ADD MSTORE8 DUP1 MLOAD SWAP1 PUSH1 0x1 PUSH1 0x1 PUSH1 0x40 SHL SUB DUP3 GT PUSH2 0x271D JUMPI PUSH2 0x517E PUSH1 0x5 DUP8 ADD SLOAD PUSH2 0x4467 JUMP JUMPDEST PUSH1 0x1F DUP2 GT PUSH2 0x54EC JUMPI JUMPDEST POP PUSH1 0x20 SWAP1 PUSH1 0x1F DUP4 GT PUSH1 0x1 EQ PUSH2 0x5478 JUMPI PUSH2 0x2710 SWAP4 SWAP3 SWAP2 PUSH1 0x0 SWAP2 DUP4 PUSH2 0x546D JUMPI JUMPDEST POP POP DUP2 PUSH1 0x1 SHL SWAP2 PUSH1 0x0 NOT SWAP1 PUSH1 0x3 SHL SHR NOT AND OR PUSH1 0x5 DUP7 ADD SSTORE JUMPDEST PUSH1 0x40 MLOAD PUSH1 0x20 DUP2 ADD SWAP2 DUP3 MSTORE PUSH1 0x20 DUP2 MSTORE PUSH2 0x51D4 DUP2 PUSH2 0x4529 JUMP JUMPDEST MLOAD SWAP1 KECCAK256 MOD SWAP3 PUSH1 0x40 MLOAD SWAP4 PUSH2 0x51E6 DUP6 PUSH2 0x4529 JUMP JUMPDEST PUSH1 0x4 DUP6 MSTORE PUSH1 0x20 DUP6 ADD PUSH1 0x20 CALLDATASIZE DUP3 CALLDATACOPY PUSH2 0x3E8 DUP3 DIV PUSH1 0x30 ADD DUP1 PUSH1 0x30 GT PUSH2 0x47A1 JUMPI DUP7 MLOAD ISZERO PUSH2 0x36AA JUMPI PUSH1 0xF8 SHL PUSH1 0x1 PUSH1 0x1 PUSH1 0xF8 SHL SUB NOT AND PUSH1 0x0 BYTE SWAP1 MSTORE8 PUSH1 0xA PUSH1 0x64 DUP3 DIV MOD PUSH1 0x30 ADD DUP1 PUSH1 0x30 GT PUSH2 0x47A1 JUMPI DUP6 MLOAD PUSH1 0x1 LT ISZERO PUSH2 0x36AA JUMPI PUSH1 0xF8 SHL PUSH1 0x1 PUSH1 0x1 PUSH1 0xF8 SHL SUB NOT AND PUSH1 0x0 BYTE PUSH1 0x21 DUP7 ADD MSTORE8 PUSH1 0xA DUP1 DUP3 DIV MOD PUSH1 0x30 ADD SWAP1 DUP2 PUSH1 0x30 GT PUSH2 0x47A1 JUMPI DUP6 MLOAD PUSH1 0x2 LT ISZERO PUSH2 0x36AA JUMPI PUSH1 0xA SWAP2 PUSH1 0xF8 SHL PUSH1 0x1 PUSH1 0x1 PUSH1 0xF8 SHL SUB NOT AND PUSH1 0x0 BYTE PUSH1 0x22 DUP8 ADD MSTORE8 MOD PUSH1 0x30 ADD DUP1 PUSH1 0x30 GT PUSH2 0x47A1 JUMPI DUP5 MLOAD PUSH1 0x3 LT ISZERO PUSH2 0x36AA JUMPI PUSH1 0xF8 SHL PUSH1 0x1 PUSH1 0x1 PUSH1 0xF8 SHL SUB NOT AND PUSH1 0x0 BYTE PUSH1 0x23 DUP6 ADD MSTORE8 DUP4 MLOAD PUSH1 0x1 PUSH1 0x1 PUSH1 0x40 SHL SUB DUP2 GT PUSH2 0x271D JUMPI PUSH2 0x52C9 PUSH1 0x6 DUP4 ADD SLOAD PUSH2 0x4467 JUMP JUMPDEST PUSH1 0x1F DUP2 GT PUSH2 0x5438 JUMPI JUMPDEST POP PUSH1 0x20 PUSH1 0x1F DUP3 GT PUSH1 0x1 EQ PUSH2 0x53A2 JUMPI SWAP2 DUP2 PUSH2 0x5379 SWAP3 PUSH32 0x4CAB5E734EBEF082A0255B7313875FE2004541B62282A13FB40201E6D55A70B8 SWAP5 DUP7 SWAP8 SWAP9 PUSH1 0x0 SWAP3 PUSH2 0x5397 JUMPI JUMPDEST POP POP DUP2 PUSH1 0x1 SHL SWAP2 PUSH1 0x0 NOT SWAP1 PUSH1 0x3 SHL SHR NOT AND OR PUSH1 0x6 DUP3 ADD SSTORE JUMPDEST PUSH1 0x3 DUP2 ADD PUSH1 0x4 PUSH1 0xFF NOT DUP3 SLOAD AND OR SWAP1 SSTORE PUSH1 0x40 MLOAD SWAP2 DUP3 SWAP2 PUSH1 0x60 DUP4 MSTORE PUSH1 0x6 PUSH2 0x536A PUSH2 0x5359 PUSH1 0x60 DUP7 ADD PUSH1 0x4 DUP6 ADD PUSH2 0x560C JUMP JUMPDEST DUP6 DUP2 SUB PUSH1 0x20 DUP8 ADD MSTORE PUSH1 0x5 DUP5 ADD PUSH2 0x560C JUMP JUMPDEST SWAP2 DUP5 DUP4 SUB PUSH1 0x40 DUP7 ADD MSTORE ADD PUSH2 0x560C JUMP JUMPDEST SUB SWAP1 LOG2 PUSH1 0x0 DUP1 MLOAD PUSH1 0x20 PUSH2 0x5CD5 DUP4 CODECOPY DUP2 MLOAD SWAP2 MSTORE PUSH1 0x20 PUSH1 0x40 MLOAD PUSH1 0x4 DUP2 MSTORE LOG2 JUMP JUMPDEST ADD MLOAD SWAP1 POP CODESIZE DUP1 PUSH2 0x5313 JUMP JUMPDEST PUSH1 0x6 DUP4 ADD PUSH1 0x0 MSTORE PUSH1 0x20 PUSH1 0x0 KECCAK256 SWAP6 PUSH1 0x0 JUMPDEST PUSH1 0x1F NOT DUP5 AND DUP2 LT PUSH2 0x5420 JUMPI POP DUP3 DUP6 SWAP7 SWAP8 PUSH32 0x4CAB5E734EBEF082A0255B7313875FE2004541B62282A13FB40201E6D55A70B8 SWAP6 SWAP4 PUSH1 0x1 SWAP4 PUSH2 0x5379 SWAP7 PUSH1 0x1F NOT DUP2 AND LT PUSH2 0x5407 JUMPI JUMPDEST POP POP POP DUP2 SHL ADD PUSH1 0x6 DUP3 ADD SSTORE PUSH2 0x532B JUMP JUMPDEST ADD MLOAD PUSH1 0x0 NOT PUSH1 0xF8 DUP5 PUSH1 0x3 SHL AND SHR NOT AND SWAP1 SSTORE CODESIZE DUP1 DUP1 PUSH2 0x53F7 JUMP JUMPDEST DUP3 DUP3 ADD MLOAD DUP9 SSTORE PUSH1 0x1 SWAP1 SWAP8 ADD SWAP7 PUSH1 0x20 SWAP3 DUP4 ADD SWAP3 ADD PUSH2 0x53B2 JUMP JUMPDEST PUSH2 0x5467 SWAP1 PUSH1 0x6 DUP5 ADD PUSH1 0x0 MSTORE PUSH1 0x20 PUSH1 0x0 KECCAK256 PUSH1 0x1F DUP5 ADD PUSH1 0x5 SHR DUP2 ADD SWAP2 PUSH1 0x20 DUP6 LT PUSH2 0x2713 JUMPI PUSH1 0x1F ADD PUSH1 0x5 SHR ADD SWAP1 PUSH2 0x4892 JUMP JUMPDEST CODESIZE PUSH2 0x52D2 JUMP JUMPDEST ADD MLOAD SWAP1 POP CODESIZE DUP1 PUSH2 0x51A5 JUMP JUMPDEST SWAP1 PUSH1 0x5 DUP8 ADD PUSH1 0x0 MSTORE PUSH1 0x20 PUSH1 0x0 KECCAK256 SWAP2 PUSH1 0x0 JUMPDEST PUSH1 0x1F NOT DUP6 AND DUP2 LT PUSH2 0x54D4 JUMPI POP SWAP2 DUP4 SWAP2 PUSH1 0x1 SWAP4 PUSH2 0x2710 SWAP7 SWAP6 PUSH1 0x1F NOT DUP2 AND LT PUSH2 0x54BB JUMPI JUMPDEST POP POP POP DUP2 SHL ADD PUSH1 0x5 DUP7 ADD SSTORE PUSH2 0x51BD JUMP JUMPDEST ADD MLOAD PUSH1 0x0 NOT PUSH1 0xF8 DUP5 PUSH1 0x3 SHL AND SHR NOT AND SWAP1 SSTORE CODESIZE DUP1 DUP1 PUSH2 0x54AB JUMP JUMPDEST SWAP2 SWAP3 PUSH1 0x20 PUSH1 0x1 DUP2 SWAP3 DUP7 DUP6 ADD MLOAD DUP2 SSTORE ADD SWAP5 ADD SWAP3 ADD PUSH2 0x5489 JUMP JUMPDEST PUSH2 0x551B SWAP1 PUSH1 0x5 DUP9 ADD PUSH1 0x0 MSTORE PUSH1 0x20 PUSH1 0x0 KECCAK256 PUSH1 0x1F DUP6 ADD PUSH1 0x5 SHR DUP2 ADD SWAP2 PUSH1 0x20 DUP7 LT PUSH2 0x2713 JUMPI PUSH1 0x1F ADD PUSH1 0x5 SHR ADD SWAP1 PUSH2 0x4892 JUMP JUMPDEST CODESIZE PUSH2 0x5187 JUMP JUMPDEST ADD MLOAD SWAP1 POP CODESIZE DUP1 PUSH2 0x5078 JUMP JUMPDEST SWAP3 POP PUSH1 0x4 DUP8 ADD PUSH1 0x0 MSTORE PUSH1 0x20 PUSH1 0x0 KECCAK256 SWAP1 PUSH1 0x0 SWAP4 JUMPDEST PUSH1 0x1F NOT DUP5 AND DUP6 LT PUSH2 0x5583 JUMPI PUSH1 0x1 SWAP5 POP DUP4 PUSH1 0x1F NOT DUP2 AND LT PUSH2 0x556A JUMPI JUMPDEST POP POP POP DUP2 SHL ADD PUSH1 0x4 DUP6 ADD SSTORE PUSH2 0x5090 JUMP JUMPDEST ADD MLOAD PUSH1 0x0 NOT PUSH1 0xF8 DUP5 PUSH1 0x3 SHL AND SHR NOT AND SWAP1 SSTORE CODESIZE DUP1 DUP1 PUSH2 0x555A JUMP JUMPDEST DUP2 DUP2 ADD MLOAD DUP4 SSTORE PUSH1 0x20 SWAP5 DUP6 ADD SWAP5 PUSH1 0x1 SWAP1 SWAP4 ADD SWAP3 SWAP1 SWAP2 ADD SWAP1 PUSH2 0x553F JUMP JUMPDEST PUSH2 0x55CD SWAP1 PUSH1 0x4 DUP10 ADD PUSH1 0x0 MSTORE PUSH1 0x20 PUSH1 0x0 KECCAK256 PUSH1 0x1F DUP6 ADD PUSH1 0x5 SHR DUP2 ADD SWAP2 PUSH1 0x20 DUP7 LT PUSH2 0x2713 JUMPI PUSH1 0x1F ADD PUSH1 0x5 SHR ADD SWAP1 PUSH2 0x4892 JUMP JUMPDEST CODESIZE PUSH2 0x5061 JUMP JUMPDEST PUSH1 0x40 MLOAD PUSH3 0x461BCD PUSH1 0xE5 SHL DUP2 MSTORE PUSH1 0x20 PUSH1 0x4 DUP3 ADD MSTORE PUSH1 0x11 PUSH1 0x24 DUP3 ADD MSTORE PUSH17 0x14995C5D595CDD081B9BDD08199BDD5B99 PUSH1 0x7A SHL PUSH1 0x44 DUP3 ADD MSTORE PUSH1 0x64 SWAP1 REVERT JUMPDEST SWAP1 PUSH1 0x0 SWAP3 SWAP2 DUP1 SLOAD SWAP2 PUSH2 0x561D DUP4 PUSH2 0x4467 JUMP JUMPDEST SWAP2 DUP3 DUP3 MSTORE PUSH1 0x1 SWAP4 DUP5 DUP2 AND SWAP1 DUP2 PUSH1 0x0 EQ PUSH2 0x567F JUMPI POP PUSH1 0x1 EQ PUSH2 0x563F JUMPI JUMPDEST POP POP POP POP JUMP JUMPDEST SWAP1 SWAP2 SWAP4 SWAP5 POP PUSH1 0x0 MSTORE PUSH1 0x20 SWAP3 DUP4 PUSH1 0x0 KECCAK256 SWAP3 DUP5 PUSH1 0x0 SWAP5 JUMPDEST DUP4 DUP7 LT PUSH2 0x566B JUMPI POP POP POP POP ADD ADD SWAP1 CODESIZE DUP1 DUP1 DUP1 PUSH2 0x5639 JUMP JUMPDEST DUP1 SLOAD DUP6 DUP8 ADD DUP4 ADD MSTORE SWAP5 ADD SWAP4 DUP6 SWAP1 DUP3 ADD PUSH2 0x5654 JUMP JUMPDEST SWAP3 SWAP5 POP POP POP PUSH1 0x20 SWAP4 SWAP5 POP PUSH1 0xFF NOT AND DUP4 DUP4 ADD MSTORE ISZERO ISZERO PUSH1 0x5 SHL ADD ADD SWAP1 CODESIZE DUP1 DUP1 DUP1 PUSH2 0x5639 JUMP JUMPDEST PUSH1 0xFF AND PUSH1 0xFF DUP2 EQ PUSH2 0x47A1 JUMPI PUSH1 0x1 ADD SWAP1 JUMP JUMPDEST SWAP1 PUSH1 0x6 DUP2 LT ISZERO PUSH2 0x36AA JUMPI PUSH1 0x5 SHL ADD SWAP1 JUMP JUMPDEST PUSH1 0xFF PUSH1 0x1 SWAP2 AND ADD SWAP1 PUSH1 0xFF DUP3 GT PUSH2 0x47A1 JUMPI JUMP JUMPDEST ISZERO PUSH2 0x56DD JUMPI JUMP JUMPDEST PUSH1 0x40 MLOAD PUSH3 0x461BCD PUSH1 0xE5 SHL DUP2 MSTORE PUSH1 0x20 PUSH1 0x4 DUP3 ADD MSTORE PUSH1 0xF PUSH1 0x24 DUP3 ADD MSTORE PUSH15 0x105B1C9958591E4818DB185A5B5959 PUSH1 0x8A SHL PUSH1 0x44 DUP3 ADD MSTORE PUSH1 0x64 SWAP1 REVERT JUMPDEST ISZERO PUSH2 0x571B JUMPI JUMP JUMPDEST PUSH1 0x40 MLOAD PUSH3 0x461BCD PUSH1 0xE5 SHL DUP2 MSTORE PUSH1 0x20 PUSH1 0x4 DUP3 ADD MSTORE PUSH1 0xE PUSH1 0x24 DUP3 ADD MSTORE PUSH14 0x4D75737420626520667574757265 PUSH1 0x90 SHL PUSH1 0x44 DUP3 ADD MSTORE PUSH1 0x64 SWAP1 REVERT JUMPDEST ISZERO PUSH2 0x5758 JUMPI JUMP JUMPDEST PUSH1 0x40 MLOAD PUSH3 0x461BCD PUSH1 0xE5 SHL DUP2 MSTORE PUSH1 0x20 PUSH1 0x4 DUP3 ADD MSTORE PUSH1 0x8 PUSH1 0x24 DUP3 ADD MSTORE PUSH8 0x2737BA1037B832B7 PUSH1 0xC1 SHL PUSH1 0x44 DUP3 ADD MSTORE PUSH1 0x64 SWAP1 REVERT JUMPDEST SWAP1 DUP2 MLOAD DUP2 LT ISZERO PUSH2 0x36AA JUMPI ADD PUSH1 0x20 ADD SWAP1 JUMP JUMPDEST SWAP2 SWAP1 PUSH2 0x57A6 SWAP2 CALLDATASIZE SWAP2 PUSH2 0x484C JUMP JUMPDEST SWAP1 PUSH1 0x3 DUP2 LT ISZERO PUSH2 0x148E JUMPI DUP1 PUSH2 0x588C JUMPI POP PUSH1 0x2 DUP2 MLOAD SUB PUSH2 0x5856 JUMPI JUMPDEST PUSH1 0x0 JUMPDEST DUP2 MLOAD DUP2 LT ISZERO PUSH2 0x5852 JUMPI PUSH1 0x1 PUSH1 0x1 PUSH1 0xF8 SHL SUB NOT PUSH1 0x3 PUSH1 0xFC SHL DUP2 PUSH2 0x57E5 DUP5 DUP7 PUSH2 0x5788 JUMP JUMPDEST MLOAD AND LT ISZERO SWAP1 DUP2 PUSH2 0x5837 JUMPI JUMPDEST POP ISZERO PUSH2 0x5804 JUMPI PUSH2 0x57FF SWAP1 PUSH2 0x4831 JUMP JUMPDEST PUSH2 0x57C3 JUMP JUMPDEST PUSH1 0x40 MLOAD PUSH3 0x461BCD PUSH1 0xE5 SHL DUP2 MSTORE PUSH1 0x20 PUSH1 0x4 DUP3 ADD MSTORE PUSH1 0xB PUSH1 0x24 DUP3 ADD MSTORE PUSH11 0x4F6E6C7920646967697473 PUSH1 0xA8 SHL PUSH1 0x44 DUP3 ADD MSTORE PUSH1 0x64 SWAP1 REVERT JUMPDEST PUSH1 0x39 PUSH1 0xF8 SHL SWAP2 POP PUSH2 0x5848 DUP4 DUP6 PUSH2 0x5788 JUMP JUMPDEST MLOAD AND GT ISZERO CODESIZE PUSH2 0x57F0 JUMP JUMPDEST POP POP JUMP JUMPDEST PUSH1 0x40 MLOAD PUSH3 0x461BCD PUSH1 0xE5 SHL DUP2 MSTORE PUSH1 0x20 PUSH1 0x4 DUP3 ADD MSTORE PUSH1 0xE PUSH1 0x24 DUP3 ADD MSTORE PUSH14 0x46696A6F3A203220646967697473 PUSH1 0x90 SHL PUSH1 0x44 DUP3 ADD MSTORE PUSH1 0x64 SWAP1 REVERT JUMPDEST PUSH1 0x1 SUB PUSH2 0x58D6 JUMPI PUSH1 0x3 DUP2 MLOAD SUB ISZERO PUSH2 0x57C0 JUMPI PUSH1 0x40 MLOAD PUSH3 0x461BCD PUSH1 0xE5 SHL DUP2 MSTORE PUSH1 0x20 PUSH1 0x4 DUP3 ADD MSTORE PUSH1 0x11 PUSH1 0x24 DUP3 ADD MSTORE PUSH17 0x43656E74656E613A203320646967697473 PUSH1 0x78 SHL PUSH1 0x44 DUP3 ADD MSTORE PUSH1 0x64 SWAP1 REVERT JUMPDEST PUSH1 0x4 DUP2 MLOAD SUB ISZERO PUSH2 0x57C0 JUMPI PUSH1 0x40 MLOAD PUSH3 0x461BCD PUSH1 0xE5 SHL DUP2 MSTORE PUSH1 0x20 PUSH1 0x4 DUP3 ADD MSTORE PUSH1 0xF PUSH1 0x24 DUP3 ADD MSTORE PUSH15 0x5061726C653A203420646967697473 PUSH1 0x88 SHL PUSH1 0x44 DUP3 ADD MSTORE PUSH1 0x64 SWAP1 REVERT JUMPDEST PUSH1 0x2 DUP2 ADD SLOAD PUSH1 0xFF AND PUSH1 0x0 PUSH1 0x3 DUP3 LT ISZERO PUSH2 0x59B5 JUMPI POP DUP1 PUSH2 0x598B JUMPI POP PUSH2 0x5940 PUSH1 0x4 PUSH1 0xE SLOAD SWAP4 ADD PUSH2 0x4565 JUMP JUMPDEST PUSH1 0x40 MLOAD PUSH2 0x595B DUP2 PUSH2 0x5954 DUP2 PUSH1 0x3 DUP8 ADD PUSH2 0x560C JUMP JUMPDEST SUB DUP3 PUSH2 0x4544 JUMP JUMPDEST PUSH1 0x20 DUP2 MLOAD SWAP2 ADD KECCAK256 SWAP1 PUSH1 0x20 DUP2 MLOAD SWAP2 ADD KECCAK256 EQ PUSH2 0x5976 JUMPI POP POP PUSH1 0x0 SWAP1 JUMP JUMPDEST PUSH2 0x2710 SWAP2 PUSH1 0x4 PUSH2 0x5987 SWAP3 ADD SLOAD PUSH2 0x4AD8 JUMP JUMPDEST DIV SWAP1 JUMP JUMPDEST PUSH1 0x1 SUB PUSH2 0x59A6 JUMPI PUSH2 0x59A1 PUSH1 0x5 PUSH1 0xF SLOAD SWAP4 ADD PUSH2 0x4565 JUMP JUMPDEST PUSH2 0x5940 JUMP JUMPDEST PUSH2 0x59A1 PUSH1 0x6 PUSH1 0x10 SLOAD SWAP4 ADD PUSH2 0x4565 JUMP JUMPDEST PUSH4 0x4E487B71 PUSH1 0xE0 SHL DUP2 MSTORE PUSH1 0x21 PUSH1 0x4 MSTORE PUSH1 0x24 SWAP1 REVERT JUMPDEST SWAP1 SWAP2 SWAP1 PUSH1 0x0 SWAP1 PUSH1 0x4 DUP5 ADD PUSH1 0x2 DUP3 ADD DUP4 JUMPDEST PUSH1 0x6 PUSH1 0xFF DUP2 DUP2 DUP5 AND LT ISZERO PUSH2 0x5A58 JUMPI PUSH1 0x0 JUMPDEST DUP3 DUP3 DUP3 AND LT PUSH2 0x5A05 JUMPI JUMPDEST POP POP POP PUSH2 0x5A00 SWAP1 PUSH2 0x56A2 JUMP JUMPDEST PUSH2 0x59D9 JUMP JUMPDEST DUP2 DUP1 PUSH2 0x5A11 DUP7 DUP9 PUSH2 0x5B43 JUMP JUMPDEST SWAP1 SLOAD SWAP1 PUSH2 0x5A1E DUP6 DUP12 PUSH2 0x5B43 JUMP JUMPDEST SWAP5 SWAP1 SLOAD PUSH1 0x3 SWAP6 DUP7 SHL SHR AND SWAP4 SHL SHR AND EQ PUSH2 0x5A3F JUMPI PUSH2 0x5A3A SWAP1 PUSH2 0x56A2 JUMP JUMPDEST PUSH2 0x59EA JUMP JUMPDEST POP POP POP SWAP4 PUSH2 0x5A4F PUSH2 0x5A00 SWAP2 PUSH2 0x56A2 JUMP JUMPDEST SWAP5 SWAP1 CODESIZE DUP1 PUSH2 0x59F4 JUMP JUMPDEST POP POP POP POP POP PUSH1 0xFF PUSH1 0x3 DUP2 SWAP3 SWAP6 SWAP4 SWAP5 SWAP6 ADD SLOAD AND DUP2 PUSH1 0x5 DUP5 ADD SLOAD AND EQ SWAP3 AND SWAP1 PUSH1 0x6 DUP3 EQ SWAP1 DUP2 DUP1 SWAP3 PUSH2 0x5B3C JUMPI JUMPDEST PUSH2 0x5B2D JUMPI POP PUSH2 0x5B23 JUMPI PUSH1 0x5 DUP2 EQ DUP1 DUP1 PUSH2 0x5B1C JUMPI JUMPDEST PUSH2 0x5B0F JUMPI PUSH2 0x5B05 JUMPI PUSH1 0x4 DUP2 EQ DUP1 DUP1 PUSH2 0x5AFE JUMPI JUMPDEST PUSH2 0x5AF1 JUMPI PUSH2 0x5AE7 JUMPI PUSH1 0x3 EQ DUP1 SWAP2 DUP2 SWAP3 PUSH2 0x5ADF JUMPI JUMPDEST POP PUSH2 0x5AD6 JUMPI PUSH2 0x5ACE JUMPI PUSH1 0x0 SWAP1 PUSH1 0x0 SWAP1 JUMP JUMPDEST PUSH1 0x28 SLOAD PUSH1 0x8 SWAP2 JUMP JUMPDEST POP PUSH1 0x27 SLOAD PUSH1 0x7 SWAP2 JUMP JUMPDEST SWAP1 POP CODESIZE PUSH2 0x5ABD JUMP JUMPDEST POP POP PUSH1 0x26 SLOAD PUSH1 0x6 SWAP2 JUMP JUMPDEST POP POP POP PUSH1 0x25 SLOAD SWAP1 PUSH1 0x5 SWAP2 SWAP1 JUMP JUMPDEST POP DUP3 PUSH2 0x5AA9 JUMP JUMPDEST POP POP PUSH1 0x24 SLOAD PUSH1 0x4 SWAP2 JUMP JUMPDEST POP POP POP PUSH1 0x23 SLOAD SWAP1 PUSH1 0x3 SWAP2 SWAP1 JUMP JUMPDEST POP DUP3 PUSH2 0x5A96 JUMP JUMPDEST POP POP PUSH1 0x22 SLOAD PUSH1 0x2 SWAP2 JUMP JUMPDEST PUSH1 0x6 ADD SLOAD PUSH1 0x1 SWAP5 SWAP1 SWAP4 POP SWAP2 POP POP JUMP JUMPDEST POP DUP4 PUSH2 0x5A82 JUMP JUMPDEST SWAP2 SWAP1 SWAP2 PUSH1 0x6 DUP4 LT ISZERO PUSH2 0x36AA JUMPI PUSH1 0x1F SWAP1 DUP4 PUSH1 0x5 SHR ADD SWAP3 AND SWAP1 JUMP JUMPDEST PUSH1 0x1 PUSH1 0x1 PUSH1 0xA0 SHL SUB SWAP1 DUP2 AND PUSH1 0x0 DUP2 DUP2 MSTORE PUSH1 0x32 PUSH1 0x20 MSTORE PUSH1 0x40 DUP2 KECCAK256 SLOAD SWAP2 SWAP4 SWAP2 SWAP1 SWAP3 AND SWAP2 SWAP1 DUP3 ISZERO ISZERO DUP1 PUSH2 0x5C0B JUMPI JUMPDEST PUSH2 0x5B91 JUMPI POP POP POP POP JUMP JUMPDEST PUSH32 0xA6D05371A3DAEC878BF8C7ED5A16DBC19F0595497358C6BEACF4C90478F1A74B SWAP2 PUSH1 0x2 PUSH1 0x40 PUSH2 0x2710 PUSH2 0x5BC9 PUSH1 0x20 SWAP6 PUSH1 0x31 SLOAD SWAP1 PUSH2 0x4AD8 JUMP JUMPDEST DIV SWAP3 DUP7 DUP2 MSTORE PUSH1 0x32 DUP6 MSTORE PUSH1 0x3 DUP3 DUP3 KECCAK256 ADD PUSH2 0x5BE3 DUP6 DUP3 SLOAD PUSH2 0x48DE JUMP JUMPDEST SWAP1 SSTORE DUP7 DUP2 MSTORE PUSH1 0x32 DUP6 MSTORE KECCAK256 ADD PUSH2 0x5BF9 DUP3 DUP3 SLOAD PUSH2 0x48DE JUMP JUMPDEST SWAP1 SSTORE PUSH1 0x40 MLOAD SWAP1 DUP2 MSTORE LOG3 CODESIZE DUP1 DUP1 DUP1 PUSH2 0x5639 JUMP JUMPDEST POP PUSH1 0x31 SLOAD ISZERO ISZERO PUSH2 0x5B87 JUMP JUMPDEST PUSH1 0x0 SWAP1 DUP2 MSTORE PUSH1 0x16 PUSH1 0x20 MSTORE PUSH1 0x40 DUP2 KECCAK256 PUSH1 0x1 DUP2 ADD SLOAD DUP3 MSTORE PUSH1 0x15 PUSH1 0x20 MSTORE PUSH1 0x40 DUP3 KECCAK256 SWAP1 PUSH1 0xFF PUSH1 0x3 DUP4 ADD SLOAD AND PUSH1 0x6 DUP2 LT ISZERO PUSH2 0x5C5F JUMPI PUSH1 0x4 SUB PUSH2 0x5C5A JUMPI PUSH2 0x5C57 SWAP3 POP PUSH2 0x5917 JUMP JUMPDEST SWAP1 JUMP JUMPDEST POP POP SWAP1 JUMP JUMPDEST PUSH4 0x4E487B71 PUSH1 0xE0 SHL DUP5 MSTORE PUSH1 0x21 PUSH1 0x4 MSTORE PUSH1 0x24 DUP5 REVERT JUMPDEST SWAP1 PUSH1 0x0 SWAP2 DUP3 MSTORE PUSH1 0x1A PUSH1 0x20 MSTORE PUSH1 0x40 DUP3 KECCAK256 PUSH1 0x1 DUP2 ADD SLOAD DUP4 MSTORE PUSH1 0x19 PUSH1 0x20 MSTORE PUSH1 0x40 DUP4 KECCAK256 SWAP1 PUSH1 0xFF PUSH1 0x3 DUP4 ADD SLOAD AND PUSH1 0x5 DUP2 LT ISZERO PUSH2 0x5CC0 JUMPI PUSH1 0x4 SUB PUSH2 0x5CBA JUMPI PUSH2 0x5CB6 SWAP3 SWAP4 POP PUSH2 0x59C9 JUMP JUMPDEST SWAP1 SWAP2 JUMP JUMPDEST POP POP DUP2 SWAP1 JUMP JUMPDEST PUSH4 0x4E487B71 PUSH1 0xE0 SHL DUP6 MSTORE PUSH1 0x21 PUSH1 0x4 MSTORE PUSH1 0x24 DUP6 REVERT INVALID EXTCODEHASH 0xB1 0x4D 0xCB PUSH22 0x745B2FD6B729F1F6D005FF458435F4113B58BE6E3DBF PUSH10 0xCBCD394A70729B1530D8 SHR 0xB2 0xF6 SWAP9 CALLDATASIZE RETURNDATACOPY SUB 0xE 0xCE SWAP12 0xAE SWAP7 PUSH13 0xFFE435373E298DAD8E7099F5BD LOG2 PUSH5 0x6970667358 0x22 SLT KECCAK256 0x22 DUP7 0x26 0xE3 DUP13 PREVRANDAO 0xAF 0xE 0xA9 0xDB 0x26 0xE8 0xBA 0xD5 CALLVALUE 0x28 0xE2 0x23 CREATE2 CALLER SWAP14 RETURNDATACOPY LT NUMBER COINBASE JUMP SWAP3 SAR 0xD7 0xB7 0xE2 0x23 PUSH5 0x736F6C6343 STOP ADDMOD EQ STOP CALLER "},"methodIdentifiers":{"admins(address)":"429b62e5","batchCheckout((uint256,uint8,string,uint256)[],(uint256,uint8[6],uint8,bool)[])":"f5e93c64","betCounter()":"a416f5ab","bets(uint256)":"22af00fa","bettingCloseTime()":"426e4382","buyLotteryTicketDirect(uint256,uint8[6],uint8)":"323c6d54","centenaMultiplier()":"38da7ead","checkLotteryPrize(uint256)":"f33ce325","checkWinnings(uint256)":"410fb08c","claimLotteryPrize(uint256)":"1a65058c","claimReferralEarnings()":"84ae48b5","claimWinnings(uint256)":"677bd9ff","closeDraw(uint256)":"9c9ad21a","closeLotteryDraw(uint256)":"8a502381","createDraw(string,uint256)":"554df634","createLotteryDraw(string,uint256)":"5799ee2a","currentJackpot()":"f9cee0bd","deposit(uint256)":"b6b55f25","drawBets(uint256,uint256)":"a11720ab","drawCounter()":"92b5ba0b","drawNames(uint256)":"3fb07a3b","drawTimes(uint256)":"c9f6707e","draws(uint256)":"0cc36c36","emergencyWithdraw(address)":"6ff1c9bc","fijoMultiplier()":"94a4e23e","getBalance(address)":"f8b2cb4f","getDrawBets(uint256)":"6cd425a5","getJackpot()":"9329066c","getReferralInfo(address)":"21874ae2","getReferredUsers(address)":"32e5b6d8","getUserBets(address)":"2d56657d","getUserLotteryTickets(address)":"6922d1e1","jackpotCap()":"636218fc","jackpotManager()":"68d3adf2","jackpotPercentage()":"7cf210f1","lotteryCounter()":"4a4a6b4f","lotteryDrawTickets(uint256,uint256)":"00cbdb00","lotteryDraws(uint256)":"0bd26e92","lotteryTicketPrice()":"8a0ab213","lotteryTickets(uint256)":"e74579b1","maxBetAmount()":"cab11d5d","minBetAmount()":"fa968eea","minJackpot()":"911d0189","owner()":"8da5cb5b","parleMultiplier()":"ee03ac40","passPrice()":"ca3286f5","pause()":"8456cb59","paused()":"5c975abb","paymentToken()":"3013ce29","placeBetDirect(uint256,uint8,string,uint256)":"4ee36a84","prize2Amount()":"4a382514","prize3Amount()":"fecf615d","prize4Amount()":"cd6eaf12","prize5Amount()":"bebe329d","prize6Amount()":"2d816895","prize7Amount()":"dc158efa","prize8Amount()":"19495423","rawFulfillRandomWords(uint256,uint256[])":"1fe543e3","referralBonusPercent()":"e9715de9","referralInfo(address)":"39540b0a","referredUsers(address,uint256)":"e92820e6","registerReferral(address)":"209ab711","renounceOwnership()":"715018a6","requestDrawResults(uint256)":"ee996784","requestLotteryResults(uint256)":"9398676d","setAdmin(address,bool)":"4b0bddd2","setBetLimits(uint256,uint256)":"7687dd49","setJackpotCap(uint256)":"3da3f922","setJackpotManager(address)":"21e501bb","setLotteryPrizes(uint256,uint256,uint256,uint256,uint256,uint256,uint256)":"e5286cab","setLotteryTicketPrice(uint256)":"a0ede5a4","setMinJackpot(uint256)":"6826eef4","setPassPrice(uint256)":"db309ab3","setReferralBonus(uint256)":"9a037aa0","setVRFConfig(uint64,bytes32,uint32,uint16)":"db0ca0b4","ticketCounter()":"8c4d59d0","transferOwnership(address)":"f2fde38b","unpause()":"3f4ba83a","userBalances(address)":"26224c64","userBets(address,uint256)":"8068aa68","userLotteryTickets(address,uint256)":"907cb96c","vrfCallbackGasLimit()":"3b7ed734","vrfCoordinator()":"a3e56fa8","vrfKeyHash()":"041d443e","vrfRequestConfirmations()":"598bc486","vrfRequestPending(uint256)":"5487ab5b","vrfRequestToDrawId(uint256)":"497172be","vrfRequestToLotteryId(uint256)":"ad5a6012","vrfSubscriptionId()":"ed647d21","withdraw(uint256)":"2e1a7d4d"}}}}}