{
  "_format": "hh-sol-artifact-1",
  "contractName": "LaBolita",
  "sourceName": "contracts/LaBolita.sol",
  "abi": [
    {
      "inputs": [
        {
          "internalType": "address",
          "name": "_paymentToken",
          "type": "address"
        }
      ],
      "stateMutability": "nonpayable",
      "type": "constructor"
    },
    {
      "inputs": [],
      "name": "EnforcedPause",
      "type": "error"
    },
    {
      "inputs": [],
      "name": "ExpectedPause",
      "type": "error"
    },
    {
      "inputs": [
        {
          "internalType": "address",
          "name": "owner",
          "type": "address"
        }
      ],
      "name": "OwnableInvalidOwner",
      "type": "error"
    },
    {
      "inputs": [
        {
          "internalType": "address",
          "name": "account",
          "type": "address"
        }
      ],
      "name": "OwnableUnauthorizedAccount",
      "type": "error"
    },
    {
      "inputs": [],
      "name": "ReentrancyGuardReentrantCall",
      "type": "error"
    },
    {
      "inputs": [
        {
          "internalType": "address",
          "name": "token",
          "type": "address"
        }
      ],
      "name": "SafeERC20FailedOperation",
      "type": "error"
    },
    {
      "anonymous": false,
      "inputs": [
        {
          "indexed": true,
          "internalType": "address",
          "name": "admin",
          "type": "address"
        },
        {
          "indexed": false,
          "internalType": "bool",
          "name": "status",
          "type": "bool"
        }
      ],
      "name": "AdminUpdated",
      "type": "event"
    },
    {
      "anonymous": false,
      "inputs": [
        {
          "indexed": true,
          "internalType": "uint256",
          "name": "drawId",
          "type": "uint256"
        },
        {
          "indexed": false,
          "internalType": "string",
          "name": "drawType",
          "type": "string"
        },
        {
          "indexed": false,
          "internalType": "uint256",
          "name": "scheduledTime",
          "type": "uint256"
        }
      ],
      "name": "AutoDrawCreated",
      "type": "event"
    },
    {
      "anonymous": false,
      "inputs": [
        {
          "indexed": true,
          "internalType": "uint256",
          "name": "betId",
          "type": "uint256"
        },
        {
          "indexed": true,
          "internalType": "address",
          "name": "player",
          "type": "address"
        },
        {
          "indexed": true,
          "internalType": "uint256",
          "name": "drawId",
          "type": "uint256"
        },
        {
          "indexed": false,
          "internalType": "enum LaBolita.BetType",
          "name": "betType",
          "type": "uint8"
        },
        {
          "indexed": false,
          "internalType": "string",
          "name": "numbers",
          "type": "string"
        },
        {
          "indexed": false,
          "internalType": "uint256",
          "name": "amount",
          "type": "uint256"
        }
      ],
      "name": "BetPlaced",
      "type": "event"
    },
    {
      "anonymous": false,
      "inputs": [
        {
          "indexed": true,
          "internalType": "address",
          "name": "user",
          "type": "address"
        },
        {
          "indexed": false,
          "internalType": "uint256",
          "name": "amount",
          "type": "uint256"
        }
      ],
      "name": "Deposited",
      "type": "event"
    },
    {
      "anonymous": false,
      "inputs": [
        {
          "indexed": true,
          "internalType": "uint256",
          "name": "drawId",
          "type": "uint256"
        },
        {
          "indexed": false,
          "internalType": "string",
          "name": "drawNumber",
          "type": "string"
        },
        {
          "indexed": false,
          "internalType": "uint256",
          "name": "scheduledTime",
          "type": "uint256"
        }
      ],
      "name": "DrawCreated",
      "type": "event"
    },
    {
      "anonymous": false,
      "inputs": [
        {
          "indexed": true,
          "internalType": "uint256",
          "name": "drawId",
          "type": "uint256"
        },
        {
          "indexed": false,
          "internalType": "enum LaBolita.DrawStatus",
          "name": "status",
          "type": "uint8"
        }
      ],
      "name": "DrawStatusChanged",
      "type": "event"
    },
    {
      "anonymous": false,
      "inputs": [
        {
          "indexed": false,
          "internalType": "uint256",
          "name": "newJackpot",
          "type": "uint256"
        },
        {
          "indexed": false,
          "internalType": "uint256",
          "name": "addedAmount",
          "type": "uint256"
        }
      ],
      "name": "JackpotIncreased",
      "type": "event"
    },
    {
      "anonymous": false,
      "inputs": [
        {
          "indexed": true,
          "internalType": "uint256",
          "name": "lotteryId",
          "type": "uint256"
        },
        {
          "indexed": true,
          "internalType": "address",
          "name": "winner",
          "type": "address"
        },
        {
          "indexed": false,
          "internalType": "uint256",
          "name": "amount",
          "type": "uint256"
        }
      ],
      "name": "JackpotWon",
      "type": "event"
    },
    {
      "anonymous": false,
      "inputs": [
        {
          "indexed": true,
          "internalType": "uint256",
          "name": "lotteryId",
          "type": "uint256"
        },
        {
          "indexed": false,
          "internalType": "string",
          "name": "drawName",
          "type": "string"
        },
        {
          "indexed": false,
          "internalType": "uint256",
          "name": "scheduledTime",
          "type": "uint256"
        },
        {
          "indexed": false,
          "internalType": "uint256",
          "name": "jackpot",
          "type": "uint256"
        }
      ],
      "name": "LotteryDrawCreated",
      "type": "event"
    },
    {
      "anonymous": false,
      "inputs": [
        {
          "indexed": true,
          "internalType": "uint256",
          "name": "ticketId",
          "type": "uint256"
        },
        {
          "indexed": true,
          "internalType": "address",
          "name": "player",
          "type": "address"
        },
        {
          "indexed": false,
          "internalType": "uint8",
          "name": "category",
          "type": "uint8"
        },
        {
          "indexed": false,
          "internalType": "uint256",
          "name": "amount",
          "type": "uint256"
        }
      ],
      "name": "LotteryPrizeClaimed",
      "type": "event"
    },
    {
      "anonymous": false,
      "inputs": [
        {
          "indexed": true,
          "internalType": "uint256",
          "name": "lotteryId",
          "type": "uint256"
        },
        {
          "indexed": false,
          "internalType": "uint8[5]",
          "name": "winningNumbers",
          "type": "uint8[5]"
        },
        {
          "indexed": false,
          "internalType": "uint8",
          "name": "keyNumber",
          "type": "uint8"
        }
      ],
      "name": "LotteryResultsGenerated",
      "type": "event"
    },
    {
      "anonymous": false,
      "inputs": [
        {
          "indexed": true,
          "internalType": "uint256",
          "name": "ticketId",
          "type": "uint256"
        },
        {
          "indexed": true,
          "internalType": "address",
          "name": "player",
          "type": "address"
        },
        {
          "indexed": true,
          "internalType": "uint256",
          "name": "lotteryId",
          "type": "uint256"
        },
        {
          "indexed": false,
          "internalType": "uint8[5]",
          "name": "numbers",
          "type": "uint8[5]"
        },
        {
          "indexed": false,
          "internalType": "uint8",
          "name": "keyNumber",
          "type": "uint8"
        }
      ],
      "name": "LotteryTicketPurchased",
      "type": "event"
    },
    {
      "anonymous": false,
      "inputs": [
        {
          "indexed": true,
          "internalType": "address",
          "name": "previousOwner",
          "type": "address"
        },
        {
          "indexed": true,
          "internalType": "address",
          "name": "newOwner",
          "type": "address"
        }
      ],
      "name": "OwnershipTransferred",
      "type": "event"
    },
    {
      "anonymous": false,
      "inputs": [
        {
          "indexed": false,
          "internalType": "address",
          "name": "account",
          "type": "address"
        }
      ],
      "name": "Paused",
      "type": "event"
    },
    {
      "anonymous": false,
      "inputs": [
        {
          "indexed": true,
          "internalType": "uint256",
          "name": "drawId",
          "type": "uint256"
        },
        {
          "indexed": false,
          "internalType": "string",
          "name": "fijos",
          "type": "string"
        },
        {
          "indexed": false,
          "internalType": "string",
          "name": "centenas",
          "type": "string"
        },
        {
          "indexed": false,
          "internalType": "string",
          "name": "parles",
          "type": "string"
        },
        {
          "indexed": false,
          "internalType": "uint256",
          "name": "seed",
          "type": "uint256"
        }
      ],
      "name": "RandomResultsGenerated",
      "type": "event"
    },
    {
      "anonymous": false,
      "inputs": [
        {
          "indexed": true,
          "internalType": "address",
          "name": "user",
          "type": "address"
        },
        {
          "indexed": false,
          "internalType": "uint256",
          "name": "amount",
          "type": "uint256"
        }
      ],
      "name": "ReferralBonusClaimed",
      "type": "event"
    },
    {
      "anonymous": false,
      "inputs": [
        {
          "indexed": true,
          "internalType": "address",
          "name": "referrer",
          "type": "address"
        },
        {
          "indexed": true,
          "internalType": "address",
          "name": "referred",
          "type": "address"
        },
        {
          "indexed": false,
          "internalType": "uint256",
          "name": "amount",
          "type": "uint256"
        }
      ],
      "name": "ReferralBonusEarned",
      "type": "event"
    },
    {
      "anonymous": false,
      "inputs": [
        {
          "indexed": true,
          "internalType": "address",
          "name": "user",
          "type": "address"
        },
        {
          "indexed": true,
          "internalType": "address",
          "name": "referrer",
          "type": "address"
        }
      ],
      "name": "ReferralRegistered",
      "type": "event"
    },
    {
      "anonymous": false,
      "inputs": [
        {
          "indexed": true,
          "internalType": "uint256",
          "name": "drawId",
          "type": "uint256"
        },
        {
          "indexed": false,
          "internalType": "string",
          "name": "fijos",
          "type": "string"
        },
        {
          "indexed": false,
          "internalType": "string",
          "name": "centenas",
          "type": "string"
        },
        {
          "indexed": false,
          "internalType": "string",
          "name": "parles",
          "type": "string"
        }
      ],
      "name": "ResultsSubmitted",
      "type": "event"
    },
    {
      "anonymous": false,
      "inputs": [
        {
          "indexed": false,
          "internalType": "address",
          "name": "account",
          "type": "address"
        }
      ],
      "name": "Unpaused",
      "type": "event"
    },
    {
      "anonymous": false,
      "inputs": [
        {
          "indexed": true,
          "internalType": "address",
          "name": "user",
          "type": "address"
        },
        {
          "indexed": false,
          "internalType": "uint256",
          "name": "amount",
          "type": "uint256"
        }
      ],
      "name": "WelcomeBonusReceived",
      "type": "event"
    },
    {
      "anonymous": false,
      "inputs": [
        {
          "indexed": true,
          "internalType": "uint256",
          "name": "betId",
          "type": "uint256"
        },
        {
          "indexed": true,
          "internalType": "address",
          "name": "player",
          "type": "address"
        },
        {
          "indexed": false,
          "internalType": "uint256",
          "name": "amount",
          "type": "uint256"
        }
      ],
      "name": "WinningsClaimed",
      "type": "event"
    },
    {
      "anonymous": false,
      "inputs": [
        {
          "indexed": true,
          "internalType": "address",
          "name": "user",
          "type": "address"
        },
        {
          "indexed": false,
          "internalType": "uint256",
          "name": "amount",
          "type": "uint256"
        }
      ],
      "name": "Withdrawn",
      "type": "event"
    },
    {
      "inputs": [
        {
          "internalType": "uint256",
          "name": "_amount",
          "type": "uint256"
        }
      ],
      "name": "addToJackpot",
      "outputs": [],
      "stateMutability": "nonpayable",
      "type": "function"
    },
    {
      "inputs": [
        {
          "internalType": "address",
          "name": "_user",
          "type": "address"
        },
        {
          "internalType": "uint256",
          "name": "_amount",
          "type": "uint256"
        }
      ],
      "name": "adminDeposit",
      "outputs": [],
      "stateMutability": "nonpayable",
      "type": "function"
    },
    {
      "inputs": [
        {
          "internalType": "address",
          "name": "_user",
          "type": "address"
        },
        {
          "internalType": "uint256",
          "name": "_amount",
          "type": "uint256"
        }
      ],
      "name": "adminWithdraw",
      "outputs": [],
      "stateMutability": "nonpayable",
      "type": "function"
    },
    {
      "inputs": [
        {
          "internalType": "address",
          "name": "",
          "type": "address"
        }
      ],
      "name": "admins",
      "outputs": [
        {
          "internalType": "bool",
          "name": "",
          "type": "bool"
        }
      ],
      "stateMutability": "view",
      "type": "function"
    },
    {
      "inputs": [],
      "name": "betCounter",
      "outputs": [
        {
          "internalType": "uint256",
          "name": "",
          "type": "uint256"
        }
      ],
      "stateMutability": "view",
      "type": "function"
    },
    {
      "inputs": [
        {
          "internalType": "uint256",
          "name": "",
          "type": "uint256"
        }
      ],
      "name": "bets",
      "outputs": [
        {
          "internalType": "address",
          "name": "player",
          "type": "address"
        },
        {
          "internalType": "uint256",
          "name": "drawId",
          "type": "uint256"
        },
        {
          "internalType": "enum LaBolita.BetType",
          "name": "betType",
          "type": "uint8"
        },
        {
          "internalType": "string",
          "name": "numbers",
          "type": "string"
        },
        {
          "internalType": "uint256",
          "name": "amount",
          "type": "uint256"
        },
        {
          "internalType": "bool",
          "name": "claimed",
          "type": "bool"
        },
        {
          "internalType": "uint256",
          "name": "payout",
          "type": "uint256"
        }
      ],
      "stateMutability": "view",
      "type": "function"
    },
    {
      "inputs": [],
      "name": "bettingCloseTime",
      "outputs": [
        {
          "internalType": "uint256",
          "name": "",
          "type": "uint256"
        }
      ],
      "stateMutability": "view",
      "type": "function"
    },
    {
      "inputs": [
        {
          "internalType": "uint256",
          "name": "_lotteryId",
          "type": "uint256"
        },
        {
          "internalType": "uint8[5]",
          "name": "_numbers",
          "type": "uint8[5]"
        },
        {
          "internalType": "uint8",
          "name": "_keyNumber",
          "type": "uint8"
        }
      ],
      "name": "buyLotteryTicket",
      "outputs": [],
      "stateMutability": "nonpayable",
      "type": "function"
    },
    {
      "inputs": [
        {
          "internalType": "uint256",
          "name": "_lotteryId",
          "type": "uint256"
        },
        {
          "internalType": "uint256",
          "name": "_quantity",
          "type": "uint256"
        }
      ],
      "name": "buyMultipleLotteryTickets",
      "outputs": [],
      "stateMutability": "nonpayable",
      "type": "function"
    },
    {
      "inputs": [
        {
          "internalType": "uint256",
          "name": "_drawId",
          "type": "uint256"
        }
      ],
      "name": "cancelDraw",
      "outputs": [],
      "stateMutability": "nonpayable",
      "type": "function"
    },
    {
      "inputs": [],
      "name": "centenaMultiplier",
      "outputs": [
        {
          "internalType": "uint256",
          "name": "",
          "type": "uint256"
        }
      ],
      "stateMutability": "view",
      "type": "function"
    },
    {
      "inputs": [
        {
          "internalType": "uint256",
          "name": "_ticketId",
          "type": "uint256"
        }
      ],
      "name": "checkLotteryPrize",
      "outputs": [
        {
          "internalType": "uint8",
          "name": "category",
          "type": "uint8"
        },
        {
          "internalType": "uint256",
          "name": "prize",
          "type": "uint256"
        }
      ],
      "stateMutability": "view",
      "type": "function"
    },
    {
      "inputs": [
        {
          "internalType": "uint256",
          "name": "_betId",
          "type": "uint256"
        }
      ],
      "name": "checkWinnings",
      "outputs": [
        {
          "internalType": "uint256",
          "name": "",
          "type": "uint256"
        }
      ],
      "stateMutability": "view",
      "type": "function"
    },
    {
      "inputs": [
        {
          "internalType": "uint256",
          "name": "_lotteryId",
          "type": "uint256"
        }
      ],
      "name": "claimAllLotteryPrizes",
      "outputs": [],
      "stateMutability": "nonpayable",
      "type": "function"
    },
    {
      "inputs": [
        {
          "internalType": "uint256",
          "name": "_drawId",
          "type": "uint256"
        }
      ],
      "name": "claimAllWinnings",
      "outputs": [],
      "stateMutability": "nonpayable",
      "type": "function"
    },
    {
      "inputs": [
        {
          "internalType": "uint256",
          "name": "_ticketId",
          "type": "uint256"
        }
      ],
      "name": "claimLotteryPrize",
      "outputs": [],
      "stateMutability": "nonpayable",
      "type": "function"
    },
    {
      "inputs": [],
      "name": "claimReferralEarnings",
      "outputs": [],
      "stateMutability": "nonpayable",
      "type": "function"
    },
    {
      "inputs": [
        {
          "internalType": "uint256",
          "name": "_betId",
          "type": "uint256"
        }
      ],
      "name": "claimWinnings",
      "outputs": [],
      "stateMutability": "nonpayable",
      "type": "function"
    },
    {
      "inputs": [
        {
          "internalType": "uint256",
          "name": "_drawId",
          "type": "uint256"
        }
      ],
      "name": "closeDraw",
      "outputs": [],
      "stateMutability": "nonpayable",
      "type": "function"
    },
    {
      "inputs": [],
      "name": "closeExpiredDraws",
      "outputs": [],
      "stateMutability": "nonpayable",
      "type": "function"
    },
    {
      "inputs": [
        {
          "internalType": "uint256",
          "name": "_lotteryId",
          "type": "uint256"
        }
      ],
      "name": "closeLotteryDraw",
      "outputs": [],
      "stateMutability": "nonpayable",
      "type": "function"
    },
    {
      "inputs": [],
      "name": "createDailyDraws",
      "outputs": [],
      "stateMutability": "nonpayable",
      "type": "function"
    },
    {
      "inputs": [
        {
          "internalType": "string",
          "name": "_drawNumber",
          "type": "string"
        },
        {
          "internalType": "uint256",
          "name": "_scheduledTime",
          "type": "uint256"
        }
      ],
      "name": "createDraw",
      "outputs": [
        {
          "internalType": "uint256",
          "name": "",
          "type": "uint256"
        }
      ],
      "stateMutability": "nonpayable",
      "type": "function"
    },
    {
      "inputs": [
        {
          "internalType": "string",
          "name": "_drawName",
          "type": "string"
        },
        {
          "internalType": "uint256",
          "name": "_scheduledTime",
          "type": "uint256"
        }
      ],
      "name": "createLotteryDraw",
      "outputs": [
        {
          "internalType": "uint256",
          "name": "",
          "type": "uint256"
        }
      ],
      "stateMutability": "nonpayable",
      "type": "function"
    },
    {
      "inputs": [],
      "name": "createWeeklyLotteryDraws",
      "outputs": [],
      "stateMutability": "nonpayable",
      "type": "function"
    },
    {
      "inputs": [],
      "name": "currentJackpot",
      "outputs": [
        {
          "internalType": "uint256",
          "name": "",
          "type": "uint256"
        }
      ],
      "stateMutability": "view",
      "type": "function"
    },
    {
      "inputs": [
        {
          "internalType": "uint256",
          "name": "_amount",
          "type": "uint256"
        }
      ],
      "name": "deposit",
      "outputs": [],
      "stateMutability": "nonpayable",
      "type": "function"
    },
    {
      "inputs": [
        {
          "internalType": "uint256",
          "name": "_amount",
          "type": "uint256"
        }
      ],
      "name": "depositBonusFunds",
      "outputs": [],
      "stateMutability": "nonpayable",
      "type": "function"
    },
    {
      "inputs": [
        {
          "internalType": "uint256",
          "name": "_amount",
          "type": "uint256"
        },
        {
          "internalType": "address",
          "name": "_referrer",
          "type": "address"
        }
      ],
      "name": "depositWithReferral",
      "outputs": [],
      "stateMutability": "nonpayable",
      "type": "function"
    },
    {
      "inputs": [
        {
          "internalType": "uint256",
          "name": "",
          "type": "uint256"
        },
        {
          "internalType": "uint256",
          "name": "",
          "type": "uint256"
        }
      ],
      "name": "drawBets",
      "outputs": [
        {
          "internalType": "uint256",
          "name": "",
          "type": "uint256"
        }
      ],
      "stateMutability": "view",
      "type": "function"
    },
    {
      "inputs": [],
      "name": "drawCounter",
      "outputs": [
        {
          "internalType": "uint256",
          "name": "",
          "type": "uint256"
        }
      ],
      "stateMutability": "view",
      "type": "function"
    },
    {
      "inputs": [
        {
          "internalType": "uint256",
          "name": "",
          "type": "uint256"
        }
      ],
      "name": "drawNames",
      "outputs": [
        {
          "internalType": "string",
          "name": "",
          "type": "string"
        }
      ],
      "stateMutability": "view",
      "type": "function"
    },
    {
      "inputs": [
        {
          "internalType": "uint256",
          "name": "",
          "type": "uint256"
        }
      ],
      "name": "drawTimes",
      "outputs": [
        {
          "internalType": "uint256",
          "name": "",
          "type": "uint256"
        }
      ],
      "stateMutability": "view",
      "type": "function"
    },
    {
      "inputs": [
        {
          "internalType": "uint256",
          "name": "",
          "type": "uint256"
        }
      ],
      "name": "draws",
      "outputs": [
        {
          "internalType": "uint256",
          "name": "id",
          "type": "uint256"
        },
        {
          "internalType": "string",
          "name": "drawNumber",
          "type": "string"
        },
        {
          "internalType": "uint256",
          "name": "scheduledTime",
          "type": "uint256"
        },
        {
          "internalType": "enum LaBolita.DrawStatus",
          "name": "status",
          "type": "uint8"
        },
        {
          "internalType": "string",
          "name": "winningFijos",
          "type": "string"
        },
        {
          "internalType": "string",
          "name": "winningCentenas",
          "type": "string"
        },
        {
          "internalType": "string",
          "name": "winningParles",
          "type": "string"
        },
        {
          "internalType": "uint256",
          "name": "totalBets",
          "type": "uint256"
        },
        {
          "internalType": "uint256",
          "name": "totalAmount",
          "type": "uint256"
        },
        {
          "internalType": "uint256",
          "name": "totalPaidOut",
          "type": "uint256"
        }
      ],
      "stateMutability": "view",
      "type": "function"
    },
    {
      "inputs": [
        {
          "internalType": "address",
          "name": "_token",
          "type": "address"
        },
        {
          "internalType": "uint256",
          "name": "_amount",
          "type": "uint256"
        }
      ],
      "name": "emergencyWithdraw",
      "outputs": [],
      "stateMutability": "nonpayable",
      "type": "function"
    },
    {
      "inputs": [],
      "name": "fijoMultiplier",
      "outputs": [
        {
          "internalType": "uint256",
          "name": "",
          "type": "uint256"
        }
      ],
      "stateMutability": "view",
      "type": "function"
    },
    {
      "inputs": [
        {
          "internalType": "uint256",
          "name": "_lotteryId",
          "type": "uint256"
        }
      ],
      "name": "generateLotteryResults",
      "outputs": [],
      "stateMutability": "nonpayable",
      "type": "function"
    },
    {
      "inputs": [
        {
          "internalType": "uint256",
          "name": "_drawId",
          "type": "uint256"
        }
      ],
      "name": "generateRandomResults",
      "outputs": [],
      "stateMutability": "nonpayable",
      "type": "function"
    },
    {
      "inputs": [],
      "name": "getAutomationConfig",
      "outputs": [
        {
          "internalType": "uint256",
          "name": "closeTime",
          "type": "uint256"
        },
        {
          "internalType": "uint256[3]",
          "name": "times",
          "type": "uint256[3]"
        },
        {
          "internalType": "string[3]",
          "name": "names",
          "type": "string[3]"
        },
        {
          "internalType": "uint256",
          "name": "lastDate",
          "type": "uint256"
        }
      ],
      "stateMutability": "view",
      "type": "function"
    },
    {
      "inputs": [
        {
          "internalType": "address",
          "name": "_user",
          "type": "address"
        }
      ],
      "name": "getBalance",
      "outputs": [
        {
          "internalType": "uint256",
          "name": "",
          "type": "uint256"
        }
      ],
      "stateMutability": "view",
      "type": "function"
    },
    {
      "inputs": [
        {
          "internalType": "uint256",
          "name": "_betId",
          "type": "uint256"
        }
      ],
      "name": "getBet",
      "outputs": [
        {
          "components": [
            {
              "internalType": "address",
              "name": "player",
              "type": "address"
            },
            {
              "internalType": "uint256",
              "name": "drawId",
              "type": "uint256"
            },
            {
              "internalType": "enum LaBolita.BetType",
              "name": "betType",
              "type": "uint8"
            },
            {
              "internalType": "string",
              "name": "numbers",
              "type": "string"
            },
            {
              "internalType": "uint256",
              "name": "amount",
              "type": "uint256"
            },
            {
              "internalType": "bool",
              "name": "claimed",
              "type": "bool"
            },
            {
              "internalType": "uint256",
              "name": "payout",
              "type": "uint256"
            }
          ],
          "internalType": "struct LaBolita.Bet",
          "name": "",
          "type": "tuple"
        }
      ],
      "stateMutability": "view",
      "type": "function"
    },
    {
      "inputs": [
        {
          "internalType": "uint256",
          "name": "_drawId",
          "type": "uint256"
        }
      ],
      "name": "getDraw",
      "outputs": [
        {
          "components": [
            {
              "internalType": "uint256",
              "name": "id",
              "type": "uint256"
            },
            {
              "internalType": "string",
              "name": "drawNumber",
              "type": "string"
            },
            {
              "internalType": "uint256",
              "name": "scheduledTime",
              "type": "uint256"
            },
            {
              "internalType": "enum LaBolita.DrawStatus",
              "name": "status",
              "type": "uint8"
            },
            {
              "internalType": "string",
              "name": "winningFijos",
              "type": "string"
            },
            {
              "internalType": "string",
              "name": "winningCentenas",
              "type": "string"
            },
            {
              "internalType": "string",
              "name": "winningParles",
              "type": "string"
            },
            {
              "internalType": "uint256",
              "name": "totalBets",
              "type": "uint256"
            },
            {
              "internalType": "uint256",
              "name": "totalAmount",
              "type": "uint256"
            },
            {
              "internalType": "uint256",
              "name": "totalPaidOut",
              "type": "uint256"
            }
          ],
          "internalType": "struct LaBolita.Draw",
          "name": "",
          "type": "tuple"
        }
      ],
      "stateMutability": "view",
      "type": "function"
    },
    {
      "inputs": [
        {
          "internalType": "uint256",
          "name": "_drawId",
          "type": "uint256"
        }
      ],
      "name": "getDrawBets",
      "outputs": [
        {
          "internalType": "uint256[]",
          "name": "",
          "type": "uint256[]"
        }
      ],
      "stateMutability": "view",
      "type": "function"
    },
    {
      "inputs": [],
      "name": "getJackpot",
      "outputs": [
        {
          "internalType": "uint256",
          "name": "",
          "type": "uint256"
        }
      ],
      "stateMutability": "view",
      "type": "function"
    },
    {
      "inputs": [],
      "name": "getJackpotInfo",
      "outputs": [
        {
          "internalType": "uint256",
          "name": "jackpot",
          "type": "uint256"
        },
        {
          "internalType": "uint256",
          "name": "nextDrawId",
          "type": "uint256"
        },
        {
          "internalType": "string",
          "name": "nextDrawName",
          "type": "string"
        },
        {
          "internalType": "uint256",
          "name": "nextDrawTime",
          "type": "uint256"
        }
      ],
      "stateMutability": "view",
      "type": "function"
    },
    {
      "inputs": [],
      "name": "getLotteryConfig",
      "outputs": [
        {
          "internalType": "uint256",
          "name": "ticketPrice",
          "type": "uint256"
        },
        {
          "internalType": "uint256",
          "name": "jackpotPercent",
          "type": "uint256"
        },
        {
          "internalType": "uint256",
          "name": "minJackpotAmount",
          "type": "uint256"
        },
        {
          "internalType": "uint256",
          "name": "currentJackpotAmount",
          "type": "uint256"
        },
        {
          "internalType": "uint256",
          "name": "totalLotteries",
          "type": "uint256"
        },
        {
          "internalType": "uint256",
          "name": "totalTickets",
          "type": "uint256"
        }
      ],
      "stateMutability": "view",
      "type": "function"
    },
    {
      "inputs": [
        {
          "internalType": "uint256",
          "name": "_lotteryId",
          "type": "uint256"
        }
      ],
      "name": "getLotteryDraw",
      "outputs": [
        {
          "components": [
            {
              "internalType": "uint256",
              "name": "id",
              "type": "uint256"
            },
            {
              "internalType": "string",
              "name": "drawName",
              "type": "string"
            },
            {
              "internalType": "uint256",
              "name": "scheduledTime",
              "type": "uint256"
            },
            {
              "internalType": "enum LaBolita.LotteryStatus",
              "name": "status",
              "type": "uint8"
            },
            {
              "internalType": "uint8[5]",
              "name": "winningNumbers",
              "type": "uint8[5]"
            },
            {
              "internalType": "uint8",
              "name": "keyNumber",
              "type": "uint8"
            },
            {
              "internalType": "uint256",
              "name": "jackpot",
              "type": "uint256"
            },
            {
              "internalType": "uint256",
              "name": "totalTickets",
              "type": "uint256"
            },
            {
              "internalType": "uint256",
              "name": "totalCollected",
              "type": "uint256"
            },
            {
              "internalType": "uint256",
              "name": "totalPaidOut",
              "type": "uint256"
            },
            {
              "internalType": "bool",
              "name": "jackpotWon",
              "type": "bool"
            }
          ],
          "internalType": "struct LaBolita.LotteryDraw",
          "name": "",
          "type": "tuple"
        }
      ],
      "stateMutability": "view",
      "type": "function"
    },
    {
      "inputs": [
        {
          "internalType": "uint256",
          "name": "_lotteryId",
          "type": "uint256"
        }
      ],
      "name": "getLotteryDrawTickets",
      "outputs": [
        {
          "internalType": "uint256[]",
          "name": "",
          "type": "uint256[]"
        }
      ],
      "stateMutability": "view",
      "type": "function"
    },
    {
      "inputs": [],
      "name": "getLotteryPrizes",
      "outputs": [
        {
          "internalType": "uint256",
          "name": "cat2",
          "type": "uint256"
        },
        {
          "internalType": "uint256",
          "name": "cat3",
          "type": "uint256"
        },
        {
          "internalType": "uint256",
          "name": "cat4",
          "type": "uint256"
        },
        {
          "internalType": "uint256",
          "name": "cat5",
          "type": "uint256"
        },
        {
          "internalType": "uint256",
          "name": "cat6",
          "type": "uint256"
        }
      ],
      "stateMutability": "view",
      "type": "function"
    },
    {
      "inputs": [
        {
          "internalType": "uint256",
          "name": "_ticketId",
          "type": "uint256"
        }
      ],
      "name": "getLotteryTicket",
      "outputs": [
        {
          "components": [
            {
              "internalType": "address",
              "name": "player",
              "type": "address"
            },
            {
              "internalType": "uint256",
              "name": "lotteryId",
              "type": "uint256"
            },
            {
              "internalType": "uint8[5]",
              "name": "numbers",
              "type": "uint8[5]"
            },
            {
              "internalType": "uint8",
              "name": "keyNumber",
              "type": "uint8"
            },
            {
              "internalType": "uint256",
              "name": "purchaseTime",
              "type": "uint256"
            },
            {
              "internalType": "bool",
              "name": "claimed",
              "type": "bool"
            },
            {
              "internalType": "uint256",
              "name": "prize",
              "type": "uint256"
            },
            {
              "internalType": "uint8",
              "name": "category",
              "type": "uint8"
            }
          ],
          "internalType": "struct LaBolita.LotteryTicket",
          "name": "",
          "type": "tuple"
        }
      ],
      "stateMutability": "view",
      "type": "function"
    },
    {
      "inputs": [],
      "name": "getMyReferralAddress",
      "outputs": [
        {
          "internalType": "address",
          "name": "",
          "type": "address"
        }
      ],
      "stateMutability": "view",
      "type": "function"
    },
    {
      "inputs": [],
      "name": "getOpenDraws",
      "outputs": [
        {
          "internalType": "uint256[]",
          "name": "",
          "type": "uint256[]"
        }
      ],
      "stateMutability": "view",
      "type": "function"
    },
    {
      "inputs": [],
      "name": "getOpenLotteryDraws",
      "outputs": [
        {
          "internalType": "uint256[]",
          "name": "",
          "type": "uint256[]"
        }
      ],
      "stateMutability": "view",
      "type": "function"
    },
    {
      "inputs": [],
      "name": "getPendingDraws",
      "outputs": [
        {
          "internalType": "uint256[]",
          "name": "",
          "type": "uint256[]"
        }
      ],
      "stateMutability": "view",
      "type": "function"
    },
    {
      "inputs": [],
      "name": "getReferralConfig",
      "outputs": [
        {
          "internalType": "uint256",
          "name": "bonusPercent",
          "type": "uint256"
        },
        {
          "internalType": "uint256",
          "name": "welcomeBonus",
          "type": "uint256"
        },
        {
          "internalType": "bool",
          "name": "welcomeEnabled",
          "type": "bool"
        },
        {
          "internalType": "bool",
          "name": "systemEnabled",
          "type": "bool"
        }
      ],
      "stateMutability": "view",
      "type": "function"
    },
    {
      "inputs": [
        {
          "internalType": "address",
          "name": "_user",
          "type": "address"
        }
      ],
      "name": "getReferralInfo",
      "outputs": [
        {
          "internalType": "address",
          "name": "referrer",
          "type": "address"
        },
        {
          "internalType": "uint256",
          "name": "totalReferred",
          "type": "uint256"
        },
        {
          "internalType": "uint256",
          "name": "totalEarnings",
          "type": "uint256"
        },
        {
          "internalType": "uint256",
          "name": "pendingEarnings",
          "type": "uint256"
        },
        {
          "internalType": "bool",
          "name": "hasReceivedBonus",
          "type": "bool"
        },
        {
          "internalType": "uint256",
          "name": "joinedAt",
          "type": "uint256"
        }
      ],
      "stateMutability": "view",
      "type": "function"
    },
    {
      "inputs": [
        {
          "internalType": "address",
          "name": "_user",
          "type": "address"
        }
      ],
      "name": "getReferralStats",
      "outputs": [
        {
          "internalType": "uint256",
          "name": "totalReferred",
          "type": "uint256"
        },
        {
          "internalType": "uint256",
          "name": "totalEarnings",
          "type": "uint256"
        },
        {
          "internalType": "uint256",
          "name": "pendingEarnings",
          "type": "uint256"
        },
        {
          "internalType": "uint256",
          "name": "referralBonusRate",
          "type": "uint256"
        }
      ],
      "stateMutability": "view",
      "type": "function"
    },
    {
      "inputs": [
        {
          "internalType": "address",
          "name": "_user",
          "type": "address"
        }
      ],
      "name": "getReferredUsers",
      "outputs": [
        {
          "internalType": "address[]",
          "name": "",
          "type": "address[]"
        }
      ],
      "stateMutability": "view",
      "type": "function"
    },
    {
      "inputs": [
        {
          "internalType": "address",
          "name": "_user",
          "type": "address"
        }
      ],
      "name": "getUserBets",
      "outputs": [
        {
          "internalType": "uint256[]",
          "name": "",
          "type": "uint256[]"
        }
      ],
      "stateMutability": "view",
      "type": "function"
    },
    {
      "inputs": [
        {
          "internalType": "address",
          "name": "_user",
          "type": "address"
        }
      ],
      "name": "getUserLotteryTickets",
      "outputs": [
        {
          "internalType": "uint256[]",
          "name": "",
          "type": "uint256[]"
        }
      ],
      "stateMutability": "view",
      "type": "function"
    },
    {
      "inputs": [
        {
          "internalType": "address",
          "name": "_user",
          "type": "address"
        }
      ],
      "name": "hasReferrer",
      "outputs": [
        {
          "internalType": "bool",
          "name": "",
          "type": "bool"
        }
      ],
      "stateMutability": "view",
      "type": "function"
    },
    {
      "inputs": [],
      "name": "jackpotPercentage",
      "outputs": [
        {
          "internalType": "uint256",
          "name": "",
          "type": "uint256"
        }
      ],
      "stateMutability": "view",
      "type": "function"
    },
    {
      "inputs": [],
      "name": "lastDrawDate",
      "outputs": [
        {
          "internalType": "uint256",
          "name": "",
          "type": "uint256"
        }
      ],
      "stateMutability": "view",
      "type": "function"
    },
    {
      "inputs": [],
      "name": "lotteryCounter",
      "outputs": [
        {
          "internalType": "uint256",
          "name": "",
          "type": "uint256"
        }
      ],
      "stateMutability": "view",
      "type": "function"
    },
    {
      "inputs": [
        {
          "internalType": "uint256",
          "name": "",
          "type": "uint256"
        }
      ],
      "name": "lotteryDays",
      "outputs": [
        {
          "internalType": "uint8",
          "name": "",
          "type": "uint8"
        }
      ],
      "stateMutability": "view",
      "type": "function"
    },
    {
      "inputs": [
        {
          "internalType": "uint256",
          "name": "",
          "type": "uint256"
        },
        {
          "internalType": "uint256",
          "name": "",
          "type": "uint256"
        }
      ],
      "name": "lotteryDrawTickets",
      "outputs": [
        {
          "internalType": "uint256",
          "name": "",
          "type": "uint256"
        }
      ],
      "stateMutability": "view",
      "type": "function"
    },
    {
      "inputs": [],
      "name": "lotteryDrawTime",
      "outputs": [
        {
          "internalType": "uint256",
          "name": "",
          "type": "uint256"
        }
      ],
      "stateMutability": "view",
      "type": "function"
    },
    {
      "inputs": [
        {
          "internalType": "uint256",
          "name": "",
          "type": "uint256"
        }
      ],
      "name": "lotteryDraws",
      "outputs": [
        {
          "internalType": "uint256",
          "name": "id",
          "type": "uint256"
        },
        {
          "internalType": "string",
          "name": "drawName",
          "type": "string"
        },
        {
          "internalType": "uint256",
          "name": "scheduledTime",
          "type": "uint256"
        },
        {
          "internalType": "enum LaBolita.LotteryStatus",
          "name": "status",
          "type": "uint8"
        },
        {
          "internalType": "uint8",
          "name": "keyNumber",
          "type": "uint8"
        },
        {
          "internalType": "uint256",
          "name": "jackpot",
          "type": "uint256"
        },
        {
          "internalType": "uint256",
          "name": "totalTickets",
          "type": "uint256"
        },
        {
          "internalType": "uint256",
          "name": "totalCollected",
          "type": "uint256"
        },
        {
          "internalType": "uint256",
          "name": "totalPaidOut",
          "type": "uint256"
        },
        {
          "internalType": "bool",
          "name": "jackpotWon",
          "type": "bool"
        }
      ],
      "stateMutability": "view",
      "type": "function"
    },
    {
      "inputs": [],
      "name": "lotteryTicketPrice",
      "outputs": [
        {
          "internalType": "uint256",
          "name": "",
          "type": "uint256"
        }
      ],
      "stateMutability": "view",
      "type": "function"
    },
    {
      "inputs": [
        {
          "internalType": "uint256",
          "name": "",
          "type": "uint256"
        }
      ],
      "name": "lotteryTickets",
      "outputs": [
        {
          "internalType": "address",
          "name": "player",
          "type": "address"
        },
        {
          "internalType": "uint256",
          "name": "lotteryId",
          "type": "uint256"
        },
        {
          "internalType": "uint8",
          "name": "keyNumber",
          "type": "uint8"
        },
        {
          "internalType": "uint256",
          "name": "purchaseTime",
          "type": "uint256"
        },
        {
          "internalType": "bool",
          "name": "claimed",
          "type": "bool"
        },
        {
          "internalType": "uint256",
          "name": "prize",
          "type": "uint256"
        },
        {
          "internalType": "uint8",
          "name": "category",
          "type": "uint8"
        }
      ],
      "stateMutability": "view",
      "type": "function"
    },
    {
      "inputs": [],
      "name": "maxBetAmount",
      "outputs": [
        {
          "internalType": "uint256",
          "name": "",
          "type": "uint256"
        }
      ],
      "stateMutability": "view",
      "type": "function"
    },
    {
      "inputs": [],
      "name": "minBetAmount",
      "outputs": [
        {
          "internalType": "uint256",
          "name": "",
          "type": "uint256"
        }
      ],
      "stateMutability": "view",
      "type": "function"
    },
    {
      "inputs": [],
      "name": "minJackpot",
      "outputs": [
        {
          "internalType": "uint256",
          "name": "",
          "type": "uint256"
        }
      ],
      "stateMutability": "view",
      "type": "function"
    },
    {
      "inputs": [
        {
          "internalType": "uint256",
          "name": "_drawId",
          "type": "uint256"
        }
      ],
      "name": "openDraw",
      "outputs": [],
      "stateMutability": "nonpayable",
      "type": "function"
    },
    {
      "inputs": [],
      "name": "owner",
      "outputs": [
        {
          "internalType": "address",
          "name": "",
          "type": "address"
        }
      ],
      "stateMutability": "view",
      "type": "function"
    },
    {
      "inputs": [],
      "name": "parleMultiplier",
      "outputs": [
        {
          "internalType": "uint256",
          "name": "",
          "type": "uint256"
        }
      ],
      "stateMutability": "view",
      "type": "function"
    },
    {
      "inputs": [],
      "name": "pause",
      "outputs": [],
      "stateMutability": "nonpayable",
      "type": "function"
    },
    {
      "inputs": [],
      "name": "paused",
      "outputs": [
        {
          "internalType": "bool",
          "name": "",
          "type": "bool"
        }
      ],
      "stateMutability": "view",
      "type": "function"
    },
    {
      "inputs": [],
      "name": "paymentToken",
      "outputs": [
        {
          "internalType": "contract IERC20",
          "name": "",
          "type": "address"
        }
      ],
      "stateMutability": "view",
      "type": "function"
    },
    {
      "inputs": [
        {
          "internalType": "uint256",
          "name": "_drawId",
          "type": "uint256"
        },
        {
          "internalType": "enum LaBolita.BetType",
          "name": "_betType",
          "type": "uint8"
        },
        {
          "internalType": "string",
          "name": "_numbers",
          "type": "string"
        },
        {
          "internalType": "uint256",
          "name": "_amount",
          "type": "uint256"
        }
      ],
      "name": "placeBet",
      "outputs": [],
      "stateMutability": "nonpayable",
      "type": "function"
    },
    {
      "inputs": [],
      "name": "prize2Amount",
      "outputs": [
        {
          "internalType": "uint256",
          "name": "",
          "type": "uint256"
        }
      ],
      "stateMutability": "view",
      "type": "function"
    },
    {
      "inputs": [],
      "name": "prize3Amount",
      "outputs": [
        {
          "internalType": "uint256",
          "name": "",
          "type": "uint256"
        }
      ],
      "stateMutability": "view",
      "type": "function"
    },
    {
      "inputs": [],
      "name": "prize4Amount",
      "outputs": [
        {
          "internalType": "uint256",
          "name": "",
          "type": "uint256"
        }
      ],
      "stateMutability": "view",
      "type": "function"
    },
    {
      "inputs": [],
      "name": "prize5Amount",
      "outputs": [
        {
          "internalType": "uint256",
          "name": "",
          "type": "uint256"
        }
      ],
      "stateMutability": "view",
      "type": "function"
    },
    {
      "inputs": [],
      "name": "prize6Amount",
      "outputs": [
        {
          "internalType": "uint256",
          "name": "",
          "type": "uint256"
        }
      ],
      "stateMutability": "view",
      "type": "function"
    },
    {
      "inputs": [],
      "name": "processDraws",
      "outputs": [],
      "stateMutability": "nonpayable",
      "type": "function"
    },
    {
      "inputs": [],
      "name": "processLotteryDraws",
      "outputs": [],
      "stateMutability": "nonpayable",
      "type": "function"
    },
    {
      "inputs": [],
      "name": "randomNonce",
      "outputs": [
        {
          "internalType": "uint256",
          "name": "",
          "type": "uint256"
        }
      ],
      "stateMutability": "view",
      "type": "function"
    },
    {
      "inputs": [],
      "name": "referralBonusPercent",
      "outputs": [
        {
          "internalType": "uint256",
          "name": "",
          "type": "uint256"
        }
      ],
      "stateMutability": "view",
      "type": "function"
    },
    {
      "inputs": [
        {
          "internalType": "address",
          "name": "",
          "type": "address"
        }
      ],
      "name": "referralInfo",
      "outputs": [
        {
          "internalType": "address",
          "name": "referrer",
          "type": "address"
        },
        {
          "internalType": "uint256",
          "name": "totalReferred",
          "type": "uint256"
        },
        {
          "internalType": "uint256",
          "name": "totalEarnings",
          "type": "uint256"
        },
        {
          "internalType": "uint256",
          "name": "pendingEarnings",
          "type": "uint256"
        },
        {
          "internalType": "bool",
          "name": "hasReceivedBonus",
          "type": "bool"
        },
        {
          "internalType": "uint256",
          "name": "joinedAt",
          "type": "uint256"
        }
      ],
      "stateMutability": "view",
      "type": "function"
    },
    {
      "inputs": [],
      "name": "referralSystemEnabled",
      "outputs": [
        {
          "internalType": "bool",
          "name": "",
          "type": "bool"
        }
      ],
      "stateMutability": "view",
      "type": "function"
    },
    {
      "inputs": [
        {
          "internalType": "address",
          "name": "",
          "type": "address"
        },
        {
          "internalType": "uint256",
          "name": "",
          "type": "uint256"
        }
      ],
      "name": "referredUsers",
      "outputs": [
        {
          "internalType": "address",
          "name": "",
          "type": "address"
        }
      ],
      "stateMutability": "view",
      "type": "function"
    },
    {
      "inputs": [
        {
          "internalType": "address",
          "name": "_referrer",
          "type": "address"
        }
      ],
      "name": "registerReferral",
      "outputs": [],
      "stateMutability": "nonpayable",
      "type": "function"
    },
    {
      "inputs": [],
      "name": "renounceOwnership",
      "outputs": [],
      "stateMutability": "nonpayable",
      "type": "function"
    },
    {
      "inputs": [
        {
          "internalType": "address",
          "name": "_admin",
          "type": "address"
        },
        {
          "internalType": "bool",
          "name": "_status",
          "type": "bool"
        }
      ],
      "name": "setAdmin",
      "outputs": [],
      "stateMutability": "nonpayable",
      "type": "function"
    },
    {
      "inputs": [
        {
          "internalType": "uint256",
          "name": "_seconds",
          "type": "uint256"
        }
      ],
      "name": "setBettingCloseTime",
      "outputs": [],
      "stateMutability": "nonpayable",
      "type": "function"
    },
    {
      "inputs": [
        {
          "internalType": "uint256",
          "name": "_morning",
          "type": "uint256"
        },
        {
          "internalType": "uint256",
          "name": "_afternoon",
          "type": "uint256"
        },
        {
          "internalType": "uint256",
          "name": "_night",
          "type": "uint256"
        }
      ],
      "name": "setDrawTimes",
      "outputs": [],
      "stateMutability": "nonpayable",
      "type": "function"
    },
    {
      "inputs": [
        {
          "internalType": "uint256",
          "name": "_percentage",
          "type": "uint256"
        }
      ],
      "name": "setJackpotPercentage",
      "outputs": [],
      "stateMutability": "nonpayable",
      "type": "function"
    },
    {
      "inputs": [
        {
          "internalType": "uint256",
          "name": "_prize2",
          "type": "uint256"
        },
        {
          "internalType": "uint256",
          "name": "_prize3",
          "type": "uint256"
        },
        {
          "internalType": "uint256",
          "name": "_prize4",
          "type": "uint256"
        },
        {
          "internalType": "uint256",
          "name": "_prize5",
          "type": "uint256"
        },
        {
          "internalType": "uint256",
          "name": "_prize6",
          "type": "uint256"
        }
      ],
      "name": "setLotteryPrizes",
      "outputs": [],
      "stateMutability": "nonpayable",
      "type": "function"
    },
    {
      "inputs": [
        {
          "internalType": "uint256",
          "name": "_price",
          "type": "uint256"
        }
      ],
      "name": "setLotteryTicketPrice",
      "outputs": [],
      "stateMutability": "nonpayable",
      "type": "function"
    },
    {
      "inputs": [
        {
          "internalType": "uint256",
          "name": "_amount",
          "type": "uint256"
        }
      ],
      "name": "setMaxBetAmount",
      "outputs": [],
      "stateMutability": "nonpayable",
      "type": "function"
    },
    {
      "inputs": [
        {
          "internalType": "uint256",
          "name": "_amount",
          "type": "uint256"
        }
      ],
      "name": "setMinBetAmount",
      "outputs": [],
      "stateMutability": "nonpayable",
      "type": "function"
    },
    {
      "inputs": [
        {
          "internalType": "uint256",
          "name": "_amount",
          "type": "uint256"
        }
      ],
      "name": "setMinJackpot",
      "outputs": [],
      "stateMutability": "nonpayable",
      "type": "function"
    },
    {
      "inputs": [
        {
          "internalType": "uint256",
          "name": "_fijo",
          "type": "uint256"
        },
        {
          "internalType": "uint256",
          "name": "_centena",
          "type": "uint256"
        },
        {
          "internalType": "uint256",
          "name": "_parle",
          "type": "uint256"
        }
      ],
      "name": "setMultipliers",
      "outputs": [],
      "stateMutability": "nonpayable",
      "type": "function"
    },
    {
      "inputs": [
        {
          "internalType": "address",
          "name": "_token",
          "type": "address"
        }
      ],
      "name": "setPaymentToken",
      "outputs": [],
      "stateMutability": "nonpayable",
      "type": "function"
    },
    {
      "inputs": [
        {
          "internalType": "uint256",
          "name": "_percent",
          "type": "uint256"
        }
      ],
      "name": "setReferralBonusPercent",
      "outputs": [],
      "stateMutability": "nonpayable",
      "type": "function"
    },
    {
      "inputs": [
        {
          "internalType": "bool",
          "name": "_enabled",
          "type": "bool"
        }
      ],
      "name": "setReferralSystemEnabled",
      "outputs": [],
      "stateMutability": "nonpayable",
      "type": "function"
    },
    {
      "inputs": [
        {
          "internalType": "uint256",
          "name": "_amount",
          "type": "uint256"
        }
      ],
      "name": "setWelcomeBonusAmount",
      "outputs": [],
      "stateMutability": "nonpayable",
      "type": "function"
    },
    {
      "inputs": [
        {
          "internalType": "bool",
          "name": "_enabled",
          "type": "bool"
        }
      ],
      "name": "setWelcomeBonusEnabled",
      "outputs": [],
      "stateMutability": "nonpayable",
      "type": "function"
    },
    {
      "inputs": [
        {
          "internalType": "address",
          "name": "_user",
          "type": "address"
        },
        {
          "internalType": "uint256",
          "name": "_netAmount",
          "type": "uint256"
        },
        {
          "internalType": "bool",
          "name": "_isProfit",
          "type": "bool"
        }
      ],
      "name": "settleKenoSession",
      "outputs": [],
      "stateMutability": "nonpayable",
      "type": "function"
    },
    {
      "inputs": [
        {
          "internalType": "uint256",
          "name": "_drawId",
          "type": "uint256"
        },
        {
          "internalType": "string",
          "name": "_fijos",
          "type": "string"
        },
        {
          "internalType": "string",
          "name": "_centenas",
          "type": "string"
        },
        {
          "internalType": "string",
          "name": "_parles",
          "type": "string"
        }
      ],
      "name": "submitResults",
      "outputs": [],
      "stateMutability": "nonpayable",
      "type": "function"
    },
    {
      "inputs": [],
      "name": "ticketCounter",
      "outputs": [
        {
          "internalType": "uint256",
          "name": "",
          "type": "uint256"
        }
      ],
      "stateMutability": "view",
      "type": "function"
    },
    {
      "inputs": [
        {
          "internalType": "address",
          "name": "newOwner",
          "type": "address"
        }
      ],
      "name": "transferOwnership",
      "outputs": [],
      "stateMutability": "nonpayable",
      "type": "function"
    },
    {
      "inputs": [],
      "name": "unpause",
      "outputs": [],
      "stateMutability": "nonpayable",
      "type": "function"
    },
    {
      "inputs": [
        {
          "internalType": "address",
          "name": "",
          "type": "address"
        }
      ],
      "name": "userBalances",
      "outputs": [
        {
          "internalType": "uint256",
          "name": "",
          "type": "uint256"
        }
      ],
      "stateMutability": "view",
      "type": "function"
    },
    {
      "inputs": [
        {
          "internalType": "address",
          "name": "",
          "type": "address"
        },
        {
          "internalType": "uint256",
          "name": "",
          "type": "uint256"
        }
      ],
      "name": "userBets",
      "outputs": [
        {
          "internalType": "uint256",
          "name": "",
          "type": "uint256"
        }
      ],
      "stateMutability": "view",
      "type": "function"
    },
    {
      "inputs": [
        {
          "internalType": "address",
          "name": "",
          "type": "address"
        },
        {
          "internalType": "uint256",
          "name": "",
          "type": "uint256"
        }
      ],
      "name": "userLotteryTickets",
      "outputs": [
        {
          "internalType": "uint256",
          "name": "",
          "type": "uint256"
        }
      ],
      "stateMutability": "view",
      "type": "function"
    },
    {
      "inputs": [],
      "name": "welcomeBonusAmount",
      "outputs": [
        {
          "internalType": "uint256",
          "name": "",
          "type": "uint256"
        }
      ],
      "stateMutability": "view",
      "type": "function"
    },
    {
      "inputs": [],
      "name": "welcomeBonusEnabled",
      "outputs": [
        {
          "internalType": "bool",
          "name": "",
          "type": "bool"
        }
      ],
      "stateMutability": "view",
      "type": "function"
    },
    {
      "inputs": [
        {
          "internalType": "uint256",
          "name": "_amount",
          "type": "uint256"
        }
      ],
      "name": "withdraw",
      "outputs": [],
      "stateMutability": "nonpayable",
      "type": "function"
    }
  ],
  "bytecode": "0x6080346200041757601f62008d8538819003918201601f191683019291906001600160401b03841183851017620003a95781602092849260409687528339810103126200041757516001600160a01b0390818116810362000417573315620003ff5760008054336001600160a01b031982168117835591908416907f8be0079c531659141344cd1fd0a4f28419497f9722a3daafe3b4186f6b6457e09080a360018055620f424080600655611388600755633b9aca009081600855845185810181811060018060401b03821117620003a9578652600381526006602082015260009060005b60028110620003da57505060095562011940600a55640ba43b7400600b5564012a05f200600c55631dcd6500600d556302faf080600e5562989680600f556015556016556209eb10601755622dc6c060185562989680601955610e106022556200014d6200041c565b618ca0815261d2f06020820152620127508482015260005b60038110620003bf5750506200017a6200041c565b620001846200043c565b60068152654d414e414e4160d01b60208201528152620001a36200043c565b6005815264544152444560d81b60208201526020820152620001c46200043c565b60058152644e4f43484560d81b6020820152848201526028906000905b6003821062000240575050506101f4602b5562989680602c5561010161ffff19602d541617602d551660018060a01b0319601454161760145533600052602160205280600020600160ff198254161790555161892890816200045d8239f35b80518051906001600160401b038211620003a9578454600181811c911680156200039e575b60208210146200038857601f81116200033f575b50602090601f8311600114620002ca579282600194936020938695600092620002be575b5050600019600383901b1c191690841b1786555b01930191019091620001e1565b0151905038806200029d565b908560005260206000209160005b601f198516811062000326575083602093600196938796938794601f198116106200030c575b505050811b018655620002b1565b015160001960f88460031b161c19169055388080620002fe565b91926020600181928685015181550194019201620002d8565b856000526020600020601f840160051c81016020851062000380575b601f830160051c820181106200037357505062000279565b600081556001016200035b565b50806200035b565b634e487b7160e01b600052602260045260246000fd5b90607f169062000265565b634e487b7160e01b600052604160045260246000fd5b600190602062ffffff84511693019281602501550162000165565b9091602060019160ff9081865116918560031b92831b921b19161793019101620000e4565b8251631e4fbdf760e01b815260006004820152602490fd5b600080fd5b60405190606082016001600160401b03811183821017620003a957604052565b60408051919082016001600160401b03811183821017620003a95760405256fe6080604052600436101561001257600080fd5b60003560e01c806290acd214616484578062cbdb001461645357806303582fc5146163fa578063061e494f146162d1578063066b935d14615e705780630bd26e9214615dab5780630be8287e14615d645780630cc36c3614615c335780631020fd0914615c15578063127590a714615ad25780631290af7b1461563c57806316770c791461559757806318452cd81461555a5780631a65058c1461538f5780631dafc8f414614ee35780631e36a46b14614ec55780631e58a87214614e84578063209ab71114614da057806321874ae21461471157806321bade1314614d4457806322189ee214614b7257806322af00fa14614ac557806324def6e114614a7d57806326224c64146107915780632997757b14614a475780632d56657d146149cf5780632d816895146149b15780632e1a7d4d1461491c5780632faa4bf7146148995780633013ce291461487057806332e5b6d8146147bd57806338da7ead1461479f57806339540b0a1461471157806339988a55146146f357806339d4c70e146146145780633f4ba83a146145aa5780633fb07a3b14614560578063401d4482146144f1578063410fb08c146144cb578063426e4382146144ad578063429b62e51461446e57806343b0f7f0146144315780634a382514146144135780634a4a6b4f146143f55780634b0bddd21461436d5780634d2e259c146142115780634ecc7ae5146141eb5780635323ed381461417d578063554df63414613cd95780635799ee2a146139965780635c975abb14613973578063677bd9ff1461381e5780636826eef4146137fd5780636922d1e114613785578063697ecc6c1461325e5780636a326ab11461321b5780636c188593146131fa5780636cd425a5146131915780636ce46bc31461316f578063715018a61461311657806374b2f393146130dc578063796c65b31461309c5780637bbdf16314612ddf5780637cf210f114612dc15780637cfbc7a514612da05780637daae5bc14612ce85780638068aa6814612c9e5780638456cb5914612c4457806384ae48b514612b7c57806385b16a6e14612a9d57806388f3ed8c14612a445780638a0ab21314612a265780638a5023811461295d5780638c4d59d01461293f5780638da5cb5b146129165780638e49792d1461285f578063907cb96c14612815578063911d0189146127f757806392612c4c146125ee57806392b5ba0b146125d05780639329066c1461077357806394a4e23e146125b257806394d3cacb1461211357806395ccea67146120d6578063989feb96146120605780639c857ff7146120425780639c9ad21a14611f89578063a0ede5a414611f2c578063a0f9b45314611e69578063a11720ab14611e2b578063a416f5ab14611e0d578063a5c44a6514611c56578063ada6bb3714611afd578063b6b55f2514611a6f578063b7b50352146119fe578063b8349188146119db578063be6307c8146117fb578063bebe329d146117dd578063c9f6707e146117b1578063cab11d5d14611793578063cd6eaf1214611775578063d3a23087146114aa578063d8cb172314610fc7578063e1fb6d7f14610f8e578063e37adb3c14610f4f578063e74579b114610ecf578063e92820e614610e76578063e9715de914610e58578063ee03ac4014610e3a578063efc56ba114610e1f578063f194d625146109b2578063f2f6de5014610991578063f2fde38b1461090b578063f33ce325146108d4578063f686309e146107cb578063f8b2cb4f14610791578063f9cee0bd14610773578063fa968eea14610755578063fb3a4d21146105655763fecf615d1461054257600080fd5b34610560576000366003190112610560576020600c54604051908152f35b600080fd5b34610560576020806003193601126105605760043561058261702b565b80151580610749575b61059490617578565b8060005260108252604060002060ff918260038301541660048110156107335760036105c091146176eb565b3360005260128452604060002093604051808683829854938481520190600052836000209260005b8582821061071d575050506105ff92500386616d95565b60009260005b86518110156106db576106188188617408565b516000526011835260406000206001858183015414806106cd575b610648575b50506106439061723d565b610605565b6106558483989493618535565b808960058297949b019a60ff199b868d8254161790558c600783019116809c8254161790556006015561068791616f4f565b9614916106439261069b575b819250610638565b604051908152857ff75adeadf04a8ca4130d3774f98bdb151c71b80eb8ee92a224bced1c538e9408863393a388610693565b508760058301541615610633565b509150826106ea575b60018055005b61071391601e60099233600052526040600020610708858254616f4f565b905501918254616f4f565b90558080806106e4565b855484526001958601958b9550930192016105e8565b634e487b7160e01b600052602160045260246000fd5b5060035481111561058b565b34610560576000366003190112610560576020601554604051908152f35b34610560576000366003190112610560576020600554604051908152f35b34610560576020366003190112610560576001600160a01b036107b2616e09565b16600052601e6020526020604060002054604051908152f35b3461056057600036600319011261056057336000526021602081815260ff90816040600020541680156108c0575b6108029061741c565b61080e60225442616f4f565b9160018093815b61081b57005b601a5482116108be5781600052601c8452604060002060038101928354918583169460058610156108a95787610869948493878c809a14918261089a575b505061086f575b5050505061723d565b91610815565b600080516020618833833981519152926002809260ff1916179055604051908152a280898781610860565b6002015411159050878e610859565b89634e487b7160e01b60005260045260246000fd5b005b506000546001600160a01b031633146107f9565b34610560576020366003190112610560576108f0600435617842565b6040805160ff939093168352602083019190915290f35b0390f35b3461056057602036600319011261056057610924616e09565b61092c616ee2565b6001600160a01b03908116908115610978576000548260018060a01b0319821617600055167f8be0079c531659141344cd1fd0a4f28419497f9722a3daafe3b4186f6b6457e0600080a3005b604051631e4fbdf760e01b815260006004820152602490fd5b34610560576020366003190112610560576109aa616ee2565b600435602c55005b346105605760803660031901126105605760036024351015610560576044356001600160401b038111610560576109ed903690600401616e69565b6109f561702b565b6109fd61700d565b600435151580610e11575b610a11906171fb565b600435600052601c60205260406000209160ff600384015416600581101561073357600103610ddc5760155460643510610da75760165460643511610d725733600052601e602052610a6c6064356040600020541015617169565b610a7982826024356179db565b15610d3b5733600052601e6020526040600020610a9960643582546170d9565b9055610aa6601b5461723d565b9283601b5560405193610ab885616cd6565b3385526020850190600435825260408601610ad56024358261724c565b610ae0368787617258565b606088019081526064356080890152600060a0890181905260c08901819052928352601d6020526040909220875181546001600160a01b0319166001600160a01b03919091161781559251600184015551600283019060038110156107335760ff80198354169116179055519485516001600160401b038111610d2557610b7781610b6e6003860154616bea565b6003860161729e565b6020601f8211600114610cad57918160c092600694600898999a600092610ca2575b50508160011b916000199060031b1c19161760038501555b60808101516004850155610bda60a08201511515600586019060ff801983541691151516179055565b015191015533600052601f602052610bf96040600020601b54906172f2565b60043560005260208052610c146040600020601b54906172f2565b60078101610c22815461723d565b905501610c326064358254616f4f565b9055610c4060643533618356565b610c68601b549160405193610c5785602435616b95565b606060208601526060850191617327565b9060643560408401527f7bfd70b2e39bfa8d12e1eb9b4f11c090f6f5f716a577414637e6a21b1e7cbbb3600435938033940390a460018055005b015190508a80610b99565b6003840160005260206000209760005b601f1984168110610d0d57508260089798996006959360019360c096601f19811610610cf4575b505050811b016003850155610bb1565b015160001960f88460031b161c191690558a8080610ce4565b828201518a5560019099019860209283019201610cbd565b634e487b7160e01b600052604160045260246000fd5b60405162461bcd60e51b815260206004820152600f60248201526e496e76616c6964206e756d6265727360881b6044820152606490fd5b60405162461bcd60e51b815260206004820152600d60248201526c10589bdd99481b585e0818995d609a1b6044820152606490fd5b60405162461bcd60e51b815260206004820152600d60248201526c10995b1bddc81b5a5b8818995d609a1b6044820152606490fd5b60405162461bcd60e51b815260206004820152600d60248201526c223930bb903737ba1037b832b760991b6044820152606490fd5b50601a546004351115610a08565b34610560576000366003190112610560576020604051338152f35b34610560576000366003190112610560576020601954604051908152f35b34610560576000366003190112610560576020602b54604051908152f35b3461056057604036600319011261056057610e8f616e09565b6024359060018060a01b03809116600052602f6020526040600020805483101561056057602092610ebf91616b67565b9190546040519260031b1c168152f35b3461056057602036600319011261056057600435600052601160205260e0604060002060018060a01b038154169060018101549060ff600382015416600482015460ff6005840154169160ff6007600686015495015416946040519687526020870152604086015260608501521515608084015260a083015260c0820152f35b34610560576020366003190112610560576108be600435610f6e616ee2565b610f79811515616f0e565b601454309033906001600160a01b0316616f5c565b346105605760a036600319011261056057610fa7616ee2565b600435600b55602435600c55604435600d55606435600e55608435600f55005b3461056057608036600319011261056057602480356001600160401b03811161056057610ff8903690600401616e69565b6044356001600160401b03811161056057611017903690600401616e69565b906064356001600160401b03811161056057611037903690600401616e69565b92909533600052602160205260ff604060002054168015611496575b61105c9061741c565b600435151580611488575b611070906171fb565b600435600052601c60205260406000209060ff600383015416600581101561147357600261109e91146174a9565b6002860361143657600383036113f657600485036113b8576001600160401b0386116112bb576110de866110d56004850154616bea565b6004850161729e565b856000601f821160011461134a5760009161133f575b508660011b906000198860031b1c19161760048301555b6001600160401b0383116112bb57600582016111318461112b8354616bea565b8361729e565b836000601f82116001146112da576000916112cf575b508460011b906000198660031b1c19161790555b60068201906001600160401b0386116112bb575061117d8561112b8354616bea565b6000601f861160011461123757926111f89261120a9592876000805160206188538339815191529a99989660009161122c575b508660011b906000198860031b1c19161790555b60038060ff198184015416179101556111ea604051978897606089526060890191617327565b918683036020880152617327565b90838203604085015260043596617327565b0390a260405160038152600080516020618833833981519152602060043592a2005b90508b01358c6111b0565b601f198616908260005260206000209160005b8b8282106112a3575050928795926111f895926000805160206188538339815191529b9a9961120a999610611289575b5050600186811b0190556111c4565b8c0135600019600389901b60f8161c191690558b8061127a565b6001849560209395849301358155019401920161124a565b634e487b7160e01b60009081526041600452fd5b90508501358a611147565b60008381526020812092505b601f1987168110611327575085601f1981161061130d575b5050600184811b01905561115b565b860135600019600387901b60f8161c1916905589806112fe565b9091602060018192858b0135815501930191016112e6565b9050870135896110f4565b90506004830160005260206000209060005b601f19891681106113a0575087601f19811610611386575b5050600186811b01600483015561110b565b880135600019600389901b60f8161c191690558880611374565b9091602060018192858d01358155019301910161135c565b60649060176040519162461bcd60e51b835260206004840152820152765061726c6573206d75737420626520342064696769747360481b6044820152fd5b60649060196040519162461bcd60e51b8352602060048401528201527843656e74656e6173206d75737420626520332064696769747360381b6044820152fd5b60649060166040519162461bcd60e51b8352602060048401528201527546696a6f73206d75737420626520322064696769747360501b6044820152fd5b50634e487b7160e01b60009081526021600452fd5b50601a546004351115611067565b506000546001600160a01b03163314611053565b346105605760203660031901126105605733600052602160205260ff604060002054168015611761575b6114dd9061741c565b600435151580611753575b6114f190617578565b6004356000526010602052604060002060ff6003820154166004811015610733576002036117175761152960028201544210156174eb565b61153460245461723d565b9081602455600781015461155e61156c60088401546040519283916020830195883344428a617747565b03601f198101835282616d95565b519020916040519261157d84616d0d565b60a036853760005b600560ff821610156116795760368206916001830183116116635760081c9460009460005b60ff811660ff85168110156116575760ff6115cb8160018901169286617624565b5116146115e0576115db90617601565b6115aa565b5091959290945060015b15611631575b5081156115ff575b9293611585565b906040516116288161155e86602083019542908791606093918352602083015260408201520190565b519020906115f8565b9460ff60016116509397011661164a60ff831687617624565b52617601565b93856115f0565b505091959290946115ea565b634e487b7160e01b600052601160045260246000fd5b84600a830660ff1685600083815b600581106116f857857fdd641e9a42d92ca7a88aada73d01c8308021d2c63e52ecb3333985cf3fdae35c6116f387878760048201556003806005830160ff199085828254161790558184015416179101556116e360043561867c565b604051918291600435958361766a565b0390a2005b9091602061170e6001928460ff87511691617656565b93019101611687565b60405162461bcd60e51b8152602060048201526014602482015273135d5cdd0818994818db1bdcd95908199a5c9cdd60621b6044820152606490fd5b5060035460043511156114e8565b506000546001600160a01b031633146114d4565b34610560576000366003190112610560576020600d54604051908152f35b34610560576000366003190112610560576020601654604051908152f35b346105605760203660031901126105605760043560038110156105605760209060250154604051908152f35b34610560576000366003190112610560576020600e54604051908152f35b3461056057602036600319011261056057600061012060405161181d81616cba565b8281526060602082015282604082015282606082015260606080820152606060a0820152606060c08201528260e0820152826101008201520152600435600052601c60205260406000206040519061187482616cba565b805482526040516118938161188c8160018601616c24565b0382616d95565b60208301526002810154604083015260ff6003820154169060058210156107335760099160608401526040516118d08161188c8160048601616c24565b60808401526040516118e98161188c8160058601616c24565b60a08401526040516119028161188c8160068601616c24565b60c0840152600781015460e0840152600881015461010084015201546101208201526040518091602082528051602083015260208101516101206119bb61195761014093846040880152610160870190616bc5565b6040850151606087015261197360608601516080880190616dc3565b6119a6611992608087015192601f1993848a83030160a08b0152616bc5565b60a0870151838983030160c08a0152616bc5565b9060c0860151908783030160e0880152616bc5565b9260e0810151610100860152610100810151828601520151908301520390f35b3461056057600036600319011261056057602060ff602d54166040519015158152f35b34610560576020366003190112610560576000805160206188d38339815191526040600435611a2b616ee2565b611a36811515616f0e565b601454611a51908290309033906001600160a01b0316616f5c565b611a5d81600554616f4f565b908160055582519182526020820152a1005b3461056057602036600319011261056057600435611a8b61702b565b611a9361700d565b611a9e811515616f0e565b601454611ab9908290309033906001600160a01b0316616f5c565b33600052601e6020526040600020611ad2828254616f4f565b9055611add33618213565b60405190815260008051602061881383398151915260203392a260018055005b3461056057600036600319011261056057601a54600060015b82811115611bd35750611b2890617546565b60009160015b81811115611b4457604051806109078582616e2e565b80600052601c60209080825260ff600381816040600020015416926005938481101561073357600114948515611bae575b5050505050611b8d575b611b889061723d565b611b2e565b92611ba68185611ba0611b889487617408565b5261723d565b939050611b7f565b6000878152919052604090200154169150811015610733576002148580808080611b75565b80600052601c60209080825260ff600381816040600020015416926005938481101561073357600114948515611c31575b5050505050611c1c575b611c179061723d565b611b16565b90611c29611c179161723d565b919050611c0e565b6000878152919052604090200154169150811015610733576002148480808080611c04565b346105605760208060031936011261056057600435611c7361702b565b80151580611e01575b611c85906171fb565b80600052601c825260406000209060ff90816003840154169260059384811015610733576003611cb591146173c7565b33600052601f8552604060002093604051808688829854938481520190600052886000209260005b8a828210611deb57505050611cf492500386616d95565b60009160005b8651811015611d7f57611d0d8188617408565b51600052601d88526040600020600186818301541480611d72575b611d3d575b5050611d389061723d565b611cfa565b90611d389295611d6a926006611d53878561800f565b9384928982019060ff198254161790550155616f4f565b939089611d2d565b5087858301541615611d28565b83888382611d8d5760018055005b60009160097f5380cf6fe903b40c6d5a9e0dfbca2f3a423f0a21520b4d5947ed5169bdba946d92338552601e835260408520611dca878254616f4f565b905501611dd8858254616f4f565b90556040519384523393a38080806106e4565b855484526001958601958b955093019201611cdd565b50601a54811115611c7c565b34610560576000366003190112610560576020601b54604051908152f35b3461056057611e3936616b51565b90600052602080526040600020805482101561056057602091611e5b91616b67565b90546040519160031b1c8152f35b3461056057606036600319011261056057611e82616e09565b60243560443591821515830361056057611e9a616ee2565b6001600160a01b031691611eaf83151561704e565b15611ee95760206000805160206188138339815191529183600052601e82526040600020611ede828254616f4f565b9055604051908152a2005b60206000805160206188b38339815191529183600052601e8252611f14816040600020541015617091565b83600052601e82526040600020611ede8282546170d9565b3461056057602036600319011261056057600435611f48616ee2565b620f42408110611f5757600655005b60405162461bcd60e51b815260206004820152600a602482015269135a5b880c481554d11560b21b6044820152606490fd5b346105605760203660031901126105605760043533600052602160205260ff60406000205416801561202e575b611fbf9061741c565b80151580612022575b611fd1906171fb565b80600052601c6020526003604060002001805460ff81169060058210156107335761200060016002931461746c565b60ff1916179055600080516020618833833981519152602060405160028152a2005b50601a54811115611fc8565b506000546001600160a01b03163314611fb6565b34610560576000366003190112610560576020600a54604051908152f35b34610560576020806003193601126105605760043560005260138152604060002090604051908181845491828152019360005281600020916000905b8282106120bf57610907856120b381890382616d95565b60405191829182616e2e565b83548652948501946001938401939091019061209c565b34610560576040366003190112610560576108be6120f2616e09565b6120fa616ee2565b600054602435916001600160a01b0391821691166171ac565b346105605761212136616b51565b9061212a61702b565b61213261700d565b801515806125a6575b61214490617578565b8115158061259b575b156125635780600052601060205260406000209060ff60038301541660048110156107335761217f60018592146175c2565b61218b81600654617643565b9133600052601e6020526121a6836040600020541015617169565b33600052601e60205260406000206121bf8482546170d9565b90556000915b808310612229576000805160206188d3833981519152604060068761271061220189600884016121f6828254616f4f565b905560075490617643565b049061220f82600554616f4f565b92839182600555015582519182526020820152a160018055005b6122386024949293945461723d565b9283602455604051904260208301524460408301523360601b60608301528460748301526094868184015282528160c08101106001600160401b0360c084011117610d255760c082979394969701604052815160208301209361229d60c08401616d0d565b60a03660c08501376000935b600560ff861610156123925760368606956001870187116116635760081c98899260009960005b60ff811660ff8a168110156123845760ff6122f48160018e01169260c08c01617624565b5116146123095761230490617601565b6122d0565b50939790929a91995060015b15612361575b50801561232c575b509096976122a9565b9095506040516123578161155e8a602083019542908791606093918352602083015260408201520190565b5190209489612323565b9560ff600161237d9398011661164a60ff831660c08901617624565b948a61231b565b5050939790929a9199612315565b9697929350938195506123a660045461723d565b9384600455604051946123b886616cf1565b33865283602087015260c08201604087015260ff600a8406166060870152426080870152600060a0870152600060c0870152600060e0870152600052601160205260406000209460018060a01b0381511660018060a01b03198754161786556020810151600187015560408101519560009660005b6005811061253457505061252a96600282015560ff60e0600760038401938360608701511694841995868254161790556080860151600482015561248660a08701511515600583019060ff801983541691151516179055565b60c086015160068201550193015116908254161790553360005260126020526124b66040600020600454906172f2565b8260005260136020526124d06040600020600454906172f2565b6124dd600789015461723d565b60078901557f822fb3512bf9bfa01723192be5f296af45d11763805f1be2ccb75a0afc648d9b6125226004549260405191829160c060ff600a3399061691018361766a565b0390a461723d565b91909392936121c5565b919395509193959660206125506001928460ff87511691617656565b930191019089959391979694929761242d565b60405162461bcd60e51b815260206004820152601060248201526f42757920312d3130207469636b65747360801b6044820152606490fd5b50600a82111561214d565b5060035481111561213b565b34610560576000366003190112610560576020601754604051908152f35b34610560576000366003190112610560576020601a54604051908152f35b346105605760208060031936011261056057600435336000526021825260ff806040600020541680156127e3575b6126259061741c565b811515806127d7575b612637906171fb565b81600052601c83526003604060002001928354828116946005958681101561073357600381146127985760041461275f57600460ff1980931617905583600052818052604060002094604051808785829954938481520190600052856000209260005b87828210612749575050506126b192500387616d95565b60005b865181101561272e57806126cb6126ed9289617408565b51600052601d855260406000208381019087825416156126f2575b505061723d565b6126b4565b600481015490546001600160a01b03166000908152601e8852604090208054909161271c91616f4f565b905560018582541617905588806126e6565b856000805160206188338339815191528560405160048152a2005b855484526001958601958c95509301920161269a565b60405162461bcd60e51b8152600481018490526011602482015270105b1c9958591e4818d85b98d95b1b1959607a1b6044820152606490fd5b60405162461bcd60e51b815260048101859052601760248201527610d85b9b9bdd0818d85b98d95b0818dbdb5c1b195d1959604a1b6044820152606490fd5b50601a5482111561262e565b506000546001600160a01b0316331461261c565b34610560576000366003190112610560576020600854604051908152f35b346105605760403660031901126105605761282e616e09565b6001600160a01b031660009081526012602052604090208054602435919082101561056057602091611e5b91616b67565b346105605760203660031901126105605760043533600052602160205260ff604060002054168015612902575b6128959061741c565b801515806128f6575b6128a7906171fb565b80600052601c6020526003604060002001805460ff8116906005821015610733576128d46001921561746c565b60ff1916179055600080516020618833833981519152602060405160018152a2005b50601a5481111561289e565b506000546001600160a01b0316331461288c565b34610560576000366003190112610560576000546040516001600160a01b039091168152602090f35b34610560576000366003190112610560576020600454604051908152f35b346105605760203660031901126105605760043533600052602160205260ff604060002054168015612a12575b6129939061741c565b80151580612a06575b6129a590617578565b60005260106020526003604060002001805460ff81166004811015610733576001036129d65760ff19166002179055005b60405162461bcd60e51b81526020600482015260086024820152672737ba1037b832b760c11b6044820152606490fd5b5060035481111561299c565b506000546001600160a01b0316331461298a565b34610560576000366003190112610560576020600654604051908152f35b3461056057602036600319011261056057600435612a60616ee2565b611f408111612a6e57600755005b60405162461bcd60e51b81526020600482015260076024820152664d61782038302560c81b6044820152606490fd5b3461056057600036600319011261056057601a54600060015b82811115612b335750612ac890617546565b60009160015b81811115612ae457604051806109078582616e2e565b80600052601c60205260ff60036040600020015416600581101561073357600114612b18575b612b139061723d565b612ace565b92612b2b8185611ba0612b139487617408565b939050612b0a565b80600052601c60205260ff60036040600020015416600581101561073357600114612b67575b612b629061723d565b612ab6565b90612b74612b629161723d565b919050612b59565b3461056057600036600319011261056057612b9561702b565b33600052602e6020526003604060002001548015612c095733600052602e60205260006003604082200155601e6020526040600020612bd5828254616f4f565b90556040519081527f53473e2a2e0cc6840d80567f104277ea6daa0891e5316836bac38a686b79ea3360203392a260018055005b60405162461bcd60e51b81526020600482015260136024820152724e6f2070656e64696e67206561726e696e677360681b6044820152606490fd5b3461056057600036600319011261056057612c5d616ee2565b612c6561700d565b600160ff1960025416176002557f62e78cea01bee320cd4e420270b5ea74000d11b0c9f74754ebdbfc544b05a2586020604051338152a1005b3461056057604036600319011261056057612cb7616e09565b6001600160a01b03166000908152601f602052604090208054602435919082101561056057602091611e5b91616b67565b3461056057612cf636616ec8565b91612cff616ee2565b81811080612d97575b15612d625762015180831015612d2357602555602655602755005b60405162461bcd60e51b81526020600482015260176024820152764d7573742062652077697468696e20323420686f75727360481b6044820152606490fd5b60405162461bcd60e51b815260206004820152600d60248201526c24b73b30b634b21037b93232b960991b6044820152606490fd5b50828210612d08565b3461056057602036600319011261056057612db9616ee2565b600435601655005b34610560576000366003190112610560576020600754604051908152f35b346105605760003660031901126105605733600052602160205260ff604060002054168015613088575b612e129061741c565b612e1e60225442616f4f565b60015b60035481116108be578060005260106020526040600020600381015460ff81166004811015610733576001148061307a575b613068575b5060ff6003820154166004811015610733576002809114908161305a575b50612e8b575b50612e869061723d565b612e21565b9190612e9860245461723d565b90816024556007840154604051612ebc8161155e856020830195883344428a617747565b51902090604051612ecc81616d0d565b60a03682376000915b600560ff84161015612fad5760368406936001850185116116635760081c9660009660005b60ff811660ff8716811015612fa15760ff612f1b8160018b01169288617624565b511614612f3057612f2b90617601565b612efa565b5091979490965060015b15612f81575b508315612f4f575b9495612ed5565b92604051612f788161155e88602083019542908791606093918352602083015260408201520190565b51902092612f48565b9260ff6001612f9a9395011661164a60ff831685617624565b9187612f40565b50509197949096612f3a565b94956004810194509150600090815b6005811061303b5750508360ff8695947fdd641e9a42d92ca7a88aada73d01c8308021d2c63e52ecb3333985cf3fdae35c9460c094612e86999755600380600583019385600a8119920616818654161785558184015416179101556130208661867c565b541661302f604051809361777c565b60a0820152a290612e7c565b909160206130516001928460ff87511691617656565b93019101612fbc565b905081015442101584612e76565b60ff1916600217600382015583612e58565b508360028301541115612e53565b506000546001600160a01b03163314612e09565b346105605760003660031901126105605760a0600b54600c54600d54600e5490600f54926040519485526020850152604084015260608301526080820152f35b34610560576020366003190112610560576004356002811015610560578060ff60209260051c6009015460f86040519360031b161c168152f35b346105605760003660031901126105605761312f616ee2565b600080546001600160a01b0319811682556001600160a01b03167f8be0079c531659141344cd1fd0a4f28419497f9722a3daafe3b4186f6b6457e08280a3005b346105605761317d36616ec8565b91613186616ee2565b601755601855601955005b346105605760208060031936011261056057600435600052808052604060002090604051908181845491828152019360005281600020916000905b8282106131e357610907856120b381890382616d95565b8354865294850194600193840193909101906131cc565b3461056057602036600319011261056057613213616ee2565b600435601555005b3461056057602036600319011261056057613234616e09565b61323c616ee2565b601480546001600160a01b0319166001600160a01b0392909216919091179055005b346105605760003660031901126105605733600052602160205260ff604060002054168015613771575b6132919061741c565b61329d60225442616f4f565b6001905b601a5482116108be5781600052601c602052604060002091600383015460ff811690600582101561073357600183921480613763575b613735575b505060ff60038401541660058110156107335760028091149081613727575b50613312575b61330c91925061723d565b906132a1565b61331d60245461723d565b80602455600784015460088501546040519160208301934285524460408501523360601b60608501526074840152609483015260b482015260d48381830152815261336781616cf1565b5190209261337484617ac9565b8051906001600160401b038211610d255781906133a1826133986004870154616bea565b6004870161729e565b602090601f83116001146136b5576000926136aa575b50508160011b916000199060031b1c19161760048201555b6133db8460401c617b40565b9384516001600160401b038111610d2557613406816133fd6005860154616bea565b6005860161729e565b6020601f821160011461363a5781929394959660009261362f575b50508160011b916000199060031b1c19161760058301555b6134458160801c617bdb565b8051906001600160401b038211610d2557613470826134676006870154616bea565b6006870161729e565b602090601f831160011461359557938560008051602061887383398151915281969585600080516020618853833981519152966135659661330c9b9960009261358a575b50508160011b916000199060031b1c19161760068501555b600360ff19818601541617600385015560405180916080825261351d61350c6134fb6080850160048a01616c24565b848103602086015260058901616c24565b838103604085015260068801616c24565b9060608301520390a26040519182916060835260066135566135456060860160048501616c24565b858103602087015260058401616c24565b91848303604086015201616c24565b0390a280600080516020618833833981519152602060405160038152a2829150613301565b015190508c806134b4565b906006850160005260206000209160005b601f19851681106136175750956000805160206188738339815191528196929560018661356596859961330c9c6000805160206188538339815191529a601f198116106135fe575b505050811b0160068501556134cc565b015160001960f88460031b161c191690558c80806135ee565b919260206001819286850151815501940192016135a6565b015190508680613421565b6005840160005260206000209060005b601f198416811061369257506001939495969783601f19811610613679575b505050811b016005830155613439565b015160001960f88460031b161c19169055868080613669565b9091602060018192858c01518155019301910161364a565b0151905086806133b7565b9250600484016000526020600020906000935b601f198416851061370c576001945083601f198116106136f3575b505050811b0160048201556133cf565b015160001960f88460031b161c191690558680806136e3565b818101518355602094850194600190930192909101906136c8565b9050830154421015846132fb565b6020600080516020618833833981519152916002809160ff1916176003880155604051908152a280846132dc565b5083600286015411156132d7565b506000546001600160a01b03163314613288565b3461056057602080600319360112610560576001600160a01b036137a7616e09565b1660005260128152604060002090604051908181845491828152019360005281600020916000905b8282106137e657610907856120b381890382616d95565b8354865294850194600193840193909101906137cf565b3461056057602036600319011261056057613816616ee2565b600435600855005b34610560576020806003193601126105605760043561383b61702b565b80151580613967575b61384d90617348565b6000818152601d83526040902080546001600160a01b03163303613933576005810192835461387f60ff821615617389565b6001830154600052601c825260406000209260ff600385015416906005821015610733576001966138b46003600694146173c7565b6138be868361800f565b97889460ff19161790550155836138d55760018055005b60097f5380cf6fe903b40c6d5a9e0dfbca2f3a423f0a21520b4d5947ed5169bdba946d9233600052601e83526040600020613911878254616f4f565b90550161391f858254616f4f565b90556040519384523393a3808080806106e4565b60405162461bcd60e51b815260048101849052600c60248201526b139bdd081e5bdd5c8818995d60a21b6044820152606490fd5b50601b54811115613844565b3461056057600036600319011261056057602060ff600254166040519015158152f35b34610560576139a436616e96565b33600052602160205260ff604060002054168015613cc5575b6139c69061741c565b42811115613c8a576139d960035461723d565b9283600355600554600854809110613c81575b50604051936139fa85616d0d565b600085526000602086015260006040860152600060608601526000608086015260055460405195613a2a87616d28565b828752613a38368786617258565b6020880152846040880152600160608801526080870152600060a087015260c0860152600060e0860152600061010086015260006101208601526000610140860152600052601060205260406000208451815560208501518051906001600160401b038211610d25578190613abd82613ab46001870154616bea565b6001870161729e565b602090601f8311600114613c0f57600092613c04575b50508160011b916000199060031b1c19161760018201555b604085015160028201556060850151600481101561073357613b10906003830161772f565b60808501519460009560005b60058110613be557505081600a610140613bb09360209960047f3433f759b0701674c603c0f151b43eca229255c3b1f6b1437c82de5a4ec6df59989701556005840160ff60a08301511660ff1982541617905560c0810151600685015560e08101516007850155610100810151600885015561012081015160098501550151151591019060ff801983541691151516179055565b600354938493600554613bd0604051948594606086526060860191617327565b918884015260408301520390a2604051908152f35b90966020613bfb6001928460ff8c511691617656565b98019101613b1c565b015190508780613ad3565b9250600184016000526020600020906000935b601f1984168510613c66576001945083601f19811610613c4d575b505050811b016001820155613aeb565b015160001960f88460031b161c19169055878080613c3d565b81810151835560209485019460019093019290910190613c22565b600555846139ec565b60405162461bcd60e51b81526020600482015260136024820152724d757374206265206675747572652074696d6560681b6044820152606490fd5b506000546001600160a01b031633146139bd565b3461056057613ce736616e96565b33600052602160205260ff604060002054168015614169575b613d099061741c565b613d14601a5461723d565b9283601a5560405193613d2685616cba565b808552613d34368584617258565b90602086019182526040860184815260608701906000825260405192613d5984616d44565b6000845260808901938452604051613d7081616d44565b6000815260a08a0152604051613d8581616d44565b6000815260c08a0152600060e08a015260006101008a015260006101208a0152600052601c602052604060002093885185555180516001600160401b038111610d2557806001870192613de282613ddc8654616bea565b8661729e565b602090601f8311600114614103576000926140f8575b50508160011b916000199060031b1c19161790555b51600284015551600581101561073357613e2a9060038401617454565b5180516001600160401b038111610d2557806004840192613e4f82613ddc8654616bea565b602090601f831160011461409257600092614087575b50508160011b916000199060031b1c19161790555b60a085015180516001600160401b038111610d2557806005840192613ea382613ddc8654616bea565b602090601f831160011461402157600092614016575b50508160011b916000199060031b1c19161790555b600681019460c08101519586516001600160401b038111610d2557602097613f0082613efa8554616bea565b8561729e565b8890601f8311600114613f985792826101209360008051602061889383398151915298979693600996600092613f8d575b50508160011b916000199060031b1c19161790555b60e0810151600785015561010081015160088501550151910155601a54938493613f7d604051938493604085526040850191617327565b90878301520390a2604051908152f35b015190508c80613f31565b90601f19831691846000528a6000209260005b818110613fff5750936000805160206188938339815191529897969360099693600193836101209810613fe6575b505050811b019055613f46565b015160001960f88460031b161c191690558c8080613fd9565b92938c600181928786015181550195019301613fab565b015190508880613eb9565b6000858152602081209350601f198516905b81811061406f5750908460019594939210614056575b505050811b019055613ece565b015160001960f88460031b161c19169055888080614049565b92936020600181928786015181550195019301614033565b015190508880613e65565b6000858152602081209350601f198516905b8181106140e057509084600195949392106140c7575b505050811b019055613e7a565b015160001960f88460031b161c191690558880806140ba565b929360206001819287860151815501950193016140a4565b015190508b80613df8565b6000858152602081209350601f198516905b8181106141515750908460019594939210614138575b505050811b019055613e0d565b015160001960f88460031b161c191690558b808061412b565b92936020600181928786015181550195019301614115565b506000546001600160a01b03163314613d00565b3461056057604036600319011261056057614196616e09565b6000805160206188138339815191526020602435926141b3616ee2565b6141be841515616f0e565b6001600160a01b0316926141d384151561704e565b83600052601e82526040600020611ede828254616f4f565b3461056057600036600319011261056057602060ff602d5460081c166040519015158152f35b346105605760003660031901126105605760405161422e81616d7a565b6060809136903760405161424181616d7a565b60005b82811061435f576022546023546040519190859060256000855b600382106143495750505061427284616d7a565b6040519182018281106001600160401b03821117610d255760405260286000835b600382106143245750506040519384525060209360c084019060008686015b8760038310614310575050505060c06080850152936101208401929060005b600381106142e6578580868660a08301520390f35b909193828061430160019360bf198a8203018b528851616bc5565b960197019101959190956142d1565b8060019285518152019301910190916142b2565b60016020819260405161433b8161188c818a616c24565b815201930191019091614293565b600160208192855481520193019101909161425e565b808360209284015201614244565b3461056057604036600319011261056057614386616e09565b6024359081151590818303610560577f235bc17e7930760029e9f4d860a2a8089976de5b381cf8380fc11c1d88a11133916143ec6020926143c5616ee2565b60018060a01b031694856000526021845260406000209060ff801983541691151516179055565b604051908152a2005b34610560576000366003190112610560576020600354604051908152f35b34610560576000366003190112610560576020600b54604051908152f35b346105605760203660031901126105605761444a616e1f565b614452616ee2565b61ff00602d5491151560081b169061ff00191617602d55600080f35b34610560576020366003190112610560576001600160a01b0361448f616e09565b166000526021602052602060ff604060002054166040519015158152f35b34610560576000366003190112610560576020602254604051908152f35b346105605760203660031901126105605760206144e96004356177b1565b604051908152f35b346105605760403660031901126105605761450a616e09565b6000805160206188b3833981519152602060243592614527616ee2565b614532841515616f0e565b6001600160a01b03169261454784151561704e565b83600052601e8252611f14816040600020541015617091565b346105605760203660031901126105605760043560038110156105605761188c6145966109079260405192838092602801616c24565b604051918291602083526020830190616bc5565b34610560576000366003190112610560576145c3616ee2565b60025460ff8116156146025760ff19166002557f5db9ee0a495bf2e6ff9c91a7834c1ba4fdd244a5e8aa4e537bd38aeae4b073aa6020604051338152a1005b604051638dfc202b60e01b8152600490fd5b346105605760003660031901126105605760038054600060015b828111156146ab575061464090617546565b9060009260015b8281111561465d57604051806109078682616e2e565b80600052601060205260ff826040600020015416600481101561073357600114614690575b61468b9061723d565b614647565b936146a38186611ba061468b9488617408565b949050614682565b80600052601060205260ff8460406000200154166004811015610733576001146146de575b6146d99061723d565b61462e565b906146eb6146d99161723d565b9190506146d0565b34610560576000366003190112610560576020602454604051908152f35b34610560576020366003190112610560576001600160a01b0380614733616e09565b16600052602e6020526040600020908154166109076001830154926002810154906003810154600560ff60048401541692015492604051968796879260a094919796959260c0850198600180881b03168552602085015260408401526060830152151560808201520152565b34610560576000366003190112610560576020601854604051908152f35b3461056057602080600319360112610560576001600160a01b0390816147e1616e09565b16600052602f8152604060002060405191828183549182815201908193600052826000209060005b81811061485a575050508361481f910384616d95565b60405192818401908285525180915260408401929160005b8281106148445785850386f35b8351871685529381019392810192600101614837565b8254881684529284019260019283019201614809565b34610560576000366003190112610560576014546040516001600160a01b039091168152602090f35b34610560576020366003190112610560576004356148b5616ee2565b61012c81101580614910575b156148cb57602255005b60405162461bcd60e51b815260206004820152601f60248201527f4d757374206265206265747765656e20356d696e20616e642032686f757273006044820152606490fd5b50611c208111156148c1565b346105605760203660031901126105605760043561493861702b565b614943811515616f0e565b33600052601e60205261495d816040600020541015617169565b33600052601e60205260406000206149768282546170d9565b905560145461499190829033906001600160a01b03166171ac565b6040519081526000805160206188b383398151915260203392a260018055005b34610560576000366003190112610560576020600f54604051908152f35b3461056057602080600319360112610560576001600160a01b036149f1616e09565b16600052601f8152604060002090604051908181845491828152019360005281600020916000905b828210614a3057610907856120b381890382616d95565b835486529485019460019384019390910190614a19565b3461056057602036600319011261056057614a60616e1f565b614a68616ee2565b60ff8019602d54169115151617602d55600080f35b346105605760003660031901126105605760c06006546007546008546005546003549160045493604051958652602086015260408501526060840152608083015260a0820152f35b3461056057602036600319011261056057600435600052601d602052604060002060018060a01b0381541660018201549160ff60028201541660405191614b1a83614b138160038501616c24565b0384616d95565b614b5c600482015493614b4b600660ff60058601541694015494604051988998895260208901526040880190616b95565b60e0606087015260e0860190616bc5565b926080850152151560a084015260c08301520390f35b34610560576020806003193601126105605760405190614b9182616d28565b600082526060818301526000604083015260006060830152604051614bb581616d0d565b60a03682376080830152600060a0830152600060c0830152600060e0830152610100916000838201526101206000818301526000610140809301526004356000526010835260406000209160405191614c0d83616d28565b8354835260405195614c2d87614c268160018901616c24565b0388616d95565b8584019687526002850154946040850195865260ff600382015416936060860194600481101561073357855260405190614c6a826004850161777c565b614c7382616d0d565b60808701918252600583015460ff1660a0880190815260068401549260c0890193845260078501549460e08a019586526008810154968a019687526009810154978a01978852600a015460ff1697838a0198151589526040519c8c8e9d9b8e9c8d5251908c0152516101e06040819c01526102008d01614cf291616bc5565b9a5160608d01525160808c01614d0791616db6565b5160a08b01614d1591616dd0565b5160ff16908901525161016088015251610180870152516101a0860152516101c0850152511515908301520390f35b34610560576020366003190112610560576001600160a01b03614d65616e09565b16600052602e6020526080604060002060018101549060036002820154910154602b5491604051938452602084015260408301526060820152f35b3461056057602036600319011261056057614db9616e09565b6001600160a01b03614dda828216614dd3338214156170e6565b151561712a565b33600052602e60205260406000205416614e485733600052602e602052600560406000200154614e0e576108be90336180fe565b60405162461bcd60e51b8152602060048201526012602482015271105b1c9958591e481c9959da5cdd195c995960721b6044820152606490fd5b60405162461bcd60e51b815260206004820152601460248201527320b63932b0b23c903430b9903932b332b93932b960611b6044820152606490fd5b34610560576000366003190112610560576080602b5460ff602c54602d549060405193845260208401528181161515604084015260081c1615156060820152f35b34610560576000366003190112610560576020602c54604051908152f35b346105605760003660031901126105605733600052602160205260ff60406000205416801561537b575b614f169061741c565b614f25620151804206426170d9565b620151808104600481018091116116635760005b60078110614f4357005b6007614f5182828506616f4f565b06816201518081020462015180148215171561166357614f82614f7962015180840286616f4f565b600a5490616f4f565b906003811480918115615370575b5080615367575b614fac575b5050614fa79061723d565b614f39565b600354600060015b82811115615337575b5015614fca575b50614f9c565b614fd39061723d565b908160035560055460085480911061532e575b501561530c57604051614ff881616d5f565b60038152624d494560e81b6020820152905b61508061502461501f62015180870289616f4f565b617ca3565b92604051809467464f5254554e412d60c01b6020830152602d60f81b81516150558160289460208688019101616ba2565b8301918201528251906150718260299560208785019101616ba2565b01036009810185520183616d95565b6040519061508d82616d0d565b6000825260006020830152600060408301526000606083015260006080830152600554604051926150bd84616d28565b828452846020850152856040850152600160608501526080840152600060a084015260c0830152600060e083015260006101008301526000610120830152600061014083015260005260106020526040600020908051825560208101518051906001600160401b038211610d255781906151478261513e6001880154616bea565b6001880161729e565b602090601f831160011461529a5760009261528f575b50508160011b916000199060031b1c19161760018301555b60408101516002830155606081015160048110156107335761519a906003840161772f565b608081015160009060005b600581106152705750509261523f83600a61014061525a95614fa79a999860047f3433f759b0701674c603c0f151b43eca229255c3b1f6b1437c82de5a4ec6df599901556005840160ff60a08301511660ff1982541617905560c0810151600685015560e08101516007850155610100810151600885015561012081015160098501550151151591019060ff801983541691151516179055565b60035493600554604051938493606085526060850190616bc5565b91602084015260408301520390a2908480614fc4565b909160206152866001928460ff87511691617656565b930191016151a5565b01519050898061515d565b9250600185016000526020600020906000935b601f19841685106152f1576001945083601f198116106152d8575b505050811b016001830155615175565b015160001960f88460031b161c191690558980806152c8565b818101518355602094850194600190930192909101906152ad565b60405161531881616d5f565b600381526229a0a160e91b60208201529061500a565b60055586614fe6565b806000526010602052846002604060002001541461535d576153589061723d565b614fb4565b5050600187614fbd565b50428211614f97565b600691501486614f90565b506000546001600160a01b03163314614f0d565b3461056057602080600319360112610560576004356153ac61702b565b8015158061554e575b6153be906176a7565b6000818152601183526040902080549092906001600160a01b031633036155185760058301928354906153f460ff831615617389565b600181019283546000526010815260406000209360ff600386015416600481101561073357600361542591146176eb565b60066154318685618535565b9485929199600160ff198099161790556007810160ff8b16809882541617905501558261545e5760018055005b60016154d69460097f6454b890e6df04ed2b48ec8ba08dddf37aae6d6446859a1291411ecd54b659b29733600052601e865260406000206154a0888254616f4f565b9055016154ae868254616f4f565b9055146154e5575b50506040519182913396836020909392919360ff60408201951681520152565b0390a3808080808080806106e4565b547ff75adeadf04a8ca4130d3774f98bdb151c71b80eb8ee92a224bced1c538e9408604051928484523393a385806154b6565b6064906040519062461bcd60e51b82526004820152600f60248201526e139bdd081e5bdd5c881d1a58dad95d608a1b6044820152fd5b506004548111156153b5565b346105605760203660031901126105605760206001600160a01b038061557e616e09565b16600052602e8252604060002054161515604051908152f35b34610560576040366003190112610560576004356024356001600160a01b038082169081830361056057611ab9926155f185936155d261702b565b6155da61700d565b6155e5851515616f0e565b614dd3338214156170e6565b33600052602e60205260406000208281541615908161562f575b5061561f575b506014541630903390616f5c565b61562990336180fe565b84615611565b600591500154158661560b565b346105605760e03660031901126105605760c43681116105605780359060ff821682036105605761566b61702b565b61567361700d565b600435151580615ac4575b61568790617578565b6004356000526010602052604060002060ff60038201541660048110156107335760016156b491146175c2565b33600052601e602052604060002054916156d360065480941015617169565b600960ff851611615a865792906000935b60ff8516926005948585101561580d57600160ff61570961570488617612565b617635565b161015806157f4575b156157b8576001850160ff8111611663575b60ff81168781101561579f5760ff8061574b6157046157456157048c617612565b94617612565b169116146157615761575c90617601565b615724565b60405162461bcd60e51b81526020600482015260166024820152754e756d62657273206d75737420626520756e6971756560501b6044820152606490fd5b50509450946157b091929350617601565b9391906156e4565b60405162461bcd60e51b8152602060048201526014602482015273139d5b58995c9cc81b5d5cdd081899480c4b4d4d60621b6044820152606490fd5b50603660ff61580561570488617612565b161115615712565b839033600052601e60205261582860406000209182546170d9565b905561583560045461723d565b806004556040519361584685616cf1565b33855260043560208601526040519061585e82616d0d565b6024825b828210615a6e57505050604085015260ff83166060850152426080850152600060a0850152600060c0850152600060e0850152600052601160205260406000209160018060a01b0384511660018060a01b0319845416178355602084015160018401556040840151936000805b60058110615a4f5750849550600260069501556003850160ff6060830151169060ff1991828254161790556080820151600487015560ff60e0600760a085015115159861592c60059a8b83019060ff801983541691151516179055565b60c08601518982015501930151169082541617905533600052601260205261595b6040600020600454906172f2565b60043560005260136020526159776040600020600454906172f2565b60078201615985815461723d565b9055825461599860088401918254616f4f565b90556127106159ab845460075490617643565b04916159b8838654616f4f565b9384918287550155600454906040519081956024966000905b828210615a2f5760ff841660a08601526000805160206188d383398151915260408989600435338b7f822fb3512bf9bfa01723192be5f296af45d11763805f1be2ccb75a0afc648d9b60c08da482519182526020820152a160018055005b60208060019260ff615a408d616dfb565b168152019901910190976159d1565b906020615a646001928460ff8b511691617656565b97019691016158cf565b60208091615a7b84616dfb565b815201910190615862565b60405162461bcd60e51b81526020600482015260166024820152754b6579206e756d626572206d75737420626520302d3960501b6044820152606490fd5b50600354600435111561567e565b3461056057602036600319011261056057600060e0604051615af381616cf1565b828152826020820152604051615b0881616d0d565b60a036823760408201528260608201528260808201528260a08201528260c082015201526004356000526011602052610180604060002060ff60405191615b4e83616cf1565b8260018060a01b039182815416825260018101546020830190815284604051615b7a816002860161777c565b615b8381616d0d565b60408501908152615bed826003860154169160608701928352600486015494608088019586528460078160058a0154169860a08b019915158a5260c060068201549b019a8b520154169860e08c01998a526040519b51168b525160208b01525160408a0190616dd0565b511660e087015251610100860152511515610120850152516101408401525116610160820152f35b34610560576000366003190112610560576020602354604051908152f35b3461056057602036600319011261056057600435600052601c602052604060002080546040519182806001830190615c6a91616c24565b03615c759084616d95565b600281015490600381015460ff169060405180806004840190615c9791616c24565b03615ca29082616d95565b60405180615cb38160058601616c24565b03615cbe9082616d95565b6040519182615cd08160068701616c24565b03615cdb9084616d95565b6007840154956008850154946009015495604051998a998a526101408060208c01528a01615d0891616bc5565b9160408a015260608901615d1b91616dc3565b8781036080890152615d2c91616bc5565b86810360a0880152615d3d91616bc5565b85810360c0870152615d4e91616bc5565b9260e08501526101008401526101208301520390f35b3461056057600036600319011261056057615da1615d806178cc565b91939060405194859485526020850152608060408501526080840190616bc5565b9060608301520390f35b346105605760203660031901126105605760043560005260106020526040600020805460405191615de383614b138160018501616c24565b60028101549060ff6003820154169060ff6005820154166006820154600783015490600884015492615e4a60ff600a60098801549701541696615e3a6040519b8c9b8c5260208c61014091829101528c0190616bc5565b9860408b015260608a0190616db6565b608088015260a087015260c086015260e085015261010084015215156101208301520390f35b346105605760203660031901126105605733600052602160205260ff6040600020541680156162bd575b615ea39061741c565b6004351515806162af575b615eb7906171fb565b600435600052601c602052604060002060ff6003820154166005811015610733576002615ee491146174a9565b615ef460028201544210156174eb565b615eff60245461723d565b8060245560078201546008830154600019430190438211611663576040519260208401944286524460408601523360601b60608601526074850152609484015260b48301524060d482015260d48152615f5781616cf1565b519020615f6381617ac9565b90615f708160401c617b40565b90615f7d8160801c617bdb565b9383516001600160401b038111610d2557615f9f816110d56004850154616bea565b806020601f821160011461624257600091616237575b508160011b916000199060031b1c19161760048201555b82516001600160401b038111610d2557615ff681615fed6005850154616bea565b6005850161729e565b806020601f82116001146161ca576000916161bf575b508160011b916000199060031b1c19161760058201555b84516001600160401b038111610d255761604d816160446006850154616bea565b6006850161729e565b6020601f82116001146161385793600080516020618853833981519152959361120a938361611c9461610e9860009161612d575b508160011b916000199060031b1c19161760068201555b60038060ff19818401541617910155600080516020618873833981519152604051608081526160ec6160de6160d0608084018a616bc5565b838103602085015286616bc5565b82810360408401528b616bc5565b92606082015280600435930390a2604051948594606086526060860190616bc5565b908482036020860152616bc5565b828103604084015260043595616bc5565b90508a01518b616081565b601f198216906006840160005260206000209160005b8181106161a757509360018461610e98946000805160206188538339815191529a989461611c9761120a991061618e575b5050811b016006820155616098565b8c015160001960f88460031b161c191690558b8061617f565b9192602060018192868d01518155019401920161614e565b90508401518761600c565b91506005830160005260206000206000925b601f198316841061621f576001935082601f19811610616206575b5050811b016005820155616023565b86015160001960f88460031b161c1916905587806161f7565b868101518255602093840193600190920191016161dc565b905085015187615fb5565b91506004830160005260206000206000925b601f1983168410616297576001935082601f1981161061627e575b5050811b016004820155615fcc565b87015160001960f88460031b161c19169055878061626f565b87810151825560209384019360019092019101616254565b50601a546004351115615eae565b506000546001600160a01b03163314615e9a565b346105605760208060031936011261056057600060c06040516162f381616cd6565b82815282848201528260408201526060808201528260808201528260a08201520152600435600052601d815260406000206040519061633182616cd6565b60018060a01b03928382541683526001820154918184019283526163e160ff60028301541661636460408701918261724c565b6163ce6040519161637c83614b138160038901616c24565b6060880192835260048501549660808901978852600660ff6005880154169660a08b01971515885201549660c08a019788526040519a8b9a828c525116908a0152516040890152516060880190616b95565b5160e06080870152610100860190616bc5565b925160a085015251151560c08401525160e08301520390f35b3461056057602036600319011261056057600435616416616ee2565b6103e8811161642457602b55005b60405162461bcd60e51b81526020600482015260076024820152664d61782031302560c81b6044820152606490fd5b346105605761646136616b51565b9060005260136020526040600020805482101561056057602091611e5b91616b67565b346105605760003660031901126105605733600052602160205260ff604060002054168015616b3d575b6164b79061741c565b6164c6620151804206426170d9565b806023541015616af85760005b6003811015616af2576164ea816025015483616f4f565b428111616501575b506164fc9061723d565b6164d3565b61650c601a5461723d565b80601a5561651984617ca3565b90604051916165318151809260208087019101616ba2565b602d60f81b6020828501015282600086602801549261654f84616bea565b9360018116908115616acf5750600114616a87575b50616578925003601f198101845283616d95565b60405161658481616cba565b8181526020810191838352846040830152600160608301526040516165a881616d44565b6000815260808301526040516165bd81616d44565b6000815260a08301526040516165d281616d44565b6000815260c0830152600060e083015260006101008301526000610120830152600052601c60205260406000209181518355518051906001600160401b038211610d255781906166298261513e6001880154616bea565b602090601f8311600114616a1557600092616a0a575b50508160011b916000199060031b1c19161760018301555b60408101516002830155606081015160058110156107335761667c9060038401617454565b60808101518051906001600160401b038211610d255781906166ae826166a56004880154616bea565b6004880161729e565b602090601f83116001146169985760009261698d575b50508160011b916000199060031b1c19161760048301555b60a08101518051906001600160401b038211610d2557819061670e826167056005880154616bea565b6005880161729e565b602090601f831160011461691b57600092616910575b50508160011b916000199060031b1c19161760058301555b60c08101518051906001600160401b038211610d2557616763826134676006870154616bea565b602090601f8311600114616860579360096101207fc46ebbfeb5e2e07c8e4d37aefab8218992bef4f593d8537653d96385a95415ca95856164fc9b9a966000805160206188938339815191529a9661680b9a600092616855575b50508160011b916000199060031b1c19161760068501555b60e0810151600785015561010081015160088501550151910155601a549485948592604051918291604083526040830190616bc5565b8560208301520390a260405180916040825261682d6040830188602801616c24565b9060208301520390a2600080516020618833833981519152602060405160018152a2906164f2565b015190508e806167bd565b906006850160005260206000209160005b601f19851681106168f857506101207fc46ebbfeb5e2e07c8e4d37aefab8218992bef4f593d8537653d96385a95415ca956001866000805160206188938339815191529a9661680b9a966009966164fc9f9e9a601f198116106168df575b505050811b0160068501556167d5565b015160001960f88460031b161c191690558e80806168cf565b91926020600181928685015181550194019201616871565b015190508880616724565b9250600585016000526020600020906000935b601f1984168510616972576001945083601f19811610616959575b505050811b01600583015561673c565b015160001960f88460031b161c19169055888080616949565b8181015183556020948501946001909301929091019061692e565b0151905088806166c4565b9250600485016000526020600020906000935b601f19841685106169ef576001945083601f198116106169d6575b505050811b0160048301556166dc565b015160001960f88460031b161c191690558880806169c6565b818101518355602094850194600190930192909101906169ab565b01519050888061663f565b9250600185016000526020600020906000935b601f1984168510616a6c576001945083601f19811610616a53575b505050811b016001830155616657565b015160001960f88460031b161c19169055888080616a43565b81810151835560209485019460019093019290910190616a28565b90508660280160005260206000206000905b848210616ab3575050616578926021918301010188616564565b8054602184890184010152869350602090910190600101616a99565b6021935061657895915060ff191683838601015280151502908301010188616564565b50602355005b60405162461bcd60e51b815260206004820152601f60248201527f447261777320616c7265616479206372656174656420666f7220746f646179006044820152606490fd5b506000546001600160a01b031633146164ae565b6040906003190112610560576004359060243590565b8054821015616b7f5760005260206000200190600090565b634e487b7160e01b600052603260045260246000fd5b9060038210156107335752565b60005b838110616bb55750506000910152565b8181015183820152602001616ba5565b90602091616bde81518092818552858086019101616ba2565b601f01601f1916010190565b90600182811c92168015616c1a575b6020831014616c0457565b634e487b7160e01b600052602260045260246000fd5b91607f1691616bf9565b9060009291805491616c3583616bea565b918282526001938481169081600014616c975750600114616c57575b50505050565b90919394506000526020928360002092846000945b838610616c83575050505001019038808080616c51565b805485870183015294019385908201616c6c565b9294505050602093945060ff191683830152151560051b01019038808080616c51565b61014081019081106001600160401b03821117610d2557604052565b60e081019081106001600160401b03821117610d2557604052565b61010081019081106001600160401b03821117610d2557604052565b60a081019081106001600160401b03821117610d2557604052565b61016081019081106001600160401b03821117610d2557604052565b602081019081106001600160401b03821117610d2557604052565b604081019081106001600160401b03821117610d2557604052565b606081019081106001600160401b03821117610d2557604052565b90601f801991011681019081106001600160401b03821117610d2557604052565b9060048210156107335752565b9060058210156107335752565b6000915b60058310616de157505050565b60019060ff83511681526020809101920192019190616dd4565b359060ff8216820361056057565b600435906001600160a01b038216820361056057565b60043590811515820361056057565b6020908160408183019282815285518094520193019160005b828110616e55575050505090565b835185529381019392810192600101616e47565b9181601f84011215610560578235916001600160401b038311610560576020838186019501011161056057565b604060031982011261056057600435906001600160401b03821161056057616ec091600401616e69565b909160243590565b606090600319011261056057600435906024359060443590565b6000546001600160a01b03163303616ef657565b60405163118cdaa760e01b8152336004820152602490fd5b15616f1557565b60405162461bcd60e51b81526020600482015260126024820152710416d6f756e74206d757374206265203e20360741b6044820152606490fd5b9190820180921161166357565b6040516323b872dd60e01b60208201526001600160a01b039283166024820152929091166044830152606480830193909352918152616fa391616f9e82616d0d565b616fa5565b565b906000602091828151910182855af115617001576000513d616ff857506001600160a01b0381163b155b616fd65750565b604051635274afe760e01b81526001600160a01b039091166004820152602490fd5b60011415616fcf565b6040513d6000823e3d90fd5b60ff6002541661701957565b60405163d93c066560e01b8152600490fd5b60026001541461703c576002600155565b604051633ee5aeb560e01b8152600490fd5b1561705557565b60405162461bcd60e51b8152602060048201526014602482015273496e76616c69642075736572206164647265737360601b6044820152606490fd5b1561709857565b60405162461bcd60e51b8152602060048201526019602482015278496e73756666696369656e7420757365722062616c616e636560381b6044820152606490fd5b9190820391821161166357565b156170ed57565b60405162461bcd60e51b815260206004820152601560248201527421b0b73737ba103932b332b9103cb7bab939b2b63360591b6044820152606490fd5b1561713157565b60405162461bcd60e51b815260206004820152601060248201526f24b73b30b634b2103932b332b93932b960811b6044820152606490fd5b1561717057565b60405162461bcd60e51b8152602060048201526014602482015273496e73756666696369656e742062616c616e636560601b6044820152606490fd5b60405163a9059cbb60e01b60208201526001600160a01b03909216602483015260448083019390935291815260808101916001600160401b03831182841017610d2557616fa392604052616fa5565b1561720257565b60405162461bcd60e51b8152602060048201526013602482015272111c985dc8191bd95cc81b9bdd08195e1a5cdd606a1b6044820152606490fd5b60001981146116635760010190565b60038210156107335752565b9291926001600160401b038211610d255760405191617281601f8201601f191660200184616d95565b829481845281830111610560578281602093846000960137010152565b90601f81116172ac57505050565b600091825260208220906020601f850160051c830194106172e8575b601f0160051c01915b8281106172dd57505050565b8181556001016172d1565b90925082906172c8565b8054600160401b811015610d255761730f91600182018155616b67565b819291549060031b91821b91600019901b1916179055565b908060209392818452848401376000828201840152601f01601f1916010190565b1561734f57565b60405162461bcd60e51b815260206004820152601260248201527110995d08191bd95cc81b9bdd08195e1a5cdd60721b6044820152606490fd5b1561739057565b60405162461bcd60e51b815260206004820152600f60248201526e105b1c9958591e4818db185a5b5959608a1b6044820152606490fd5b156173ce57565b60405162461bcd60e51b8152602060048201526012602482015271111c985dc81b9bdd0818dbdb5c1b195d195960721b6044820152606490fd5b8051821015616b7f5760209160051b010190565b1561742357565b60405162461bcd60e51b81526020600482015260096024820152682737ba1030b236b4b760b91b6044820152606490fd5b9060058110156107335760ff80198354169116179055565b1561747357565b60405162461bcd60e51b815260206004820152600e60248201526d496e76616c69642073746174757360901b6044820152606490fd5b156174b057565b60405162461bcd60e51b8152602060048201526013602482015272111c985dc81b5d5cdd0818994818db1bdcd959606a1b6044820152606490fd5b156174f257565b60405162461bcd60e51b8152602060048201526015602482015274111c985dc81d1a5b59481b9bdd081c995858da1959605a1b6044820152606490fd5b6001600160401b038111610d255760051b60200190565b906175508261752f565b61755d6040519182616d95565b828152809261756e601f199161752f565b0190602036910137565b1561757f57565b60405162461bcd60e51b815260206004820152601b60248201527a131bdd1d195c9e48191c985dc8191bd95cc81b9bdd08195e1a5cdd602a1b6044820152606490fd5b156175c957565b60405162461bcd60e51b815260206004820152601060248201526f2637ba3a32b93c903737ba1037b832b760811b6044820152606490fd5b60ff1660ff81146116635760010190565b6005811015616b7f5760051b60240190565b906005811015616b7f5760051b0190565b3560ff811681036105605790565b8181029291811591840414171561166357565b9060ff809160031b9316831b921b19161790565b60c0810193929091600090835b6005831061768d5750505060ff60a09116910152565b60019060ff83511681526020809101920192019190617677565b156176ae57565b60405162461bcd60e51b8152602060048201526015602482015274151a58dad95d08191bd95cc81b9bdd08195e1a5cdd605a1b6044820152606490fd5b156176f257565b60405162461bcd60e51b8152602060048201526015602482015274131bdd1d195c9e481b9bdd0818dbdb5c1b195d1959605a1b6044820152606490fd5b9060048110156107335760ff80198354169116179055565b9492909160b49694928652602086015260018060601b03199060601b1660408501526054840152607483015260948201520190565b60ff608091548181168452818160081c166020850152818160101c166040850152818160181c16606085015260201c16910152565b80151580617836575b6177c390617348565b6000908152601d602052604081209060018201548152601c602052604081209060ff60038301541660058110156178225760030361781c575060ff600583015416617814576178119161800f565b90565b506006015490565b91505090565b634e487b7160e01b82526021600452602482fd5b50601b548111156177ba565b90811515806178c0575b617855906176a7565b600091825260116020526040822091600183015481526010602052604081209060ff6003830154166004811015617822576003036178b9575060ff6005840154166178a8576178a49192618535565b9091565b50600660ff60078401541692015490565b9250508190565b5060045482111561784c565b60008019600190819060038054925b8381111561793f57505050508161790b5750506005549060009060405161790181616d44565b6000815290600090565b90916005549083600052601060205260406000209261793b600285015493959461188c6040518094819301616c24565b9190565b80600052601060209080825260409160ff85846000200154166004808210156179b5575088148061799e575b617981575b50505061797c9061723d565b6178db565b6000848152919052206002015490955091508461797c3880617970565b50836000528181528560028460002001541061796b565b602190634e487b7160e01b6000525260246000fd5b908151811015616b7f570160200190565b91906179e8913691617258565b600382101561073357811580617abd575b617a965760019182811480617ab1575b617aa95760021480617a9d575b617a9657819060009081935b617a2e575b5050905090565b8051841015617a91576001600160f81b0319600360fc1b81617a5087856179ca565b511610908115617a77575b50617a7057617a6a839461723d565b93617a22565b5091505090565b603960f81b9150617a8886846179ca565b51161138617a5b565b617a27565b5050600090565b50600481511415617a16565b505050600090565b50600382511415617a09565b506002815114156179f9565b6064900660405190617ada82616d5f565b6002825260203681840137600290815b617af357505090565b600a9060308282068101809111611663576000198401908482116116635760f81b6001600160f81b03191660001a90617b2c90866179ca565b530490801561166357600019019081617aea565b610384600091069060648201809211617bc7575060405190617b6182616d5f565b6003825260203681840137600390815b617b7a57505090565b600a9060308282068101809111611663576000198401908482116116635760f81b6001600160f81b03191660001a90617bb390866179ca565b530490801561166357600019019081617b71565b634e487b7160e01b81526011600452602490fd5b61232860009106906103e88201809211617bc7575060405190617bfd82616d5f565b6004808352602036818501378091825b617c175750505090565b600a9060308282068101809111617c8e57600019850190858211617c795760f81b6001600160f81b03191660001a90617c5090876179ca565b5304918015617c6457600019019182617c0d565b601182634e487b7160e01b6000525260246000fd5b601185634e487b7160e01b6000525260246000fd5b601184634e487b7160e01b6000525260246000fd5b620151809004620afa6c81018091116116635762023ab1808204818102928115928285041483171561166357617d0b93617cdc916170d9565b90617cf9617cee6105b48404846170d9565b618eac840490616f4f565b61016d94859162023ab08504906170d9565b049261019080830292830414171561166357617d279083616f4f565b92828102908104830361166357826064617d4b617d5393617d599660021c90616f4f565b9104906170d9565b906170d9565b80600502600581048203611663576002810180911161166357609990049081609902906099820483036116635760028201809211611663576005617d9e9204906170d9565b906001820180921161166357600a90600082821015617ffc57506003810180911161166357925b6002841115617fda575b60405193617ddc85616d5f565b82855260208501936020368637603093806103e885040685019384861161166357875115616b7f576001600160f81b03199660f895861b881660001a9053816064820406860180871161166357885160011015616b7f57851b871660001a6021890153818082040686019081871161166357885160021015616b7f57878392871b1660001a60228a015306850180861161166357875160031015616b7f57841b861660001a6023880153865191600492831015617fc557602493602d858a015382808204068701808811617fb157895160051015617f9d5790888492881b1660001a60258b0153068601808711617f7557885160061015617f6157851b871660001a6026890153875160071015617f8957602d602789015381808204068601808711617f7557885160081015617f6157851b871660001a6028890153068401809411617f4e57855160091015617f3b5750501b1660001a602982015390565b603290634e487b7160e01b600052526000fd5b601190634e487b7160e01b600052526000fd5b84603285634e487b7160e01b600052526000fd5b84601185634e487b7160e01b600052526000fd5b83603284634e487b7160e01b600052526000fd5b85603286634e487b7160e01b600052526000fd5b85601186634e487b7160e01b600052526000fd5b603283634e487b7160e01b6000525260246000fd5b6001810180911115617dcf57634e487b7160e01b600052601160045260246000fd5b6008198201918211617bc7575092617dc5565b9060008060ff6002850154166003811015617822578061808557505050600461805d6040516180458161188c8160038901616c24565b602081519101209261188c6040518094819301616c24565b602081519101201490601754915b15617a9657612710916004618081920154617643565b0490565b600181036180bb5750505060056180a96040516180458161188c8160038901616c24565b6020815191012014906018549161806b565b91939290916002146180ce575b5061806b565b9192505060066180eb6040516180458161188c8160038901616c24565b60208151910120149060195491386180c8565b60ff602d5460081c16156181d3576001600160a01b039081166000818152602e602052604080822080546001600160a01b03191695851695861781554260059091015584825281206001018054929391926181589061723d565b9055838252602f60205260408220805490600160401b8210156181bf57816181a89160017f5f1ca2fcc108b751843a763e60d2201f593516109d7dbb1b700468f2d4190bb7969594018155616b67565b819291549060031b9186831b921b191617905580a3565b634e487b7160e01b84526041600452602484fd5b60405162461bcd60e51b8152602060048201526018602482015277149959995c9c985b081cde5cdd195b48191a5cd8589b195960421b6044820152606490fd5b60ff602d5416156183535760018060a01b0380911690600090828252602090602e825260409060ff600483862001541661834c57602c5480156183445783602492601454168451938480926370a0823160e01b82523060048301525afa91821561833a578592618305575b506182909061828b6184a6565b616f4f565b1061829b5750505050565b82847f7ded0e54be7fbb9cb6364352182eb8d09829aaab2e13b4c89080d5fe3a0f263b9452602e835281812060048101600160ff198254161790556005429101556182f182602c5492601e865220918254616f4f565b9055602c549051908152a238808080616c51565b9091508381813d8311618333575b61831d8183616d95565b8101031261832f57519061829061827e565b8480fd5b503d618313565b83513d87823e3d90fd5b505050505050565b5050505050565b50565b9060ff602d5460081c16156184a25760018060a01b0380921691600090838252602090602e8252604081818520541694851561848f57602b5490811561849857612710916183a391617643565b0491821561848f5783602491601454168351928380926370a0823160e01b82523060048301525afa908115618485578591618458575b506183e68361828b6184a6565b106183f357505050505050565b60028185877fa6d05371a3daec878bf8c7ed5a16dbc19f0595497358c6beacf4c90478f1a74b9752602e8652600382822001618430868254616f4f565b9055878152602e86522001618446838254616f4f565b905551908152a3388080808080618344565b90508381813d831161847e575b61846f8183616d95565b8101031261832f5751386183d9565b503d618465565b82513d87823e3d90fd5b50505050505050565b5050505050505050565b5050565b6014546040516370a0823160e01b815230600482015290602090829060249082906001600160a01b03165afa908115617001576000916184e8575b5060011c90565b906020823d8211618514575b8161850160209383616d95565b81010312618511575051386184e1565b80fd5b3d91506184f4565b9190916005831015616b7f57601f908360051c01921690565b91600090815b600560ff8181841610156185c05760005b8282821610618567575b50505061856290617601565b61853b565b81806185768660028c0161851c565b9054906185868560048d0161851c565b949054600395861b1c16931b1c16146185a7576185a290617601565b61854c565b505050916185b761856291617601565b92903880618556565b5050509260ff600381929493940154168160058401541614921660058114808091618675575b156185f957505060060154600192909150565b9091501561860b575050600b54600291565b60048114808061866e575b1561862857505050600c549060039190565b15618637575050600d54600491565b60031480918192618666575b50156186525750600e54600591565b61865e57600090600090565b600f54600691565b905038618643565b5082618616565b50836185e6565b90600091825260206010815260409081842093601382528281209280519384848254918281520191845284842090845b8181106187fe57505050846186c2910385616d95565b81809560048801935b86518810156187f057926186df8888617408565b51835260118652808320958397849560028901965b600560ff81818416101561877957885b8b8b8484841610618723575b505050505061871e90617601565b6186f4565b83918361873d61873489869561851c565b9290549361851c565b949054600395861b1c16931b1c161461875e5761875990617601565b618704565b5050509961876e61871e91617601565b9a9038808b8b618710565b505050979194989093999295506005908160ff8092161492836187d9575b5050506187b1576187a79061723d565b96909591946186cb565b505050505050509060015b6187c35750565b600a01805460ff19166001179055600854600555565b819293506003015416918b01541614388080618797565b9550969550505050506187bc565b8254845292860192600192830192016186ac56fe2da466a7b24304f47e87fa2e1e5a81b9831ce54fec19055ce277ca2f39ba42c43fb14dcb75745b2fd6b729f1f6d005ff458435f4113b58be6e3dbf69cbcd394a4cab5e734ebef082a0255b7313875fe2004541b62282a13fb40201e6d55a70b85a13cb887ae34b9e699d260846ef94661ec8e43cf0e192e641366895e8cd1f7b7422a3316e28b0bc364bf8dada8bba9e211cb7a96513c7741e5af87b4ebf451f7084f5476618d8e60b11ef0d7d3f06914655adb8793e28ff7f018d4c76d505d5b0d06ccaa4821f41669bcc9a049d35783663cd32e846ae89a27dc9835330ce1aa26469706673582212200251d7660b1ede256c15301ca0b2baa5b6a34ec1127e36e13a4b91ffc8d2905f64736f6c63430008140033",
  "linkReferences": {},
  "deployedLinkReferences": {}
}