{
  "_format": "hh-sol-artifact-1",
  "contractName": "LaBolitaRiskManaged",
  "sourceName": "contracts/LaBolitaRiskManaged.sol",
  "abi": [
    {
      "inputs": [
        {
          "internalType": "address",
          "name": "_paymentToken",
          "type": "address"
        }
      ],
      "stateMutability": "nonpayable",
      "type": "constructor"
    },
    {
      "inputs": [],
      "name": "EnforcedPause",
      "type": "error"
    },
    {
      "inputs": [],
      "name": "ExpectedPause",
      "type": "error"
    },
    {
      "inputs": [
        {
          "internalType": "address",
          "name": "owner",
          "type": "address"
        }
      ],
      "name": "OwnableInvalidOwner",
      "type": "error"
    },
    {
      "inputs": [
        {
          "internalType": "address",
          "name": "account",
          "type": "address"
        }
      ],
      "name": "OwnableUnauthorizedAccount",
      "type": "error"
    },
    {
      "inputs": [],
      "name": "ReentrancyGuardReentrantCall",
      "type": "error"
    },
    {
      "inputs": [
        {
          "internalType": "address",
          "name": "token",
          "type": "address"
        }
      ],
      "name": "SafeERC20FailedOperation",
      "type": "error"
    },
    {
      "anonymous": false,
      "inputs": [
        {
          "indexed": true,
          "internalType": "address",
          "name": "admin",
          "type": "address"
        },
        {
          "indexed": false,
          "internalType": "bool",
          "name": "status",
          "type": "bool"
        }
      ],
      "name": "AdminUpdated",
      "type": "event"
    },
    {
      "anonymous": false,
      "inputs": [
        {
          "indexed": false,
          "internalType": "uint256",
          "name": "timestamp",
          "type": "uint256"
        },
        {
          "indexed": false,
          "internalType": "uint256",
          "name": "totalPool",
          "type": "uint256"
        },
        {
          "indexed": false,
          "internalType": "uint256",
          "name": "usableBalance",
          "type": "uint256"
        },
        {
          "indexed": false,
          "internalType": "uint256",
          "name": "payoutCap",
          "type": "uint256"
        }
      ],
      "name": "BankrollSnapshotTaken",
      "type": "event"
    },
    {
      "anonymous": false,
      "inputs": [
        {
          "indexed": true,
          "internalType": "uint256",
          "name": "betId",
          "type": "uint256"
        },
        {
          "indexed": true,
          "internalType": "address",
          "name": "player",
          "type": "address"
        },
        {
          "indexed": true,
          "internalType": "uint256",
          "name": "drawId",
          "type": "uint256"
        },
        {
          "indexed": false,
          "internalType": "enum LaBolitaRiskManaged.BetType",
          "name": "betType",
          "type": "uint8"
        },
        {
          "indexed": false,
          "internalType": "string",
          "name": "numbers",
          "type": "string"
        },
        {
          "indexed": false,
          "internalType": "uint256",
          "name": "amount",
          "type": "uint256"
        }
      ],
      "name": "BetPlaced",
      "type": "event"
    },
    {
      "anonymous": false,
      "inputs": [
        {
          "indexed": true,
          "internalType": "address",
          "name": "player",
          "type": "address"
        },
        {
          "indexed": false,
          "internalType": "uint256",
          "name": "drawId",
          "type": "uint256"
        },
        {
          "indexed": false,
          "internalType": "enum LaBolitaRiskManaged.BetType",
          "name": "betType",
          "type": "uint8"
        },
        {
          "indexed": false,
          "internalType": "string",
          "name": "numbers",
          "type": "string"
        },
        {
          "indexed": false,
          "internalType": "uint256",
          "name": "amount",
          "type": "uint256"
        },
        {
          "indexed": false,
          "internalType": "uint256",
          "name": "currentLiability",
          "type": "uint256"
        },
        {
          "indexed": false,
          "internalType": "uint256",
          "name": "payoutCap",
          "type": "uint256"
        }
      ],
      "name": "BetRejectedExposure",
      "type": "event"
    },
    {
      "anonymous": false,
      "inputs": [
        {
          "indexed": true,
          "internalType": "uint256",
          "name": "dayId",
          "type": "uint256"
        },
        {
          "indexed": false,
          "internalType": "uint256",
          "name": "totalStaked",
          "type": "uint256"
        },
        {
          "indexed": false,
          "internalType": "uint256",
          "name": "totalPaidOut",
          "type": "uint256"
        },
        {
          "indexed": false,
          "internalType": "int256",
          "name": "profitOrLoss",
          "type": "int256"
        }
      ],
      "name": "DaySettled",
      "type": "event"
    },
    {
      "anonymous": false,
      "inputs": [
        {
          "indexed": true,
          "internalType": "address",
          "name": "user",
          "type": "address"
        },
        {
          "indexed": false,
          "internalType": "uint256",
          "name": "amount",
          "type": "uint256"
        }
      ],
      "name": "Deposited",
      "type": "event"
    },
    {
      "anonymous": false,
      "inputs": [
        {
          "indexed": true,
          "internalType": "uint256",
          "name": "drawId",
          "type": "uint256"
        },
        {
          "indexed": false,
          "internalType": "string",
          "name": "drawNumber",
          "type": "string"
        },
        {
          "indexed": false,
          "internalType": "uint256",
          "name": "scheduledTime",
          "type": "uint256"
        }
      ],
      "name": "DrawCreated",
      "type": "event"
    },
    {
      "anonymous": false,
      "inputs": [
        {
          "indexed": true,
          "internalType": "uint256",
          "name": "drawId",
          "type": "uint256"
        },
        {
          "indexed": false,
          "internalType": "enum LaBolitaRiskManaged.DrawStatus",
          "name": "status",
          "type": "uint8"
        }
      ],
      "name": "DrawStatusChanged",
      "type": "event"
    },
    {
      "anonymous": false,
      "inputs": [
        {
          "indexed": false,
          "internalType": "uint256",
          "name": "dayId",
          "type": "uint256"
        },
        {
          "indexed": false,
          "internalType": "enum LaBolitaRiskManaged.BetType",
          "name": "betType",
          "type": "uint8"
        },
        {
          "indexed": false,
          "internalType": "bytes32",
          "name": "numberHash",
          "type": "bytes32"
        },
        {
          "indexed": false,
          "internalType": "uint256",
          "name": "totalStake",
          "type": "uint256"
        },
        {
          "indexed": false,
          "internalType": "uint256",
          "name": "totalLiability",
          "type": "uint256"
        }
      ],
      "name": "ExposureUpdated",
      "type": "event"
    },
    {
      "anonymous": false,
      "inputs": [
        {
          "indexed": true,
          "internalType": "uint256",
          "name": "monthId",
          "type": "uint256"
        },
        {
          "indexed": false,
          "internalType": "int256",
          "name": "netProfit",
          "type": "int256"
        },
        {
          "indexed": false,
          "internalType": "uint256",
          "name": "commission",
          "type": "uint256"
        }
      ],
      "name": "MonthlyCommissionCalculated",
      "type": "event"
    },
    {
      "anonymous": false,
      "inputs": [
        {
          "indexed": true,
          "internalType": "address",
          "name": "to",
          "type": "address"
        },
        {
          "indexed": false,
          "internalType": "uint256",
          "name": "amount",
          "type": "uint256"
        }
      ],
      "name": "OperatorFeesWithdrawn",
      "type": "event"
    },
    {
      "anonymous": false,
      "inputs": [
        {
          "indexed": true,
          "internalType": "address",
          "name": "previousOwner",
          "type": "address"
        },
        {
          "indexed": true,
          "internalType": "address",
          "name": "newOwner",
          "type": "address"
        }
      ],
      "name": "OwnershipTransferred",
      "type": "event"
    },
    {
      "anonymous": false,
      "inputs": [
        {
          "indexed": false,
          "internalType": "address",
          "name": "account",
          "type": "address"
        }
      ],
      "name": "Paused",
      "type": "event"
    },
    {
      "anonymous": false,
      "inputs": [
        {
          "indexed": false,
          "internalType": "uint256",
          "name": "newCap",
          "type": "uint256"
        },
        {
          "indexed": false,
          "internalType": "uint256",
          "name": "usableBalance",
          "type": "uint256"
        },
        {
          "indexed": false,
          "internalType": "uint256",
          "name": "totalPool",
          "type": "uint256"
        }
      ],
      "name": "PayoutCapUpdated",
      "type": "event"
    },
    {
      "anonymous": false,
      "inputs": [
        {
          "indexed": true,
          "internalType": "address",
          "name": "from",
          "type": "address"
        },
        {
          "indexed": false,
          "internalType": "uint256",
          "name": "amount",
          "type": "uint256"
        },
        {
          "indexed": false,
          "internalType": "uint256",
          "name": "newTotal",
          "type": "uint256"
        }
      ],
      "name": "PoolDeposited",
      "type": "event"
    },
    {
      "anonymous": false,
      "inputs": [
        {
          "indexed": true,
          "internalType": "uint256",
          "name": "drawId",
          "type": "uint256"
        },
        {
          "indexed": false,
          "internalType": "string",
          "name": "fijos",
          "type": "string"
        },
        {
          "indexed": false,
          "internalType": "string",
          "name": "centenas",
          "type": "string"
        },
        {
          "indexed": false,
          "internalType": "string",
          "name": "parles",
          "type": "string"
        }
      ],
      "name": "ResultsSubmitted",
      "type": "event"
    },
    {
      "anonymous": false,
      "inputs": [
        {
          "indexed": false,
          "internalType": "uint256",
          "name": "reserveRatioBps",
          "type": "uint256"
        },
        {
          "indexed": false,
          "internalType": "uint256",
          "name": "riskFactorBps",
          "type": "uint256"
        },
        {
          "indexed": false,
          "internalType": "uint256",
          "name": "absoluteMaxPayout",
          "type": "uint256"
        }
      ],
      "name": "RiskParametersUpdated",
      "type": "event"
    },
    {
      "anonymous": false,
      "inputs": [
        {
          "indexed": false,
          "internalType": "address",
          "name": "account",
          "type": "address"
        }
      ],
      "name": "Unpaused",
      "type": "event"
    },
    {
      "anonymous": false,
      "inputs": [
        {
          "indexed": true,
          "internalType": "uint256",
          "name": "betId",
          "type": "uint256"
        },
        {
          "indexed": true,
          "internalType": "address",
          "name": "player",
          "type": "address"
        },
        {
          "indexed": false,
          "internalType": "uint256",
          "name": "amount",
          "type": "uint256"
        }
      ],
      "name": "WinningsClaimed",
      "type": "event"
    },
    {
      "anonymous": false,
      "inputs": [
        {
          "indexed": true,
          "internalType": "address",
          "name": "user",
          "type": "address"
        },
        {
          "indexed": false,
          "internalType": "uint256",
          "name": "amount",
          "type": "uint256"
        }
      ],
      "name": "Withdrawn",
      "type": "event"
    },
    {
      "inputs": [],
      "name": "BASIS_POINTS",
      "outputs": [
        {
          "internalType": "uint256",
          "name": "",
          "type": "uint256"
        }
      ],
      "stateMutability": "view",
      "type": "function"
    },
    {
      "inputs": [],
      "name": "USDT_DECIMALS",
      "outputs": [
        {
          "internalType": "uint256",
          "name": "",
          "type": "uint256"
        }
      ],
      "stateMutability": "view",
      "type": "function"
    },
    {
      "inputs": [],
      "name": "absoluteMaxPayout",
      "outputs": [
        {
          "internalType": "uint256",
          "name": "",
          "type": "uint256"
        }
      ],
      "stateMutability": "view",
      "type": "function"
    },
    {
      "inputs": [
        {
          "internalType": "address",
          "name": "",
          "type": "address"
        }
      ],
      "name": "admins",
      "outputs": [
        {
          "internalType": "bool",
          "name": "",
          "type": "bool"
        }
      ],
      "stateMutability": "view",
      "type": "function"
    },
    {
      "inputs": [
        {
          "internalType": "uint256",
          "name": "",
          "type": "uint256"
        }
      ],
      "name": "bankrollSnapshots",
      "outputs": [
        {
          "internalType": "uint256",
          "name": "timestamp",
          "type": "uint256"
        },
        {
          "internalType": "uint256",
          "name": "totalPool",
          "type": "uint256"
        },
        {
          "internalType": "uint256",
          "name": "usableBalance",
          "type": "uint256"
        },
        {
          "internalType": "uint256",
          "name": "payoutCap",
          "type": "uint256"
        },
        {
          "internalType": "uint256",
          "name": "reserveAmount",
          "type": "uint256"
        }
      ],
      "stateMutability": "view",
      "type": "function"
    },
    {
      "inputs": [],
      "name": "betCounter",
      "outputs": [
        {
          "internalType": "uint256",
          "name": "",
          "type": "uint256"
        }
      ],
      "stateMutability": "view",
      "type": "function"
    },
    {
      "inputs": [
        {
          "internalType": "uint256",
          "name": "",
          "type": "uint256"
        }
      ],
      "name": "bets",
      "outputs": [
        {
          "internalType": "address",
          "name": "player",
          "type": "address"
        },
        {
          "internalType": "uint256",
          "name": "drawId",
          "type": "uint256"
        },
        {
          "internalType": "enum LaBolitaRiskManaged.BetType",
          "name": "betType",
          "type": "uint8"
        },
        {
          "internalType": "string",
          "name": "numbers",
          "type": "string"
        },
        {
          "internalType": "uint256",
          "name": "amount",
          "type": "uint256"
        },
        {
          "internalType": "bool",
          "name": "claimed",
          "type": "bool"
        },
        {
          "internalType": "uint256",
          "name": "payout",
          "type": "uint256"
        },
        {
          "internalType": "uint256",
          "name": "dayId",
          "type": "uint256"
        }
      ],
      "stateMutability": "view",
      "type": "function"
    },
    {
      "inputs": [],
      "name": "bettingCloseTime",
      "outputs": [
        {
          "internalType": "uint256",
          "name": "",
          "type": "uint256"
        }
      ],
      "stateMutability": "view",
      "type": "function"
    },
    {
      "inputs": [
        {
          "internalType": "uint256",
          "name": "_monthId",
          "type": "uint256"
        }
      ],
      "name": "calculateMonthlyCommission",
      "outputs": [],
      "stateMutability": "nonpayable",
      "type": "function"
    },
    {
      "inputs": [
        {
          "internalType": "uint256",
          "name": "_dayId",
          "type": "uint256"
        },
        {
          "internalType": "enum LaBolitaRiskManaged.BetType",
          "name": "_betType",
          "type": "uint8"
        },
        {
          "internalType": "string",
          "name": "_numbers",
          "type": "string"
        },
        {
          "internalType": "uint256",
          "name": "_amount",
          "type": "uint256"
        }
      ],
      "name": "canPlaceBet",
      "outputs": [
        {
          "internalType": "bool",
          "name": "canPlace",
          "type": "bool"
        },
        {
          "internalType": "uint256",
          "name": "currentLiability",
          "type": "uint256"
        },
        {
          "internalType": "uint256",
          "name": "newLiability",
          "type": "uint256"
        },
        {
          "internalType": "uint256",
          "name": "cap",
          "type": "uint256"
        }
      ],
      "stateMutability": "view",
      "type": "function"
    },
    {
      "inputs": [
        {
          "internalType": "uint256",
          "name": "_drawId",
          "type": "uint256"
        }
      ],
      "name": "cancelDraw",
      "outputs": [],
      "stateMutability": "nonpayable",
      "type": "function"
    },
    {
      "inputs": [],
      "name": "centenaMultiplier",
      "outputs": [
        {
          "internalType": "uint256",
          "name": "",
          "type": "uint256"
        }
      ],
      "stateMutability": "view",
      "type": "function"
    },
    {
      "inputs": [
        {
          "internalType": "uint256",
          "name": "_betId",
          "type": "uint256"
        }
      ],
      "name": "checkWinnings",
      "outputs": [
        {
          "internalType": "uint256",
          "name": "",
          "type": "uint256"
        }
      ],
      "stateMutability": "view",
      "type": "function"
    },
    {
      "inputs": [
        {
          "internalType": "uint256",
          "name": "_drawId",
          "type": "uint256"
        }
      ],
      "name": "claimAllWinnings",
      "outputs": [],
      "stateMutability": "nonpayable",
      "type": "function"
    },
    {
      "inputs": [
        {
          "internalType": "uint256",
          "name": "_betId",
          "type": "uint256"
        }
      ],
      "name": "claimWinnings",
      "outputs": [],
      "stateMutability": "nonpayable",
      "type": "function"
    },
    {
      "inputs": [
        {
          "internalType": "uint256",
          "name": "_drawId",
          "type": "uint256"
        }
      ],
      "name": "closeDraw",
      "outputs": [],
      "stateMutability": "nonpayable",
      "type": "function"
    },
    {
      "inputs": [],
      "name": "createDailyDraws",
      "outputs": [],
      "stateMutability": "nonpayable",
      "type": "function"
    },
    {
      "inputs": [
        {
          "internalType": "string",
          "name": "_drawNumber",
          "type": "string"
        },
        {
          "internalType": "uint256",
          "name": "_scheduledTime",
          "type": "uint256"
        }
      ],
      "name": "createDraw",
      "outputs": [
        {
          "internalType": "uint256",
          "name": "",
          "type": "uint256"
        }
      ],
      "stateMutability": "nonpayable",
      "type": "function"
    },
    {
      "inputs": [
        {
          "internalType": "uint256",
          "name": "",
          "type": "uint256"
        },
        {
          "internalType": "uint8",
          "name": "",
          "type": "uint8"
        },
        {
          "internalType": "bytes32",
          "name": "",
          "type": "bytes32"
        }
      ],
      "name": "dailyExposure",
      "outputs": [
        {
          "internalType": "uint256",
          "name": "totalStake",
          "type": "uint256"
        },
        {
          "internalType": "uint256",
          "name": "totalLiability",
          "type": "uint256"
        }
      ],
      "stateMutability": "view",
      "type": "function"
    },
    {
      "inputs": [
        {
          "internalType": "uint256",
          "name": "_amount",
          "type": "uint256"
        }
      ],
      "name": "deposit",
      "outputs": [],
      "stateMutability": "nonpayable",
      "type": "function"
    },
    {
      "inputs": [
        {
          "internalType": "uint256",
          "name": "_amount",
          "type": "uint256"
        }
      ],
      "name": "depositToPool",
      "outputs": [],
      "stateMutability": "nonpayable",
      "type": "function"
    },
    {
      "inputs": [
        {
          "internalType": "uint256",
          "name": "",
          "type": "uint256"
        },
        {
          "internalType": "uint256",
          "name": "",
          "type": "uint256"
        }
      ],
      "name": "drawBets",
      "outputs": [
        {
          "internalType": "uint256",
          "name": "",
          "type": "uint256"
        }
      ],
      "stateMutability": "view",
      "type": "function"
    },
    {
      "inputs": [],
      "name": "drawCounter",
      "outputs": [
        {
          "internalType": "uint256",
          "name": "",
          "type": "uint256"
        }
      ],
      "stateMutability": "view",
      "type": "function"
    },
    {
      "inputs": [
        {
          "internalType": "uint256",
          "name": "",
          "type": "uint256"
        }
      ],
      "name": "drawNames",
      "outputs": [
        {
          "internalType": "string",
          "name": "",
          "type": "string"
        }
      ],
      "stateMutability": "view",
      "type": "function"
    },
    {
      "inputs": [
        {
          "internalType": "uint256",
          "name": "",
          "type": "uint256"
        }
      ],
      "name": "drawTimes",
      "outputs": [
        {
          "internalType": "uint256",
          "name": "",
          "type": "uint256"
        }
      ],
      "stateMutability": "view",
      "type": "function"
    },
    {
      "inputs": [
        {
          "internalType": "uint256",
          "name": "",
          "type": "uint256"
        }
      ],
      "name": "draws",
      "outputs": [
        {
          "internalType": "uint256",
          "name": "id",
          "type": "uint256"
        },
        {
          "internalType": "string",
          "name": "drawNumber",
          "type": "string"
        },
        {
          "internalType": "uint256",
          "name": "scheduledTime",
          "type": "uint256"
        },
        {
          "internalType": "enum LaBolitaRiskManaged.DrawStatus",
          "name": "status",
          "type": "uint8"
        },
        {
          "internalType": "string",
          "name": "winningFijos",
          "type": "string"
        },
        {
          "internalType": "string",
          "name": "winningCentenas",
          "type": "string"
        },
        {
          "internalType": "string",
          "name": "winningParles",
          "type": "string"
        },
        {
          "internalType": "uint256",
          "name": "totalBets",
          "type": "uint256"
        },
        {
          "internalType": "uint256",
          "name": "totalAmount",
          "type": "uint256"
        },
        {
          "internalType": "uint256",
          "name": "totalPaidOut",
          "type": "uint256"
        },
        {
          "internalType": "uint256",
          "name": "dayId",
          "type": "uint256"
        }
      ],
      "stateMutability": "view",
      "type": "function"
    },
    {
      "inputs": [
        {
          "internalType": "address",
          "name": "_token",
          "type": "address"
        },
        {
          "internalType": "uint256",
          "name": "_amount",
          "type": "uint256"
        }
      ],
      "name": "emergencyWithdraw",
      "outputs": [],
      "stateMutability": "nonpayable",
      "type": "function"
    },
    {
      "inputs": [],
      "name": "fijoMultiplier",
      "outputs": [
        {
          "internalType": "uint256",
          "name": "",
          "type": "uint256"
        }
      ],
      "stateMutability": "view",
      "type": "function"
    },
    {
      "inputs": [
        {
          "internalType": "address",
          "name": "_user",
          "type": "address"
        }
      ],
      "name": "getBalance",
      "outputs": [
        {
          "internalType": "uint256",
          "name": "",
          "type": "uint256"
        }
      ],
      "stateMutability": "view",
      "type": "function"
    },
    {
      "inputs": [],
      "name": "getBankrollInfo",
      "outputs": [
        {
          "internalType": "uint256",
          "name": "pool",
          "type": "uint256"
        },
        {
          "internalType": "uint256",
          "name": "usable",
          "type": "uint256"
        },
        {
          "internalType": "uint256",
          "name": "reserve",
          "type": "uint256"
        },
        {
          "internalType": "uint256",
          "name": "cap",
          "type": "uint256"
        },
        {
          "internalType": "uint256",
          "name": "pendingFees",
          "type": "uint256"
        }
      ],
      "stateMutability": "view",
      "type": "function"
    },
    {
      "inputs": [
        {
          "internalType": "uint256",
          "name": "_betId",
          "type": "uint256"
        }
      ],
      "name": "getBet",
      "outputs": [
        {
          "components": [
            {
              "internalType": "address",
              "name": "player",
              "type": "address"
            },
            {
              "internalType": "uint256",
              "name": "drawId",
              "type": "uint256"
            },
            {
              "internalType": "enum LaBolitaRiskManaged.BetType",
              "name": "betType",
              "type": "uint8"
            },
            {
              "internalType": "string",
              "name": "numbers",
              "type": "string"
            },
            {
              "internalType": "uint256",
              "name": "amount",
              "type": "uint256"
            },
            {
              "internalType": "bool",
              "name": "claimed",
              "type": "bool"
            },
            {
              "internalType": "uint256",
              "name": "payout",
              "type": "uint256"
            },
            {
              "internalType": "uint256",
              "name": "dayId",
              "type": "uint256"
            }
          ],
          "internalType": "struct LaBolitaRiskManaged.Bet",
          "name": "",
          "type": "tuple"
        }
      ],
      "stateMutability": "view",
      "type": "function"
    },
    {
      "inputs": [],
      "name": "getCurrentDayId",
      "outputs": [
        {
          "internalType": "uint256",
          "name": "",
          "type": "uint256"
        }
      ],
      "stateMutability": "view",
      "type": "function"
    },
    {
      "inputs": [],
      "name": "getCurrentMonthId",
      "outputs": [
        {
          "internalType": "uint256",
          "name": "",
          "type": "uint256"
        }
      ],
      "stateMutability": "view",
      "type": "function"
    },
    {
      "inputs": [
        {
          "internalType": "uint256",
          "name": "_dayId",
          "type": "uint256"
        }
      ],
      "name": "getDaySettlement",
      "outputs": [
        {
          "components": [
            {
              "internalType": "uint256",
              "name": "dayId",
              "type": "uint256"
            },
            {
              "internalType": "uint256",
              "name": "totalStaked",
              "type": "uint256"
            },
            {
              "internalType": "uint256",
              "name": "totalPaidOut",
              "type": "uint256"
            },
            {
              "internalType": "int256",
              "name": "profitOrLoss",
              "type": "int256"
            },
            {
              "internalType": "bool",
              "name": "settled",
              "type": "bool"
            },
            {
              "internalType": "uint256",
              "name": "settledAt",
              "type": "uint256"
            }
          ],
          "internalType": "struct LaBolitaRiskManaged.DaySettlement",
          "name": "",
          "type": "tuple"
        }
      ],
      "stateMutability": "view",
      "type": "function"
    },
    {
      "inputs": [
        {
          "internalType": "uint256",
          "name": "_drawId",
          "type": "uint256"
        }
      ],
      "name": "getDraw",
      "outputs": [
        {
          "components": [
            {
              "internalType": "uint256",
              "name": "id",
              "type": "uint256"
            },
            {
              "internalType": "string",
              "name": "drawNumber",
              "type": "string"
            },
            {
              "internalType": "uint256",
              "name": "scheduledTime",
              "type": "uint256"
            },
            {
              "internalType": "enum LaBolitaRiskManaged.DrawStatus",
              "name": "status",
              "type": "uint8"
            },
            {
              "internalType": "string",
              "name": "winningFijos",
              "type": "string"
            },
            {
              "internalType": "string",
              "name": "winningCentenas",
              "type": "string"
            },
            {
              "internalType": "string",
              "name": "winningParles",
              "type": "string"
            },
            {
              "internalType": "uint256",
              "name": "totalBets",
              "type": "uint256"
            },
            {
              "internalType": "uint256",
              "name": "totalAmount",
              "type": "uint256"
            },
            {
              "internalType": "uint256",
              "name": "totalPaidOut",
              "type": "uint256"
            },
            {
              "internalType": "uint256",
              "name": "dayId",
              "type": "uint256"
            }
          ],
          "internalType": "struct LaBolitaRiskManaged.Draw",
          "name": "",
          "type": "tuple"
        }
      ],
      "stateMutability": "view",
      "type": "function"
    },
    {
      "inputs": [
        {
          "internalType": "uint256",
          "name": "_drawId",
          "type": "uint256"
        }
      ],
      "name": "getDrawBets",
      "outputs": [
        {
          "internalType": "uint256[]",
          "name": "",
          "type": "uint256[]"
        }
      ],
      "stateMutability": "view",
      "type": "function"
    },
    {
      "inputs": [
        {
          "internalType": "uint256",
          "name": "_dayId",
          "type": "uint256"
        },
        {
          "internalType": "enum LaBolitaRiskManaged.BetType",
          "name": "_betType",
          "type": "uint8"
        },
        {
          "internalType": "string",
          "name": "_numbers",
          "type": "string"
        }
      ],
      "name": "getExposure",
      "outputs": [
        {
          "internalType": "uint256",
          "name": "totalStake",
          "type": "uint256"
        },
        {
          "internalType": "uint256",
          "name": "totalLiability",
          "type": "uint256"
        }
      ],
      "stateMutability": "view",
      "type": "function"
    },
    {
      "inputs": [
        {
          "internalType": "uint256",
          "name": "_dayId",
          "type": "uint256"
        },
        {
          "internalType": "enum LaBolitaRiskManaged.BetType",
          "name": "_betType",
          "type": "uint8"
        },
        {
          "internalType": "string",
          "name": "_numbers",
          "type": "string"
        }
      ],
      "name": "getMaxAllowedStake",
      "outputs": [
        {
          "internalType": "uint256",
          "name": "",
          "type": "uint256"
        }
      ],
      "stateMutability": "view",
      "type": "function"
    },
    {
      "inputs": [
        {
          "internalType": "uint256",
          "name": "_monthId",
          "type": "uint256"
        }
      ],
      "name": "getMonthlyRecord",
      "outputs": [
        {
          "components": [
            {
              "internalType": "uint256",
              "name": "monthId",
              "type": "uint256"
            },
            {
              "internalType": "int256",
              "name": "netProfit",
              "type": "int256"
            },
            {
              "internalType": "uint256",
              "name": "operatorFee",
              "type": "uint256"
            },
            {
              "internalType": "bool",
              "name": "commissionPaid",
              "type": "bool"
            },
            {
              "internalType": "uint256",
              "name": "paidAt",
              "type": "uint256"
            }
          ],
          "internalType": "struct LaBolitaRiskManaged.MonthlyRecord",
          "name": "",
          "type": "tuple"
        }
      ],
      "stateMutability": "view",
      "type": "function"
    },
    {
      "inputs": [],
      "name": "getOpenDraws",
      "outputs": [
        {
          "internalType": "uint256[]",
          "name": "",
          "type": "uint256[]"
        }
      ],
      "stateMutability": "view",
      "type": "function"
    },
    {
      "inputs": [],
      "name": "getPayoutCap",
      "outputs": [
        {
          "internalType": "uint256",
          "name": "",
          "type": "uint256"
        }
      ],
      "stateMutability": "view",
      "type": "function"
    },
    {
      "inputs": [
        {
          "internalType": "uint256",
          "name": "_index",
          "type": "uint256"
        }
      ],
      "name": "getSnapshot",
      "outputs": [
        {
          "components": [
            {
              "internalType": "uint256",
              "name": "timestamp",
              "type": "uint256"
            },
            {
              "internalType": "uint256",
              "name": "totalPool",
              "type": "uint256"
            },
            {
              "internalType": "uint256",
              "name": "usableBalance",
              "type": "uint256"
            },
            {
              "internalType": "uint256",
              "name": "payoutCap",
              "type": "uint256"
            },
            {
              "internalType": "uint256",
              "name": "reserveAmount",
              "type": "uint256"
            }
          ],
          "internalType": "struct LaBolitaRiskManaged.BankrollSnapshot",
          "name": "",
          "type": "tuple"
        }
      ],
      "stateMutability": "view",
      "type": "function"
    },
    {
      "inputs": [],
      "name": "getSnapshotsCount",
      "outputs": [
        {
          "internalType": "uint256",
          "name": "",
          "type": "uint256"
        }
      ],
      "stateMutability": "view",
      "type": "function"
    },
    {
      "inputs": [],
      "name": "getUsableBalance",
      "outputs": [
        {
          "internalType": "uint256",
          "name": "",
          "type": "uint256"
        }
      ],
      "stateMutability": "view",
      "type": "function"
    },
    {
      "inputs": [
        {
          "internalType": "address",
          "name": "_user",
          "type": "address"
        }
      ],
      "name": "getUserBets",
      "outputs": [
        {
          "internalType": "uint256[]",
          "name": "",
          "type": "uint256[]"
        }
      ],
      "stateMutability": "view",
      "type": "function"
    },
    {
      "inputs": [],
      "name": "lastDrawDate",
      "outputs": [
        {
          "internalType": "uint256",
          "name": "",
          "type": "uint256"
        }
      ],
      "stateMutability": "view",
      "type": "function"
    },
    {
      "inputs": [
        {
          "internalType": "uint256",
          "name": "_monthId",
          "type": "uint256"
        }
      ],
      "name": "markCommissionPaid",
      "outputs": [],
      "stateMutability": "nonpayable",
      "type": "function"
    },
    {
      "inputs": [],
      "name": "maxBetAmount",
      "outputs": [
        {
          "internalType": "uint256",
          "name": "",
          "type": "uint256"
        }
      ],
      "stateMutability": "view",
      "type": "function"
    },
    {
      "inputs": [],
      "name": "minBetAmount",
      "outputs": [
        {
          "internalType": "uint256",
          "name": "",
          "type": "uint256"
        }
      ],
      "stateMutability": "view",
      "type": "function"
    },
    {
      "inputs": [
        {
          "internalType": "uint256",
          "name": "",
          "type": "uint256"
        }
      ],
      "name": "monthlyRecords",
      "outputs": [
        {
          "internalType": "uint256",
          "name": "monthId",
          "type": "uint256"
        },
        {
          "internalType": "int256",
          "name": "netProfit",
          "type": "int256"
        },
        {
          "internalType": "uint256",
          "name": "operatorFee",
          "type": "uint256"
        },
        {
          "internalType": "bool",
          "name": "commissionPaid",
          "type": "bool"
        },
        {
          "internalType": "uint256",
          "name": "paidAt",
          "type": "uint256"
        }
      ],
      "stateMutability": "view",
      "type": "function"
    },
    {
      "inputs": [
        {
          "internalType": "uint256",
          "name": "_drawId",
          "type": "uint256"
        }
      ],
      "name": "openDraw",
      "outputs": [],
      "stateMutability": "nonpayable",
      "type": "function"
    },
    {
      "inputs": [],
      "name": "operatorCommissionBps",
      "outputs": [
        {
          "internalType": "uint256",
          "name": "",
          "type": "uint256"
        }
      ],
      "stateMutability": "view",
      "type": "function"
    },
    {
      "inputs": [],
      "name": "owner",
      "outputs": [
        {
          "internalType": "address",
          "name": "",
          "type": "address"
        }
      ],
      "stateMutability": "view",
      "type": "function"
    },
    {
      "inputs": [],
      "name": "parleMultiplier",
      "outputs": [
        {
          "internalType": "uint256",
          "name": "",
          "type": "uint256"
        }
      ],
      "stateMutability": "view",
      "type": "function"
    },
    {
      "inputs": [],
      "name": "pause",
      "outputs": [],
      "stateMutability": "nonpayable",
      "type": "function"
    },
    {
      "inputs": [],
      "name": "paused",
      "outputs": [
        {
          "internalType": "bool",
          "name": "",
          "type": "bool"
        }
      ],
      "stateMutability": "view",
      "type": "function"
    },
    {
      "inputs": [],
      "name": "paymentToken",
      "outputs": [
        {
          "internalType": "contract IERC20",
          "name": "",
          "type": "address"
        }
      ],
      "stateMutability": "view",
      "type": "function"
    },
    {
      "inputs": [],
      "name": "pendingOperatorFees",
      "outputs": [
        {
          "internalType": "uint256",
          "name": "",
          "type": "uint256"
        }
      ],
      "stateMutability": "view",
      "type": "function"
    },
    {
      "inputs": [
        {
          "internalType": "uint256",
          "name": "_drawId",
          "type": "uint256"
        },
        {
          "internalType": "enum LaBolitaRiskManaged.BetType",
          "name": "_betType",
          "type": "uint8"
        },
        {
          "internalType": "string",
          "name": "_numbers",
          "type": "string"
        },
        {
          "internalType": "uint256",
          "name": "_amount",
          "type": "uint256"
        }
      ],
      "name": "placeBet",
      "outputs": [],
      "stateMutability": "nonpayable",
      "type": "function"
    },
    {
      "inputs": [],
      "name": "processDraws",
      "outputs": [],
      "stateMutability": "nonpayable",
      "type": "function"
    },
    {
      "inputs": [],
      "name": "randomNonce",
      "outputs": [
        {
          "internalType": "uint256",
          "name": "",
          "type": "uint256"
        }
      ],
      "stateMutability": "view",
      "type": "function"
    },
    {
      "inputs": [],
      "name": "renounceOwnership",
      "outputs": [],
      "stateMutability": "nonpayable",
      "type": "function"
    },
    {
      "inputs": [],
      "name": "reserveRatioBps",
      "outputs": [
        {
          "internalType": "uint256",
          "name": "",
          "type": "uint256"
        }
      ],
      "stateMutability": "view",
      "type": "function"
    },
    {
      "inputs": [],
      "name": "riskFactorBps",
      "outputs": [
        {
          "internalType": "uint256",
          "name": "",
          "type": "uint256"
        }
      ],
      "stateMutability": "view",
      "type": "function"
    },
    {
      "inputs": [
        {
          "internalType": "address",
          "name": "_admin",
          "type": "address"
        },
        {
          "internalType": "bool",
          "name": "_status",
          "type": "bool"
        }
      ],
      "name": "setAdmin",
      "outputs": [],
      "stateMutability": "nonpayable",
      "type": "function"
    },
    {
      "inputs": [
        {
          "internalType": "uint256",
          "name": "_min",
          "type": "uint256"
        },
        {
          "internalType": "uint256",
          "name": "_max",
          "type": "uint256"
        }
      ],
      "name": "setBetLimits",
      "outputs": [],
      "stateMutability": "nonpayable",
      "type": "function"
    },
    {
      "inputs": [
        {
          "internalType": "uint256",
          "name": "_seconds",
          "type": "uint256"
        }
      ],
      "name": "setBettingCloseTime",
      "outputs": [],
      "stateMutability": "nonpayable",
      "type": "function"
    },
    {
      "inputs": [
        {
          "internalType": "uint256",
          "name": "_fijo",
          "type": "uint256"
        },
        {
          "internalType": "uint256",
          "name": "_centena",
          "type": "uint256"
        },
        {
          "internalType": "uint256",
          "name": "_parle",
          "type": "uint256"
        }
      ],
      "name": "setMultipliers",
      "outputs": [],
      "stateMutability": "nonpayable",
      "type": "function"
    },
    {
      "inputs": [
        {
          "internalType": "uint256",
          "name": "_commissionBps",
          "type": "uint256"
        }
      ],
      "name": "setOperatorCommission",
      "outputs": [],
      "stateMutability": "nonpayable",
      "type": "function"
    },
    {
      "inputs": [
        {
          "internalType": "address",
          "name": "_token",
          "type": "address"
        }
      ],
      "name": "setPaymentToken",
      "outputs": [],
      "stateMutability": "nonpayable",
      "type": "function"
    },
    {
      "inputs": [
        {
          "internalType": "uint256",
          "name": "_reserveRatioBps",
          "type": "uint256"
        },
        {
          "internalType": "uint256",
          "name": "_riskFactorBps",
          "type": "uint256"
        },
        {
          "internalType": "uint256",
          "name": "_absoluteMaxPayout",
          "type": "uint256"
        }
      ],
      "name": "setRiskParameters",
      "outputs": [],
      "stateMutability": "nonpayable",
      "type": "function"
    },
    {
      "inputs": [
        {
          "internalType": "uint256",
          "name": "_dayId",
          "type": "uint256"
        }
      ],
      "name": "settleDailyResults",
      "outputs": [],
      "stateMutability": "nonpayable",
      "type": "function"
    },
    {
      "inputs": [
        {
          "internalType": "uint256",
          "name": "",
          "type": "uint256"
        }
      ],
      "name": "settlements",
      "outputs": [
        {
          "internalType": "uint256",
          "name": "dayId",
          "type": "uint256"
        },
        {
          "internalType": "uint256",
          "name": "totalStaked",
          "type": "uint256"
        },
        {
          "internalType": "uint256",
          "name": "totalPaidOut",
          "type": "uint256"
        },
        {
          "internalType": "int256",
          "name": "profitOrLoss",
          "type": "int256"
        },
        {
          "internalType": "bool",
          "name": "settled",
          "type": "bool"
        },
        {
          "internalType": "uint256",
          "name": "settledAt",
          "type": "uint256"
        }
      ],
      "stateMutability": "view",
      "type": "function"
    },
    {
      "inputs": [
        {
          "internalType": "uint256",
          "name": "_drawId",
          "type": "uint256"
        },
        {
          "internalType": "string",
          "name": "_fijos",
          "type": "string"
        },
        {
          "internalType": "string",
          "name": "_centenas",
          "type": "string"
        },
        {
          "internalType": "string",
          "name": "_parles",
          "type": "string"
        }
      ],
      "name": "submitResults",
      "outputs": [],
      "stateMutability": "nonpayable",
      "type": "function"
    },
    {
      "inputs": [],
      "name": "totalPoolBalance",
      "outputs": [
        {
          "internalType": "uint256",
          "name": "",
          "type": "uint256"
        }
      ],
      "stateMutability": "view",
      "type": "function"
    },
    {
      "inputs": [
        {
          "internalType": "address",
          "name": "newOwner",
          "type": "address"
        }
      ],
      "name": "transferOwnership",
      "outputs": [],
      "stateMutability": "nonpayable",
      "type": "function"
    },
    {
      "inputs": [],
      "name": "unpause",
      "outputs": [],
      "stateMutability": "nonpayable",
      "type": "function"
    },
    {
      "inputs": [
        {
          "internalType": "address",
          "name": "",
          "type": "address"
        }
      ],
      "name": "userBalances",
      "outputs": [
        {
          "internalType": "uint256",
          "name": "",
          "type": "uint256"
        }
      ],
      "stateMutability": "view",
      "type": "function"
    },
    {
      "inputs": [
        {
          "internalType": "address",
          "name": "",
          "type": "address"
        },
        {
          "internalType": "uint256",
          "name": "",
          "type": "uint256"
        }
      ],
      "name": "userBets",
      "outputs": [
        {
          "internalType": "uint256",
          "name": "",
          "type": "uint256"
        }
      ],
      "stateMutability": "view",
      "type": "function"
    },
    {
      "inputs": [
        {
          "internalType": "uint256",
          "name": "_amount",
          "type": "uint256"
        }
      ],
      "name": "withdraw",
      "outputs": [],
      "stateMutability": "nonpayable",
      "type": "function"
    },
    {
      "inputs": [],
      "name": "withdrawOperatorFees",
      "outputs": [],
      "stateMutability": "nonpayable",
      "type": "function"
    }
  ],
  "bytecode": "0x6080346200037857601f62005af638819003918201601f19168301916001600160401b03831184841017620002f2578084926020946040528339810103126200037857516001600160a01b03908181168103620003785733156200035f5760008054336001600160a01b031982168117835591908416907f8be0079c531659141344cd1fd0a4f28419497f9722a3daafe3b4186f6b6457e09080a360018055610bb86004556103e86005556402540be4006006556209eb10600755622dc6c06008556298968080600955620f4240600a55600b556105dc600c55610e10601b55620000e96200037d565b618ca0815261d2f0602082015262012750604082015260005b6003811062000344575050620001176200037d565b620001216200039d565b60068152654d414e414e4160d01b60208201528152620001406200039d565b6005815264544152444560d81b60208201526020820152620001616200039d565b60058152644e4f43484560d81b602082015260408201526021926000915b6003831015620003085780518051906001600160401b038211620002f2578654600181811c91168015620002e7575b6020821014620002d157601f811162000288575b50602090601f83116001146200021357928260019493602093869560009262000207575b5050600019600383901b1c191690841b1788555b019501920191936200017f565b015190503880620001e6565b908760005260206000209160005b601f19851681106200026f575083602093600196938796938794601f1981161062000255575b505050811b018855620001fa565b015160001960f88460031b161c1916905538808062000247565b9192602060018192868501518155019401920162000221565b876000526020600020601f840160051c810160208510620002c9575b601f830160051c82018110620002bc575050620001c2565b60008155600101620002a4565b5080620002a4565b634e487b7160e01b600052602260045260246000fd5b90607f1690620001ae565b634e487b7160e01b600052604160045260246000fd5b50821660018060a01b0319601254161760125533600052601a6020526040600020600160ff198254161790556040516157389081620003be8239f35b600190602062ffffff84511693019281601e01550162000102565b604051631e4fbdf760e01b815260006004820152602490fd5b600080fd5b60405190606082016001600160401b03811183821017620002f257604052565b60408051919082016001600160401b03811183821017620002f25760405256fe6080604052600436101561001257600080fd5b60003560e01c806290acd214613d8e57806301e44ae614613b55578063061e494f14613a1057806308df7dc8146139a85780630cc36c361461386b5780630f6314391461380e5780631020fd09146137f057806312a2f3f3146137d257806312fbef7d1461376957806315ac71bc1461363a5780631e86ccf5146135e157806322af00fa1461352957806326224c641461040d57806329b39158146134445780632d56657d146133cc5780632e1a7d4d146133255780632faa4bf7146132ac5780633013ce291461328357806331c14628146131ed57806332273f61146131cf57806332a9bc12146130fc57806338da7ead146130de57806339988a55146130c05780633f4ba83a146130565780633fb07a3b1461300c578063410fb08c14612fee578063426e438214612fd0578063429b62e514612f9157806344832be814612f5b5780634b0bddd214612ed35780634e9380a914612eb75780635026d63e14612e99578063554df634146129985780635c975abb14612975578063677bd9ff146127d857806368b0e0701461274d578063697ecc6c1461212f5780636a326ab1146120ec5780636cd425a5146120765780636ce46bc314612054578063715018a614611ffb5780637687dd4914611f8f57806376f10ad014611ebe5780638068aa6814611e7457806381a92a2c14611e565780638456cb5914611dfc57806385b16a6e14611cf15780638ae55ea914611caf5780638da5cb5b14611c865780638e49792d14611bcf57806392612c4c146119b657806392b5ba0b1461199857806393c668e41461193b57806394a4e23e1461191d57806395ccea67146118de57806397810a72146118c25780639c64c876146117f65780639c9ad21a1461173d5780639e23bd161461166a578063a11720ab1461162b578063a416f5ab1461160d578063a5c44a651461143a578063adb9d54d1461141a578063b6b55f2514611383578063be6307c814611185578063c383d34414611167578063c892be3a1461114c578063c9f6707e14611120578063cab11d5d14611102578063d8cb172314610bea578063dcd2c51014610bc7578063de11bf5914610ba9578063e1f1c4a714610b8c578063e2a707af14610b6e578063ee03ac4014610b50578063ef2cfd1a14610b34578063f194d625146104cd578063f2fde38b14610447578063f8b2cb4f1461040d578063f98c004a146103b95763fa968eea1461039657600080fd5b346103b45760003660031901126103b4576020600a54604051908152f35b600080fd5b346103b45760203660031901126103b4576004356010548110156103b4576103e090614b00565b508054610409600183015492600281015490600460038201549101549160405195869586614adc565b0390f35b346103b45760203660031901126103b4576001600160a01b0361042e614a00565b1660005260176020526020604060002054604051908152f35b346103b45760203660031901126103b457610460614a00565b610468614b1f565b6001600160a01b039081169081156104b4576000548260018060a01b0319821617600055167f8be0079c531659141344cd1fd0a4f28419497f9722a3daafe3b4186f6b6457e0600080a3005b604051631e4fbdf760e01b815260006004820152602490fd5b346103b4576104db36614a6b565b9290916104e6614c4a565b6104ee614e97565b84151580610b28575b61050090614f47565b846000526015602052604060002060ff600382015416600581101561097157600103610af357600a548510610ab557600b548511610a7657336000526017602052610552856040600020541015614eb5565b61055d8483856152c3565b15610a3f57600a8101546105748686858785614d2f565b92905015610987575050610589368685614ce9565b602081519101206127106105a561059f87615289565b89614c6d565b0482600052600d6020526040600020916003871015610971577f60423bbe7ac85943dd17eccca81d0ef547a40f31a726d68a6d92ebf9c9c084a39260a09260ff89169182600052602052604060002083600052602052604060002061060b8c8254614b8c565b905585600052600d6020526040600020826000526020526040600020836000526020526106416001604060002001918254614b8c565b90556000858152600d60209081526040808320938352928152828220848352815290829020805460019091015492518781529390916106829085018b61479d565b604084015260608301526080820152a133600052601760205260406000206106ab878254614c80565b90556106b986600354614b8c565b6003556106c7601454614faa565b9081601455604051906106d9826148f9565b338252602082019289845260408301906106f38883614fb9565b6106fe368a89614ce9565b92606085019384528a6080860152600060a0860152600060c086015260e0850152600052601660205260406000209360018060a01b0384511660018060a01b031986541617855551600185015560028401905160038110156109715760ff80198354169116179055518051906001600160401b03821161095b576107928261078960038701546147f2565b60038701614fc5565b602090601f83116001146108bc5760e06008948461089f98957f7bfd70b2e39bfa8d12e1eb9b4f11c090f6f5f716a577414637e6a21b1e7cbbb39b9a98956007956000926108b1575b50508160011b916000199060031b1c19161760038501555b6080810151600485015561081c60a08201511515600586019060ff801983541691151516179055565b60c081015160068501550151910155336000526018602052610845604060002060145490615019565b88600052601960205261085f604060002060145490615019565b6007810161086d8154614faa565b90550161087b878254614b8c565b90556014549461088e604051809561479d565b606060208501526060840191614f89565b9360408201528033940390a460018055005b015190508f806107db565b906003850160005260206000209160005b601f198516811061094357506008946001857f7bfd70b2e39bfa8d12e1eb9b4f11c090f6f5f716a577414637e6a21b1e7cbbb39b9a989560079560e09561089f9c99601f1981161061092a575b505050811b0160038501556107f3565b015160001960f88460031b161c191690558f808061091a565b919260206001819286850151815501940192016108cd565b634e487b7160e01b600052604160045260246000fd5b634e487b7160e01b600052602160045260246000fd5b60405189815288927fbe13cc44793ad1675029ac417dced69339d4d531ddc7075289db5c50a00e6943926109d4888b6109c3602087018d61479d565b60c0604087015260c0860191614f89565b946060840152608083015260a08201528033930390a260405162461bcd60e51b815260206004820152602760248201527f4578706f73757265206c696d697420657863656564656420666f72207468697360448201526610373ab6b132b960c91b6064820152608490fd5b60405162461bcd60e51b815260206004820152600f60248201526e496e76616c6964206e756d6265727360881b6044820152606490fd5b60405162461bcd60e51b815260206004820152601760248201527641626f7665206d6178206265742028313020555344542960481b6044820152606490fd5b60405162461bcd60e51b815260206004820152601660248201527542656c6f77206d696e2062657420283120555344542960501b6044820152606490fd5b60405162461bcd60e51b815260206004820152600d60248201526c223930bb903737ba1037b832b760991b6044820152606490fd5b506013548511156104f7565b346103b45760003660031901126103b457602060405160068152f35b346103b45760003660031901126103b4576020600954604051908152f35b346103b45760003660031901126103b4576020601054604051908152f35b346103b45760003660031901126103b45760206040516127108152f35b346103b45760003660031901126103b4576020600654604051908152f35b346103b45760003660031901126103b4576020610be2614c8d565b604051908152f35b346103b45760803660031901126103b457602480356001600160401b0381116103b457610c1b903690600401614994565b6044356001600160401b0381116103b457610c3a903690600401614994565b906064356001600160401b0381116103b457610c5a903690600401614994565b92909533600052601a60205260ff6040600020541680156110ee575b610c7f9061512c565b6004351515806110e0575b610c9390614f47565b600435600052601560205260406000209060ff60038301541660058110156110cb57600203611091576002860361105457600383036110145760048503610fd6576001600160401b038611610ed957610cfc86610cf360048501546147f2565b60048501614fc5565b856000601f8211600114610f6857600091610f5d575b508660011b906000198860031b1c19161760048301555b6001600160401b038311610ed95760058201610d4f84610d4983546147f2565b83614fc5565b836000601f8211600114610ef857600091610eed575b508460011b906000198660031b1c19161790555b60068201906001600160401b038611610ed95750610d9b85610d4983546147f2565b6000601f8611600114610e555792610e1692610e289592876000805160206156e38339815191529a999896600091610e4a575b508660011b906000198860031b1c19161790555b60038060ff19818401541617910155610e08604051978897606089526060890191614f89565b918683036020880152614f89565b90838203604085015260043596614f89565b0390a2604051600381526000805160206156c3833981519152602060043592a2005b90508b01358c610dce565b601f198616908260005260206000209160005b8b828210610ec157505092879592610e1695926000805160206156e38339815191529b9a99610e28999610610ea7575b5050600186811b019055610de2565b8c0135600019600389901b60f8161c191690558b80610e98565b60018495602093958493013581550194019201610e68565b634e487b7160e01b60009081526041600452fd5b90508501358a610d65565b60008381526020812092505b601f1987168110610f45575085601f19811610610f2b575b5050600184811b019055610d79565b860135600019600387901b60f8161c191690558980610f1c565b9091602060018192858b013581550193019101610f04565b905087013589610d12565b90506004830160005260206000209060005b601f1989168110610fbe575087601f19811610610fa4575b5050600186811b016004830155610d29565b880135600019600389901b60f8161c191690558880610f92565b9091602060018192858d013581550193019101610f7a565b60649060176040519162461bcd60e51b835260206004840152820152765061726c6573206d75737420626520342064696769747360481b6044820152fd5b60649060196040519162461bcd60e51b8352602060048401528201527843656e74656e6173206d75737420626520332064696769747360381b6044820152fd5b60649060166040519162461bcd60e51b8352602060048401528201527546696a6f73206d75737420626520322064696769747360501b6044820152fd5b60649060136040519162461bcd60e51b83526020600484015282015272111c985dc81b5d5cdd0818994818db1bdcd959606a1b6044820152fd5b50634e487b7160e01b60009081526021600452fd5b506013546004351115610c8a565b506000546001600160a01b03163314610c76565b346103b45760003660031901126103b4576020600b54604051908152f35b346103b45760203660031901126103b45760043560038110156103b457602090601e0154604051908152f35b346103b45760003660031901126103b4576020610be2614cbb565b346103b45760003660031901126103b4576020600454604051908152f35b346103b45760203660031901126103b45760006101406040516111a7816148c2565b8281526060602082015282604082015282606082015260606080820152606060a0820152606060c08201528260e0820152826101008201528261012082015201526004356000526015602052604060002060405190611205826148c2565b805482526040516112248161121d816001860161482c565b0382614966565b60208301526002810154604083015260ff60038201541690600582101561097157600a9160608401526040516112618161121d816004860161482c565b608084015260405161127a8161121d816005860161482c565b60a08401526040516112938161121d816006860161482c565b60c0840152600781015460e0840152600881015461010084015260098101546101208401520154610140820152604051809160208252805160208301526101406113556112f1602084015161016060408701526101808601906147cd565b6040840151606086015261130d60608501516080870190614987565b61134061132c608086015192601f1993848983030160a08a01526147cd565b60a0860151838883030160c08901526147cd565b9060c0850151908683030160e08701526147cd565b9160e08101516101008501526101008101516101208501526101208101518285015201516101608301520390f35b346103b45760203660031901126103b45760043561139f614c4a565b6113a7614e97565b6113b2811515614b4b565b6012546113cd908290309033906001600160a01b0316614b99565b33600052601760205260406000206113e6828254614b8c565b90556040519081527f2da466a7b24304f47e87fa2e1e5a81b9831ce54fec19055ce277ca2f39ba42c460203392a260018055005b346103b45760003660031901126103b45760206040516201518042048152f35b346103b4576020806003193601126103b457600435611457614c4a565b80151580611601575b61146990614f47565b806000526015825260406000209060ff90816003840154169260059384811015610971576003611499911461508f565b3360005260188552604060002093604051808688829854938481520190600052886000209260005b8a8282106115eb575050506114d892500386614966565b60009160005b8651811015611563576114f18188615118565b51600052601688526040600020600186818301541480611556575b611521575b505061151c90614faa565b6114de565b9061151c929561154e92600661153787856153aa565b9384928982019060ff198254161790550155614b8c565b939089611511565b508785830154161561150c565b83888382611572575b60018055005b60009160097f5380cf6fe903b40c6d5a9e0dfbca2f3a423f0a21520b4d5947ed5169bdba946d926115b1866003546115ac828210156150d0565b614c80565b60035533855260178352604085206115ca878254614b8c565b9055016115d8858254614b8c565b90556040519384523393a380808061156c565b855484526001958601958b9550930192016114c1565b50601354811115611460565b346103b45760003660031901126103b4576020601454604051908152f35b346103b45761163936614aae565b906000526019602052604060002080548210156103b45760209161165c91614ac4565b90546040519160031b1c8152f35b346103b45760203660031901126103b45733600052601a60205260ff604060002054168015611729575b61169d9061512c565b600435600052600f602052604060002060028101541580159061171a575b156116d85760038101805460ff1916600117905542600490910155005b60405162461bcd60e51b815260206004820152601a60248201527910d85b18dd5b185d194818dbdb5b5a5cdcda5bdb88199a5c9cdd60321b6044820152606490fd5b506000600182015413156116bb565b506000546001600160a01b03163314611694565b346103b45760203660031901126103b45760043533600052601a60205260ff6040600020541680156117e2575b6117739061512c565b801515806117d6575b61178590614f47565b8060005260156020526003604060002001805460ff8116906005821015610971576117b460016002931461517c565b60ff19161790556000805160206156c3833981519152602060405160028152a2005b5060135481111561177c565b506000546001600160a01b0316331461176a565b346103b45760203660031901126103b457600060a0604051611817816148de565b8281528260208201528260408201528260608201528260808201520152600435600052600e60205260c06040600020604051611852816148de565b8154918282526001810154602083019081526002820154604084019081526003830154916060850192835260a0600560ff600487015416956080880196151587520154950194855260405195865251602086015251604085015251606084015251151560808301525160a0820152f35b346103b4576020610be26118d5366149c1565b92919091614dbc565b346103b45760403660031901126103b45761191b6118fa614a00565b611902614b1f565b600054602435916001600160a01b039182169116614ef8565b005b346103b45760003660031901126103b4576020600754604051908152f35b346103b45760603660031901126103b45760243560ff81168091036103b457600435600052600d60205260406000209060005260205260406000206044356000526020526040806000206001815491015482519182526020820152f35b346103b45760003660031901126103b4576020601354604051908152f35b346103b4576020806003193601126103b45760043533600052601a825260ff80604060002054168015611bbb575b6119ed9061512c565b81151580611baf575b6119ff90614f47565b81600052601583526003928360406000200193845490838216956005968781101561097157828114611b7057600414611b3757600460ff198094161790558460005260198352604060002095604051808886829a54938481520190600052866000209260005b88828210611b2157505050611a7c92500388614966565b60005b8751811015611b065780611a96611ab8928a615118565b51600052601686526040600020838101908882541615611abd575b5050614faa565b611a7f565b60048101805491546001600160a01b0316600090815260178a52604090208054611af493611aea91614b8c565b9055548654614c80565b85556001868254161790558980611ab1565b866000805160206156c38339815191528660405160048152a2005b855484526001958601958d955093019201611a65565b60405162461bcd60e51b8152600481018590526011602482015270105b1c9958591e4818d85b98d95b1b1959607a1b6044820152606490fd5b60405162461bcd60e51b815260048101869052601760248201527610d85b9b9bdd0818d85b98d95b0818dbdb5c1b195d1959604a1b6044820152606490fd5b506013548211156119f6565b506000546001600160a01b031633146119e4565b346103b45760203660031901126103b45760043533600052601a60205260ff604060002054168015611c72575b611c059061512c565b80151580611c66575b611c1790614f47565b8060005260156020526003604060002001805460ff811690600582101561097157611c446001921561517c565b60ff19161790556000805160206156c3833981519152602060405160018152a2005b50601354811115611c0e565b506000546001600160a01b03163314611bfc565b346103b45760003660031901126103b4576000546040516001600160a01b039091168152602090f35b346103b45760003660031901126103b457600354611ccb614c8d565b90610409611cd98383614c80565b611ce1614cbb565b6011549160405195869586614adc565b346103b45760003660031901126103b457601354600060015b82811115611db35750611d1c816151b9565b90611d2a6040519283614966565b808252611d39601f19916151b9565b0191602092368484013760009260015b82811115611d5f57604051806104098682614a30565b806000526015825260ff60036040600020015416600581101561097157600114611d92575b611d8d90614faa565b611d49565b93611dab8186611da5611d8d9488615118565b52614faa565b949050611d84565b80600052601560205260ff60036040600020015416600581101561097157600114611de7575b611de290614faa565b611d0a565b90611df4611de291614faa565b919050611dd9565b346103b45760003660031901126103b457611e15614b1f565b611e1d614e97565b600160ff1960025416176002557f62e78cea01bee320cd4e420270b5ea74000d11b0c9f74754ebdbfc544b05a2586020604051338152a1005b346103b45760003660031901126103b4576020600554604051908152f35b346103b45760403660031901126103b457611e8d614a00565b6001600160a01b03166000908152601860205260409020805460243591908210156103b45760209161165c91614ac4565b346103b45760203660031901126103b457600435611eda61525e565b50601054811015611f5457611ef060a091614b00565b50604051611efd81614915565b81549182825260018101546020830190815260028201549060408401918252608060046003850154946060870195865201549401938452604051948552516020850152516040840152516060830152516080820152f35b60405162461bcd60e51b8152602060048201526013602482015272496e646578206f7574206f6620626f756e647360681b6044820152606490fd5b346103b457611f9d36614aae565b90611fa6614b1f565b80151580611ff2575b15611fbc57600a55600b55005b60405162461bcd60e51b815260206004820152600e60248201526d496e76616c6964206c696d69747360901b6044820152606490fd5b50808211611faf565b346103b45760003660031901126103b457612014614b1f565b600080546001600160a01b0319811682556001600160a01b03167f8be0079c531659141344cd1fd0a4f28419497f9722a3daafe3b4186f6b6457e08280a3005b346103b45761206236614a16565b9161206b614b1f565b600755600855600955005b346103b4576020806003193601126103b45760043560005260198152604060002090604051908181845491828152019360005281600020916000905b8282106120d557610409856120c981890382614966565b60405191829182614a30565b8354865294850194600193840193909101906120b2565b346103b45760203660031901126103b457612105614a00565b61210d614b1f565b601280546001600160a01b0319166001600160a01b0392909216919091179055005b346103b45760003660031901126103b45733600052601a60205260ff604060002054168015612739575b6121629061512c565b61216e601b5442614b8c565b6001905b601354821161191b57816000526015602052604060002091600383015460ff81169060058210156109715760018392148061272b575b6126fd575b505060ff6003840154166005811015610971576002809114806126f0575b6121e2575b506121dc919250614faa565b90612172565b601d6121ee8154614faa565b809155600785015460088601546040519160208301934285524460408501523360601b60608501526074840152609483015260b482015260d484818301528152612237816148f9565b51902090606482066040519161224c8361494b565b8083526020368185013790815b61269f5750508051906001600160401b03821161095b57819061228c8261228360048a01546147f2565b60048a01614fc5565b602090601f831160011461262d57600092612622575b50508160011b916000199060031b1c19161760048501555b6103e88160401c06604051906122cf8261494b565b6003825260203681840137600390815b6125cf5750508051906001600160401b03821161095b576123108261230760058901546147f2565b60058901614fc5565b602090601f831160011461255b5761271093929160009183612550575b50508160011b916000199060031b1c19161760058601555b60801c06604051906123568261494b565b6004825260203681840137600490815b6124e75750508051906001600160401b03821161095b576123978261238e60068801546147f2565b60068801614fc5565b602090601f831160011461245f576121dc94958385946000805160206156e38339815191529461243094600092612454575b50508160011b916000199060031b1c19161760068201555b600360ff198183015416176003820155604051918291606083526006612421612410606086016004850161482c565b85810360208701526005840161482c565b9184830360408601520161482c565b0390a2806000805160206156c3833981519152602060405160038152a282916121d0565b0151905089806123c9565b906006860160005260206000209160005b601f19851681106124cf5750956001846000805160206156e383398151915294612430946121dc999a8998601f198116106124b6575b505050811b0160068201556123e1565b015160001960f88460031b161c191690558980806124a6565b91926020600181928685015181550194019201612470565b603090600a81068201821161253a578260001981011161253a57600a918282060160f81b6001600160f81b03191660001a6125266000198501866152b2565b530490801561253a57600019019081612366565b634e487b7160e01b600052601160045260246000fd5b01519050878061232d565b906005870160005260206000209160005b601f19851681106125b757509183916001936127109695601f1981161061259e575b505050811b016005860155612345565b015160001960f88460031b161c1916905587808061258e565b9192602060018192868501518155019401920161256c565b603090600a81068201821161253a578260001981011161253a57600a918282060160f81b6001600160f81b03191660001a61260e6000198501866152b2565b530490801561253a576000190190816122df565b0151905086806122a2565b9250600487016000526020600020906000935b601f1984168510612684576001945083601f1981161061266b575b505050811b0160048501556122ba565b015160001960f88460031b161c1916905586808061265b565b81810151835560209485019460019093019290910190612640565b600a9060308282068101811161253a578360001981011161253a578282060160f81b6001600160f81b03191660001a6126dc6000198501866152b2565b530490801561253a57600019019081612259565b50808401544210156121cb565b60206000805160206156c3833981519152916002809160ff1916176003880155604051908152a280846121ad565b5083600286015411156121a8565b506000546001600160a01b03163314612159565b346103b45760203660031901126103b457600435612769614c4a565b612774811515614b4b565b60125461278f908290309033906001600160a01b0316614b99565b61279b81600354614b8c565b8060035560405191825260208201527f8f0a5f5a95aba99ab90ccbfc247b53a15faea65d81ad898256d1e58c1837afe360403392a261156c6155c9565b346103b4576020806003193601126103b4576004356127f5614c4a565b80151580612969575b6128079061504e565b6000818152601683526040902080546001600160a01b03163303612935576005810192835460ff81166128fe5760018301546000526015825260406000209260ff6003850154169060058210156109715760019661286960036006941461508f565b61287386836153aa565b97889460ff191617905501558361288a5760018055005b60097f5380cf6fe903b40c6d5a9e0dfbca2f3a423f0a21520b4d5947ed5169bdba946d926128c1866003546115ac828210156150d0565b600355336000526017835260406000206128dc878254614b8c565b9055016128ea858254614b8c565b90556040519384523393a38080808061156c565b60405162461bcd60e51b815260048101839052600f60248201526e105b1c9958591e4818db185a5b5959608a1b6044820152606490fd5b60405162461bcd60e51b815260048101849052600c60248201526b139bdd081e5bdd5c8818995d60a21b6044820152606490fd5b506014548111156127fe565b346103b45760003660031901126103b457602060ff600254166040519015158152f35b346103b45760403660031901126103b4576004356001600160401b0381116103b4576129c8903690600401614994565b9033600052601a60205260ff604060002054168015612e85575b6129eb9061512c565b6129f6601354614faa565b918260135560405192612a08846148c2565b808452612a16368385614ce9565b6020850152602435604085015260006060850152604051612a3681614930565b600081526080850152604051612a4b81614930565b6000815260a0850152604051612a6081614930565b6000815260c0850152600060e0850152600061010085015260006101208501526201518060243504610140850152600052601560205260406000208351815560208401518051906001600160401b03821161095b578190612ad182612ac860018701546147f2565b60018701614fc5565b602090601f8311600114612e1357600092612e08575b50508160011b916000199060031b1c19161760018201555b604084015160028201556060840151600581101561097157612b249060038301615164565b608084015180516001600160401b03811161095b57806004840192612b5382612b4d86546147f2565b86614fc5565b602090601f8311600114612da257600092612d97575b50508160011b916000199060031b1c19161790555b60a084015180516001600160401b03811161095b57806005840192612ba782612b4d86546147f2565b602090601f8311600114612d3157600092612d26575b50508160011b916000199060031b1c19161790555b600681019360c08101519485516001600160401b03811161095b57602096612c0482612bfe85546147f2565b85614fc5565b8790601f8311600114612cb95791806101409492600a9694600092612cae575b50508160011b916000199060031b1c19161790555b60e081015160078501556101008101516008850155610120810151600985015501519101557f7422a3316e28b0bc364bf8dada8bba9e211cb7a96513c7741e5af87b4ebf451f601354928392612c9c604051928392604084526040840191614f89565b602435878301520390a2604051908152f35b015190508a80612c24565b90601f1983169184600052896000209260005b818110612d0f5750926001928592600a9896610140989610612cf6575b505050811b019055612c39565b015160001960f88460031b161c191690558a8080612ce9565b92938b600181928786015181550195019301612ccc565b015190508780612bbd565b6000858152602081209350601f198516905b818110612d7f5750908460019594939210612d66575b505050811b019055612bd2565b015160001960f88460031b161c19169055878080612d59565b92936020600181928786015181550195019301612d43565b015190508780612b69565b6000858152602081209350601f198516905b818110612df05750908460019594939210612dd7575b505050811b019055612b7e565b015160001960f88460031b161c19169055878080612dca565b92936020600181928786015181550195019301612db4565b015190508680612ae7565b9250600184016000526020600020906000935b601f1984168510612e6a576001945083601f19811610612e51575b505050811b016001820155612aff565b015160001960f88460031b161c19169055868080612e41565b81810151835560209485019460019093019290910190612e26565b506000546001600160a01b031633146129e2565b346103b45760003660031901126103b4576020600354604051908152f35b346103b45760003660031901126103b4576020610be242615499565b346103b45760403660031901126103b457612eec614a00565b60243590811515908183036103b4577f235bc17e7930760029e9f4d860a2a8089976de5b381cf8380fc11c1d88a1113391612f52602092612f2b614b1f565b60018060a01b03169485600052601a845260406000209060ff801983541691151516179055565b604051908152a2005b346103b4576080612f77612f6e36614a6b565b93929092614d2f565b916040519315158452602084015260408301526060820152f35b346103b45760203660031901126103b4576001600160a01b03612fb2614a00565b16600052601a602052602060ff604060002054166040519015158152f35b346103b45760003660031901126103b4576020601b54604051908152f35b346103b45760203660031901126103b4576020610be26004356151d0565b346103b45760203660031901126103b45760043560038110156103b45761121d613042610409926040519283809260210161482c565b6040519182916020835260208301906147cd565b346103b45760003660031901126103b45761306f614b1f565b60025460ff8116156130ae5760ff19166002557f5db9ee0a495bf2e6ff9c91a7834c1ba4fdd244a5e8aa4e537bd38aeae4b073aa6020604051338152a1005b604051638dfc202b60e01b8152600490fd5b346103b45760003660031901126103b4576020601d54604051908152f35b346103b45760003660031901126103b4576020600854604051908152f35b346103b45760003660031901126103b457613115614b1f565b61311d614c4a565b60115480156131985761314381600354613139828210156150d0565b6000601155614c80565b6003557f570faf8e540b6c7c198632dd242fe58f4511bd8d4398c1517a3a6cd55d44310a602060018060a01b03613184848260125416836000541690614ef8565b6000541692604051908152a261156c6155c9565b60405162461bcd60e51b815260206004820152600f60248201526e4e6f2070656e64696e67206665657360881b6044820152606490fd5b346103b45760003660031901126103b4576020600c54604051908152f35b346103b45760203660031901126103b45761320661525e565b50600435600052600f60205260a0604060002060405161322581614915565b815491828252600181015460208301908152600282015490604084019182526080600460ff60038601541694606087019515158652015494019384526040519485525160208501525160408401525115156060830152516080820152f35b346103b45760003660031901126103b4576012546040516001600160a01b039091168152602090f35b346103b45760203660031901126103b4576004356132c8614b1f565b61012c81101580613319575b156132de57601b55005b60405162461bcd60e51b81526020600482015260136024820152724d75737420626520356d696e2d32686f75727360681b6044820152606490fd5b50611c208111156132d4565b346103b45760203660031901126103b457600435613341614c4a565b61334c811515614b4b565b336000526017602052613366816040600020541015614eb5565b336000526017602052604060002061337f828254614c80565b905560125461339a90829033906001600160a01b0316614ef8565b6040519081527f7084f5476618d8e60b11ef0d7d3f06914655adb8793e28ff7f018d4c76d505d560203392a260018055005b346103b4576020806003193601126103b4576001600160a01b036133ee614a00565b1660005260188152604060002090604051908181845491828152019360005281600020916000905b82821061342d57610409856120c981890382614966565b835486529485019460019384019390910190613416565b346103b45761345236614a16565b9161345b614b1f565b61138881116134f2576107d082116134b7577fca49799fec639051ee77a7ef822992984f069ae6a4d7da4106c5a59b6a6e4cae9260609282600455806005558160065560405192835260208301526040820152a161191b6155c9565b60405162461bcd60e51b81526020600482015260136024820152725269736b20666163746f72206d61782032302560681b6044820152606490fd5b60405162461bcd60e51b815260206004820152600f60248201526e52657365727665206d61782035302560881b6044820152606490fd5b346103b45760203660031901126103b4576004356000526016602052604060002060018060a01b0381541660018201549160ff6002820154166040519161357e83613577816003850161482c565b0384614966565b6004810154926135c660ff600584015416916135b56007600686015495015495604051998a998a5260208a0152604089019061479d565b6101008060608901528701906147cd565b936080860152151560a085015260c084015260e08301520390f35b346103b45760203660031901126103b4576004356135fd614b1f565b610bb8811161360b57600c55005b60405162461bcd60e51b81526020600482015260076024820152664d61782033302560c81b6044820152606490fd5b346103b45760203660031901126103b45760043533600052601a60205260ff604060002054168015613755575b6136709061512c565b80600052600f602052604060002060ff60038201541661370557604081837fc195623d41ba89bb98c6321958d7a7171285e18d76139c6494482e726f162d5c935560026001820160008154136000146136fa576136e56127106136d78354600c5490614c6d565b048084860155601154614b8c565b6011555b5491015482519182526020820152a2005b6000828401556136e9565b60405162461bcd60e51b815260206004820152602260248201527f436f6d6d697373696f6e20616c72656164792063616c63756c617465642f70616044820152611a5960f21b6064820152608490fd5b506000546001600160a01b03163314613667565b346103b45761378561377a366149c1565b939192933691614ce9565b6020815191012091600052600d60205260406000209060038110156109715760ff166000526020526040600020906000526020526040806000206001815491015482519182526020820152f35b346103b45760003660031901126103b4576020601154604051908152f35b346103b45760003660031901126103b4576020601c54604051908152f35b346103b45760203660031901126103b457600435600052600f60205260a060406000208054906001810154906002810154600460ff6003840154169201549260405194855260208501526040840152151560608301526080820152f35b346103b45760203660031901126103b45760043560005260156020526040600020805460405191828060018301906138a29161482c565b036138ad9084614966565b600281015460038201546040519260ff90911691836138cf816004850161482c565b036138da9085614966565b604051806138eb816005860161482c565b036138f69082614966565b6040519081613908816006870161482c565b036139139083614966565b600784015495600885015493600986015495600a0154966040519a8b9a8b526101608060208d01528b01613946916147cd565b9160408b015260608a0161395991614987565b88810360808a015261396a916147cd565b87810360a089015261397b916147cd565b86810360c088015261398c916147cd565b9360e08601526101008501526101208401526101408301520390f35b346103b45760203660031901126103b457600435600052600e60205260c060406000208054906001810154906002810154600382015490600560ff600485015416930154936040519586526020860152604085015260608401521515608083015260a0820152f35b346103b4576020806003193601126103b457600060e0604051613a32816148f9565b82815282848201528260408201526060808201528260808201528260a08201528260c0820152015260043560005260168152604060002060405190613a76826148f9565b60018060a01b039283825416835260018201549080840191825260ff60028401541692613aa7604086019485614fb9565b604051613abb8161121d816003860161482c565b60608601908152613b1d6004830154956080880196875260ff6005850154169560a089019615158752600760068601549560c08b0196875201549560e08a019687526040519a8b9a828c525116908a015251604089015251606088019061479d565b5192613b37610100948560808901526101208801906147cd565b945160a087015251151560c08601525160e085015251908301520390f35b346103b4576020806003193601126103b4576004359033600052601a815260ff80604060002054168015613d7a575b613b8d9061512c565b82600052600e82528060046040600020015416613d3f57600080916001601354905b81811115613ccf57505050818103600083128282128116908383139015161761253a57604051613bde816148de565b8581526005858201848152613c46604084018781526060850186815260808601916001835260a08701944286528c600052600e8c52604060002097518855516001880155516002870155516003860155511515600485019060ff801983541691151516179055565b519101556201518080860290868204148615171561253a57613c6790615499565b600052600f8452600160406000200192835494828601956000848812911290801582169115161761253a577fa199b603f877b3d38eef9c26cff068db80ddba64f655e5ada047781701a2a5e595606095556040519384528301526040820152a261191b6155c9565b8060005260158652604060002087600a8201541480613d27575b613cfd575b50613cf890614faa565b613baf565b93613cf891956009613d17613d2093600889015490614b8c565b96015490614b8c565b9490613cee565b50600384818301541660058110156109715714613ce9565b60405162461bcd60e51b815260048101839052601360248201527211185e48185b1c9958591e481cd95d1d1b1959606a1b6044820152606490fd5b506000546001600160a01b03163314613b84565b346103b45760003660031901126103b45733600052601a60205260ff604060002054168015614789575b613dc19061512c565b613dd062015180420642614c80565b80601c5410156147445760005b600381101561473e57613df481601e015483614b8c565b428111613e0b575b50613e0690614faa565b613ddd565b613e16601354614faa565b9081601355620afa6c6201518085040191826201518086041161253a5762023ab1808404818102948115928287041483171561253a57613e8895613e5991614c80565b90613e76613e6b6105b4840484614c80565b618eac840490614b8c565b61016d96879162023ab0850490614c80565b049261019080830292830414171561253a57613ea49083614b8c565b94828102908104830361253a57826064613ec8613ed093613ed69660021c90614b8c565b910490614c80565b90614c80565b8060050260058104820361253a576002810180911161253a57609980910491828202918204830361253a576002820180921161253a576005613f19920490614c80565b9060018201821161253a57600a81101561471b576003810180911161253a575b6002811115614709575b604051948560408101106001600160401b0360408801111761095b5760408601604052600a865260203681880137600a6103e882040660300160301161253a578551156146f3576030600a6103e88304060160f81b6001600160f81b03191660001a6020870153600a606482040660300160301161253a578551600110156146f3576030600a60648304060160f81b6001600160f81b03191660001a6021870153600a8082040660300160301161253a578551600210156146f3576030600a808304060160f81b6001600160f81b03191660001a6022870153600a810660300160301161253a578551600310156146f3576030600a9091060160f81b6001600160f81b03191660001a60238601538451600410156146f357602d6024860153600a8082040660300160301161253a578451600510156146f3576030600a808304060160f81b6001600160f81b03191660001a6025860153600a810660300160301161253a578451600610156146f3576030600a9091060160f81b6001600160f81b03191660001a60268501538351600710156146f357602d6027850153600a8060018301040660300160301161253a578351600810156146f3576030600a60018301819004060160f81b6001600160f81b03191660001a6028850153600a600182010660300160301161253a578351600910156146f357600a600160ff60f81b92010660300160f81b1660001a60298401536040519261416c81518092602080880191016147aa565b602d60f81b6020828601015283600086602101549261418a846147f2565b93600181169081156146d05750600114614688575b506141b3925003601f198101855284614966565b604051906141c0826148c2565b808252836020830152826040830152600160608301526040516141e281614930565b6000815260808301526040516141f781614930565b6000815260a083015260405161420c81614930565b6000815260c0830152600060e08301526000610100830152600061012083015262015180860461014083015260005260156020526040600020908051825560208101518051906001600160401b03821161095b57819061427c8261427360018801546147f2565b60018801614fc5565b602090601f83116001146146165760009261460b575b50508160011b916000199060031b1c19161760018301555b6040810151600283015560608101516005811015610971576142cf9060038401615164565b60808101518051906001600160401b03821161095b578190614301826142f860048801546147f2565b60048801614fc5565b602090601f83116001146145995760009261458e575b50508160011b916000199060031b1c19161760048301555b60a08101518051906001600160401b03821161095b5781906143618261435860058801546147f2565b60058801614fc5565b602090601f831160011461451c57600092614511575b50508160011b916000199060031b1c19161760058301555b60c08101518051906001600160401b03821161095b576143bf826143b660068701546147f2565b60068701614fc5565b602090601f8311600114614494579282600a9361014093613e069a99989796600092614489575b50508160011b916000199060031b1c19161760068501555b60e081015160078501556101008101516008850155610120810151600985015501519101557f7422a3316e28b0bc364bf8dada8bba9e211cb7a96513c7741e5af87b4ebf451f6144616013549384936040519283926040845260408401906147cd565b9060208301520390a26000805160206156c3833981519152602060405160018152a290613dfc565b015190508b806143e6565b906006850160005260206000209160005b601f19851681106144f957508361014093613e069a9998979693600193600a97601f198116106144e0575b505050811b0160068501556143fe565b015160001960f88460031b161c191690558b80806144d0565b919260206001819286850151815501940192016144a5565b015190508880614377565b9250600585016000526020600020906000935b601f1984168510614573576001945083601f1981161061455a575b505050811b01600583015561438f565b015160001960f88460031b161c1916905588808061454a565b8181015183556020948501946001909301929091019061452f565b015190508880614317565b9250600485016000526020600020906000935b601f19841685106145f0576001945083601f198116106145d7575b505050811b01600483015561432f565b015160001960f88460031b161c191690558880806145c7565b818101518355602094850194600190930192909101906145ac565b015190508880614292565b9250600185016000526020600020906000935b601f198416851061466d576001945083601f19811610614654575b505050811b0160018301556142aa565b015160001960f88460031b161c19169055888080614644565b81810151835560209485019460019093019290910190614629565b90508660210160005260206000206000905b8482106146b45750506141b392602191830101018861419f565b80546021848a018401015287935060209091019060010161469a565b602193506141b395915060ff19168383860101528015150290830101018861419f565b634e487b7160e01b600052603260045260246000fd5b936001810180911161253a5793613f43565b600819810190811115613f3957634e487b7160e01b600052601160045260246000fd5b50601c55005b60405162461bcd60e51b815260206004820152601f60248201527f447261777320616c7265616479206372656174656420666f7220746f646179006044820152606490fd5b506000546001600160a01b03163314613db8565b9060038210156109715752565b60005b8381106147bd5750506000910152565b81810151838201526020016147ad565b906020916147e6815180928185528580860191016147aa565b601f01601f1916010190565b90600182811c92168015614822575b602083101461480c57565b634e487b7160e01b600052602260045260246000fd5b91607f1691614801565b906000929180549161483d836147f2565b91828252600193848116908160001461489f575060011461485f575b50505050565b90919394506000526020928360002092846000945b83861061488b575050505001019038808080614859565b805485870183015294019385908201614874565b9294505050602093945060ff191683830152151560051b01019038808080614859565b61016081019081106001600160401b0382111761095b57604052565b60c081019081106001600160401b0382111761095b57604052565b61010081019081106001600160401b0382111761095b57604052565b60a081019081106001600160401b0382111761095b57604052565b602081019081106001600160401b0382111761095b57604052565b604081019081106001600160401b0382111761095b57604052565b90601f801991011681019081106001600160401b0382111761095b57604052565b9060058210156109715752565b9181601f840112156103b4578235916001600160401b0383116103b457602083818601950101116103b457565b60606003198201126103b4576004359160243560038110156103b45791604435906001600160401b0382116103b4576149fc91600401614994565b9091565b600435906001600160a01b03821682036103b457565b60609060031901126103b457600435906024359060443590565b6020908160408183019282815285518094520193019160005b828110614a57575050505090565b835185529381019392810192600101614a49565b60806003198201126103b4576004359160243560038110156103b45791604435906001600160401b0382116103b457614aa691600401614994565b909160643590565b60409060031901126103b4576004359060243590565b80548210156146f35760005260206000200190600090565b9192608093969594919660a084019784526020840152604083015260608201520152565b6010548110156146f35760106000526005602060002091020190600090565b6000546001600160a01b03163303614b3357565b60405163118cdaa760e01b8152336004820152602490fd5b15614b5257565b60405162461bcd60e51b81526020600482015260126024820152710416d6f756e74206d757374206265203e20360741b6044820152606490fd5b9190820180921161253a57565b6040516323b872dd60e01b60208201526001600160a01b039283166024820152929091166044830152606480830193909352918152614be091614bdb82614915565b614be2565b565b906000602091828151910182855af115614c3e576000513d614c3557506001600160a01b0381163b155b614c135750565b604051635274afe760e01b81526001600160a01b039091166004820152602490fd5b60011415614c0c565b6040513d6000823e3d90fd5b600260015414614c5b576002600155565b604051633ee5aeb560e01b8152600490fd5b8181029291811591840414171561253a57565b9190820391821161253a57565b600354612710614c9f60045483614c6d565b0480821115614cb457614cb191614c80565b90565b5050600090565b612710614cd2614cc9614c8d565b60055490614c6d565b04600654808210600014614ce4575090565b905090565b9291926001600160401b03821161095b5760405191614d12601f8201601f191660200184614966565b8294818452818301116103b4578281602093846000960137010152565b91614d3d9194933691614ce9565b602081519101206000918252600d602052604082206003851015614da857614d9993614d88604060019561271095614d8e9560ff8b1683526020528282209082526020522096615289565b90614c6d565b049201549182614b8c565b614da1614cbb565b8082111593565b634e487b7160e01b83526021600452602483fd5b9291614dca91923691614ce9565b602081519101206000928352600d602052604083206003831015614e835760ff8316845260205260408320908352602052604082206001614e09614cbb565b9101549080821015614e7d57614e2891614e2291614c80565b91615289565b9061271090818102918183041490151715614e69578115614e5557600b5492500481811115614ce4575090565b634e487b7160e01b83526012600452602483fd5b634e487b7160e01b83526011600452602483fd5b50505090565b634e487b7160e01b84526021600452602484fd5b60ff60025416614ea357565b60405163d93c066560e01b8152600490fd5b15614ebc57565b60405162461bcd60e51b8152602060048201526014602482015273496e73756666696369656e742062616c616e636560601b6044820152606490fd5b60405163a9059cbb60e01b60208201526001600160a01b03909216602483015260448083019390935291815260808101916001600160401b0383118284101761095b57614be092604052614be2565b15614f4e57565b60405162461bcd60e51b8152602060048201526013602482015272111c985dc8191bd95cc81b9bdd08195e1a5cdd606a1b6044820152606490fd5b908060209392818452848401376000828201840152601f01601f1916010190565b600019811461253a5760010190565b60038210156109715752565b90601f8111614fd357505050565b600091825260208220906020601f850160051c8301941061500f575b601f0160051c01915b82811061500457505050565b818155600101614ff8565b9092508290614fef565b8054600160401b81101561095b5761503691600182018155614ac4565b819291549060031b91821b91600019901b1916179055565b1561505557565b60405162461bcd60e51b815260206004820152601260248201527110995d08191bd95cc81b9bdd08195e1a5cdd60721b6044820152606490fd5b1561509657565b60405162461bcd60e51b8152602060048201526012602482015271111c985dc81b9bdd0818dbdb5c1b195d195960721b6044820152606490fd5b156150d757565b60405162461bcd60e51b8152602060048201526019602482015278496e73756666696369656e7420706f6f6c2062616c616e636560381b6044820152606490fd5b80518210156146f35760209160051b010190565b1561513357565b60405162461bcd60e51b81526020600482015260096024820152682737ba1030b236b4b760b91b6044820152606490fd5b9060058110156109715760ff80198354169116179055565b1561518357565b60405162461bcd60e51b815260206004820152600e60248201526d496e76616c69642073746174757360901b6044820152606490fd5b6001600160401b03811161095b5760051b60200190565b80151580615252575b6151e29061504e565b600090815260166020526040812090600182015481526015602052604081209060ff600383015416600581101561523e57600303615238575060ff60058301541661523057614cb1916153aa565b506006015490565b91505090565b634e487b7160e01b82526021600452602482fd5b506014548111156151d9565b6040519061526b82614915565b60006080838281528260208201528260408201528260608201520152565b60038110156109715780156152ab576001146152a55760095490565b60085490565b5060075490565b9081518110156146f3570160200190565b91906152d0913691614ce9565b60038210156109715781158061539e575b614cb45760019182811480615392575b61538a576002148061537e575b614cb457819060009081935b615316575b5050905090565b8051841015615379576001600160f81b0319600360fc1b8161533887856152b2565b51161090811561535f575b50615358576153528394614faa565b9361530a565b5091505090565b603960f81b915061537086846152b2565b51161138615343565b61530f565b506004815114156152fe565b505050600090565b506003825114156152f1565b506002815114156152e1565b9060008060ff600285015416600381101561523e57806154205750505060046153f86040516153e08161121d816003890161482c565b602081519101209261121d604051809481930161482c565b602081519101201490600754915b15614cb45761271091600461541c920154614c6d565b0490565b600181036154565750505060056154446040516153e08161121d816003890161482c565b60208151910120149060085491615406565b9193929091600214615469575b50615406565b9192505060066154866040516153e08161121d816003890161482c565b6020815191012014906009549138615463565b620151809004620afa6c810180911161253a5762023ab1808204818102928115928285041483171561253a576154f6936154d291614c80565b906154e4613e6b6105b4840484614c80565b61016d94859162023ab0850490614c80565b049261019080830292830414171561253a576155129083614b8c565b92828102908104830361253a57826064613ec8613ed0936155369660021c90614b8c565b8060050290600582040361253a576002810180911161253a57609990046000600a8210156155a357506003810180911161253a575b6002811115615591575b60648202918083046064149015171561253a57614cb191614b8c565b906001810180911161253a5790615575565b60081982019182116155b5575061556b565b634e487b7160e01b81526011600452602490fd5b6003546155d4614c8d565b6155dc614cbb565b6155ed6155e7614c8d565b84614c80565b90604051926155fb84614915565b42845260208401948552604084019081526060840191825260808401928352601054600160401b81101561095b578060016156399201601055614b00565b9590956156ac57600494518655516001860155516002850155516003840155519101557f82eded4cd8eaac54f025919b0b4be8f5069c7399d7ea2fa87bbcb392bf0c08e8608060035461568a614c8d565b615692614cbb565b9060405192428452602084015260408301526060820152a1565b634e487b7160e01b600052600060045260246000fdfe3fb14dcb75745b2fd6b729f1f6d005ff458435f4113b58be6e3dbf69cbcd394a4cab5e734ebef082a0255b7313875fe2004541b62282a13fb40201e6d55a70b8a2646970667358221220af4684235d7ffd21d2cb351d4a48f89eb2c279f59da1e6ffb5e44361a43d8ebb64736f6c63430008140033",
  "linkReferences": {},
  "deployedLinkReferences": {}
}