{
  "_format": "hh-sol-artifact-1",
  "contractName": "LaBolitaVRF",
  "sourceName": "contracts/LaBolitaVRF.sol",
  "abi": [
    {
      "inputs": [
        {
          "internalType": "address",
          "name": "_paymentToken",
          "type": "address"
        },
        {
          "internalType": "address",
          "name": "_vrfCoordinator",
          "type": "address"
        },
        {
          "internalType": "uint64",
          "name": "_subscriptionId",
          "type": "uint64"
        },
        {
          "internalType": "bytes32",
          "name": "_keyHash",
          "type": "bytes32"
        }
      ],
      "stateMutability": "nonpayable",
      "type": "constructor"
    },
    {
      "inputs": [],
      "name": "EnforcedPause",
      "type": "error"
    },
    {
      "inputs": [],
      "name": "ExpectedPause",
      "type": "error"
    },
    {
      "inputs": [
        {
          "internalType": "address",
          "name": "have",
          "type": "address"
        },
        {
          "internalType": "address",
          "name": "want",
          "type": "address"
        }
      ],
      "name": "OnlyCoordinatorCanFulfill",
      "type": "error"
    },
    {
      "inputs": [
        {
          "internalType": "address",
          "name": "owner",
          "type": "address"
        }
      ],
      "name": "OwnableInvalidOwner",
      "type": "error"
    },
    {
      "inputs": [
        {
          "internalType": "address",
          "name": "account",
          "type": "address"
        }
      ],
      "name": "OwnableUnauthorizedAccount",
      "type": "error"
    },
    {
      "inputs": [],
      "name": "ReentrancyGuardReentrantCall",
      "type": "error"
    },
    {
      "inputs": [
        {
          "internalType": "address",
          "name": "token",
          "type": "address"
        }
      ],
      "name": "SafeERC20FailedOperation",
      "type": "error"
    },
    {
      "anonymous": false,
      "inputs": [
        {
          "indexed": true,
          "internalType": "address",
          "name": "admin",
          "type": "address"
        },
        {
          "indexed": false,
          "internalType": "bool",
          "name": "status",
          "type": "bool"
        }
      ],
      "name": "AdminUpdated",
      "type": "event"
    },
    {
      "anonymous": false,
      "inputs": [
        {
          "indexed": true,
          "internalType": "address",
          "name": "user",
          "type": "address"
        },
        {
          "indexed": false,
          "internalType": "uint256[]",
          "name": "betIds",
          "type": "uint256[]"
        },
        {
          "indexed": false,
          "internalType": "uint256[]",
          "name": "ticketIds",
          "type": "uint256[]"
        },
        {
          "indexed": false,
          "internalType": "uint256",
          "name": "totalCost",
          "type": "uint256"
        }
      ],
      "name": "BatchCheckout",
      "type": "event"
    },
    {
      "anonymous": false,
      "inputs": [
        {
          "indexed": true,
          "internalType": "uint256",
          "name": "betId",
          "type": "uint256"
        },
        {
          "indexed": true,
          "internalType": "address",
          "name": "player",
          "type": "address"
        },
        {
          "indexed": true,
          "internalType": "uint256",
          "name": "drawId",
          "type": "uint256"
        },
        {
          "indexed": false,
          "internalType": "enum LaBolitaVRF.BetType",
          "name": "betType",
          "type": "uint8"
        },
        {
          "indexed": false,
          "internalType": "string",
          "name": "numbers",
          "type": "string"
        },
        {
          "indexed": false,
          "internalType": "uint256",
          "name": "amount",
          "type": "uint256"
        }
      ],
      "name": "BetPlacedDirect",
      "type": "event"
    },
    {
      "anonymous": false,
      "inputs": [
        {
          "indexed": true,
          "internalType": "address",
          "name": "user",
          "type": "address"
        },
        {
          "indexed": false,
          "internalType": "uint256",
          "name": "amount",
          "type": "uint256"
        }
      ],
      "name": "Deposited",
      "type": "event"
    },
    {
      "anonymous": false,
      "inputs": [
        {
          "indexed": true,
          "internalType": "uint256",
          "name": "drawId",
          "type": "uint256"
        },
        {
          "indexed": false,
          "internalType": "string",
          "name": "drawNumber",
          "type": "string"
        },
        {
          "indexed": false,
          "internalType": "uint256",
          "name": "scheduledTime",
          "type": "uint256"
        }
      ],
      "name": "DrawCreated",
      "type": "event"
    },
    {
      "anonymous": false,
      "inputs": [
        {
          "indexed": true,
          "internalType": "uint256",
          "name": "drawId",
          "type": "uint256"
        },
        {
          "indexed": false,
          "internalType": "enum LaBolitaVRF.DrawStatus",
          "name": "status",
          "type": "uint8"
        }
      ],
      "name": "DrawStatusChanged",
      "type": "event"
    },
    {
      "anonymous": false,
      "inputs": [
        {
          "indexed": false,
          "internalType": "uint256",
          "name": "jackpotAmount",
          "type": "uint256"
        }
      ],
      "name": "JackpotCapReached",
      "type": "event"
    },
    {
      "anonymous": false,
      "inputs": [
        {
          "indexed": false,
          "internalType": "uint256",
          "name": "newJackpot",
          "type": "uint256"
        },
        {
          "indexed": false,
          "internalType": "uint256",
          "name": "addedAmount",
          "type": "uint256"
        }
      ],
      "name": "JackpotIncreased",
      "type": "event"
    },
    {
      "anonymous": false,
      "inputs": [
        {
          "indexed": true,
          "internalType": "uint256",
          "name": "lotteryId",
          "type": "uint256"
        },
        {
          "indexed": true,
          "internalType": "address",
          "name": "winner",
          "type": "address"
        },
        {
          "indexed": false,
          "internalType": "uint256",
          "name": "amount",
          "type": "uint256"
        }
      ],
      "name": "JackpotWon",
      "type": "event"
    },
    {
      "anonymous": false,
      "inputs": [
        {
          "indexed": true,
          "internalType": "uint256",
          "name": "lotteryId",
          "type": "uint256"
        },
        {
          "indexed": false,
          "internalType": "string",
          "name": "drawName",
          "type": "string"
        },
        {
          "indexed": false,
          "internalType": "uint256",
          "name": "scheduledTime",
          "type": "uint256"
        },
        {
          "indexed": false,
          "internalType": "uint256",
          "name": "jackpot",
          "type": "uint256"
        }
      ],
      "name": "LotteryDrawCreated",
      "type": "event"
    },
    {
      "anonymous": false,
      "inputs": [
        {
          "indexed": true,
          "internalType": "uint256",
          "name": "ticketId",
          "type": "uint256"
        },
        {
          "indexed": true,
          "internalType": "address",
          "name": "player",
          "type": "address"
        },
        {
          "indexed": false,
          "internalType": "uint8",
          "name": "category",
          "type": "uint8"
        },
        {
          "indexed": false,
          "internalType": "uint256",
          "name": "amount",
          "type": "uint256"
        }
      ],
      "name": "LotteryPrizeClaimed",
      "type": "event"
    },
    {
      "anonymous": false,
      "inputs": [
        {
          "indexed": true,
          "internalType": "uint256",
          "name": "lotteryId",
          "type": "uint256"
        },
        {
          "indexed": false,
          "internalType": "uint8[6]",
          "name": "winningNumbers",
          "type": "uint8[6]"
        },
        {
          "indexed": false,
          "internalType": "uint8",
          "name": "keyNumber",
          "type": "uint8"
        }
      ],
      "name": "LotteryResultsGenerated",
      "type": "event"
    },
    {
      "anonymous": false,
      "inputs": [
        {
          "indexed": true,
          "internalType": "uint256",
          "name": "ticketId",
          "type": "uint256"
        },
        {
          "indexed": true,
          "internalType": "address",
          "name": "player",
          "type": "address"
        },
        {
          "indexed": true,
          "internalType": "uint256",
          "name": "lotteryId",
          "type": "uint256"
        },
        {
          "indexed": false,
          "internalType": "uint8[6]",
          "name": "numbers",
          "type": "uint8[6]"
        },
        {
          "indexed": false,
          "internalType": "uint8",
          "name": "keyNumber",
          "type": "uint8"
        }
      ],
      "name": "LotteryTicketPurchasedDirect",
      "type": "event"
    },
    {
      "anonymous": false,
      "inputs": [
        {
          "indexed": true,
          "internalType": "address",
          "name": "previousOwner",
          "type": "address"
        },
        {
          "indexed": true,
          "internalType": "address",
          "name": "newOwner",
          "type": "address"
        }
      ],
      "name": "OwnershipTransferred",
      "type": "event"
    },
    {
      "anonymous": false,
      "inputs": [
        {
          "indexed": false,
          "internalType": "address",
          "name": "account",
          "type": "address"
        }
      ],
      "name": "Paused",
      "type": "event"
    },
    {
      "anonymous": false,
      "inputs": [
        {
          "indexed": true,
          "internalType": "address",
          "name": "referrer",
          "type": "address"
        },
        {
          "indexed": true,
          "internalType": "address",
          "name": "referred",
          "type": "address"
        },
        {
          "indexed": false,
          "internalType": "uint256",
          "name": "amount",
          "type": "uint256"
        }
      ],
      "name": "ReferralBonusEarned",
      "type": "event"
    },
    {
      "anonymous": false,
      "inputs": [
        {
          "indexed": true,
          "internalType": "uint256",
          "name": "drawId",
          "type": "uint256"
        },
        {
          "indexed": false,
          "internalType": "string",
          "name": "fijos",
          "type": "string"
        },
        {
          "indexed": false,
          "internalType": "string",
          "name": "centenas",
          "type": "string"
        },
        {
          "indexed": false,
          "internalType": "string",
          "name": "parles",
          "type": "string"
        }
      ],
      "name": "ResultsSubmitted",
      "type": "event"
    },
    {
      "anonymous": false,
      "inputs": [
        {
          "indexed": false,
          "internalType": "address",
          "name": "account",
          "type": "address"
        }
      ],
      "name": "Unpaused",
      "type": "event"
    },
    {
      "anonymous": false,
      "inputs": [
        {
          "indexed": true,
          "internalType": "uint256",
          "name": "requestId",
          "type": "uint256"
        },
        {
          "indexed": false,
          "internalType": "uint256",
          "name": "randomWord",
          "type": "uint256"
        }
      ],
      "name": "VRFReceived",
      "type": "event"
    },
    {
      "anonymous": false,
      "inputs": [
        {
          "indexed": true,
          "internalType": "uint256",
          "name": "requestId",
          "type": "uint256"
        },
        {
          "indexed": true,
          "internalType": "uint256",
          "name": "drawId",
          "type": "uint256"
        },
        {
          "indexed": false,
          "internalType": "bool",
          "name": "isLottery",
          "type": "bool"
        }
      ],
      "name": "VRFRequested",
      "type": "event"
    },
    {
      "anonymous": false,
      "inputs": [
        {
          "indexed": true,
          "internalType": "uint256",
          "name": "betId",
          "type": "uint256"
        },
        {
          "indexed": true,
          "internalType": "address",
          "name": "player",
          "type": "address"
        },
        {
          "indexed": false,
          "internalType": "uint256",
          "name": "amount",
          "type": "uint256"
        }
      ],
      "name": "WinningsClaimed",
      "type": "event"
    },
    {
      "anonymous": false,
      "inputs": [
        {
          "indexed": true,
          "internalType": "address",
          "name": "user",
          "type": "address"
        },
        {
          "indexed": false,
          "internalType": "uint256",
          "name": "amount",
          "type": "uint256"
        }
      ],
      "name": "Withdrawn",
      "type": "event"
    },
    {
      "inputs": [
        {
          "internalType": "address",
          "name": "",
          "type": "address"
        }
      ],
      "name": "admins",
      "outputs": [
        {
          "internalType": "bool",
          "name": "",
          "type": "bool"
        }
      ],
      "stateMutability": "view",
      "type": "function"
    },
    {
      "inputs": [
        {
          "components": [
            {
              "internalType": "uint256",
              "name": "drawId",
              "type": "uint256"
            },
            {
              "internalType": "enum LaBolitaVRF.BetType",
              "name": "betType",
              "type": "uint8"
            },
            {
              "internalType": "string",
              "name": "numbers",
              "type": "string"
            },
            {
              "internalType": "uint256",
              "name": "amount",
              "type": "uint256"
            }
          ],
          "internalType": "struct LaBolitaVRF.BetInput[]",
          "name": "_bets",
          "type": "tuple[]"
        },
        {
          "components": [
            {
              "internalType": "uint256",
              "name": "lotteryId",
              "type": "uint256"
            },
            {
              "internalType": "uint8[6]",
              "name": "numbers",
              "type": "uint8[6]"
            },
            {
              "internalType": "uint8",
              "name": "keyNumber",
              "type": "uint8"
            }
          ],
          "internalType": "struct LaBolitaVRF.TicketInput[]",
          "name": "_tickets",
          "type": "tuple[]"
        }
      ],
      "name": "batchCheckout",
      "outputs": [
        {
          "internalType": "uint256[]",
          "name": "betIds",
          "type": "uint256[]"
        },
        {
          "internalType": "uint256[]",
          "name": "ticketIds",
          "type": "uint256[]"
        }
      ],
      "stateMutability": "nonpayable",
      "type": "function"
    },
    {
      "inputs": [],
      "name": "betCounter",
      "outputs": [
        {
          "internalType": "uint256",
          "name": "",
          "type": "uint256"
        }
      ],
      "stateMutability": "view",
      "type": "function"
    },
    {
      "inputs": [
        {
          "internalType": "uint256",
          "name": "",
          "type": "uint256"
        }
      ],
      "name": "bets",
      "outputs": [
        {
          "internalType": "address",
          "name": "player",
          "type": "address"
        },
        {
          "internalType": "uint256",
          "name": "drawId",
          "type": "uint256"
        },
        {
          "internalType": "enum LaBolitaVRF.BetType",
          "name": "betType",
          "type": "uint8"
        },
        {
          "internalType": "string",
          "name": "numbers",
          "type": "string"
        },
        {
          "internalType": "uint256",
          "name": "amount",
          "type": "uint256"
        },
        {
          "internalType": "bool",
          "name": "claimed",
          "type": "bool"
        },
        {
          "internalType": "uint256",
          "name": "payout",
          "type": "uint256"
        }
      ],
      "stateMutability": "view",
      "type": "function"
    },
    {
      "inputs": [],
      "name": "bettingCloseTime",
      "outputs": [
        {
          "internalType": "uint256",
          "name": "",
          "type": "uint256"
        }
      ],
      "stateMutability": "view",
      "type": "function"
    },
    {
      "inputs": [
        {
          "internalType": "uint256",
          "name": "_lotteryId",
          "type": "uint256"
        },
        {
          "internalType": "uint8[6]",
          "name": "_numbers",
          "type": "uint8[6]"
        },
        {
          "internalType": "uint8",
          "name": "_keyNumber",
          "type": "uint8"
        }
      ],
      "name": "buyLotteryTicketDirect",
      "outputs": [],
      "stateMutability": "nonpayable",
      "type": "function"
    },
    {
      "inputs": [],
      "name": "centenaMultiplier",
      "outputs": [
        {
          "internalType": "uint256",
          "name": "",
          "type": "uint256"
        }
      ],
      "stateMutability": "view",
      "type": "function"
    },
    {
      "inputs": [
        {
          "internalType": "uint256",
          "name": "_ticketId",
          "type": "uint256"
        }
      ],
      "name": "checkLotteryPrize",
      "outputs": [
        {
          "internalType": "uint8",
          "name": "category",
          "type": "uint8"
        },
        {
          "internalType": "uint256",
          "name": "prize",
          "type": "uint256"
        }
      ],
      "stateMutability": "view",
      "type": "function"
    },
    {
      "inputs": [
        {
          "internalType": "uint256",
          "name": "_betId",
          "type": "uint256"
        }
      ],
      "name": "checkWinnings",
      "outputs": [
        {
          "internalType": "uint256",
          "name": "",
          "type": "uint256"
        }
      ],
      "stateMutability": "view",
      "type": "function"
    },
    {
      "inputs": [
        {
          "internalType": "uint256",
          "name": "_ticketId",
          "type": "uint256"
        }
      ],
      "name": "claimLotteryPrize",
      "outputs": [],
      "stateMutability": "nonpayable",
      "type": "function"
    },
    {
      "inputs": [],
      "name": "claimReferralEarnings",
      "outputs": [],
      "stateMutability": "nonpayable",
      "type": "function"
    },
    {
      "inputs": [
        {
          "internalType": "uint256",
          "name": "_betId",
          "type": "uint256"
        }
      ],
      "name": "claimWinnings",
      "outputs": [],
      "stateMutability": "nonpayable",
      "type": "function"
    },
    {
      "inputs": [
        {
          "internalType": "uint256",
          "name": "_drawId",
          "type": "uint256"
        }
      ],
      "name": "closeDraw",
      "outputs": [],
      "stateMutability": "nonpayable",
      "type": "function"
    },
    {
      "inputs": [
        {
          "internalType": "uint256",
          "name": "_lotteryId",
          "type": "uint256"
        }
      ],
      "name": "closeLotteryDraw",
      "outputs": [],
      "stateMutability": "nonpayable",
      "type": "function"
    },
    {
      "inputs": [
        {
          "internalType": "string",
          "name": "_drawNumber",
          "type": "string"
        },
        {
          "internalType": "uint256",
          "name": "_scheduledTime",
          "type": "uint256"
        }
      ],
      "name": "createDraw",
      "outputs": [],
      "stateMutability": "nonpayable",
      "type": "function"
    },
    {
      "inputs": [
        {
          "internalType": "string",
          "name": "_drawName",
          "type": "string"
        },
        {
          "internalType": "uint256",
          "name": "_scheduledTime",
          "type": "uint256"
        }
      ],
      "name": "createLotteryDraw",
      "outputs": [],
      "stateMutability": "nonpayable",
      "type": "function"
    },
    {
      "inputs": [],
      "name": "currentJackpot",
      "outputs": [
        {
          "internalType": "uint256",
          "name": "",
          "type": "uint256"
        }
      ],
      "stateMutability": "view",
      "type": "function"
    },
    {
      "inputs": [
        {
          "internalType": "uint256",
          "name": "_amount",
          "type": "uint256"
        }
      ],
      "name": "deposit",
      "outputs": [],
      "stateMutability": "nonpayable",
      "type": "function"
    },
    {
      "inputs": [
        {
          "internalType": "uint256",
          "name": "",
          "type": "uint256"
        },
        {
          "internalType": "uint256",
          "name": "",
          "type": "uint256"
        }
      ],
      "name": "drawBets",
      "outputs": [
        {
          "internalType": "uint256",
          "name": "",
          "type": "uint256"
        }
      ],
      "stateMutability": "view",
      "type": "function"
    },
    {
      "inputs": [],
      "name": "drawCounter",
      "outputs": [
        {
          "internalType": "uint256",
          "name": "",
          "type": "uint256"
        }
      ],
      "stateMutability": "view",
      "type": "function"
    },
    {
      "inputs": [
        {
          "internalType": "uint256",
          "name": "",
          "type": "uint256"
        }
      ],
      "name": "drawNames",
      "outputs": [
        {
          "internalType": "string",
          "name": "",
          "type": "string"
        }
      ],
      "stateMutability": "view",
      "type": "function"
    },
    {
      "inputs": [
        {
          "internalType": "uint256",
          "name": "",
          "type": "uint256"
        }
      ],
      "name": "drawTimes",
      "outputs": [
        {
          "internalType": "uint256",
          "name": "",
          "type": "uint256"
        }
      ],
      "stateMutability": "view",
      "type": "function"
    },
    {
      "inputs": [
        {
          "internalType": "uint256",
          "name": "",
          "type": "uint256"
        }
      ],
      "name": "draws",
      "outputs": [
        {
          "internalType": "uint256",
          "name": "id",
          "type": "uint256"
        },
        {
          "internalType": "string",
          "name": "drawNumber",
          "type": "string"
        },
        {
          "internalType": "uint256",
          "name": "scheduledTime",
          "type": "uint256"
        },
        {
          "internalType": "enum LaBolitaVRF.DrawStatus",
          "name": "status",
          "type": "uint8"
        },
        {
          "internalType": "string",
          "name": "winningFijos",
          "type": "string"
        },
        {
          "internalType": "string",
          "name": "winningCentenas",
          "type": "string"
        },
        {
          "internalType": "string",
          "name": "winningParles",
          "type": "string"
        },
        {
          "internalType": "uint256",
          "name": "totalBets",
          "type": "uint256"
        },
        {
          "internalType": "uint256",
          "name": "totalAmount",
          "type": "uint256"
        },
        {
          "internalType": "uint256",
          "name": "totalPaidOut",
          "type": "uint256"
        },
        {
          "internalType": "uint256",
          "name": "vrfRequestId",
          "type": "uint256"
        },
        {
          "internalType": "uint256",
          "name": "vrfRandomWord",
          "type": "uint256"
        }
      ],
      "stateMutability": "view",
      "type": "function"
    },
    {
      "inputs": [
        {
          "internalType": "address",
          "name": "_token",
          "type": "address"
        }
      ],
      "name": "emergencyWithdraw",
      "outputs": [],
      "stateMutability": "nonpayable",
      "type": "function"
    },
    {
      "inputs": [],
      "name": "fijoMultiplier",
      "outputs": [
        {
          "internalType": "uint256",
          "name": "",
          "type": "uint256"
        }
      ],
      "stateMutability": "view",
      "type": "function"
    },
    {
      "inputs": [
        {
          "internalType": "address",
          "name": "_user",
          "type": "address"
        }
      ],
      "name": "getBalance",
      "outputs": [
        {
          "internalType": "uint256",
          "name": "",
          "type": "uint256"
        }
      ],
      "stateMutability": "view",
      "type": "function"
    },
    {
      "inputs": [
        {
          "internalType": "uint256",
          "name": "_drawId",
          "type": "uint256"
        }
      ],
      "name": "getDrawBets",
      "outputs": [
        {
          "internalType": "uint256[]",
          "name": "",
          "type": "uint256[]"
        }
      ],
      "stateMutability": "view",
      "type": "function"
    },
    {
      "inputs": [],
      "name": "getJackpot",
      "outputs": [
        {
          "internalType": "uint256",
          "name": "",
          "type": "uint256"
        }
      ],
      "stateMutability": "view",
      "type": "function"
    },
    {
      "inputs": [
        {
          "internalType": "address",
          "name": "_user",
          "type": "address"
        }
      ],
      "name": "getReferralInfo",
      "outputs": [
        {
          "components": [
            {
              "internalType": "address",
              "name": "referrer",
              "type": "address"
            },
            {
              "internalType": "uint256",
              "name": "totalReferred",
              "type": "uint256"
            },
            {
              "internalType": "uint256",
              "name": "totalEarnings",
              "type": "uint256"
            },
            {
              "internalType": "uint256",
              "name": "pendingEarnings",
              "type": "uint256"
            },
            {
              "internalType": "uint256",
              "name": "joinedAt",
              "type": "uint256"
            }
          ],
          "internalType": "struct LaBolitaVRF.ReferralInfo",
          "name": "",
          "type": "tuple"
        }
      ],
      "stateMutability": "view",
      "type": "function"
    },
    {
      "inputs": [
        {
          "internalType": "address",
          "name": "_user",
          "type": "address"
        }
      ],
      "name": "getReferredUsers",
      "outputs": [
        {
          "internalType": "address[]",
          "name": "",
          "type": "address[]"
        }
      ],
      "stateMutability": "view",
      "type": "function"
    },
    {
      "inputs": [
        {
          "internalType": "address",
          "name": "_user",
          "type": "address"
        }
      ],
      "name": "getUserBets",
      "outputs": [
        {
          "internalType": "uint256[]",
          "name": "",
          "type": "uint256[]"
        }
      ],
      "stateMutability": "view",
      "type": "function"
    },
    {
      "inputs": [
        {
          "internalType": "address",
          "name": "_user",
          "type": "address"
        }
      ],
      "name": "getUserLotteryTickets",
      "outputs": [
        {
          "internalType": "uint256[]",
          "name": "",
          "type": "uint256[]"
        }
      ],
      "stateMutability": "view",
      "type": "function"
    },
    {
      "inputs": [],
      "name": "jackpotCap",
      "outputs": [
        {
          "internalType": "uint256",
          "name": "",
          "type": "uint256"
        }
      ],
      "stateMutability": "view",
      "type": "function"
    },
    {
      "inputs": [],
      "name": "jackpotPercentage",
      "outputs": [
        {
          "internalType": "uint256",
          "name": "",
          "type": "uint256"
        }
      ],
      "stateMutability": "view",
      "type": "function"
    },
    {
      "inputs": [],
      "name": "lotteryCounter",
      "outputs": [
        {
          "internalType": "uint256",
          "name": "",
          "type": "uint256"
        }
      ],
      "stateMutability": "view",
      "type": "function"
    },
    {
      "inputs": [
        {
          "internalType": "uint256",
          "name": "",
          "type": "uint256"
        },
        {
          "internalType": "uint256",
          "name": "",
          "type": "uint256"
        }
      ],
      "name": "lotteryDrawTickets",
      "outputs": [
        {
          "internalType": "uint256",
          "name": "",
          "type": "uint256"
        }
      ],
      "stateMutability": "view",
      "type": "function"
    },
    {
      "inputs": [
        {
          "internalType": "uint256",
          "name": "",
          "type": "uint256"
        }
      ],
      "name": "lotteryDraws",
      "outputs": [
        {
          "internalType": "uint256",
          "name": "id",
          "type": "uint256"
        },
        {
          "internalType": "string",
          "name": "drawName",
          "type": "string"
        },
        {
          "internalType": "uint256",
          "name": "scheduledTime",
          "type": "uint256"
        },
        {
          "internalType": "enum LaBolitaVRF.LotteryStatus",
          "name": "status",
          "type": "uint8"
        },
        {
          "internalType": "uint8",
          "name": "keyNumber",
          "type": "uint8"
        },
        {
          "internalType": "uint256",
          "name": "jackpot",
          "type": "uint256"
        },
        {
          "internalType": "uint256",
          "name": "totalTickets",
          "type": "uint256"
        },
        {
          "internalType": "uint256",
          "name": "totalCollected",
          "type": "uint256"
        },
        {
          "internalType": "uint256",
          "name": "totalPaidOut",
          "type": "uint256"
        },
        {
          "internalType": "bool",
          "name": "jackpotWon",
          "type": "bool"
        },
        {
          "internalType": "uint256",
          "name": "vrfRequestId",
          "type": "uint256"
        },
        {
          "internalType": "uint256",
          "name": "vrfRandomWord",
          "type": "uint256"
        }
      ],
      "stateMutability": "view",
      "type": "function"
    },
    {
      "inputs": [],
      "name": "lotteryTicketPrice",
      "outputs": [
        {
          "internalType": "uint256",
          "name": "",
          "type": "uint256"
        }
      ],
      "stateMutability": "view",
      "type": "function"
    },
    {
      "inputs": [
        {
          "internalType": "uint256",
          "name": "",
          "type": "uint256"
        }
      ],
      "name": "lotteryTickets",
      "outputs": [
        {
          "internalType": "address",
          "name": "player",
          "type": "address"
        },
        {
          "internalType": "uint256",
          "name": "lotteryId",
          "type": "uint256"
        },
        {
          "internalType": "uint8",
          "name": "keyNumber",
          "type": "uint8"
        },
        {
          "internalType": "uint256",
          "name": "purchaseTime",
          "type": "uint256"
        },
        {
          "internalType": "bool",
          "name": "claimed",
          "type": "bool"
        },
        {
          "internalType": "uint256",
          "name": "prize",
          "type": "uint256"
        },
        {
          "internalType": "uint8",
          "name": "category",
          "type": "uint8"
        }
      ],
      "stateMutability": "view",
      "type": "function"
    },
    {
      "inputs": [],
      "name": "maxBetAmount",
      "outputs": [
        {
          "internalType": "uint256",
          "name": "",
          "type": "uint256"
        }
      ],
      "stateMutability": "view",
      "type": "function"
    },
    {
      "inputs": [],
      "name": "minBetAmount",
      "outputs": [
        {
          "internalType": "uint256",
          "name": "",
          "type": "uint256"
        }
      ],
      "stateMutability": "view",
      "type": "function"
    },
    {
      "inputs": [],
      "name": "minJackpot",
      "outputs": [
        {
          "internalType": "uint256",
          "name": "",
          "type": "uint256"
        }
      ],
      "stateMutability": "view",
      "type": "function"
    },
    {
      "inputs": [],
      "name": "owner",
      "outputs": [
        {
          "internalType": "address",
          "name": "",
          "type": "address"
        }
      ],
      "stateMutability": "view",
      "type": "function"
    },
    {
      "inputs": [],
      "name": "parleMultiplier",
      "outputs": [
        {
          "internalType": "uint256",
          "name": "",
          "type": "uint256"
        }
      ],
      "stateMutability": "view",
      "type": "function"
    },
    {
      "inputs": [],
      "name": "pause",
      "outputs": [],
      "stateMutability": "nonpayable",
      "type": "function"
    },
    {
      "inputs": [],
      "name": "paused",
      "outputs": [
        {
          "internalType": "bool",
          "name": "",
          "type": "bool"
        }
      ],
      "stateMutability": "view",
      "type": "function"
    },
    {
      "inputs": [],
      "name": "paymentToken",
      "outputs": [
        {
          "internalType": "contract IERC20",
          "name": "",
          "type": "address"
        }
      ],
      "stateMutability": "view",
      "type": "function"
    },
    {
      "inputs": [
        {
          "internalType": "uint256",
          "name": "_drawId",
          "type": "uint256"
        },
        {
          "internalType": "enum LaBolitaVRF.BetType",
          "name": "_betType",
          "type": "uint8"
        },
        {
          "internalType": "string",
          "name": "_numbers",
          "type": "string"
        },
        {
          "internalType": "uint256",
          "name": "_amount",
          "type": "uint256"
        }
      ],
      "name": "placeBetDirect",
      "outputs": [],
      "stateMutability": "nonpayable",
      "type": "function"
    },
    {
      "inputs": [],
      "name": "prize2Amount",
      "outputs": [
        {
          "internalType": "uint256",
          "name": "",
          "type": "uint256"
        }
      ],
      "stateMutability": "view",
      "type": "function"
    },
    {
      "inputs": [],
      "name": "prize3Amount",
      "outputs": [
        {
          "internalType": "uint256",
          "name": "",
          "type": "uint256"
        }
      ],
      "stateMutability": "view",
      "type": "function"
    },
    {
      "inputs": [],
      "name": "prize4Amount",
      "outputs": [
        {
          "internalType": "uint256",
          "name": "",
          "type": "uint256"
        }
      ],
      "stateMutability": "view",
      "type": "function"
    },
    {
      "inputs": [],
      "name": "prize5Amount",
      "outputs": [
        {
          "internalType": "uint256",
          "name": "",
          "type": "uint256"
        }
      ],
      "stateMutability": "view",
      "type": "function"
    },
    {
      "inputs": [],
      "name": "prize6Amount",
      "outputs": [
        {
          "internalType": "uint256",
          "name": "",
          "type": "uint256"
        }
      ],
      "stateMutability": "view",
      "type": "function"
    },
    {
      "inputs": [],
      "name": "prize7Amount",
      "outputs": [
        {
          "internalType": "uint256",
          "name": "",
          "type": "uint256"
        }
      ],
      "stateMutability": "view",
      "type": "function"
    },
    {
      "inputs": [],
      "name": "prize8Amount",
      "outputs": [
        {
          "internalType": "uint256",
          "name": "",
          "type": "uint256"
        }
      ],
      "stateMutability": "view",
      "type": "function"
    },
    {
      "inputs": [
        {
          "internalType": "uint256",
          "name": "requestId",
          "type": "uint256"
        },
        {
          "internalType": "uint256[]",
          "name": "randomWords",
          "type": "uint256[]"
        }
      ],
      "name": "rawFulfillRandomWords",
      "outputs": [],
      "stateMutability": "nonpayable",
      "type": "function"
    },
    {
      "inputs": [],
      "name": "referralBonusPercent",
      "outputs": [
        {
          "internalType": "uint256",
          "name": "",
          "type": "uint256"
        }
      ],
      "stateMutability": "view",
      "type": "function"
    },
    {
      "inputs": [
        {
          "internalType": "address",
          "name": "",
          "type": "address"
        }
      ],
      "name": "referralInfo",
      "outputs": [
        {
          "internalType": "address",
          "name": "referrer",
          "type": "address"
        },
        {
          "internalType": "uint256",
          "name": "totalReferred",
          "type": "uint256"
        },
        {
          "internalType": "uint256",
          "name": "totalEarnings",
          "type": "uint256"
        },
        {
          "internalType": "uint256",
          "name": "pendingEarnings",
          "type": "uint256"
        },
        {
          "internalType": "uint256",
          "name": "joinedAt",
          "type": "uint256"
        }
      ],
      "stateMutability": "view",
      "type": "function"
    },
    {
      "inputs": [
        {
          "internalType": "address",
          "name": "",
          "type": "address"
        },
        {
          "internalType": "uint256",
          "name": "",
          "type": "uint256"
        }
      ],
      "name": "referredUsers",
      "outputs": [
        {
          "internalType": "address",
          "name": "",
          "type": "address"
        }
      ],
      "stateMutability": "view",
      "type": "function"
    },
    {
      "inputs": [
        {
          "internalType": "address",
          "name": "_referrer",
          "type": "address"
        }
      ],
      "name": "registerReferral",
      "outputs": [],
      "stateMutability": "nonpayable",
      "type": "function"
    },
    {
      "inputs": [],
      "name": "renounceOwnership",
      "outputs": [],
      "stateMutability": "nonpayable",
      "type": "function"
    },
    {
      "inputs": [
        {
          "internalType": "uint256",
          "name": "_drawId",
          "type": "uint256"
        }
      ],
      "name": "requestDrawResults",
      "outputs": [],
      "stateMutability": "nonpayable",
      "type": "function"
    },
    {
      "inputs": [
        {
          "internalType": "uint256",
          "name": "_lotteryId",
          "type": "uint256"
        }
      ],
      "name": "requestLotteryResults",
      "outputs": [],
      "stateMutability": "nonpayable",
      "type": "function"
    },
    {
      "inputs": [
        {
          "internalType": "address",
          "name": "_admin",
          "type": "address"
        },
        {
          "internalType": "bool",
          "name": "_status",
          "type": "bool"
        }
      ],
      "name": "setAdmin",
      "outputs": [],
      "stateMutability": "nonpayable",
      "type": "function"
    },
    {
      "inputs": [
        {
          "internalType": "uint256",
          "name": "_min",
          "type": "uint256"
        },
        {
          "internalType": "uint256",
          "name": "_max",
          "type": "uint256"
        }
      ],
      "name": "setBetLimits",
      "outputs": [],
      "stateMutability": "nonpayable",
      "type": "function"
    },
    {
      "inputs": [
        {
          "internalType": "uint256",
          "name": "_cap",
          "type": "uint256"
        }
      ],
      "name": "setJackpotCap",
      "outputs": [],
      "stateMutability": "nonpayable",
      "type": "function"
    },
    {
      "inputs": [
        {
          "internalType": "uint256",
          "name": "_prize2",
          "type": "uint256"
        },
        {
          "internalType": "uint256",
          "name": "_prize3",
          "type": "uint256"
        },
        {
          "internalType": "uint256",
          "name": "_prize4",
          "type": "uint256"
        },
        {
          "internalType": "uint256",
          "name": "_prize5",
          "type": "uint256"
        },
        {
          "internalType": "uint256",
          "name": "_prize6",
          "type": "uint256"
        },
        {
          "internalType": "uint256",
          "name": "_prize7",
          "type": "uint256"
        },
        {
          "internalType": "uint256",
          "name": "_prize8",
          "type": "uint256"
        }
      ],
      "name": "setLotteryPrizes",
      "outputs": [],
      "stateMutability": "nonpayable",
      "type": "function"
    },
    {
      "inputs": [
        {
          "internalType": "uint256",
          "name": "_price",
          "type": "uint256"
        }
      ],
      "name": "setLotteryTicketPrice",
      "outputs": [],
      "stateMutability": "nonpayable",
      "type": "function"
    },
    {
      "inputs": [
        {
          "internalType": "uint256",
          "name": "_min",
          "type": "uint256"
        }
      ],
      "name": "setMinJackpot",
      "outputs": [],
      "stateMutability": "nonpayable",
      "type": "function"
    },
    {
      "inputs": [
        {
          "internalType": "uint256",
          "name": "_percent",
          "type": "uint256"
        }
      ],
      "name": "setReferralBonus",
      "outputs": [],
      "stateMutability": "nonpayable",
      "type": "function"
    },
    {
      "inputs": [
        {
          "internalType": "uint64",
          "name": "_subscriptionId",
          "type": "uint64"
        },
        {
          "internalType": "bytes32",
          "name": "_keyHash",
          "type": "bytes32"
        },
        {
          "internalType": "uint32",
          "name": "_callbackGasLimit",
          "type": "uint32"
        },
        {
          "internalType": "uint16",
          "name": "_requestConfirmations",
          "type": "uint16"
        }
      ],
      "name": "setVRFConfig",
      "outputs": [],
      "stateMutability": "nonpayable",
      "type": "function"
    },
    {
      "inputs": [],
      "name": "ticketCounter",
      "outputs": [
        {
          "internalType": "uint256",
          "name": "",
          "type": "uint256"
        }
      ],
      "stateMutability": "view",
      "type": "function"
    },
    {
      "inputs": [
        {
          "internalType": "address",
          "name": "newOwner",
          "type": "address"
        }
      ],
      "name": "transferOwnership",
      "outputs": [],
      "stateMutability": "nonpayable",
      "type": "function"
    },
    {
      "inputs": [],
      "name": "unpause",
      "outputs": [],
      "stateMutability": "nonpayable",
      "type": "function"
    },
    {
      "inputs": [
        {
          "internalType": "address",
          "name": "",
          "type": "address"
        }
      ],
      "name": "userBalances",
      "outputs": [
        {
          "internalType": "uint256",
          "name": "",
          "type": "uint256"
        }
      ],
      "stateMutability": "view",
      "type": "function"
    },
    {
      "inputs": [
        {
          "internalType": "address",
          "name": "",
          "type": "address"
        },
        {
          "internalType": "uint256",
          "name": "",
          "type": "uint256"
        }
      ],
      "name": "userBets",
      "outputs": [
        {
          "internalType": "uint256",
          "name": "",
          "type": "uint256"
        }
      ],
      "stateMutability": "view",
      "type": "function"
    },
    {
      "inputs": [
        {
          "internalType": "address",
          "name": "",
          "type": "address"
        },
        {
          "internalType": "uint256",
          "name": "",
          "type": "uint256"
        }
      ],
      "name": "userLotteryTickets",
      "outputs": [
        {
          "internalType": "uint256",
          "name": "",
          "type": "uint256"
        }
      ],
      "stateMutability": "view",
      "type": "function"
    },
    {
      "inputs": [],
      "name": "vrfCallbackGasLimit",
      "outputs": [
        {
          "internalType": "uint32",
          "name": "",
          "type": "uint32"
        }
      ],
      "stateMutability": "view",
      "type": "function"
    },
    {
      "inputs": [],
      "name": "vrfCoordinator",
      "outputs": [
        {
          "internalType": "contract VRFCoordinatorV2Interface",
          "name": "",
          "type": "address"
        }
      ],
      "stateMutability": "view",
      "type": "function"
    },
    {
      "inputs": [],
      "name": "vrfKeyHash",
      "outputs": [
        {
          "internalType": "bytes32",
          "name": "",
          "type": "bytes32"
        }
      ],
      "stateMutability": "view",
      "type": "function"
    },
    {
      "inputs": [],
      "name": "vrfRequestConfirmations",
      "outputs": [
        {
          "internalType": "uint16",
          "name": "",
          "type": "uint16"
        }
      ],
      "stateMutability": "view",
      "type": "function"
    },
    {
      "inputs": [
        {
          "internalType": "uint256",
          "name": "",
          "type": "uint256"
        }
      ],
      "name": "vrfRequestPending",
      "outputs": [
        {
          "internalType": "bool",
          "name": "",
          "type": "bool"
        }
      ],
      "stateMutability": "view",
      "type": "function"
    },
    {
      "inputs": [
        {
          "internalType": "uint256",
          "name": "",
          "type": "uint256"
        }
      ],
      "name": "vrfRequestToDrawId",
      "outputs": [
        {
          "internalType": "uint256",
          "name": "",
          "type": "uint256"
        }
      ],
      "stateMutability": "view",
      "type": "function"
    },
    {
      "inputs": [
        {
          "internalType": "uint256",
          "name": "",
          "type": "uint256"
        }
      ],
      "name": "vrfRequestToLotteryId",
      "outputs": [
        {
          "internalType": "uint256",
          "name": "",
          "type": "uint256"
        }
      ],
      "stateMutability": "view",
      "type": "function"
    },
    {
      "inputs": [],
      "name": "vrfSubscriptionId",
      "outputs": [
        {
          "internalType": "uint64",
          "name": "",
          "type": "uint64"
        }
      ],
      "stateMutability": "view",
      "type": "function"
    },
    {
      "inputs": [
        {
          "internalType": "uint256",
          "name": "_amount",
          "type": "uint256"
        }
      ],
      "name": "withdraw",
      "outputs": [],
      "stateMutability": "nonpayable",
      "type": "function"
    }
  ],
  "bytecode": "0x60a0346200044f57601f62005ec538819003918201601f19168301916001600160401b0383118484101762000371578084926080946040528339810103126200044f576200004d8162000494565b6200005b6020830162000494565b604083015190926001600160401b03821682036200044f57606001513315620004365760008054336001600160a01b0319821681178355939593916001600160a01b03909116907f8be0079c531659141344cd1fd0a4f28419497f9722a3daafe3b4186f6b6457e09080a3600180558160805264030007a12065ffffffffffff196004541617600455620f424080600a55633b9aca00600b556209eb10600c55622dc6c0600d5562989680600e55601c55611388601d556402540be40080601e5564e8d4a51000601f5564174876e800602055602155633b9aca006022556305f5e1006023556302faf08060245562989680602555624c4b40602655610e106028556200016762000454565b618ca0815261d2f0602082015262012750604082015260005b600381106200041b5750506200019562000454565b6200019f62000474565b60068152654d414e414e4160d01b60208201528152620001be62000474565b6005815264544152444560d81b60208201526020820152620001df62000474565b60058152644e4f43484560d81b6020820152604082015291602c946000935b6003851015620003875780518051906001600160401b03821162000371578854600181811c9116801562000366575b60208210146200035057601f811162000307575b50602090601f83116001146200029257928260019493602093869560009262000286575b5050600019600383901b1c191690841b178a555b01970194019395620001fe565b01519050388062000265565b908960005260206000209160005b601f1985168110620002ee575083602093600196938796938794601f19811610620002d4575b505050811b018a5562000279565b015160001960f88460031b161c19169055388080620002c6565b91926020600181928685015181550194019201620002a0565b896000526020600020601f840160051c81016020851062000348575b601f830160051c820181106200033b57505062000241565b6000815560010162000323565b508062000323565b634e487b7160e01b600052602260045260246000fd5b90607f16906200022d565b634e487b7160e01b600052604160045260246000fd5b506101f4602f55600880546001600160a01b0319166001600160a01b03871617815560028054610100600160e81b0319169390911b610100600160a81b03169290921760a89190911b600160a81b600160e81b03161790556003553360009081526027602052604090819020805460ff19166001179055601e54601b5551615a1b9081620004aa823960805181613c2c0152f35b815162ffffff16602982015560209091019060010162000180565b604051631e4fbdf760e01b815260006004820152602490fd5b600080fd5b60405190606082016001600160401b038111838210176200037157604052565b60408051919082016001600160401b038111838210176200037157604052565b51906001600160a01b03821682036200044f5756fe6080604052600436101561001257600080fd5b60003560e01c8062cbdb00146140e3578063041d443e146140c55780630bd26e9214613ff05780630cc36c3614613ee55780631949542314613ec75780631a65058c14613c955780631fe543e314613bb9578063209ab71114613a4857806321874ae21461398a57806322af00fa146138ec57806326224c641461042c5780632d56657d146138755780632d816895146138575780632e1a7d4d146137845780633013ce291461375b578063323c6d541461330557806332e5b6d81461325257806338da7ead1461323457806339540b0a146131cb5780633b7ed734146131a75780633da3f922146131385780633f4ba83a146130ce5780633fb07a3b1461308e578063410fb08c14613068578063426e43821461304a578063429b62e51461300b578063497172be14612fdf5780634a38251414612fc25780634a4a6b4f14612fa45780634b0bddd214612f1c5780634ee36a8414612b5c5780635487ab5b14612b2b578063554df6341461250d5780635799ee2a14612185578063598bc486146121615780635c975abb1461213e578063627b07461461157c578063636218fc1461155e578063677bd9ff146113cf5780636826eef4146113ae5780636922d1e1146113375780636cd425a5146112ba5780636ff1c9bc1461121c578063715018a6146111c35780637687dd49146111a45780637cf210f1146111865780638068aa681461113c5780638456cb59146110e257806384ae48b51461104e5780638a0ab213146110305780638a50238114610f915780638c4d59d014610f735780638da5cb5b14610f4a578063907cb96c14610f00578063911d018914610ee257806392b5ba0b14610ec45780639329066c1461040e5780639398676d14610cdb57806394a4e23e14610cbd5780639a037aa014610c645780639c9ad21a14610bab578063a0ede5a414610b8a578063a11720ab14610b4b578063a3e56fa814610b1e578063a416f5ab14610b00578063ad5a601214610ad4578063b6b55f2514610a08578063bebe329d146109ea578063c9f6707e146109be578063cab11d5d146109a0578063cd6eaf1214610982578063db0ca0b4146108e7578063dc158efa146108c9578063e5286cab14610884578063e74579b114610804578063e92820e6146107ab578063e9715de91461078d578063ed647d2114610763578063ee03ac4014610745578063ee99678414610523578063f2fde38b1461049d578063f33ce32514610466578063f8b2cb4f1461042c578063f9cee0bd1461040e578063fa968eea146103f05763fecf615d146103cd57600080fd5b346103eb5760003660031901126103eb576020602154604051908152f35b600080fd5b346103eb5760003660031901126103eb576020600a54604051908152f35b346103eb5760003660031901126103eb576020601b54604051908152f35b346103eb5760203660031901126103eb576001600160a01b0361044d61433d565b1660005260096020526020604060002054604051908152f35b346103eb5760203660031901126103eb57610482600435615944565b6040805160ff939093168352602083019190915290f35b0390f35b346103eb5760203660031901126103eb576104b661433d565b6104be614401565b6001600160a01b0390811690811561050a576000548260018060a01b0319821617600055167f8be0079c531659141344cd1fd0a4f28419497f9722a3daafe3b4186f6b6457e0600080a3005b604051631e4fbdf760e01b815260006004820152602490fd5b346103eb576020806003193601126103eb5760043590336000526027815260ff604060002054168015610731575b61055a906148bd565b81151580610725575b61056c9061442d565b8160005260138152604060002090600382019160ff835416600681101561070f576002036106ce57600a6105fd91018054600052600783526105b660ff60406000205416156148f5565b82600254600354906004549160006040518097819582946305d3b1d360e41b845261ffff63ffffffff8316928a1c16906001600160401b038860a81c169060048601614939565b039260081c6001600160a01b03165af19081156106c2578592600092610682575b5093816000805160206159a6833981519152955560ff19906003828254161790558160005260058452826040600020556007845260016040600020918254161790556000805160206159c68339815191528360405160008152a360405160038152a2005b925090508282813d81116106bb575b61069b818361421f565b810103126103eb57905184916000805160206159a683398151915261061e565b503d610691565b6040513d6000823e3d90fd5b60405162461bcd60e51b8152600481018390526019602482015278111c985dc81b5d5cdd0818994818db1bdcd95908199a5c9cdd603a1b6044820152606490fd5b634e487b7160e01b600052602160045260246000fd5b50600f54821115610563565b506000546001600160a01b03163314610551565b346103eb5760003660031901126103eb576020600e54604051908152f35b346103eb5760003660031901126103eb5760206001600160401b0360025460a81c16604051908152f35b346103eb5760003660031901126103eb576020602f54604051908152f35b346103eb5760403660031901126103eb576107c461433d565b6024359060018060a01b038091166000526031602052604060002080548310156103eb576020926107f49161412a565b9190546040519260031b1c168152f35b346103eb5760203660031901126103eb57600435600052601860205260e0604060002060018060a01b038154169060018101549060ff600382015416600482015460ff6005840154169160ff6007600686015495015416946040519687526020870152604086015260608501521515608084015260a083015260c0820152f35b346103eb5760e03660031901126103eb5761089d614401565b60043560205560248035602155604435602255606435602355608435905560a43560255560c435602655005b346103eb5760003660031901126103eb576020602554604051908152f35b346103eb5760803660031901126103eb576004356001600160401b03811681036103eb5760443563ffffffff81168091036103eb576064359161ffff831683036103eb57610933614401565b600254906001600160401b0360a81b9060a81b16906001600160401b0360a81b19161760025560243560035565ffff000000006004549260201b169165ffffffffffff19161717600455600080f35b346103eb5760003660031901126103eb576020602254604051908152f35b346103eb5760003660031901126103eb576020600b54604051908152f35b346103eb5760203660031901126103eb5760043560038110156103eb5760209060290154604051908152f35b346103eb5760003660031901126103eb576020602354604051908152f35b346103eb5760203660031901126103eb57600435610a246146cd565b610a2c6146af565b8015610a9a57600854610a4d908290309033906001600160a01b0316614611565b3360005260096020526040600020610a668282546145b9565b90556040519081527f2da466a7b24304f47e87fa2e1e5a81b9831ce54fec19055ce277ca2f39ba42c460203392a260018055005b60405162461bcd60e51b81526020600482015260126024820152710416d6f756e74206d757374206265203e20360741b6044820152606490fd5b346103eb5760203660031901126103eb5760043560005260066020526020604060002054604051908152f35b346103eb5760003660031901126103eb576020601054604051908152f35b346103eb5760003660031901126103eb5760025460405160089190911c6001600160a01b03168152602090f35b346103eb57610b5936614114565b906000526016602052604060002080548210156103eb57602091610b7c9161412a565b90546040519160031b1c8152f35b346103eb5760203660031901126103eb57610ba3614401565b600435601c55005b346103eb5760203660031901126103eb5760043533600052602760205260ff604060002054168015610c50575b610be1906148bd565b80151580610c44575b610bf39061442d565b8060005260136020526003604060002001805460ff811690600682101561070f57610c22600160029314615422565b60ff19161790556000805160206159a6833981519152602060405160028152a2005b50600f54811115610bea565b506000546001600160a01b03163314610bd8565b346103eb5760203660031901126103eb57600435610c80614401565b6103e88111610c8e57602f55005b60405162461bcd60e51b81526020600482015260076024820152664d61782031302560c81b6044820152606490fd5b346103eb5760003660031901126103eb576020600c54604051908152f35b346103eb576020806003193601126103eb5760043590336000526027815260ff604060002054168015610eb0575b610d12906148bd565b81151580610ea4575b610d24906146f0565b8160005260178152604060002090600382019160ff835416600581101561070f57600203610e5f5790600b610db7920192835460005260078252610d7060ff60406000205416156148f5565b81600254600354906004549160006040518098819582946305d3b1d360e41b845261ffff63ffffffff8316928a1c16906001600160401b038860a81c169060048601614939565b039260081c6001600160a01b03165af19283156106c257600093610e22575b50826000805160206159c683398151915293945560ff199060038282541617905583600052600682528460406000205560078252600160406000209182541617905560405160018152a3005b92508183813d8311610e58575b610e39818361421f565b810103126103eb576000805160206159c6833981519152925192610dd6565b503d610e2f565b60405162461bcd60e51b815260048101839052601c60248201527f4c6f7474657279206d75737420626520636c6f736564206669727374000000006044820152606490fd5b50601154821115610d1b565b506000546001600160a01b03163314610d09565b346103eb5760003660031901126103eb576020600f54604051908152f35b346103eb5760003660031901126103eb576020601e54604051908152f35b346103eb5760403660031901126103eb57610f1961433d565b6001600160a01b03166000908152601960205260409020805460243591908210156103eb57602091610b7c9161412a565b346103eb5760003660031901126103eb576000546040516001600160a01b039091168152602090f35b346103eb5760003660031901126103eb576020601254604051908152f35b346103eb5760203660031901126103eb5760043533600052602760205260ff60406000205416801561101c575b610fc7906148bd565b80151580611010575b610fd9906146f0565b60005260176020526003604060002001805460ff811690600582101561070f57611007600160029314615422565b60ff1916179055005b50601154811115610fd0565b506000546001600160a01b03163314610fbe565b346103eb5760003660031901126103eb576020601c54604051908152f35b346103eb5760003660031901126103eb576110676146cd565b33600052603060205260036040600020015480156110af57336000818152603060205260408120600301556008546110a99291906001600160a01b03166147c6565b60018055005b60405162461bcd60e51b815260206004820152600b60248201526a4e6f206561726e696e677360a81b6044820152606490fd5b346103eb5760003660031901126103eb576110fb614401565b6111036146af565b600160ff1960025416176002557f62e78cea01bee320cd4e420270b5ea74000d11b0c9f74754ebdbfc544b05a2586020604051338152a1005b346103eb5760403660031901126103eb5761115561433d565b6001600160a01b03166000908152601560205260409020805460243591908210156103eb57602091610b7c9161412a565b346103eb5760003660031901126103eb576020601d54604051908152f35b346103eb576111b236614114565b906111bb614401565b600a55600b55005b346103eb5760003660031901126103eb576111dc614401565b600080546001600160a01b0319811682556001600160a01b03167f8be0079c531659141344cd1fd0a4f28419497f9722a3daafe3b4186f6b6457e08280a3005b346103eb5760203660031901126103eb5761123561433d565b61123d614401565b6040516370a0823160e01b8152306004820152906001600160a01b03908116602083602481845afa9182156106c257600092611285575b611283935060005416906147c6565b005b91506020833d82116112b2575b8161129f6020938361421f565b810103126103eb57611283925191611274565b3d9150611292565b346103eb576020806003193601126103eb5760043560005260168152604060002090604051808383829554938481520190600052836000209260005b858282106113215750505061130d9250038361421f565b610499604051928284938452830190614360565b85548452600195860195889550930192016112f6565b346103eb576020806003193601126103eb576001600160a01b0361135961433d565b1660005260198152604060002090604051808383829554938481520190600052836000209260005b858282106113985750505061130d9250038361421f565b8554845260019586019588955093019201611381565b346103eb5760203660031901126103eb576113c7614401565b600435601e55005b346103eb576020806003193601126103eb576004356113ec6146cd565b806000526014825260406000209160018060a01b0380845416330361152a576005840180549461141f60ff8716156153a7565b60018101546000526013845260406000209160ff600384015416600681101561070f576004036114f05761145383836155e8565b9687156114bd576114ae9388600681957f5380cf6fe903b40c6d5a9e0dfbca2f3a423f0a21520b4d5947ed5169bdba946d999895600160099660ff19161790550155016114a18382546145b9565b90553390600854166147c6565b6040519384523393a360018055005b60405162461bcd60e51b815260048101879052600b60248201526a4e6f2077696e6e696e677360a81b6044820152606490fd5b60405162461bcd60e51b8152600481018690526012602482015271111c985dc81b9bdd0818dbdb5c1b195d195960721b6044820152606490fd5b60405162461bcd60e51b815260048101839052600c60248201526b139bdd081e5bdd5c8818995d60a21b6044820152606490fd5b346103eb5760003660031901126103eb576020601f54604051908152f35b346103eb5760403660031901126103eb576004356001600160401b0381116103eb57366023820112156103eb576001600160401b038160040135116103eb57366024826004013560051b830101116103eb57602435906001600160401b0382116103eb57366023830112156103eb576001600160401b038260040135116103eb57366024836004013560081b840101116103eb576116186146cd565b6116206146af565b806004013515801590612131575b156120ff576000805b826004013581106120d057506000601c545b846004013582106120b5575050336000526009602052806040600020541061207257336000526009602052604060002061168482825461446f565b90556116938260040135614837565b9160005b81600401358110611c7e5750506116b18360040135614837565b926000905b80600401358210611741576117338461049987867e17cb6963158f82da6470841f98536ec1a6e4d71f82e30c65c1d69a6c23e1306040516060815261170f6117016060830188614360565b828103602084015285614360565b9260408201528033930390a260018055604051938493604085526040850190614360565b908382036020850152614360565b909260248460081b83010135151580611c68575b61175e906146f0565b60248460081b83010135600052601760205260406000209460ff600387015416600581101561070f5760016117939114614735565b6117ae6117a760028801546028549061446f565b4210614774565b600960ff6117c46101048860081b8701016148af565b1611611c31576000939193955b60ff8716926006958685101561191157600160ff6117ff6117fa8860448d60081b8c0101615384565b6148af565b161015806118ef575b156118b35761181689615395565b60ff81168881101561189a5760ff8061184f6117fa8d9460448d6118446117fa8f848b60081b850101615384565b9760081b0101615384565b169116146118655761186090615373565b611816565b60405162461bcd60e51b815260206004820152600d60248201526c4e6f206475706c69636174657360981b6044820152606490fd5b505093509450956118aa90615373565b959391936117d1565b60405162461bcd60e51b81526020600482015260146024820152734e756d62657273206d75737420626520312d343960601b6044820152606490fd5b50603160ff6119096117fa8860448d60081b8c0101615384565b161115611808565b969350945090955061192460125461450c565b8060125561193a6101048460081b8601016148af565b906040519161194883614197565b33835260248560081b870101356020840152604051611966816141ce565b80366101048860081b8a0101116103eb5760448760081b890101905b6101048860081b8a01018210611c195750509060ff916040850152166060830152426080830152600060a0830152600060c0830152600060e0830152600052601860205260406000209060018060a01b0381511660018060a01b031983541617825560208101516001830155604081015160009060005b60068110611beb57505060028301556003820160ff6060830151169060ff19918282541617905560808201516004840155611a4960a08301511515600585019060ff801983541691151516179055565b60c0820151600684015560ff60e060078095019301511690825416179055336000526019602052611a81604060002060125490614584565b60248360081b85010135600052601a602052611aa4604060002060125490614584565b8101611ab0815461450c565b9055611ac46008601c5492019182546145b9565b9055611afe601c54612710611adb601d54836147b3565b04601b805490611aeb83836145b9565b601f541015611ba7575b5050503361582d565b601254611b136101048360081b8501016148af565b604051908160448560081b8701016000915b60068310611b87575050509060ff611b819493921660c082015260248360081b8601013590827f34a33e2dd210a7f0f3190aafee6788065bd4a3b799c99e81a15bc4699dc21e4060e03393a4611b7b8288614869565b5261450c565b906116b6565b60208060019260ff611b9886614394565b16815201920192019190611b25565b82611bd57fb0d06ccaa4821f41669bcc9a049d35783663cd32e846ae89a27dc9835330ce1a946040946145b9565b80925582519182526020820152a1878080611af5565b90916020611c106001928460ff875116919060ff809160031b9316831b921b19161790565b930191016119f9565b60208091611c2684614394565b815201910190611982565b60405162461bcd60e51b815260206004820152600f60248201526e4b6579206d75737420626520302d3960881b6044820152606490fd5b50601154600885901b8301602401351115611755565b611c9081836004013560248501614815565b8035151580612065575b611ca39061442d565b80356000526013602052604060002060ff600382015416600681101561070f5760010361203057611ce5611cde60028301546028549061446f565b4210614492565b600a546060830135101580612020575b611cfe906144cf565b6003602083013510156103eb57611d26611d1b604084018461487d565b90602085013561546a565b611d3160105461450c565b80601055611d42604084018461487d565b6040519192611d50836141b3565b338352611d796020840194873586526040850193611d7260208a01358661451b565b3691614527565b606084015260608601356080840152600060a0840152600060c0840152600052601460205260406000209260018060a01b0383511660018060a01b031985541617845551600184015551600381101561070f57600283019060ff8019835416911617905560608101518051906001600160401b03821161200a57611e006003850154614142565b90601f91828111611fcd575b506020918311600114611f4f57611f3f97969593836008969460069460c094600092611f44575b50508160011b916000199060031b1c19161760038501555b60808101516004850155611e7460a08201511515600586019060ff801983541691151516179055565b0151910155336000526015602052611e93604060002060105490614584565b82356000526016602052611eae604060002060105490614584565b60078101611ebc815461450c565b905501611ece606083013582546145b9565b9055611ede60608201353361582d565b611f3260105491827ff8873d4bfa04c03bc66a123371f2557a80126790097f9d18cbc1eb7233da238e611f14604084018461487d565b949093604051918183923597339760206060840135930135856145e7565b0390a4611b7b8287614869565b611697565b015190508f80611e33565b906003850160005260206000209160005b601f1985168110611fb557509360018460069460c094611f3f9c9b9a9860089a98601f19811610611f9c575b505050811b016003850155611e4b565b015160001960f88460031b161c191690558f8080611f8c565b91926020600181928685015181550194019201611f60565b611ffb906003870160005260206000208480870160051c82019260208810612001575b0160051c019061456d565b8c611e0c565b92508192611ff0565b634e487b7160e01b600052604160045260246000fd5b50600b5460608301351115611cf5565b60405162461bcd60e51b815260206004820152600d60248201526c223930bb903737ba1037b832b760991b6044820152606490fd5b50600f5481351115611c9a565b60405162461bcd60e51b815260206004820152601b60248201527a496e73756666696369656e7420657363726f772062616c616e636560281b6044820152606490fd5b90916120c4826120ca926145b9565b9261450c565b90611649565b906120f46120fa9160606120ec85876004013560248901614815565b0135906145b9565b9161450c565b611637565b60405162461bcd60e51b815260206004820152600a602482015269115b5c1d1e4818d85c9d60b21b6044820152606490fd5b508160040135151561162e565b346103eb5760003660031901126103eb57602060ff600254166040519015158152f35b346103eb5760003660031901126103eb57602060045461ffff60405191831c168152f35b346103eb57612193366143cf565b909133600052602760205260ff6040600020541680156124f9575b6121b7906148bd565b6121c24283116153e5565b6121cd60115461450c565b92836011556040519360c085018581106001600160401b0382111761200a576040526000855260006020860152600060408601526000606086015260006080860152600060a0860152604051946101a086018681106001600160401b0382111761200a57604052818652612242368486614527565b6020870152846040870152600160608701526080860152600060a0860152600060c0860152600060e086015260006101008601526000610120860152600061014086015260006101608601526000610180860152600052601760205260406000208451815560208501518051906001600160401b03821161200a5781906122cc6001850154614142565b601f81116124b9575b50602090601f83116001146124475760009261243c575b50508160011b916000199060031b1c19161760018201555b604085015160028201556060850151600581101561070f57600382019060ff8019835416911617905560808501519460009560005b6006811061240e575050610180600c917f3433f759b0701674c603c0f151b43eca229255c3b1f6b1437c82de5a4ec6df59969760048501556005840160ff60a08301511660ff1982541617905560c0810151600685015560e08101516007850155610100810151600885015561012081015160098501556123d06101408201511515600a86019060ff801983541691151516179055565b610160810151600b850155015191015560115493601b546123fe6040519485946060865260608601916145c6565b91602084015260408301520390a2005b909660206124336001928460ff8c5116919060ff809160031b9316831b921b19161790565b98019101612339565b0151905087806122ec565b9250600184016000526020600020906000935b601f198416851061249e576001945083601f19811610612485575b505050811b016001820155612304565b015160001960f88460031b161c19169055878080612475565b8181015183556020948501946001909301929091019061245a565b6124e990600186016000526020600020601f850160051c810191602086106124ef575b601f0160051c019061456d565b886122d5565b90915081906124dc565b506000546001600160a01b031633146121ae565b346103eb5761251b366143cf565b909133600052602760205260ff604060002054168015612b17575b61253f906148bd565b61254a4283116153e5565b612555600f5461450c565b9283600f556040519361018085018581106001600160401b0382111761200a57604052808552612586368385614527565b6020860152836040860152600160608601526040516125a4816141e9565b6000815260808601526040516125b9816141e9565b6000815260a08601526040516125ce816141e9565b6000815260c0860152600060e08601526000610100860152600061012086015260006101408601526000610160860152600052601360205260406000208451815560208501518051906001600160401b03821161200a5781906126346001850154614142565b601f8111612ae2575b50602090601f8311600114612a7057600092612a65575b50508160011b916000199060031b1c19161760018201555b60408501516002820155600381016060860151600681101561070f5760ff8019835416911617905560808501518051906001600160401b03821161200a5781906126b96004850154614142565b601f8111612a30575b50602090601f83116001146129be576000926129b3575b50508160011b916000199060031b1c19161760048201555b60a08501518051906001600160401b03821161200a5781906127166005850154614142565b601f811161297e575b50602090601f831160011461290c57600092612901575b50508160011b916000199060031b1c19161760058201555b60c08501519485516001600160401b03811161200a576127716006840154614142565b601f81116128cc575b506020601f821160011461283557918161016092600b947f7422a3316e28b0bc364bf8dada8bba9e211cb7a96513c7741e5af87b4ebf451f999a60009261282a575b50508160011b916000199060031b1c19161760068501555b60e0810151600785015561010081015160088501556101208101516009850155610140810151600a8501550151910155600f549361281f6040519384936040855260408501916145c6565b9060208301520390a2005b015190508a806127bc565b6006840160005260206000209760005b601f19841681106128b45750827f7422a3316e28b0bc364bf8dada8bba9e211cb7a96513c7741e5af87b4ebf451f9899600b959360019361016096601f1981161061289b575b505050811b0160068501556127d4565b015160001960f88460031b161c191690558a808061288b565b828201518a5560019099019860209283019201612845565b6128fb90600685016000526020600020601f840160051c810191602085106124ef57601f0160051c019061456d565b8761277a565b015190508780612736565b9250600584016000526020600020906000935b601f1984168510612963576001945083601f1981161061294a575b505050811b01600582015561274e565b015160001960f88460031b161c1916905587808061293a565b8181015183556020948501946001909301929091019061291f565b6129ad90600586016000526020600020601f850160051c810191602086106124ef57601f0160051c019061456d565b8861271f565b0151905087806126d9565b9250600484016000526020600020906000935b601f1984168510612a15576001945083601f198116106129fc575b505050811b0160048201556126f1565b015160001960f88460031b161c191690558780806129ec565b818101518355602094850194600190930192909101906129d1565b612a5f90600486016000526020600020601f850160051c810191602086106124ef57601f0160051c019061456d565b886126c2565b015190508780612654565b9250600184016000526020600020906000935b601f1984168510612ac7576001945083601f19811610612aae575b505050811b01600182015561266c565b015160001960f88460031b161c19169055878080612a9e565b81810151835560209485019460019093019290910190612a83565b612b1190600186016000526020600020601f850160051c810191602086106124ef57601f0160051c019061456d565b8861263d565b506000546001600160a01b03163314612536565b346103eb5760203660031901126103eb576004356000526007602052602060ff604060002054166040519015158152f35b346103eb5760803660031901126103eb57600360243510156103eb576001600160401b036044358181116103eb57612b989036906004016143a2565b612ba06146cd565b612ba86146af565b600435151580612f0e575b612bbc9061442d565b6004356000526013602052604060002060ff600382015416600681101561070f57600103612ed657612bf8611cde60028301546028549061446f565b600a54606435101580612ec8575b612c0f906144cf565b612c1c828460243561546a565b6008546001600160a01b0390612c3b9060643590309033908516614611565b612c4660105461450c565b8060105560405190612c57826141b3565b3382526020820160043581526040830190612c746024358361451b565b612c7f36888a614527565b92606085019384526064356080860152600060a0860152600060c0860152600052601460205260406000209484511660018060a01b0319865416178555516001850155600284019051600381101561070f5760ff801983541691161790555195865190811161200a57612cf56003840154614142565b601f8111612e93575b506020601f8211600114612e1b57918160c092600694600898999a600092612e10575b50508160011b916000199060031b1c19161760038501555b60808101516004850155612d6260a08201511515600586019060ff801983541691151516179055565b0151910155336000526015602052612d81604060002060105490614584565b6004356000526016602052612d9d604060002060105490614584565b60078101612dab815461450c565b905501612dbb60643582546145b9565b9055612dc96064353361582d565b6010547ff8873d4bfa04c03bc66a123371f2557a80126790097f9d18cbc1eb7233da238e60405180612e0760043596339660643591602435856145e7565b0390a460018055005b015190508a80612d21565b6003840160005260206000209760005b601f1984168110612e7b57508260089798996006959360019360c096601f19811610612e62575b505050811b016003850155612d39565b015160001960f88460031b161c191690558a8080612e52565b828201518a5560019099019860209283019201612e2b565b612ec290600385016000526020600020601f840160051c810191602085106124ef57601f0160051c019061456d565b87612cfe565b50600b546064351115612c06565b60405162461bcd60e51b815260206004820152601060248201526f223930bb9034b9903737ba1037b832b760811b6044820152606490fd5b50600f546004351115612bb3565b346103eb5760403660031901126103eb57612f3561433d565b60243590811515908183036103eb577f235bc17e7930760029e9f4d860a2a8089976de5b381cf8380fc11c1d88a1113391612f9b602092612f74614401565b60018060a01b031694856000526027845260406000209060ff801983541691151516179055565b604051908152a2005b346103eb5760003660031901126103eb576020601154604051908152f35b346103eb5760003660031901126103eb5760208054604051908152f35b346103eb5760203660031901126103eb5760043560005260056020526020604060002054604051908152f35b346103eb5760203660031901126103eb576001600160a01b0361302c61433d565b166000526027602052602060ff604060002054166040519015158152f35b346103eb5760003660031901126103eb576020602854604051908152f35b346103eb5760203660031901126103eb5760206130866004356158e7565b604051908152f35b346103eb5760203660031901126103eb5760043560038110156103eb576130ba61049991602c01614240565b6040519182916020835260208301906142e6565b346103eb5760003660031901126103eb576130e7614401565b60025460ff8116156131265760ff19166002557f5db9ee0a495bf2e6ff9c91a7834c1ba4fdd244a5e8aa4e537bd38aeae4b073aa6020604051338152a1005b604051638dfc202b60e01b8152600490fd5b346103eb5760203660031901126103eb57600435613154614401565b601b54811061316257601f55005b60405162461bcd60e51b815260206004820152601e60248201527f436170206d757374206265203e3d2063757272656e74206a61636b706f7400006044820152606490fd5b346103eb5760003660031901126103eb57602063ffffffff60045416604051908152f35b346103eb5760203660031901126103eb5760a06001600160a01b03806131ef61433d565b16600052603060205260406000209081541690600181015490600281015460046003830154920154926040519485526020850152604084015260608301526080820152f35b346103eb5760003660031901126103eb576020600d54604051908152f35b346103eb576020806003193601126103eb576001600160a01b03908161327661433d565b1660005260318152604060002060405191828183549182815201908193600052826000209060005b8181106132ef57505050836132b491038461421f565b60405192818401908285525180915260408401929160005b8281106132d95785850386f35b83518716855293810193928101926001016132cc565b825488168452928401926001928301920161329e565b346103eb576101003660031901126103eb573660e4116103eb5760e43560ff811681036103eb576133346146cd565b61333c6146af565b60043515158061374d575b613350906146f0565b600435600052601760205260406000209060ff600383015416600581101561070f57600161337e9114614735565b6133926117a760028401546028549061446f565b600960ff821611611c315760005b600660ff821610158061347357600160ff6133c4611fe08560051b166024016148af565b16101580613450575b156118b3576133db82615395565b600660ff8216106133f65750506133f190615373565b6133a0565b8161343a5761340e611fe08460051b166024016148af565b60ff80613424611fe08560051b166024016148af565b169116146118655761343590615373565b6133db565b634e487b7160e01b600052603260045260246000fd5b50506000603160ff61346b611fe08560051b166024016148af565b1611156133cd565b600854601c548491869161349391309033906001600160a01b0316614611565b61349e60125461450c565b9081601255604051916134b083614197565b33835260043560208401526040516134c7816141ce565b6024815b60e48210613735575050604084015260ff84166060840152426080840152600060a0840152600060c0840152600060e0840152600052601860205260406000209160018060a01b0381511660018060a01b031984541617835560208101516001840155604081015160009060005b6006811061370757505060028401556003830160ff6060830151169060ff1991828254161790556080820151600485015561358960a08301511515600586019060ff801983541691151516179055565b60ff60e0600760c085015196600697888201550193015116908254161790553360005260196020526135c2604060002060125490614584565b600435600052601a6020526135de604060002060125490614584565b600781016135ec815461450c565b90556136006008601c5492019182546145b9565b905561363f601c54612710613617601d54836147b3565b04601b5461362582826145b9565b601f548091116136f3575b50816136ae575b50503361582d565b60125491604051918260246000915b83831061368e5760ff851660c087015260043533887f34a33e2dd210a7f0f3190aafee6788065bd4a3b799c99e81a15bc4699dc21e4060e08aa460018055005b60208060019260ff61369f86614394565b1681520192019201919061364e565b816136dc7fb0d06ccaa4821f41669bcc9a049d35783663cd32e846ae89a27dc9835330ce1a936040936145b9565b9081601b5582519182526020820152a18480613637565b819250906137009161446f565b9086613630565b9091602061372c6001928460ff875116919060ff809160031b9316831b921b19161790565b93019101613539565b6020809161374284614394565b8152019101906134cb565b506011546004351115613347565b346103eb5760003660031901126103eb576008546040516001600160a01b039091168152602090f35b346103eb5760203660031901126103eb576004356137a06146cd565b336000526009602052806040600020541061381b5733600052600960205260406000206137ce82825461446f565b90556008546137e990829033906001600160a01b03166147c6565b6040519081527f7084f5476618d8e60b11ef0d7d3f06914655adb8793e28ff7f018d4c76d505d560203392a260018055005b60405162461bcd60e51b8152602060048201526014602482015273496e73756666696369656e742062616c616e636560601b6044820152606490fd5b346103eb5760003660031901126103eb576020602454604051908152f35b346103eb576020806003193601126103eb576001600160a01b0361389761433d565b1660005260158152604060002090604051808383829554938481520190600052836000209260005b858282106138d65750505061130d9250038361421f565b85548452600195860195889550930192016138bf565b346103eb5760203660031901126103eb576004356000526014602052604060002060018060a01b0381541660018201549160ff60028201541661393160038301614240565b91613974600482015493613963600660ff60058601541694015494604051988998895260208901526040880190614353565b60e0606087015260e08601906142e6565b926080850152151560a084015260c08301520390f35b346103eb5760203660031901126103eb5760a06139a561433d565b600060806040516139b58161417c565b8281528260208201528260408201528260608201520152600180831b038091166000526030602052604060002090604051906139f08261417c565b8254169182825260018101546020830190815260028201549060408401918252608060046003850154946060870195865201549401938452604051948552516020850152516040840152516060830152516080820152f35b346103eb576020806003193601126103eb576001600160a01b039081613a6c61433d565b16338114613b7c578015613b445733600052603082528260406000205416613b0a5790603191336000526030825260406000208160018060a01b0319825416178155600442910155806000526001604060002001613aca815461450c565b90556000525260406000208054600160401b81101561200a57613af29160018201815561412a565b819291549060031b9133831b921b1916179055600080f35b60405162461bcd60e51b8152600481018390526012602482015271105b1c9958591e481c9959da5cdd195c995960721b6044820152606490fd5b60405162461bcd60e51b815260048101839052601060248201526f24b73b30b634b2103932b332b93932b960811b6044820152606490fd5b60405162461bcd60e51b815260048101839052601560248201527421b0b73737ba103932b332b9103cb7bab939b2b63360591b6044820152606490fd5b346103eb5760403660031901126103eb576024356001600160401b0381116103eb57366023820112156103eb57806004013590613bf582614326565b90613c03604051928361421f565b82825260209260248484019160051b830101913683116103eb57602401905b828210613c8657837f00000000000000000000000000000000000000000000000000000000000000006001600160a01b031633819003613c685761128382600435614970565b6044906040519063073e64fd60e21b82523360048301526024820152fd5b81358152908401908401613c22565b346103eb576020806003193601126103eb57600435613cb26146cd565b6000818152601883526040902080546001600160a01b0392919083163303613e90576005810192835494613ce960ff8716156153a7565b60019586840190815460005260178352604060002060ff600382015416600581101561070f57600403613e5357613d20818761569a565b9690988715613e235793879591938b613dc79894818d60ff60077f6454b890e6df04ed2b48ec8ba08dddf37aae6d6446859a1291411ecd54b659b29e9a613da99c858419809a161790558b600682015501911690818682541617905560098301613d8b8a82546145b9565b90551480613e14575b613dce575b50505050503390600854166147c6565b6040519182913396836020909392919360ff60408201951681520152565b0390a38055005b600a0191825416179055601e54601b55547ff75adeadf04a8ca4130d3774f98bdb151c71b80eb8ee92a224bced1c538e9408604051928584523393a38980808b81613d99565b5060ff600a8201541615613d94565b60405162461bcd60e51b81526004810187905260086024820152674e6f207072697a6560c01b6044820152606490fd5b60405162461bcd60e51b8152600481018590526015602482015274131bdd1d195c9e481b9bdd0818dbdb5c1b195d1959605a1b6044820152606490fd5b60405162461bcd60e51b815260048101859052600f60248201526e139bdd081e5bdd5c881d1a58dad95d608a1b6044820152606490fd5b346103eb5760003660031901126103eb576020602654604051908152f35b346103eb5760203660031901126103eb5760043560005260136020526040600020805490613f1560018201614240565b60028201549060ff60038401541692613f3060048201614240565b613f3c60058301614240565b90613f4960068401614240565b94600784015495600885015492600986015494613f83600b600a890154980154986040519c8d5260208d61018091829101528d01906142e6565b9360408c015260068a101561070f57613fb2613fce94613fc0938d9c60608e01528c60808184039101526142e6565b908a820360a08c01526142e6565b9088820360c08a01526142e6565b9460e08701526101008601526101208501526101408401526101608301520390f35b346103eb5760203660031901126103eb576004356000526017602052604060002080549061402060018201614240565b60028201549060ff6003840154169260ff6005820154166006820154600783015460088401549060098501549260ff600a870154169461407d600c600b890154980154986040519c8d5260208d61018091829101528d01906142e6565b9860408c015260058a101561070f578a9960608b015260808a015260a089015260c088015260e087015261010086015215156101208501526101408401526101608301520390f35b346103eb5760003660031901126103eb576020600354604051908152f35b346103eb576140f136614114565b90600052601a602052604060002080548210156103eb57602091610b7c9161412a565b60409060031901126103eb576004359060243590565b805482101561343a5760005260206000200190600090565b90600182811c92168015614172575b602083101461415c57565b634e487b7160e01b600052602260045260246000fd5b91607f1691614151565b60a081019081106001600160401b0382111761200a57604052565b61010081019081106001600160401b0382111761200a57604052565b60e081019081106001600160401b0382111761200a57604052565b60c081019081106001600160401b0382111761200a57604052565b602081019081106001600160401b0382111761200a57604052565b604081019081106001600160401b0382111761200a57604052565b90601f801991011681019081106001600160401b0382111761200a57604052565b906040519182600082549261425484614142565b9081845260019485811690816000146142c35750600114614280575b505061427e9250038361421f565b565b9093915060005260209081600020936000915b8183106142ab57505061427e93508201013880614270565b85548884018501529485019487945091830191614293565b91505061427e94506020925060ff191682840152151560051b8201013880614270565b919082519283825260005b848110614312575050826000602080949584010152601f8019910116010190565b6020818301810151848301820152016142f1565b6001600160401b03811161200a5760051b60200190565b600435906001600160a01b03821682036103eb57565b90600382101561070f5752565b90815180825260208080930193019160005b828110614380575050505090565b835185529381019392810192600101614372565b359060ff821682036103eb57565b9181601f840112156103eb578235916001600160401b0383116103eb57602083818601950101116103eb57565b60406003198201126103eb57600435906001600160401b0382116103eb576143f9916004016143a2565b909160243590565b6000546001600160a01b0316330361441557565b60405163118cdaa760e01b8152336004820152602490fd5b1561443457565b60405162461bcd60e51b8152602060048201526013602482015272111c985dc8191bd95cc81b9bdd08195e1a5cdd606a1b6044820152606490fd5b9190820391821161447c57565b634e487b7160e01b600052601160045260246000fd5b1561449957565b60405162461bcd60e51b815260206004820152600e60248201526d10995d1d1a5b99c818db1bdcd95960921b6044820152606490fd5b156144d657565b60405162461bcd60e51b815260206004820152600e60248201526d125b9d985b1a5908185b5bdd5b9d60921b6044820152606490fd5b600019811461447c5760010190565b600382101561070f5752565b9291926001600160401b03821161200a5760405191614550601f8201601f19166020018461421f565b8294818452818301116103eb578281602093846000960137010152565b818110614578575050565b6000815560010161456d565b8054600160401b81101561200a576145a19160018201815561412a565b819291549060031b91821b91600019901b1916179055565b9190820180921161447c57565b908060209392818452848401376000828201840152601f01601f1916010190565b949392916040926145fb8761460c94614353565b6060602088015260608701916145c6565b930152565b6040516323b872dd60e01b60208201526001600160a01b03928316602482015292909116604483015260648083019390935291815261427e916146538261417c565b906000602091828151910182855af1156106c2576000513d6146a657506001600160a01b0381163b155b6146845750565b604051635274afe760e01b81526001600160a01b039091166004820152602490fd5b6001141561467d565b60ff600254166146bb57565b60405163d93c066560e01b8152600490fd5b6002600154146146de576002600155565b604051633ee5aeb560e01b8152600490fd5b156146f757565b60405162461bcd60e51b8152602060048201526016602482015275131bdd1d195c9e48191bd95cc81b9bdd08195e1a5cdd60521b6044820152606490fd5b1561473c57565b60405162461bcd60e51b815260206004820152601060248201526f2637ba3a32b93c903737ba1037b832b760811b6044820152606490fd5b1561477b57565b60405162461bcd60e51b815260206004820152601060248201526f141d5c98da185cd95cc818db1bdcd95960821b6044820152606490fd5b8181029291811591840414171561447c57565b60405163a9059cbb60e01b60208201526001600160a01b03909216602483015260448083019390935291815260808101916001600160401b0383118284101761200a5761427e92604052614653565b919081101561343a5760051b81013590607e19813603018212156103eb570190565b9061484182614326565b61484e604051918261421f565b828152809261485f601f1991614326565b0190602036910137565b805182101561343a5760209160051b010190565b903590601e19813603018212156103eb57018035906001600160401b0382116103eb576020019181360383136103eb57565b3560ff811681036103eb5790565b156148c457565b60405162461bcd60e51b81526020600482015260096024820152682737ba1030b236b4b760b91b6044820152606490fd5b156148fc57565b60405162461bcd60e51b815260206004820152601560248201527415949188185b1c9958591e481c995c5d595cdd1959605a1b6044820152606490fd5b90949363ffffffff9061ffff6001956001600160401b0360809660a087019a87521660208601521660408401521660608201520152565b919082600052600760205260ff60406000205416156152a457826000526007602052604060002060ff19815416905580511561343a576020015191807f936fe18cf1ae151e1bc53947d9b72671fb007ae8fb2ec8ad96d98a23c8d51dc16020604051868152a280600052600560205260406000205480614c685750600052600660205260406000205480614a0357509050565b9182600052601760205260406000209080600c8301559260405190614a27826141ce565b60c03683376000925b600660ff85161015614aea5760318606956001870180971161447c576040516020810191825260208152614a6381614204565b5190209060009560005b60ff811660ff8816811015614add5760ff614a8b818c169289615384565b511614614aa057614a9b90615373565b614a6d565b509291969093955060015b15614aba575b50909391614a30565b9360ff614ad6929516614ad060ff831688615384565b52615373565b9238614ab1565b5050929196909395614aab565b60009592949293505b60ff8616936005851015614b9557614b0a87615395565b60ff81166006811015614b815790614b449160ff614b28898b615384565b511660ff614b36838c615384565b511610614b49575b50615373565b614b0a565b614b7a60ff614b588a8c615384565b51169160ff614b67828d615384565b5116614b738b8d615384565b528a615384565b5238614b3e565b5050935094614b8f90615373565b94614af3565b600a9193965060ff929594500616908260009060005b60068110614c3a575050906003916004820155600581018360ff19825416179055601b54600682015501600460ff1982541617905560405191826000905b60068210614c21575050508160e09160c07f0660eb7e74391df8c47658e512cfca513f8ab5a3f1e191ffc960552bf229fe03940152a2565b60208060019260ff865116815201930191019091614be9565b90916020614c5f6001928460ff875116919060ff809160031b9316831b921b19161790565b93019101614bab565b809150600052601360205260406000209280600b8501556064810660405190614c9082614204565b6002825260208201906020368337600a8104603001918260301161447c5783511561343a57600a9260f81b6001600160f81b03191660001a9053066030018060301161447c5781516001101561343a5760f81b6001600160f81b03191660001a60218201538051906001600160401b03821161200a578190614d156004880154614142565b601f811161526f575b50602090601f83116001146151fd576000926151f2575b50508160011b916000199060031b1c19161760048501555b6040516020810191825260208152614d6481614204565b51902061038481066064810180911161447c5760405190614d8482614204565b60038252602082016020368237606482046030018060301161447c5783511561343a5760f81b6001600160f81b03191660001a9053600a80820406603001908160301161447c5782516001101561343a57600a9160f81b6001600160f81b03191660001a6021840153066030018060301161447c5781516002101561343a5760f81b6001600160f81b03191660001a60228201538051906001600160401b03821161200a57614e366005870154614142565b601f81116151bd575b50602090601f8311600114615149576123289392916000918361513e575b50508160011b916000199060031b1c19161760058601555b6040516020810191825260208152614e8c81614204565b51902006926103e88401841161447c5760405193614ea985614204565b600485526020850160203682376103e8808301046030018060301161447c5786511561343a5760f81b6001600160f81b03191660001a9053600a60646103e8830104066030018060301161447c5785516001101561343a5760f81b6001600160f81b03191660001a6021860153600a806103e8830104066030018060301161447c5785516002101561343a57600a916103e89160f81b6001600160f81b03191660001a602288015301066030018060301161447c5784516003101561343a5760f81b6001600160f81b03191660001a602385015383516001600160401b03811161200a57614f9a6006830154614142565b601f8111615109575b506020601f821160011461507357918161504a927f4cab5e734ebef082a0255b7313875fe2004541b62282a13fb40201e6d55a70b894869798600092615068575b50508160011b916000199060031b1c19161760068201555b60038101600460ff1982541617905560405191829160608352600661503b61502a60608601600485016152dd565b8581036020870152600584016152dd565b918483036040860152016152dd565b0390a26000805160206159a6833981519152602060405160048152a2565b015190503880614fe4565b6006830160005260206000209560005b601f19841681106150f15750828596977f4cab5e734ebef082a0255b7313875fe2004541b62282a13fb40201e6d55a70b8959360019361504a96601f198116106150d8575b505050811b016006820155614ffc565b015160001960f88460031b161c191690553880806150c8565b82820151885560019097019660209283019201615083565b61513890600684016000526020600020601f840160051c810191602085106124ef57601f0160051c019061456d565b38614fa3565b015190503880614e5d565b906005870160005260206000209160005b601f19851681106151a557509183916001936123289695601f1981161061518c575b505050811b016005860155614e75565b015160001960f88460031b161c1916905538808061517c565b9192602060018192868501518155019401920161515a565b6151ec90600588016000526020600020601f850160051c810191602086106124ef57601f0160051c019061456d565b38614e3f565b015190503880614d35565b9250600487016000526020600020906000935b601f1984168510615254576001945083601f1981161061523b575b505050811b016004850155614d4d565b015160001960f88460031b161c1916905538808061522b565b81810151835560209485019460019093019290910190615210565b61529e90600489016000526020600020601f850160051c810191602086106124ef57601f0160051c019061456d565b38614d1e565b60405162461bcd60e51b815260206004820152601160248201527014995c5d595cdd081b9bdd08199bdd5b99607a1b6044820152606490fd5b90600092918054916152ee83614142565b9182825260019384811690816000146153505750600114615310575b50505050565b90919394506000526020928360002092846000945b83861061533c57505050500101903880808061530a565b805485870183015294019385908201615325565b9294505050602093945060ff191683830152151560051b0101903880808061530a565b60ff1660ff811461447c5760010190565b90600681101561343a5760051b0190565b60ff60019116019060ff821161447c57565b156153ae57565b60405162461bcd60e51b815260206004820152600f60248201526e105b1c9958591e4818db185a5b5959608a1b6044820152606490fd5b156153ec57565b60405162461bcd60e51b815260206004820152600e60248201526d4d7573742062652066757475726560901b6044820152606490fd5b1561542957565b60405162461bcd60e51b81526020600482015260086024820152672737ba1037b832b760c11b6044820152606490fd5b90815181101561343a570160200190565b9190615477913691614527565b90600381101561070f578061555d57506002815103615527575b60005b8151811015615523576001600160f81b0319600360fc1b816154b68486615459565b511610159081615508575b50156154d5576154d09061450c565b615494565b60405162461bcd60e51b815260206004820152600b60248201526a4f6e6c792064696769747360a81b6044820152606490fd5b603960f81b91506155198385615459565b51161115386154c1565b5050565b60405162461bcd60e51b815260206004820152600e60248201526d46696a6f3a20322064696769747360901b6044820152606490fd5b6001036155a7576003815103156154915760405162461bcd60e51b815260206004820152601160248201527043656e74656e613a20332064696769747360781b6044820152606490fd5b6004815103156154915760405162461bcd60e51b815260206004820152600f60248201526e5061726c653a20342064696769747360881b6044820152606490fd5b600281015460ff166000600382101561568657508061565c57506156116004600c549301614240565b60405161562c8161562581600387016152dd565b038261421f565b60208151910120906020815191012014615647575050600090565b6127109160046156589201546147b3565b0490565b600103615677576156726005600d549301614240565b615611565b6156726006600e549301614240565b634e487b7160e01b81526021600452602490fd5b9091906000906004840160028201835b600660ff8181841610156157295760005b82828216106156d6575b5050506156d190615373565b6156aa565b81806156e28688615814565b9054906156ef858b615814565b949054600395861b1c16931b1c16146157105761570b90615373565b6156bb565b505050936157206156d191615373565b949038806156c5565b505050505060ff60038192959394950154168160058401541614921690600682149081809261580d575b6157fe57506157f4576005811480806157ed575b6157e0576157d6576004811480806157cf575b6157c2576157b857600314809181926157b0575b506157a75761579f57600090600090565b602654600891565b50602554600791565b90503861578e565b5050602454600691565b5050506023549060059190565b508261577a565b5050602254600491565b5050506021549060039190565b5082615767565b5050602054600291565b60060154600194909350915050565b5083615753565b919091600683101561343a57601f908360051c01921690565b6001600160a01b039081166000818152603060205260408120549193919092169190821515806158dc575b6158625750505050565b7fa6d05371a3daec878bf8c7ed5a16dbc19f0595497358c6beacf4c90478f1a74b916002604061271061589a602095602f54906147b3565b0492868152603085526003828220016158b48582546145b9565b90558681526030855220016158ca8282546145b9565b9055604051908152a33880808061530a565b50602f541515615858565b6000908152601460205260408120600181015482526013602052604082209060ff60038301541660068110156159305760040361592b5761592892506155e8565b90565b505090565b634e487b7160e01b84526021600452602484fd5b906000918252601860205260408220600181015483526017602052604083209060ff60038301541660058110156159915760040361598b5761598792935061569a565b9091565b50508190565b634e487b7160e01b85526021600452602485fdfe3fb14dcb75745b2fd6b729f1f6d005ff458435f4113b58be6e3dbf69cbcd394a70729b1530d81cb2f698363e030ece9bae966cffe435373e298dad8e7099f5bda2646970667358221220f8c4da26c424ce5d6a53204446c0d7aa4a700dbb0f3a8cf062fdfb2774d2979264736f6c63430008140033",
  "linkReferences": {},
  "deployedLinkReferences": {}
}